{"contracts/Debate.sol":{"AIDebate":{"abi":[{"inputs":[{"internalType":"address","name":"initialOwner","type":"address"},{"internalType":"address","name":"initialDeployer","type":"address"}],"stateMutability":"nonpayable","type":"constructor"},{"inputs":[],"name":"InvalidInitialization","type":"error"},{"inputs":[],"name":"NotInitializing","type":"error"},{"inputs":[{"internalType":"address","name":"owner","type":"address"}],"name":"OwnableInvalidOwner","type":"error"},{"inputs":[{"internalType":"address","name":"account","type":"address"}],"name":"OwnableUnauthorizedAccount","type":"error"},{"anonymous":false,"inputs":[{"indexed":true,"internalType":"uint256","name":"debateId","type":"uint256"},{"indexed":true,"internalType":"address","name":"bettor","type":"address"},{"indexed":false,"internalType":"uint256","name":"chosenAgentId","type":"uint256"},{"indexed":false,"internalType":"uint256","name":"amount","type":"uint256"},{"indexed":false,"internalType":"uint256","name":"platformFeePercentage","type":"uint256"}],"name":"BetPlaced","type":"event"},{"anonymous":false,"inputs":[{"indexed":true,"internalType":"uint256","name":"debateId","type":"uint256"},{"indexed":false,"internalType":"uint256","name":"agentAID","type":"uint256"},{"indexed":false,"internalType":"uint256","name":"agentBID","type":"uint256"},{"indexed":false,"internalType":"uint256","name":"platformFeePercentage","type":"uint256"},{"indexed":false,"internalType":"uint256","name":"publicTimeStamp","type":"uint256"},{"indexed":false,"internalType":"uint256","name":"startTimeStamp","type":"uint256"},{"indexed":false,"internalType":"uint256","name":"sessionDuration","type":"uint256"}],"name":"DebateCreated","type":"event"},{"anonymous":false,"inputs":[{"indexed":true,"internalType":"uint256","name":"debateId","type":"uint256"}],"name":"DebateDeleted","type":"event"},{"anonymous":false,"inputs":[{"indexed":true,"internalType":"uint256","name":"debateId","type":"uint256"}],"name":"DebateMarkedRefundable","type":"event"},{"anonymous":false,"inputs":[{"indexed":true,"internalType":"uint256","name":"debateId","type":"uint256"},{"indexed":false,"internalType":"uint256","name":"winnAgentId","type":"uint256"}],"name":"DebateResolved","type":"event"},{"anonymous":false,"inputs":[{"indexed":true,"internalType":"uint256","name":"debateId","type":"uint256"},{"indexed":false,"internalType":"uint256","name":"agentAID","type":"uint256"},{"indexed":false,"internalType":"uint256","name":"agentBID","type":"uint256"},{"indexed":false,"internalType":"uint256","name":"platformFeePercentage","type":"uint256"},{"indexed":false,"internalType":"uint256","name":"publicTimeStamp","type":"uint256"},{"indexed":false,"internalType":"uint256","name":"startTimeStamp","type":"uint256"},{"indexed":false,"internalType":"uint256","name":"sessionDuration","type":"uint256"}],"name":"DebateUpdated","type":"event"},{"anonymous":false,"inputs":[{"indexed":false,"internalType":"uint64","name":"version","type":"uint64"}],"name":"Initialized","type":"event"},{"anonymous":false,"inputs":[{"indexed":true,"internalType":"address","name":"previousOwner","type":"address"},{"indexed":true,"internalType":"address","name":"newOwner","type":"address"}],"name":"OwnershipTransferred","type":"event"},{"anonymous":false,"inputs":[{"indexed":true,"internalType":"uint256","name":"debateId","type":"uint256"},{"indexed":true,"internalType":"address","name":"bettor","type":"address"},{"indexed":false,"internalType":"uint256","name":"chosenAgentId","type":"uint256"},{"indexed":false,"internalType":"uint256","name":"amount","type":"uint256"}],"name":"UserClaimed","type":"event"},{"anonymous":false,"inputs":[{"indexed":true,"internalType":"uint256","name":"debateId","type":"uint256"},{"indexed":true,"internalType":"address","name":"bettor","type":"address"},{"indexed":false,"internalType":"uint256","name":"amount","type":"uint256"}],"name":"UserRefunded","type":"event"},{"anonymous":false,"inputs":[{"indexed":true,"internalType":"uint256","name":"debateId","type":"uint256"},{"indexed":false,"internalType":"uint256","name":"amountOfUsers","type":"uint256"}],"name":"refundSuccessful","type":"event"},{"inputs":[{"internalType":"address","name":"_mod","type":"address"}],"name":"addMod","outputs":[],"stateMutability":"nonpayable","type":"function"},{"inputs":[{"internalType":"uint256","name":"","type":"uint256"},{"internalType":"uint256","name":"","type":"uint256"}],"name":"addressJoinedList","outputs":[{"internalType":"address","name":"","type":"address"}],"stateMutability":"view","type":"function"},{"inputs":[{"internalType":"uint256","name":"_debateId","type":"uint256"},{"internalType":"uint256","name":"_agentAID","type":"uint256"},{"internalType":"uint256","name":"_agentBID","type":"uint256"},{"internalType":"uint256","name":"_platformFeePercentage","type":"uint256"},{"internalType":"uint256","name":"_publicTimeStamp","type":"uint256"},{"internalType":"uint256","name":"_startTimeStamp","type":"uint256"},{"internalType":"uint256","name":"_sessionDuration","type":"uint256"}],"name":"adminCreateDebate","outputs":[],"stateMutability":"nonpayable","type":"function"},{"inputs":[{"internalType":"uint256","name":"_debateId","type":"uint256"}],"name":"adminDeleteDebate","outputs":[],"stateMutability":"nonpayable","type":"function"},{"inputs":[{"internalType":"uint256","name":"_debateId","type":"uint256"}],"name":"adminMarkDebateRefundable","outputs":[],"stateMutability":"nonpayable","type":"function"},{"inputs":[{"internalType":"uint256","name":"_debateId","type":"uint256"}],"name":"adminProcessRefunds","outputs":[],"stateMutability":"nonpayable","type":"function"},{"inputs":[{"internalType":"uint256","name":"_debateId","type":"uint256"},{"internalType":"uint256","name":"_winAgentId","type":"uint256"}],"name":"adminResolveDebate","outputs":[],"stateMutability":"nonpayable","type":"function"},{"inputs":[{"internalType":"uint256","name":"_debateId","type":"uint256"},{"internalType":"uint256","name":"_agentAID","type":"uint256"},{"internalType":"uint256","name":"_agentBID","type":"uint256"},{"internalType":"uint256","name":"_platformFeePercentage","type":"uint256"},{"internalType":"uint256","name":"_publicTimeStamp","type":"uint256"},{"internalType":"uint256","name":"_startTimeStamp","type":"uint256"},{"internalType":"uint256","name":"_sessionDuration","type":"uint256"}],"name":"adminUpdateDebate","outputs":[],"stateMutability":"nonpayable","type":"function"},{"inputs":[{"internalType":"uint256","name":"","type":"uint256"},{"internalType":"address","name":"","type":"address"},{"internalType":"uint256","name":"","type":"uint256"}],"name":"betList","outputs":[{"internalType":"uint256","name":"debateId","type":"uint256"},{"internalType":"address","name":"bettor","type":"address"},{"internalType":"uint256","name":"amount","type":"uint256"},{"internalType":"uint256","name":"winAmount","type":"uint256"},{"internalType":"uint256","name":"chosenAgentId","type":"uint256"},{"internalType":"bool","name":"isClaimed","type":"bool"},{"internalType":"bool","name":"isRefunded","type":"bool"}],"stateMutability":"view","type":"function"},{"inputs":[{"internalType":"uint256","name":"","type":"uint256"}],"name":"debateList","outputs":[{"internalType":"bool","name":"isResolved","type":"bool"},{"internalType":"bool","name":"isRefundable","type":"bool"},{"internalType":"uint256","name":"winAgentId","type":"uint256"},{"internalType":"uint256","name":"platformFeePercentage","type":"uint256"},{"internalType":"uint256","name":"sessionDuration","type":"uint256"},{"internalType":"uint256","name":"startTimeStamp","type":"uint256"},{"internalType":"uint256","name":"publicTimeStamp","type":"uint256"},{"internalType":"uint256","name":"agentAID","type":"uint256"},{"internalType":"uint256","name":"agentBID","type":"uint256"},{"internalType":"uint256","name":"totalAgentABetAmount","type":"uint256"},{"internalType":"uint256","name":"totalAgentBBetAmount","type":"uint256"}],"stateMutability":"view","type":"function"},{"inputs":[],"name":"defaultPlatformFeePercentage","outputs":[{"internalType":"uint256","name":"","type":"uint256"}],"stateMutability":"view","type":"function"},{"inputs":[{"internalType":"uint256","name":"_debateId","type":"uint256"}],"name":"getDebateInfo","outputs":[{"components":[{"internalType":"bool","name":"isResolved","type":"bool"},{"internalType":"bool","name":"isRefundable","type":"bool"},{"internalType":"uint256","name":"winAgentId","type":"uint256"},{"internalType":"uint256","name":"platformFeePercentage","type":"uint256"},{"internalType":"uint256","name":"sessionDuration","type":"uint256"},{"internalType":"uint256","name":"startTimeStamp","type":"uint256"},{"internalType":"uint256","name":"publicTimeStamp","type":"uint256"},{"internalType":"uint256","name":"agentAID","type":"uint256"},{"internalType":"uint256","name":"agentBID","type":"uint256"},{"internalType":"uint256","name":"totalAgentABetAmount","type":"uint256"},{"internalType":"uint256","name":"totalAgentBBetAmount","type":"uint256"}],"internalType":"struct AIDebate.Debate","name":"","type":"tuple"}],"stateMutability":"view","type":"function"},{"inputs":[{"internalType":"uint256","name":"_debateId","type":"uint256"},{"internalType":"address","name":"_user","type":"address"},{"internalType":"uint256","name":"_agentId","type":"uint256"}],"name":"getUserRefundStatus","outputs":[{"internalType":"bool","name":"isRefunded","type":"bool"},{"internalType":"uint256","name":"amount","type":"uint256"}],"stateMutability":"view","type":"function"},{"inputs":[{"internalType":"uint256","name":"_debateId","type":"uint256"},{"internalType":"address","name":"_user","type":"address"}],"name":"getUserRefundableAmount","outputs":[{"internalType":"uint256","name":"","type":"uint256"}],"stateMutability":"view","type":"function"},{"inputs":[{"internalType":"uint256","name":"_debateId","type":"uint256"}],"name":"getUsersRefundInfo","outputs":[{"components":[{"internalType":"address","name":"user","type":"address"},{"internalType":"uint256","name":"amountOfRefund","type":"uint256"},{"internalType":"bool","name":"refunded","type":"bool"}],"internalType":"struct AIDebate.UserRefundInfo[]","name":"","type":"tuple[]"}],"stateMutability":"view","type":"function"},{"inputs":[{"internalType":"uint256","name":"_debateId","type":"uint256"}],"name":"isDebateRefundable","outputs":[{"internalType":"bool","name":"","type":"bool"}],"stateMutability":"view","type":"function"},{"inputs":[{"internalType":"uint256","name":"","type":"uint256"}],"name":"modList","outputs":[{"internalType":"address","name":"","type":"address"}],"stateMutability":"view","type":"function"},{"inputs":[],"name":"owner","outputs":[{"internalType":"address","name":"","type":"address"}],"stateMutability":"view","type":"function"},{"inputs":[{"internalType":"uint256","name":"_debateId","type":"uint256"},{"internalType":"uint256","name":"_amount","type":"uint256"},{"internalType":"uint256","name":"_chosenAgent","type":"uint256"}],"name":"placeBet","outputs":[],"stateMutability":"payable","type":"function"},{"inputs":[{"internalType":"address","name":"_mod","type":"address"}],"name":"removeMod","outputs":[],"stateMutability":"nonpayable","type":"function"},{"inputs":[],"name":"renounceOwnership","outputs":[],"stateMutability":"nonpayable","type":"function"},{"inputs":[{"internalType":"address","name":"newOwner","type":"address"}],"name":"transferOwnership","outputs":[],"stateMutability":"nonpayable","type":"function"},{"inputs":[{"internalType":"uint256","name":"_debateId","type":"uint256"}],"name":"userClaim","outputs":[],"stateMutability":"nonpayable","type":"function"},{"inputs":[{"internalType":"uint256","name":"_debateId","type":"uint256"}],"name":"userRefund","outputs":[],"stateMutability":"nonpayable","type":"function"},{"inputs":[],"name":"withdrawAll","outputs":[],"stateMutability":"nonpayable","type":"function"},{"inputs":[{"internalType":"uint256","name":"_amount","type":"uint256"}],"name":"withdrawByAmount","outputs":[],"stateMutability":"nonpayable","type":"function"},{"inputs":[{"internalType":"uint256","name":"_debateId","type":"uint256"}],"name":"withdrawByID","outputs":[],"stateMutability":"nonpayable","type":"function"}],"evm":{"bytecode":{"linkReferences":{},"object":"6080604052600560015561012c60025561070860035534801561002157600080fd5b5060405161300c38038061300c8339810160408190526100409161014f565b816001600160a01b03811661006f57604051631e4fbdf760e01b81526000600482015260240160405180910390fd5b610078816100e3565b50600480546001818101835560008390527f8a35acfbc15ff81a39ae7d344fd709f28e8600b4aa8c65c6b64bfe7fe36bd19b91820180546001600160a01b039687166001600160a01b0319918216179091558354918201909355018054929093169116179055610182565b600080546001600160a01b038381166001600160a01b0319831681178455604051919092169283917f8be0079c531659141344cd1fd0a4f28419497f9722a3daafe3b4186f6b6457e09190a35050565b80516001600160a01b038116811461014a57600080fd5b919050565b6000806040838503121561016257600080fd5b61016b83610133565b915061017960208401610133565b90509250929050565b612e7b806101916000396000f3fe60806040526004361061019c5760003560e01c806398a18707116100ec578063e386ee561161008a578063f674a9de11610064578063f674a9de146105bb578063fe43efda146105db578063fe695133146105fb578063fe84d4b61461061b57600080fd5b8063e386ee5614610568578063e71c969714610588578063f2fde38b1461059b57600080fd5b8063c1f639bd116100c6578063c1f639bd146104b6578063c42ab704146104d6578063c7f61c70146104f6578063c9c57ac41461052357600080fd5b806398a1870714610402578063a272fef414610422578063bfea80b21461044257600080fd5b80635521e9bf116101595780637a27fbb2116101335780637a27fbb21461038f578063853828b6146103af5780638da5cb5b146103c45780639048b53b146103e257600080fd5b80635521e9bf1461032d5780635b99a0121461034d578063715018a61461037a57600080fd5b806301a00216146101a15780632071a2d2146101c35780632839255414610200578063399383481461022057806343674131146102e95780634637de3c1461030d575b600080fd5b3480156101ad57600080fd5b506101c16101bc3660046129e2565b6106d3565b005b3480156101cf57600080fd5b506101e36101de366004612a04565b61072d565b6040516001600160a01b0390911681526020015b60405180910390f35b34801561020c57600080fd5b506101c161021b366004612a04565b610757565b34801561022c57600080fd5b5061029461023b366004612a04565b6005602081905260009182526040909120805460018201546002830154600384015460048501549585015460068601546007870154600888015460099098015460ff8089169a610100909904169896979596949594908b565b604080519b15158c5299151560208c0152988a01979097526060890195909552608088019390935260a087019190915260c086015260e0850152610100840152610120830152610140820152610160016101f7565b3480156102f557600080fd5b506102ff60015481565b6040519081526020016101f7565b34801561031957600080fd5b506101c16103283660046129e2565b6108bb565b34801561033957600080fd5b506101c1610348366004612a04565b6109c4565b34801561035957600080fd5b5061036d610368366004612a04565b610a28565b6040516101f79190612a1d565b34801561038657600080fd5b506101c1610b1f565b34801561039b57600080fd5b506101e36103aa366004612aa2565b610b33565b3480156103bb57600080fd5b506101c1610b6b565b3480156103d057600080fd5b506000546001600160a01b03166101e3565b3480156103ee57600080fd5b506101c16103fd366004612aa2565b610ba1565b34801561040e57600080fd5b506101c161041d366004612ac4565b610f10565b34801561042e57600080fd5b506102ff61043d366004612b10565b6110c9565b34801561044e57600080fd5b5061049f61045d366004612b3c565b60009283526006602090815260408085206001600160a01b03949094168552928152828420918452529020600581015460029091015461010090910460ff1691565b6040805192151583526020830191909152016101f7565b3480156104c257600080fd5b506101c16104d1366004612a04565b6111ef565b3480156104e257600080fd5b506101c16104f1366004612a04565b61146f565b34801561050257600080fd5b50610516610511366004612a04565b611562565b6040516101f79190612b72565b34801561052f57600080fd5b5061055861053e366004612a04565b600090815260056020526040902054610100900460ff1690565b60405190151581526020016101f7565b34801561057457600080fd5b506101c1610583366004612a04565b6117ec565b6101c1610596366004612bd9565b611b56565b3480156105a757600080fd5b506101c16105b63660046129e2565b612129565b3480156105c757600080fd5b506101c16105d6366004612ac4565b612167565b3480156105e757600080fd5b506101c16105f6366004612a04565b612349565b34801561060757600080fd5b506101c1610616366004612a04565b612600565b34801561062757600080fd5b50610692610636366004612b3c565b600660209081526000938452604080852082529284528284209052825290208054600182015460028301546003840154600485015460059095015493946001600160a01b03909316939192909160ff8082169161010090041687565b604080519788526001600160a01b0390961660208801529486019390935260608501919091526080840152151560a0830152151560c082015260e0016101f7565b6106db6127a9565b600480546001810182556000919091527f8a35acfbc15ff81a39ae7d344fd709f28e8600b4aa8c65c6b64bfe7fe36bd19b0180546001600160a01b0319166001600160a01b0392909216919091179055565b6004818154811061073d57600080fd5b6000918252602090912001546001600160a01b0316905081565b6000805b6004548110156107ad57336001600160a01b03166004828154811061078257610782612c05565b6000918252602090912001546001600160a01b0316036107a557600191506107ad565b60010161075b565b50806107d45760405162461bcd60e51b81526004016107cb90612c1b565b60405180910390fd5b60008281526005602081905260409091206003549181015490916107f791612c56565b42106108455760405162461bcd60e51b815260206004820152601d60248201527f43616e206e6f742072656d6f76652064656261746520616e796d6f726500000060448201526064016107cb565b60068101541580159061085b5750600781015415155b6108775760405162461bcd60e51b81526004016107cb90612c69565b600060058201819055600482018190556003820181905560405184917f80bed4ceeb2dfbd88f61cca1c30bc6dede3047d1862345ef30f1cbc44c2016d791a2505050565b6108c36127a9565b60005b6004548110156109c057816001600160a01b0316600482815481106108ed576108ed612c05565b6000918252602090912001546001600160a01b0316036109b8576004805461091790600190612c56565b8154811061092757610927612c05565b600091825260209091200154600480546001600160a01b03909216918390811061095357610953612c05565b9060005260206000200160006101000a8154816001600160a01b0302191690836001600160a01b03160217905550600480548061099257610992612ca0565b600082815260209020810160001990810180546001600160a01b03191690550190555050565b6001016108c6565b5050565b6109cc6127a9565b33478211156109ed5760405162461bcd60e51b81526004016107cb90612cb6565b6040516001600160a01b0382169083156108fc029084906000818181858888f19350505050158015610a23573d6000803e3d6000fd5b505050565b610a896040518061016001604052806000151581526020016000151581526020016000815260200160008152602001600081526020016000815260200160008152602001600081526020016000815260200160008152602001600081525090565b50600090815260056020818152604092839020835161016081018552815460ff8082161515835261010091829004161515938201939093526001820154948101949094526002810154606085015260038101546080850152600481015460a08501529182015460c0840152600682015460e084015260078201549083015260088101546101208301526009015461014082015290565b610b276127a9565b610b3160006127d6565b565b60076020528160005260406000208181548110610b4f57600080fd5b6000918252602090912001546001600160a01b03169150829050565b610b736127a9565b604051339081904780156108fc02916000818181858888f193505050501580156109c0573d6000803e3d6000fd5b6000805b600454811015610bf757336001600160a01b031660048281548110610bcc57610bcc612c05565b6000918252602090912001546001600160a01b031603610bef5760019150610bf7565b600101610ba5565b5080610c155760405162461bcd60e51b81526004016107cb90612c1b565b6000838152600560205260409020805460ff1615610c755760405162461bcd60e51b815260206004820152601a60248201527f44656261746520697320616c7265616479207265736f6c76656400000000000060448201526064016107cb565b8060060154831480610c8a5750806007015483145b610cc65760405162461bcd60e51b815260206004820152600d60248201526c125b9d985b1a59081859d95b9d609a1b60448201526064016107cb565b805460ff191660019081178255810183905560098101546008820154600091610cee91612ceb565b905060008260020154612710610d049190612c56565b905060005b600087815260076020526040902054811015610ecd576000878152600760205260408120805483908110610d3f57610d3f612c05565b60009182526020808320909101548a83526006825260408084206001600160a01b039092168085529183528084208b85529092529120600481015491925090889003610ec357600086600601548260040154148015610da057506008870154155b15610dc957612710858360020154610db89190612cfe565b610dc29190612d15565b9050610e07565b86600701548260040154148015610de257506009870154155b15610e0757612710858360020154610dfa9190612cfe565b610e049190612d15565b90505b86600601548260040154148015610e22575060008760080154115b15610e64576008870154610e3890612710612cfe565b85878460020154610e499190612cfe565b610e539190612cfe565b610e5d9190612d15565b9050610ebd565b86600701548260040154148015610e7f575060008760090154115b15610ebd576009870154610e9590612710612cfe565b85878460020154610ea69190612cfe565b610eb09190612cfe565b610eba9190612d15565b90505b60038201555b5050600101610d09565b50857fb6284c12d8a21c06155f14e4b5a2c21bdd2a90abcd3b5d0ada8275279cb0ca6f86604051610f0091815260200190565b60405180910390a2505050505050565b6000805b600454811015610f6657336001600160a01b031660048281548110610f3b57610f3b612c05565b6000918252602090912001546001600160a01b031603610f5e5760019150610f66565b600101610f14565b5080610f845760405162461bcd60e51b81526004016107cb90612c1b565b6000888152600560205260409020600681015415801590610fa85750600781015415155b610fc45760405162461bcd60e51b81526004016107cb90612c69565b6003548160050154610fd69190612c56565b42106110245760405162461bcd60e51b815260206004820152601d60248201527f43616e206e6f74206d6f646966792064656261746520616e796d6f726500000060448201526064016107cb565b60068101889055600781018790556000869003611048576001546002820155611050565b600281018690555b6005810185905560048101849055600381018390556040805189815260208101899052908101879052606081018690526080810185905260a0810184905289907f5ad787ff0ab90867aa98c2a81caff732533e80b06f4c6910994cf0c8918d17fc9060c0015b60405180910390a2505050505050505050565b60008281526005602052604081208054610100900460ff1615806110ee5750805460ff165b156110fd5760009150506111e9565b60008481526006602081815260408084206001600160a01b03881685528252808420928501548452919052812060028101541580159061114757506005810154610100900460ff16155b80156111585750600581015460ff16155b1561116f57600281015461116c9083612ceb565b91505b60008681526006602090815260408083206001600160a01b038916845282528083206007870154845290915290206002810154158015906111ba57506005810154610100900460ff16155b80156111cb5750600581015460ff16155b156111e25760028101546111df9084612ceb565b92505b5090925050505b92915050565b6000805b60045481101561124557336001600160a01b03166004828154811061121a5761121a612c05565b6000918252602090912001546001600160a01b03160361123d5760019150611245565b6001016111f3565b50806112635760405162461bcd60e51b81526004016107cb90612c1b565b60008281526005602052604090208054610100900460ff166112975760405162461bcd60e51b81526004016107cb90612d37565b805460ff16156112e95760405162461bcd60e51b815260206004820152601d60248201527f43616e6e6f7420726566756e64207265736f6c7665642064656261746500000060448201526064016107cb565b60005b60008481526007602052604090205481101561141e57600084815260076020526040812080548390811061132257611322612c05565b6000918252602080832090910154878352600680835260408085206001600160a01b03909316808652928452808520918801548552925291206002810154919250901580159061137c57506005810154610100900460ff16155b801561138d5750600581015460ff16155b156113a2576113a28683866006015484612826565b60008681526006602090815260408083206001600160a01b038616845282528083206007880154845290915290206002810154158015906113ed57506005810154610100900460ff16155b80156113fe5750600581015460ff16155b15611413576114138784876007015484612826565b5050506001016112ec565b506000838152600760205260409081902054905184917f963a0bb4af5881750826d32a622d41dd33def21860378b8f90b1a390ff7aefb49161146291815260200190565b60405180910390a2505050565b6114776127a9565b6000818152600560205260409020805460ff166114a65760405162461bcd60e51b81526004016107cb90612d79565b80600101546000036114ca5760405162461bcd60e51b81526004016107cb90612d79565b6000816009015482600801546114e09190612ceb565b905060006127108360020154836114f79190612cfe565b6115019190612d15565b905033478211156115245760405162461bcd60e51b81526004016107cb90612cb6565b6040516001600160a01b0382169083156108fc029084906000818181858888f1935050505015801561155a573d6000803e3d6000fd5b505050505050565b600081815260056020908152604080832060078352818420805483518186028101860190945280845260609592949293928301828280156115cc57602002820191906000526020600020905b81546001600160a01b031681526001909101906020018083116115ae575b5050505050905060008151905060008167ffffffffffffffff8111156115f4576115f4612db0565b60405190808252806020026020018201604052801561163f57816020015b60408051606081018252600080825260208083018290529282015282526000199092019101816116125790505b50905060005b828110156117e257600084828151811061166157611661612c05565b60209081029190910181015160008a8152600680845260408083206001600160a01b03851684528552808320918b01548352935291822060028101549193508291156116d05760028101546116b69084612ceb565b6005820154909350610100900460ff16156116d057600191505b60008b81526006602090815260408083206001600160a01b0388168452825280832060078d0154845290915290206002810154156117315760028101546117179085612ceb565b6005820154909450610100900460ff161561173157600192505b6000841561178c5760028301546001901580159061175957506005840154610100900460ff16155b15611762575060005b6000836002015411801561178057506005830154610100900460ff16155b15611789575060005b90505b6040518060600160405280876001600160a01b031681526020018681526020018215158152508888815181106117c4576117c4612c05565b60200260200101819052505050505050508080600101915050611645565b5095945050505050565b60008181526005602052604090208054610100900460ff166118205760405162461bcd60e51b81526004016107cb90612d37565b805460ff16156118725760405162461bcd60e51b815260206004820152601d60248201527f43616e6e6f7420726566756e64207265736f6c7665642064656261746500000060448201526064016107cb565b6000805b6000848152600760205260409020548110156118da5760008481526007602052604090208054339190839081106118af576118af612c05565b6000918252602090912001546001600160a01b0316036118d257600191506118da565b600101611876565b50806118f85760405162461bcd60e51b81526004016107cb90612dc6565b60008381526006602081815260408084203385528252808420928601548452919052812060028101541580159061193957506005810154610100900460ff16155b801561194a5750600581015460ff16155b156119fb57600281015460058201805461ff00191661010017905560019250334782111561198a5760405162461bcd60e51b81526004016107cb90612e0e565b6040516001600160a01b0382169083156108fc029084906000818181858888f193505050501580156119c0573d6000803e3d6000fd5b50604051828152339088907fcb528fcde812ac8afd931070257cc24789e622614ede1ffd81c7a38beacf3f7b9060200160405180910390a350505b60008581526006602090815260408083203384528252808320600788015484529091529020600281015415801590611a3d57506005810154610100900460ff16155b8015611a4e5750600581015460ff16155b15611aff57600281015460058201805461ff001916610100179055600193503347821115611a8e5760405162461bcd60e51b81526004016107cb90612e0e565b6040516001600160a01b0382169083156108fc029084906000818181858888f19350505050158015611ac4573d6000803e3d6000fd5b50604051828152339089907fcb528fcde812ac8afd931070257cc24789e622614ede1ffd81c7a38beacf3f7b9060200160405180910390a350505b8261155a5760405162461bcd60e51b815260206004820152602160248201527f4e6f20656c696769626c65206265747320666f756e6420666f7220726566756e6044820152601960fa1b60648201526084016107cb565b60008211611ba65760405162461bcd60e51b815260206004820152601d60248201527f416d6f756e74206d7573742062652067726561746572207468616e203000000060448201526064016107cb565b600083815260056020819052604090912090810154611c075760405162461bcd60e51b815260206004820152601b60248201527f446562617465206973206e6f74207075626c697368656420796574000000000060448201526064016107cb565b8060040154600003611c4f5760405162461bcd60e51b8152602060048201526011602482015270111958985d19481a5cc819195b195d1959607a1b60448201526064016107cb565b805460ff1615611cac5760405162461bcd60e51b815260206004820152602260248201527f4465626174652073657373696f6e20697320616c7265616479207265736f6c76604482015261195960f21b60648201526084016107cb565b8054610100900460ff1615611d1f5760405162461bcd60e51b815260206004820152603360248201527f446562617465206973206d61726b656420617320726566756e6461626c652c206044820152721b9bc81b995dc818995d1cc8185b1b1bddd959606a1b60648201526084016107cb565b80600501544211611d7c5760405162461bcd60e51b815260206004820152602160248201527f4465626174652073657373696f6e206973206e6f7420737461727465642079656044820152601d60fa1b60648201526084016107cb565b60025481600301548260040154611d939190612ceb565b611d9d9190612c56565b4210611deb5760405162461bcd60e51b815260206004820152601960248201527f43616e206e6f7420706c6163652062657420616e796d6f72650000000000000060448201526064016107cb565b82341015611e3b5760405162461bcd60e51b815260206004820152601960248201527f46656520616d6f756e74206973206e6f7420636f72726563740000000000000060448201526064016107cb565b80600601548203611e655782816008016000828254611e5a9190612ceb565b90915550611f2f9050565b80600701548203611e845782816009016000828254611e5a9190612ceb565b60068101541580611e9757506007810154155b611ee35760405162461bcd60e51b815260206004820181905260248201527f426f7468206167656e74732061726520616c72656164792061737369676e656460448201526064016107cb565b8060060154600003611f0c5781816006018190555082816008016000828254611e5a9190612ceb565b81816007018190555082816009016000828254611f299190612ceb565b90915550505b600084815260066020908152604080832033845282528083208584529091529020600281015415611f795783816002016000828254611f6e9190612ceb565b909155506120389050565b6040805160e081018252868152336020808301828152838501898152600060608601818152608087018b815260a0880183815260c089018481528f8552600688528a85209885529787528984208d8552909652979091209551865591516001860180546001600160a01b03929092166001600160a01b031990921691909117905551600285015551600384015592516004830155915160059091018054925115156101000261ff00199215159290921661ffff19909316929092171790555b6000805b6000878152600760205260409020548110156120a057600087815260076020526040902080543391908390811061207557612075612c05565b6000918252602090912001546001600160a01b03160361209857600191506120a0565b60010161203c565b50806120d55760008681526007602090815260408220805460018101825590835291200180546001600160a01b031916331790555b6002830154604080518681526020810188905290810191909152339087907fab2115bac1de808eb7fe2be0309085b11f1f42b1eb980de8352efefdbfc098e2906060015b60405180910390a3505050505050565b6121316127a9565b6001600160a01b03811661215b57604051631e4fbdf760e01b8152600060048201526024016107cb565b612164816127d6565b50565b6000805b6004548110156121bd57336001600160a01b03166004828154811061219257612192612c05565b6000918252602090912001546001600160a01b0316036121b557600191506121bd565b60010161216b565b50806121db5760405162461bcd60e51b81526004016107cb90612c1b565b600088815260056020526040902060068101541580156121fd57506007810154155b6122495760405162461bcd60e51b815260206004820152601960248201527f44656261746520697320616c726561647920637265617465640000000000000060448201526064016107cb565b846122548486612ceb565b116122b35760405162461bcd60e51b815260206004820152602960248201527f456e642074696d65206d7573742062652067726561746572207468616e207075604482015268626c69632074696d6560b81b60648201526084016107cb565b600681018890556007810187905560008690036122d75760015460028201556122df565b600281018690555b6005810185905560048101849055600381018390556040805189815260208101899052908101879052606081018690526080810185905260a0810184905289907f74245c13fa29018d2e3827a29b9f092a79b7d948264385dca981d1d6ba38a76f9060c0016110b6565b6000818152600560205260409020805460ff166123785760405162461bcd60e51b81526004016107cb90612d79565b8054610100900460ff16156123e95760405162461bcd60e51b815260206004820152603160248201527f44656261746520697320726566756e6461626c652c2075736520726566756e6460448201527020696e7374656164206f6620636c61696d60781b60648201526084016107cb565b6000805b60008481526007602052604090205481101561245157600084815260076020526040902080543391908390811061242657612426612c05565b6000918252602090912001546001600160a01b0316036124495760019150612451565b6001016123ed565b508061246f5760405162461bcd60e51b81526004016107cb90612dc6565b6001820154600084815260066020908152604080832033845282528083208484529091529020600581015460ff16156124f65760405162461bcd60e51b815260206004820152602360248201527f596f75206861766520616c726561647920636c61696d65642074686520726577604482015262185c9960ea1b60648201526084016107cb565b600081600301541161254a5760405162461bcd60e51b815260206004820152601760248201527f596f7520646964206e6f742077696e207468652062657400000000000000000060448201526064016107cb565b600381015433904710156125705760405162461bcd60e51b81526004016107cb90612cb6565b60038201546040516001600160a01b0383169180156108fc02916000818181858888f193505050501580156125a9573d6000803e3d6000fd5b5060058201805460ff1916600117905560048201546003830154604051339289927f4eed845a8c2dab6b8f3276326563ae95a67314d068314298838cc3246bb3e3e092612119929190918252602082015260400190565b6000805b60045481101561265657336001600160a01b03166004828154811061262b5761262b612c05565b6000918252602090912001546001600160a01b03160361264e5760019150612656565b600101612604565b50806126745760405162461bcd60e51b81526004016107cb90612c1b565b60008281526005602052604090206006810154158015906126985750600781015415155b6126b45760405162461bcd60e51b81526004016107cb90612c69565b805460ff16156127065760405162461bcd60e51b815260206004820152601a60248201527f44656261746520697320616c7265616479207265736f6c76656400000000000060448201526064016107cb565b8054610100900460ff161561276c5760405162461bcd60e51b815260206004820152602660248201527f44656261746520697320616c7265616479206d61726b656420617320726566756044820152656e6461626c6560d01b60648201526084016107cb565b805461ff00191661010017815560405183907fda718c7fab5de6540a4afcf73416cff740ce2de5286111f87c86d8cc68c99fff90600090a2505050565b6000546001600160a01b03163314610b315760405163118cdaa760e01b81523360048201526024016107cb565b600080546001600160a01b038381166001600160a01b0319831681178455604051919092169283917f8be0079c531659141344cd1fd0a4f28419497f9722a3daafe3b4186f6b6457e09190a35050565b600081600201541161287a5760405162461bcd60e51b815260206004820152601760248201527f4e6f2062657420616d6f756e7420746f20726566756e6400000000000000000060448201526064016107cb565b6005810154610100900460ff16156128c75760405162461bcd60e51b815260206004820152601060248201526f105b1c9958591e481c99599d5b99195960821b60448201526064016107cb565b600581015460ff161561291c5760405162461bcd60e51b815260206004820152601960248201527f43616e6e6f7420726566756e6420636c61696d6564206265740000000000000060448201526064016107cb565b600281015460058201805461ff00191661010017905583478211156129535760405162461bcd60e51b81526004016107cb90612e0e565b6040516001600160a01b0382169083156108fc029084906000818181858888f19350505050158015612989573d6000803e3d6000fd5b50846001600160a01b0316867fcb528fcde812ac8afd931070257cc24789e622614ede1ffd81c7a38beacf3f7b8460405161211991815260200190565b80356001600160a01b03811681146129dd57600080fd5b919050565b6000602082840312156129f457600080fd5b6129fd826129c6565b9392505050565b600060208284031215612a1657600080fd5b5035919050565b81511515815261016081016020830151612a3b602084018215159052565b5060408301516040830152606083015160608301526080830151608083015260a083015160a083015260c083015160c083015260e083015160e083015261010083015161010083015261012083015161012083015261014083015161014083015292915050565b60008060408385031215612ab557600080fd5b50508035926020909101359150565b600080600080600080600060e0888a031215612adf57600080fd5b505085359760208701359750604087013596606081013596506080810135955060a0810135945060c0013592509050565b60008060408385031215612b2357600080fd5b82359150612b33602084016129c6565b90509250929050565b600080600060608486031215612b5157600080fd5b83359250612b61602085016129c6565b929592945050506040919091013590565b602080825282518282018190526000918401906040840190835b81811015612bce57835180516001600160a01b031684526020808201518186015260409182015115159185019190915290930192606090920191600101612b8c565b509095945050505050565b600080600060608486031215612bee57600080fd5b505081359360208301359350604090920135919050565b634e487b7160e01b600052603260045260246000fd5b6020808252600b908201526a139bdd08185b1b1bddd95960aa1b604082015260600190565b634e487b7160e01b600052601160045260246000fd5b818103818111156111e9576111e9612c40565b60208082526019908201527f446562617465206973206e6f7420637265617465642079657400000000000000604082015260600190565b634e487b7160e01b600052603160045260246000fd5b6020808252818101527f496e73756666696369656e742062616c616e636520696e20636f6e7472616374604082015260600190565b808201808211156111e9576111e9612c40565b80820281158282048414176111e9576111e9612c40565b600082612d3257634e487b7160e01b600052601260045260246000fd5b500490565b60208082526022908201527f446562617465206973206e6f74206d61726b656420617320726566756e6461626040820152616c6560f01b606082015260800190565b6020808252601a908201527f446562617465206973206e6f74207265736f6c76656420796574000000000000604082015260600190565b634e487b7160e01b600052604160045260246000fd5b60208082526028908201527f596f7520646964206e6f7420706c61636520616e7920626574206f6e20746869604082015267732064656261746560c01b606082015260800190565b6020808252601d908201527f496e73756666696369656e7420636f6e74726163742062616c616e636500000060408201526060019056fea26469706673582212208988f2b030cba462a330e4cc7241c2386c3e59aa4e31a2cb4d5ea9074286832164736f6c634300081c0033","opcodes":"PUSH1 0x80 PUSH1 0x40 MSTORE PUSH1 0x5 PUSH1 0x1 SSTORE PUSH2 0x12C PUSH1 0x2 SSTORE PUSH2 0x708 PUSH1 0x3 SSTORE CALLVALUE DUP1 ISZERO PUSH2 0x21 JUMPI PUSH1 0x0 DUP1 REVERT JUMPDEST POP PUSH1 0x40 MLOAD PUSH2 0x300C CODESIZE SUB DUP1 PUSH2 0x300C DUP4 CODECOPY DUP2 ADD PUSH1 0x40 DUP2 SWAP1 MSTORE PUSH2 0x40 SWAP2 PUSH2 0x14F JUMP JUMPDEST DUP2 PUSH1 0x1 PUSH1 0x1 PUSH1 0xA0 SHL SUB DUP2 AND PUSH2 0x6F JUMPI PUSH1 0x40 MLOAD PUSH4 0x1E4FBDF7 PUSH1 0xE0 SHL DUP2 MSTORE PUSH1 0x0 PUSH1 0x4 DUP3 ADD MSTORE PUSH1 0x24 ADD PUSH1 0x40 MLOAD DUP1 SWAP2 SUB SWAP1 REVERT JUMPDEST PUSH2 0x78 DUP2 PUSH2 0xE3 JUMP JUMPDEST POP PUSH1 0x4 DUP1 SLOAD PUSH1 0x1 DUP2 DUP2 ADD DUP4 SSTORE PUSH1 0x0 DUP4 SWAP1 MSTORE PUSH32 0x8A35ACFBC15FF81A39AE7D344FD709F28E8600B4AA8C65C6B64BFE7FE36BD19B SWAP2 DUP3 ADD DUP1 SLOAD PUSH1 0x1 PUSH1 0x1 PUSH1 0xA0 SHL SUB SWAP7 DUP8 AND PUSH1 0x1 PUSH1 0x1 PUSH1 0xA0 SHL SUB NOT SWAP2 DUP3 AND OR SWAP1 SWAP2 SSTORE DUP4 SLOAD SWAP2 DUP3 ADD SWAP1 SWAP4 SSTORE ADD DUP1 SLOAD SWAP3 SWAP1 SWAP4 AND SWAP2 AND OR SWAP1 SSTORE PUSH2 0x182 JUMP JUMPDEST PUSH1 0x0 DUP1 SLOAD PUSH1 0x1 PUSH1 0x1 PUSH1 0xA0 SHL SUB DUP4 DUP2 AND PUSH1 0x1 PUSH1 0x1 PUSH1 0xA0 SHL SUB NOT DUP4 AND DUP2 OR DUP5 SSTORE PUSH1 0x40 MLOAD SWAP2 SWAP1 SWAP3 AND SWAP3 DUP4 SWAP2 PUSH32 0x8BE0079C531659141344CD1FD0A4F28419497F9722A3DAAFE3B4186F6B6457E0 SWAP2 SWAP1 LOG3 POP POP JUMP JUMPDEST DUP1 MLOAD PUSH1 0x1 PUSH1 0x1 PUSH1 0xA0 SHL SUB DUP2 AND DUP2 EQ PUSH2 0x14A JUMPI PUSH1 0x0 DUP1 REVERT JUMPDEST SWAP2 SWAP1 POP JUMP JUMPDEST PUSH1 0x0 DUP1 PUSH1 0x40 DUP4 DUP6 SUB SLT ISZERO PUSH2 0x162 JUMPI PUSH1 0x0 DUP1 REVERT JUMPDEST PUSH2 0x16B DUP4 PUSH2 0x133 JUMP JUMPDEST SWAP2 POP PUSH2 0x179 PUSH1 0x20 DUP5 ADD PUSH2 0x133 JUMP JUMPDEST SWAP1 POP SWAP3 POP SWAP3 SWAP1 POP JUMP JUMPDEST PUSH2 0x2E7B DUP1 PUSH2 0x191 PUSH1 0x0 CODECOPY PUSH1 0x0 RETURN INVALID PUSH1 0x80 PUSH1 0x40 MSTORE PUSH1 0x4 CALLDATASIZE LT PUSH2 0x19C JUMPI PUSH1 0x0 CALLDATALOAD PUSH1 0xE0 SHR DUP1 PUSH4 0x98A18707 GT PUSH2 0xEC JUMPI DUP1 PUSH4 0xE386EE56 GT PUSH2 0x8A JUMPI DUP1 PUSH4 0xF674A9DE GT PUSH2 0x64 JUMPI DUP1 PUSH4 0xF674A9DE EQ PUSH2 0x5BB JUMPI DUP1 PUSH4 0xFE43EFDA EQ PUSH2 0x5DB JUMPI DUP1 PUSH4 0xFE695133 EQ PUSH2 0x5FB JUMPI DUP1 PUSH4 0xFE84D4B6 EQ PUSH2 0x61B JUMPI PUSH1 0x0 DUP1 REVERT JUMPDEST DUP1 PUSH4 0xE386EE56 EQ PUSH2 0x568 JUMPI DUP1 PUSH4 0xE71C9697 EQ PUSH2 0x588 JUMPI DUP1 PUSH4 0xF2FDE38B EQ PUSH2 0x59B JUMPI PUSH1 0x0 DUP1 REVERT JUMPDEST DUP1 PUSH4 0xC1F639BD GT PUSH2 0xC6 JUMPI DUP1 PUSH4 0xC1F639BD EQ PUSH2 0x4B6 JUMPI DUP1 PUSH4 0xC42AB704 EQ PUSH2 0x4D6 JUMPI DUP1 PUSH4 0xC7F61C70 EQ PUSH2 0x4F6 JUMPI DUP1 PUSH4 0xC9C57AC4 EQ PUSH2 0x523 JUMPI PUSH1 0x0 DUP1 REVERT JUMPDEST DUP1 PUSH4 0x98A18707 EQ PUSH2 0x402 JUMPI DUP1 PUSH4 0xA272FEF4 EQ PUSH2 0x422 JUMPI DUP1 PUSH4 0xBFEA80B2 EQ PUSH2 0x442 JUMPI PUSH1 0x0 DUP1 REVERT JUMPDEST DUP1 PUSH4 0x5521E9BF GT PUSH2 0x159 JUMPI DUP1 PUSH4 0x7A27FBB2 GT PUSH2 0x133 JUMPI DUP1 PUSH4 0x7A27FBB2 EQ PUSH2 0x38F JUMPI DUP1 PUSH4 0x853828B6 EQ PUSH2 0x3AF JUMPI DUP1 PUSH4 0x8DA5CB5B EQ PUSH2 0x3C4 JUMPI DUP1 PUSH4 0x9048B53B EQ PUSH2 0x3E2 JUMPI PUSH1 0x0 DUP1 REVERT JUMPDEST DUP1 PUSH4 0x5521E9BF EQ PUSH2 0x32D JUMPI DUP1 PUSH4 0x5B99A012 EQ PUSH2 0x34D JUMPI DUP1 PUSH4 0x715018A6 EQ PUSH2 0x37A JUMPI PUSH1 0x0 DUP1 REVERT JUMPDEST DUP1 PUSH4 0x1A00216 EQ PUSH2 0x1A1 JUMPI DUP1 PUSH4 0x2071A2D2 EQ PUSH2 0x1C3 JUMPI DUP1 PUSH4 0x28392554 EQ PUSH2 0x200 JUMPI DUP1 PUSH4 0x39938348 EQ PUSH2 0x220 JUMPI DUP1 PUSH4 0x43674131 EQ PUSH2 0x2E9 JUMPI DUP1 PUSH4 0x4637DE3C EQ PUSH2 0x30D JUMPI JUMPDEST PUSH1 0x0 DUP1 REVERT JUMPDEST CALLVALUE DUP1 ISZERO PUSH2 0x1AD JUMPI PUSH1 0x0 DUP1 REVERT JUMPDEST POP PUSH2 0x1C1 PUSH2 0x1BC CALLDATASIZE PUSH1 0x4 PUSH2 0x29E2 JUMP JUMPDEST PUSH2 0x6D3 JUMP JUMPDEST STOP JUMPDEST CALLVALUE DUP1 ISZERO PUSH2 0x1CF JUMPI PUSH1 0x0 DUP1 REVERT JUMPDEST POP PUSH2 0x1E3 PUSH2 0x1DE CALLDATASIZE PUSH1 0x4 PUSH2 0x2A04 JUMP JUMPDEST PUSH2 0x72D JUMP JUMPDEST PUSH1 0x40 MLOAD PUSH1 0x1 PUSH1 0x1 PUSH1 0xA0 SHL SUB SWAP1 SWAP2 AND DUP2 MSTORE PUSH1 0x20 ADD JUMPDEST PUSH1 0x40 MLOAD DUP1 SWAP2 SUB SWAP1 RETURN JUMPDEST CALLVALUE DUP1 ISZERO PUSH2 0x20C JUMPI PUSH1 0x0 DUP1 REVERT JUMPDEST POP PUSH2 0x1C1 PUSH2 0x21B CALLDATASIZE PUSH1 0x4 PUSH2 0x2A04 JUMP JUMPDEST PUSH2 0x757 JUMP JUMPDEST CALLVALUE DUP1 ISZERO PUSH2 0x22C JUMPI PUSH1 0x0 DUP1 REVERT JUMPDEST POP PUSH2 0x294 PUSH2 0x23B CALLDATASIZE PUSH1 0x4 PUSH2 0x2A04 JUMP JUMPDEST PUSH1 0x5 PUSH1 0x20 DUP2 SWAP1 MSTORE PUSH1 0x0 SWAP2 DUP3 MSTORE PUSH1 0x40 SWAP1 SWAP2 KECCAK256 DUP1 SLOAD PUSH1 0x1 DUP3 ADD SLOAD PUSH1 0x2 DUP4 ADD SLOAD PUSH1 0x3 DUP5 ADD SLOAD PUSH1 0x4 DUP6 ADD SLOAD SWAP6 DUP6 ADD SLOAD PUSH1 0x6 DUP7 ADD SLOAD PUSH1 0x7 DUP8 ADD SLOAD PUSH1 0x8 DUP9 ADD SLOAD PUSH1 0x9 SWAP1 SWAP9 ADD SLOAD PUSH1 0xFF DUP1 DUP10 AND SWAP11 PUSH2 0x100 SWAP1 SWAP10 DIV AND SWAP9 SWAP7 SWAP8 SWAP6 SWAP7 SWAP5 SWAP6 SWAP5 SWAP1 DUP12 JUMP JUMPDEST PUSH1 0x40 DUP1 MLOAD SWAP12 ISZERO ISZERO DUP13 MSTORE SWAP10 ISZERO ISZERO PUSH1 0x20 DUP13 ADD MSTORE SWAP9 DUP11 ADD SWAP8 SWAP1 SWAP8 MSTORE PUSH1 0x60 DUP10 ADD SWAP6 SWAP1 SWAP6 MSTORE PUSH1 0x80 DUP9 ADD SWAP4 SWAP1 SWAP4 MSTORE PUSH1 0xA0 DUP8 ADD SWAP2 SWAP1 SWAP2 MSTORE PUSH1 0xC0 DUP7 ADD MSTORE PUSH1 0xE0 DUP6 ADD MSTORE PUSH2 0x100 DUP5 ADD MSTORE PUSH2 0x120 DUP4 ADD MSTORE PUSH2 0x140 DUP3 ADD MSTORE PUSH2 0x160 ADD PUSH2 0x1F7 JUMP JUMPDEST CALLVALUE DUP1 ISZERO PUSH2 0x2F5 JUMPI PUSH1 0x0 DUP1 REVERT JUMPDEST POP PUSH2 0x2FF PUSH1 0x1 SLOAD DUP2 JUMP JUMPDEST PUSH1 0x40 MLOAD SWAP1 DUP2 MSTORE PUSH1 0x20 ADD PUSH2 0x1F7 JUMP JUMPDEST CALLVALUE DUP1 ISZERO PUSH2 0x319 JUMPI PUSH1 0x0 DUP1 REVERT JUMPDEST POP PUSH2 0x1C1 PUSH2 0x328 CALLDATASIZE PUSH1 0x4 PUSH2 0x29E2 JUMP JUMPDEST PUSH2 0x8BB JUMP JUMPDEST CALLVALUE DUP1 ISZERO PUSH2 0x339 JUMPI PUSH1 0x0 DUP1 REVERT JUMPDEST POP PUSH2 0x1C1 PUSH2 0x348 CALLDATASIZE PUSH1 0x4 PUSH2 0x2A04 JUMP JUMPDEST PUSH2 0x9C4 JUMP JUMPDEST CALLVALUE DUP1 ISZERO PUSH2 0x359 JUMPI PUSH1 0x0 DUP1 REVERT JUMPDEST POP PUSH2 0x36D PUSH2 0x368 CALLDATASIZE PUSH1 0x4 PUSH2 0x2A04 JUMP JUMPDEST PUSH2 0xA28 JUMP JUMPDEST PUSH1 0x40 MLOAD PUSH2 0x1F7 SWAP2 SWAP1 PUSH2 0x2A1D JUMP JUMPDEST CALLVALUE DUP1 ISZERO PUSH2 0x386 JUMPI PUSH1 0x0 DUP1 REVERT JUMPDEST POP PUSH2 0x1C1 PUSH2 0xB1F JUMP JUMPDEST CALLVALUE DUP1 ISZERO PUSH2 0x39B JUMPI PUSH1 0x0 DUP1 REVERT JUMPDEST POP PUSH2 0x1E3 PUSH2 0x3AA CALLDATASIZE PUSH1 0x4 PUSH2 0x2AA2 JUMP JUMPDEST PUSH2 0xB33 JUMP JUMPDEST CALLVALUE DUP1 ISZERO PUSH2 0x3BB JUMPI PUSH1 0x0 DUP1 REVERT JUMPDEST POP PUSH2 0x1C1 PUSH2 0xB6B JUMP JUMPDEST CALLVALUE DUP1 ISZERO PUSH2 0x3D0 JUMPI PUSH1 0x0 DUP1 REVERT JUMPDEST POP PUSH1 0x0 SLOAD PUSH1 0x1 PUSH1 0x1 PUSH1 0xA0 SHL SUB AND PUSH2 0x1E3 JUMP JUMPDEST CALLVALUE DUP1 ISZERO PUSH2 0x3EE JUMPI PUSH1 0x0 DUP1 REVERT JUMPDEST POP PUSH2 0x1C1 PUSH2 0x3FD CALLDATASIZE PUSH1 0x4 PUSH2 0x2AA2 JUMP JUMPDEST PUSH2 0xBA1 JUMP JUMPDEST CALLVALUE DUP1 ISZERO PUSH2 0x40E JUMPI PUSH1 0x0 DUP1 REVERT JUMPDEST POP PUSH2 0x1C1 PUSH2 0x41D CALLDATASIZE PUSH1 0x4 PUSH2 0x2AC4 JUMP JUMPDEST PUSH2 0xF10 JUMP JUMPDEST CALLVALUE DUP1 ISZERO PUSH2 0x42E JUMPI PUSH1 0x0 DUP1 REVERT JUMPDEST POP PUSH2 0x2FF PUSH2 0x43D CALLDATASIZE PUSH1 0x4 PUSH2 0x2B10 JUMP JUMPDEST PUSH2 0x10C9 JUMP JUMPDEST CALLVALUE DUP1 ISZERO PUSH2 0x44E JUMPI PUSH1 0x0 DUP1 REVERT JUMPDEST POP PUSH2 0x49F PUSH2 0x45D CALLDATASIZE PUSH1 0x4 PUSH2 0x2B3C JUMP JUMPDEST PUSH1 0x0 SWAP3 DUP4 MSTORE PUSH1 0x6 PUSH1 0x20 SWAP1 DUP2 MSTORE PUSH1 0x40 DUP1 DUP6 KECCAK256 PUSH1 0x1 PUSH1 0x1 PUSH1 0xA0 SHL SUB SWAP5 SWAP1 SWAP5 AND DUP6 MSTORE SWAP3 DUP2 MSTORE DUP3 DUP5 KECCAK256 SWAP2 DUP5 MSTORE MSTORE SWAP1 KECCAK256 PUSH1 0x5 DUP2 ADD SLOAD PUSH1 0x2 SWAP1 SWAP2 ADD SLOAD PUSH2 0x100 SWAP1 SWAP2 DIV PUSH1 0xFF AND SWAP2 JUMP JUMPDEST PUSH1 0x40 DUP1 MLOAD SWAP3 ISZERO ISZERO DUP4 MSTORE PUSH1 0x20 DUP4 ADD SWAP2 SWAP1 SWAP2 MSTORE ADD PUSH2 0x1F7 JUMP JUMPDEST CALLVALUE DUP1 ISZERO PUSH2 0x4C2 JUMPI PUSH1 0x0 DUP1 REVERT JUMPDEST POP PUSH2 0x1C1 PUSH2 0x4D1 CALLDATASIZE PUSH1 0x4 PUSH2 0x2A04 JUMP JUMPDEST PUSH2 0x11EF JUMP JUMPDEST CALLVALUE DUP1 ISZERO PUSH2 0x4E2 JUMPI PUSH1 0x0 DUP1 REVERT JUMPDEST POP PUSH2 0x1C1 PUSH2 0x4F1 CALLDATASIZE PUSH1 0x4 PUSH2 0x2A04 JUMP JUMPDEST PUSH2 0x146F JUMP JUMPDEST CALLVALUE DUP1 ISZERO PUSH2 0x502 JUMPI PUSH1 0x0 DUP1 REVERT JUMPDEST POP PUSH2 0x516 PUSH2 0x511 CALLDATASIZE PUSH1 0x4 PUSH2 0x2A04 JUMP JUMPDEST PUSH2 0x1562 JUMP JUMPDEST PUSH1 0x40 MLOAD PUSH2 0x1F7 SWAP2 SWAP1 PUSH2 0x2B72 JUMP JUMPDEST CALLVALUE DUP1 ISZERO PUSH2 0x52F JUMPI PUSH1 0x0 DUP1 REVERT JUMPDEST POP PUSH2 0x558 PUSH2 0x53E CALLDATASIZE PUSH1 0x4 PUSH2 0x2A04 JUMP JUMPDEST PUSH1 0x0 SWAP1 DUP2 MSTORE PUSH1 0x5 PUSH1 0x20 MSTORE PUSH1 0x40 SWAP1 KECCAK256 SLOAD PUSH2 0x100 SWAP1 DIV PUSH1 0xFF AND SWAP1 JUMP JUMPDEST PUSH1 0x40 MLOAD SWAP1 ISZERO ISZERO DUP2 MSTORE PUSH1 0x20 ADD PUSH2 0x1F7 JUMP JUMPDEST CALLVALUE DUP1 ISZERO PUSH2 0x574 JUMPI PUSH1 0x0 DUP1 REVERT JUMPDEST POP PUSH2 0x1C1 PUSH2 0x583 CALLDATASIZE PUSH1 0x4 PUSH2 0x2A04 JUMP JUMPDEST PUSH2 0x17EC JUMP JUMPDEST PUSH2 0x1C1 PUSH2 0x596 CALLDATASIZE PUSH1 0x4 PUSH2 0x2BD9 JUMP JUMPDEST PUSH2 0x1B56 JUMP JUMPDEST CALLVALUE DUP1 ISZERO PUSH2 0x5A7 JUMPI PUSH1 0x0 DUP1 REVERT JUMPDEST POP PUSH2 0x1C1 PUSH2 0x5B6 CALLDATASIZE PUSH1 0x4 PUSH2 0x29E2 JUMP JUMPDEST PUSH2 0x2129 JUMP JUMPDEST CALLVALUE DUP1 ISZERO PUSH2 0x5C7 JUMPI PUSH1 0x0 DUP1 REVERT JUMPDEST POP PUSH2 0x1C1 PUSH2 0x5D6 CALLDATASIZE PUSH1 0x4 PUSH2 0x2AC4 JUMP JUMPDEST PUSH2 0x2167 JUMP JUMPDEST CALLVALUE DUP1 ISZERO PUSH2 0x5E7 JUMPI PUSH1 0x0 DUP1 REVERT JUMPDEST POP PUSH2 0x1C1 PUSH2 0x5F6 CALLDATASIZE PUSH1 0x4 PUSH2 0x2A04 JUMP JUMPDEST PUSH2 0x2349 JUMP JUMPDEST CALLVALUE DUP1 ISZERO PUSH2 0x607 JUMPI PUSH1 0x0 DUP1 REVERT JUMPDEST POP PUSH2 0x1C1 PUSH2 0x616 CALLDATASIZE PUSH1 0x4 PUSH2 0x2A04 JUMP JUMPDEST PUSH2 0x2600 JUMP JUMPDEST CALLVALUE DUP1 ISZERO PUSH2 0x627 JUMPI PUSH1 0x0 DUP1 REVERT JUMPDEST POP PUSH2 0x692 PUSH2 0x636 CALLDATASIZE PUSH1 0x4 PUSH2 0x2B3C JUMP JUMPDEST PUSH1 0x6 PUSH1 0x20 SWAP1 DUP2 MSTORE PUSH1 0x0 SWAP4 DUP5 MSTORE PUSH1 0x40 DUP1 DUP6 KECCAK256 DUP3 MSTORE SWAP3 DUP5 MSTORE DUP3 DUP5 KECCAK256 SWAP1 MSTORE DUP3 MSTORE SWAP1 KECCAK256 DUP1 SLOAD PUSH1 0x1 DUP3 ADD SLOAD PUSH1 0x2 DUP4 ADD SLOAD PUSH1 0x3 DUP5 ADD SLOAD PUSH1 0x4 DUP6 ADD SLOAD PUSH1 0x5 SWAP1 SWAP6 ADD SLOAD SWAP4 SWAP5 PUSH1 0x1 PUSH1 0x1 PUSH1 0xA0 SHL SUB SWAP1 SWAP4 AND SWAP4 SWAP2 SWAP3 SWAP1 SWAP2 PUSH1 0xFF DUP1 DUP3 AND SWAP2 PUSH2 0x100 SWAP1 DIV AND DUP8 JUMP JUMPDEST PUSH1 0x40 DUP1 MLOAD SWAP8 DUP9 MSTORE PUSH1 0x1 PUSH1 0x1 PUSH1 0xA0 SHL SUB SWAP1 SWAP7 AND PUSH1 0x20 DUP9 ADD MSTORE SWAP5 DUP7 ADD SWAP4 SWAP1 SWAP4 MSTORE PUSH1 0x60 DUP6 ADD SWAP2 SWAP1 SWAP2 MSTORE PUSH1 0x80 DUP5 ADD MSTORE ISZERO ISZERO PUSH1 0xA0 DUP4 ADD MSTORE ISZERO ISZERO PUSH1 0xC0 DUP3 ADD MSTORE PUSH1 0xE0 ADD PUSH2 0x1F7 JUMP JUMPDEST PUSH2 0x6DB PUSH2 0x27A9 JUMP JUMPDEST PUSH1 0x4 DUP1 SLOAD PUSH1 0x1 DUP2 ADD DUP3 SSTORE PUSH1 0x0 SWAP2 SWAP1 SWAP2 MSTORE PUSH32 0x8A35ACFBC15FF81A39AE7D344FD709F28E8600B4AA8C65C6B64BFE7FE36BD19B ADD DUP1 SLOAD PUSH1 0x1 PUSH1 0x1 PUSH1 0xA0 SHL SUB NOT AND PUSH1 0x1 PUSH1 0x1 PUSH1 0xA0 SHL SUB SWAP3 SWAP1 SWAP3 AND SWAP2 SWAP1 SWAP2 OR SWAP1 SSTORE JUMP JUMPDEST PUSH1 0x4 DUP2 DUP2 SLOAD DUP2 LT PUSH2 0x73D JUMPI PUSH1 0x0 DUP1 REVERT JUMPDEST PUSH1 0x0 SWAP2 DUP3 MSTORE PUSH1 0x20 SWAP1 SWAP2 KECCAK256 ADD SLOAD PUSH1 0x1 PUSH1 0x1 PUSH1 0xA0 SHL SUB AND SWAP1 POP DUP2 JUMP JUMPDEST PUSH1 0x0 DUP1 JUMPDEST PUSH1 0x4 SLOAD DUP2 LT ISZERO PUSH2 0x7AD JUMPI CALLER PUSH1 0x1 PUSH1 0x1 PUSH1 0xA0 SHL SUB AND PUSH1 0x4 DUP3 DUP2 SLOAD DUP2 LT PUSH2 0x782 JUMPI PUSH2 0x782 PUSH2 0x2C05 JUMP JUMPDEST PUSH1 0x0 SWAP2 DUP3 MSTORE PUSH1 0x20 SWAP1 SWAP2 KECCAK256 ADD SLOAD PUSH1 0x1 PUSH1 0x1 PUSH1 0xA0 SHL SUB AND SUB PUSH2 0x7A5 JUMPI PUSH1 0x1 SWAP2 POP PUSH2 0x7AD JUMP JUMPDEST PUSH1 0x1 ADD PUSH2 0x75B JUMP JUMPDEST POP DUP1 PUSH2 0x7D4 JUMPI PUSH1 0x40 MLOAD PUSH3 0x461BCD PUSH1 0xE5 SHL DUP2 MSTORE PUSH1 0x4 ADD PUSH2 0x7CB SWAP1 PUSH2 0x2C1B JUMP JUMPDEST PUSH1 0x40 MLOAD DUP1 SWAP2 SUB SWAP1 REVERT JUMPDEST PUSH1 0x0 DUP3 DUP2 MSTORE PUSH1 0x5 PUSH1 0x20 DUP2 SWAP1 MSTORE PUSH1 0x40 SWAP1 SWAP2 KECCAK256 PUSH1 0x3 SLOAD SWAP2 DUP2 ADD SLOAD SWAP1 SWAP2 PUSH2 0x7F7 SWAP2 PUSH2 0x2C56 JUMP JUMPDEST TIMESTAMP LT PUSH2 0x845 JUMPI PUSH1 0x40 MLOAD PUSH3 0x461BCD PUSH1 0xE5 SHL DUP2 MSTORE PUSH1 0x20 PUSH1 0x4 DUP3 ADD MSTORE PUSH1 0x1D PUSH1 0x24 DUP3 ADD MSTORE PUSH32 0x43616E206E6F742072656D6F76652064656261746520616E796D6F7265000000 PUSH1 0x44 DUP3 ADD MSTORE PUSH1 0x64 ADD PUSH2 0x7CB JUMP JUMPDEST PUSH1 0x6 DUP2 ADD SLOAD ISZERO DUP1 ISZERO SWAP1 PUSH2 0x85B JUMPI POP PUSH1 0x7 DUP2 ADD SLOAD ISZERO ISZERO JUMPDEST PUSH2 0x877 JUMPI PUSH1 0x40 MLOAD PUSH3 0x461BCD PUSH1 0xE5 SHL DUP2 MSTORE PUSH1 0x4 ADD PUSH2 0x7CB SWAP1 PUSH2 0x2C69 JUMP JUMPDEST PUSH1 0x0 PUSH1 0x5 DUP3 ADD DUP2 SWAP1 SSTORE PUSH1 0x4 DUP3 ADD DUP2 SWAP1 SSTORE PUSH1 0x3 DUP3 ADD DUP2 SWAP1 SSTORE PUSH1 0x40 MLOAD DUP5 SWAP2 PUSH32 0x80BED4CEEB2DFBD88F61CCA1C30BC6DEDE3047D1862345EF30F1CBC44C2016D7 SWAP2 LOG2 POP POP POP JUMP JUMPDEST PUSH2 0x8C3 PUSH2 0x27A9 JUMP JUMPDEST PUSH1 0x0 JUMPDEST PUSH1 0x4 SLOAD DUP2 LT ISZERO PUSH2 0x9C0 JUMPI DUP2 PUSH1 0x1 PUSH1 0x1 PUSH1 0xA0 SHL SUB AND PUSH1 0x4 DUP3 DUP2 SLOAD DUP2 LT PUSH2 0x8ED JUMPI PUSH2 0x8ED PUSH2 0x2C05 JUMP JUMPDEST PUSH1 0x0 SWAP2 DUP3 MSTORE PUSH1 0x20 SWAP1 SWAP2 KECCAK256 ADD SLOAD PUSH1 0x1 PUSH1 0x1 PUSH1 0xA0 SHL SUB AND SUB PUSH2 0x9B8 JUMPI PUSH1 0x4 DUP1 SLOAD PUSH2 0x917 SWAP1 PUSH1 0x1 SWAP1 PUSH2 0x2C56 JUMP JUMPDEST DUP2 SLOAD DUP2 LT PUSH2 0x927 JUMPI PUSH2 0x927 PUSH2 0x2C05 JUMP JUMPDEST PUSH1 0x0 SWAP2 DUP3 MSTORE PUSH1 0x20 SWAP1 SWAP2 KECCAK256 ADD SLOAD PUSH1 0x4 DUP1 SLOAD PUSH1 0x1 PUSH1 0x1 PUSH1 0xA0 SHL SUB SWAP1 SWAP3 AND SWAP2 DUP4 SWAP1 DUP2 LT PUSH2 0x953 JUMPI PUSH2 0x953 PUSH2 0x2C05 JUMP JUMPDEST SWAP1 PUSH1 0x0 MSTORE PUSH1 0x20 PUSH1 0x0 KECCAK256 ADD PUSH1 0x0 PUSH2 0x100 EXP DUP2 SLOAD DUP2 PUSH1 0x1 PUSH1 0x1 PUSH1 0xA0 SHL SUB MUL NOT AND SWAP1 DUP4 PUSH1 0x1 PUSH1 0x1 PUSH1 0xA0 SHL SUB AND MUL OR SWAP1 SSTORE POP PUSH1 0x4 DUP1 SLOAD DUP1 PUSH2 0x992 JUMPI PUSH2 0x992 PUSH2 0x2CA0 JUMP JUMPDEST PUSH1 0x0 DUP3 DUP2 MSTORE PUSH1 0x20 SWAP1 KECCAK256 DUP2 ADD PUSH1 0x0 NOT SWAP1 DUP2 ADD DUP1 SLOAD PUSH1 0x1 PUSH1 0x1 PUSH1 0xA0 SHL SUB NOT AND SWAP1 SSTORE ADD SWAP1 SSTORE POP POP JUMP JUMPDEST PUSH1 0x1 ADD PUSH2 0x8C6 JUMP JUMPDEST POP POP JUMP JUMPDEST PUSH2 0x9CC PUSH2 0x27A9 JUMP JUMPDEST CALLER SELFBALANCE DUP3 GT ISZERO PUSH2 0x9ED JUMPI PUSH1 0x40 MLOAD PUSH3 0x461BCD PUSH1 0xE5 SHL DUP2 MSTORE PUSH1 0x4 ADD PUSH2 0x7CB SWAP1 PUSH2 0x2CB6 JUMP JUMPDEST PUSH1 0x40 MLOAD PUSH1 0x1 PUSH1 0x1 PUSH1 0xA0 SHL SUB DUP3 AND SWAP1 DUP4 ISZERO PUSH2 0x8FC MUL SWAP1 DUP5 SWAP1 PUSH1 0x0 DUP2 DUP2 DUP2 DUP6 DUP9 DUP9 CALL SWAP4 POP POP POP POP ISZERO DUP1 ISZERO PUSH2 0xA23 JUMPI RETURNDATASIZE PUSH1 0x0 DUP1 RETURNDATACOPY RETURNDATASIZE PUSH1 0x0 REVERT JUMPDEST POP POP POP JUMP JUMPDEST PUSH2 0xA89 PUSH1 0x40 MLOAD DUP1 PUSH2 0x160 ADD PUSH1 0x40 MSTORE DUP1 PUSH1 0x0 ISZERO ISZERO DUP2 MSTORE PUSH1 0x20 ADD PUSH1 0x0 ISZERO ISZERO DUP2 MSTORE PUSH1 0x20 ADD PUSH1 0x0 DUP2 MSTORE PUSH1 0x20 ADD PUSH1 0x0 DUP2 MSTORE PUSH1 0x20 ADD PUSH1 0x0 DUP2 MSTORE PUSH1 0x20 ADD PUSH1 0x0 DUP2 MSTORE PUSH1 0x20 ADD PUSH1 0x0 DUP2 MSTORE PUSH1 0x20 ADD PUSH1 0x0 DUP2 MSTORE PUSH1 0x20 ADD PUSH1 0x0 DUP2 MSTORE PUSH1 0x20 ADD PUSH1 0x0 DUP2 MSTORE PUSH1 0x20 ADD PUSH1 0x0 DUP2 MSTORE POP SWAP1 JUMP JUMPDEST POP PUSH1 0x0 SWAP1 DUP2 MSTORE PUSH1 0x5 PUSH1 0x20 DUP2 DUP2 MSTORE PUSH1 0x40 SWAP3 DUP4 SWAP1 KECCAK256 DUP4 MLOAD PUSH2 0x160 DUP2 ADD DUP6 MSTORE DUP2 SLOAD PUSH1 0xFF DUP1 DUP3 AND ISZERO ISZERO DUP4 MSTORE PUSH2 0x100 SWAP2 DUP3 SWAP1 DIV AND ISZERO ISZERO SWAP4 DUP3 ADD SWAP4 SWAP1 SWAP4 MSTORE PUSH1 0x1 DUP3 ADD SLOAD SWAP5 DUP2 ADD SWAP5 SWAP1 SWAP5 MSTORE PUSH1 0x2 DUP2 ADD SLOAD PUSH1 0x60 DUP6 ADD MSTORE PUSH1 0x3 DUP2 ADD SLOAD PUSH1 0x80 DUP6 ADD MSTORE PUSH1 0x4 DUP2 ADD SLOAD PUSH1 0xA0 DUP6 ADD MSTORE SWAP2 DUP3 ADD SLOAD PUSH1 0xC0 DUP5 ADD MSTORE PUSH1 0x6 DUP3 ADD SLOAD PUSH1 0xE0 DUP5 ADD MSTORE PUSH1 0x7 DUP3 ADD SLOAD SWAP1 DUP4 ADD MSTORE PUSH1 0x8 DUP2 ADD SLOAD PUSH2 0x120 DUP4 ADD MSTORE PUSH1 0x9 ADD SLOAD PUSH2 0x140 DUP3 ADD MSTORE SWAP1 JUMP JUMPDEST PUSH2 0xB27 PUSH2 0x27A9 JUMP JUMPDEST PUSH2 0xB31 PUSH1 0x0 PUSH2 0x27D6 JUMP JUMPDEST JUMP JUMPDEST PUSH1 0x7 PUSH1 0x20 MSTORE DUP2 PUSH1 0x0 MSTORE PUSH1 0x40 PUSH1 0x0 KECCAK256 DUP2 DUP2 SLOAD DUP2 LT PUSH2 0xB4F JUMPI PUSH1 0x0 DUP1 REVERT JUMPDEST PUSH1 0x0 SWAP2 DUP3 MSTORE PUSH1 0x20 SWAP1 SWAP2 KECCAK256 ADD SLOAD PUSH1 0x1 PUSH1 0x1 PUSH1 0xA0 SHL SUB AND SWAP2 POP DUP3 SWAP1 POP JUMP JUMPDEST PUSH2 0xB73 PUSH2 0x27A9 JUMP JUMPDEST PUSH1 0x40 MLOAD CALLER SWAP1 DUP2 SWAP1 SELFBALANCE DUP1 ISZERO PUSH2 0x8FC MUL SWAP2 PUSH1 0x0 DUP2 DUP2 DUP2 DUP6 DUP9 DUP9 CALL SWAP4 POP POP POP POP ISZERO DUP1 ISZERO PUSH2 0x9C0 JUMPI RETURNDATASIZE PUSH1 0x0 DUP1 RETURNDATACOPY RETURNDATASIZE PUSH1 0x0 REVERT JUMPDEST PUSH1 0x0 DUP1 JUMPDEST PUSH1 0x4 SLOAD DUP2 LT ISZERO PUSH2 0xBF7 JUMPI CALLER PUSH1 0x1 PUSH1 0x1 PUSH1 0xA0 SHL SUB AND PUSH1 0x4 DUP3 DUP2 SLOAD DUP2 LT PUSH2 0xBCC JUMPI PUSH2 0xBCC PUSH2 0x2C05 JUMP JUMPDEST PUSH1 0x0 SWAP2 DUP3 MSTORE PUSH1 0x20 SWAP1 SWAP2 KECCAK256 ADD SLOAD PUSH1 0x1 PUSH1 0x1 PUSH1 0xA0 SHL SUB AND SUB PUSH2 0xBEF JUMPI PUSH1 0x1 SWAP2 POP PUSH2 0xBF7 JUMP JUMPDEST PUSH1 0x1 ADD PUSH2 0xBA5 JUMP JUMPDEST POP DUP1 PUSH2 0xC15 JUMPI PUSH1 0x40 MLOAD PUSH3 0x461BCD PUSH1 0xE5 SHL DUP2 MSTORE PUSH1 0x4 ADD PUSH2 0x7CB SWAP1 PUSH2 0x2C1B JUMP JUMPDEST PUSH1 0x0 DUP4 DUP2 MSTORE PUSH1 0x5 PUSH1 0x20 MSTORE PUSH1 0x40 SWAP1 KECCAK256 DUP1 SLOAD PUSH1 0xFF AND ISZERO PUSH2 0xC75 JUMPI PUSH1 0x40 MLOAD PUSH3 0x461BCD PUSH1 0xE5 SHL DUP2 MSTORE PUSH1 0x20 PUSH1 0x4 DUP3 ADD MSTORE PUSH1 0x1A PUSH1 0x24 DUP3 ADD MSTORE PUSH32 0x44656261746520697320616C7265616479207265736F6C766564000000000000 PUSH1 0x44 DUP3 ADD MSTORE PUSH1 0x64 ADD PUSH2 0x7CB JUMP JUMPDEST DUP1 PUSH1 0x6 ADD SLOAD DUP4 EQ DUP1 PUSH2 0xC8A JUMPI POP DUP1 PUSH1 0x7 ADD SLOAD DUP4 EQ JUMPDEST PUSH2 0xCC6 JUMPI PUSH1 0x40 MLOAD PUSH3 0x461BCD PUSH1 0xE5 SHL DUP2 MSTORE PUSH1 0x20 PUSH1 0x4 DUP3 ADD MSTORE PUSH1 0xD PUSH1 0x24 DUP3 ADD MSTORE PUSH13 0x125B9D985B1A59081859D95B9D PUSH1 0x9A SHL PUSH1 0x44 DUP3 ADD MSTORE PUSH1 0x64 ADD PUSH2 0x7CB JUMP JUMPDEST DUP1 SLOAD PUSH1 0xFF NOT AND PUSH1 0x1 SWAP1 DUP2 OR DUP3 SSTORE DUP2 ADD DUP4 SWAP1 SSTORE PUSH1 0x9 DUP2 ADD SLOAD PUSH1 0x8 DUP3 ADD SLOAD PUSH1 0x0 SWAP2 PUSH2 0xCEE SWAP2 PUSH2 0x2CEB JUMP JUMPDEST SWAP1 POP PUSH1 0x0 DUP3 PUSH1 0x2 ADD SLOAD PUSH2 0x2710 PUSH2 0xD04 SWAP2 SWAP1 PUSH2 0x2C56 JUMP JUMPDEST SWAP1 POP PUSH1 0x0 JUMPDEST PUSH1 0x0 DUP8 DUP2 MSTORE PUSH1 0x7 PUSH1 0x20 MSTORE PUSH1 0x40 SWAP1 KECCAK256 SLOAD DUP2 LT ISZERO PUSH2 0xECD JUMPI PUSH1 0x0 DUP8 DUP2 MSTORE PUSH1 0x7 PUSH1 0x20 MSTORE PUSH1 0x40 DUP2 KECCAK256 DUP1 SLOAD DUP4 SWAP1 DUP2 LT PUSH2 0xD3F JUMPI PUSH2 0xD3F PUSH2 0x2C05 JUMP JUMPDEST PUSH1 0x0 SWAP2 DUP3 MSTORE PUSH1 0x20 DUP1 DUP4 KECCAK256 SWAP1 SWAP2 ADD SLOAD DUP11 DUP4 MSTORE PUSH1 0x6 DUP3 MSTORE PUSH1 0x40 DUP1 DUP5 KECCAK256 PUSH1 0x1 PUSH1 0x1 PUSH1 0xA0 SHL SUB SWAP1 SWAP3 AND DUP1 DUP6 MSTORE SWAP2 DUP4 MSTORE DUP1 DUP5 KECCAK256 DUP12 DUP6 MSTORE SWAP1 SWAP3 MSTORE SWAP2 KECCAK256 PUSH1 0x4 DUP2 ADD SLOAD SWAP2 SWAP3 POP SWAP1 DUP9 SWAP1 SUB PUSH2 0xEC3 JUMPI PUSH1 0x0 DUP7 PUSH1 0x6 ADD SLOAD DUP3 PUSH1 0x4 ADD SLOAD EQ DUP1 ISZERO PUSH2 0xDA0 JUMPI POP PUSH1 0x8 DUP8 ADD SLOAD ISZERO JUMPDEST ISZERO PUSH2 0xDC9 JUMPI PUSH2 0x2710 DUP6 DUP4 PUSH1 0x2 ADD SLOAD PUSH2 0xDB8 SWAP2 SWAP1 PUSH2 0x2CFE JUMP JUMPDEST PUSH2 0xDC2 SWAP2 SWAP1 PUSH2 0x2D15 JUMP JUMPDEST SWAP1 POP PUSH2 0xE07 JUMP JUMPDEST DUP7 PUSH1 0x7 ADD SLOAD DUP3 PUSH1 0x4 ADD SLOAD EQ DUP1 ISZERO PUSH2 0xDE2 JUMPI POP PUSH1 0x9 DUP8 ADD SLOAD ISZERO JUMPDEST ISZERO PUSH2 0xE07 JUMPI PUSH2 0x2710 DUP6 DUP4 PUSH1 0x2 ADD SLOAD PUSH2 0xDFA SWAP2 SWAP1 PUSH2 0x2CFE JUMP JUMPDEST PUSH2 0xE04 SWAP2 SWAP1 PUSH2 0x2D15 JUMP JUMPDEST SWAP1 POP JUMPDEST DUP7 PUSH1 0x6 ADD SLOAD DUP3 PUSH1 0x4 ADD SLOAD EQ DUP1 ISZERO PUSH2 0xE22 JUMPI POP PUSH1 0x0 DUP8 PUSH1 0x8 ADD SLOAD GT JUMPDEST ISZERO PUSH2 0xE64 JUMPI PUSH1 0x8 DUP8 ADD SLOAD PUSH2 0xE38 SWAP1 PUSH2 0x2710 PUSH2 0x2CFE JUMP JUMPDEST DUP6 DUP8 DUP5 PUSH1 0x2 ADD SLOAD PUSH2 0xE49 SWAP2 SWAP1 PUSH2 0x2CFE JUMP JUMPDEST PUSH2 0xE53 SWAP2 SWAP1 PUSH2 0x2CFE JUMP JUMPDEST PUSH2 0xE5D SWAP2 SWAP1 PUSH2 0x2D15 JUMP JUMPDEST SWAP1 POP PUSH2 0xEBD JUMP JUMPDEST DUP7 PUSH1 0x7 ADD SLOAD DUP3 PUSH1 0x4 ADD SLOAD EQ DUP1 ISZERO PUSH2 0xE7F JUMPI POP PUSH1 0x0 DUP8 PUSH1 0x9 ADD SLOAD GT JUMPDEST ISZERO PUSH2 0xEBD JUMPI PUSH1 0x9 DUP8 ADD SLOAD PUSH2 0xE95 SWAP1 PUSH2 0x2710 PUSH2 0x2CFE JUMP JUMPDEST DUP6 DUP8 DUP5 PUSH1 0x2 ADD SLOAD PUSH2 0xEA6 SWAP2 SWAP1 PUSH2 0x2CFE JUMP JUMPDEST PUSH2 0xEB0 SWAP2 SWAP1 PUSH2 0x2CFE JUMP JUMPDEST PUSH2 0xEBA SWAP2 SWAP1 PUSH2 0x2D15 JUMP JUMPDEST SWAP1 POP JUMPDEST PUSH1 0x3 DUP3 ADD SSTORE JUMPDEST POP POP PUSH1 0x1 ADD PUSH2 0xD09 JUMP JUMPDEST POP DUP6 PUSH32 0xB6284C12D8A21C06155F14E4B5A2C21BDD2A90ABCD3B5D0ADA8275279CB0CA6F DUP7 PUSH1 0x40 MLOAD PUSH2 0xF00 SWAP2 DUP2 MSTORE PUSH1 0x20 ADD SWAP1 JUMP JUMPDEST PUSH1 0x40 MLOAD DUP1 SWAP2 SUB SWAP1 LOG2 POP POP POP POP POP POP JUMP JUMPDEST PUSH1 0x0 DUP1 JUMPDEST PUSH1 0x4 SLOAD DUP2 LT ISZERO PUSH2 0xF66 JUMPI CALLER PUSH1 0x1 PUSH1 0x1 PUSH1 0xA0 SHL SUB AND PUSH1 0x4 DUP3 DUP2 SLOAD DUP2 LT PUSH2 0xF3B JUMPI PUSH2 0xF3B PUSH2 0x2C05 JUMP JUMPDEST PUSH1 0x0 SWAP2 DUP3 MSTORE PUSH1 0x20 SWAP1 SWAP2 KECCAK256 ADD SLOAD PUSH1 0x1 PUSH1 0x1 PUSH1 0xA0 SHL SUB AND SUB PUSH2 0xF5E JUMPI PUSH1 0x1 SWAP2 POP PUSH2 0xF66 JUMP JUMPDEST PUSH1 0x1 ADD PUSH2 0xF14 JUMP JUMPDEST POP DUP1 PUSH2 0xF84 JUMPI PUSH1 0x40 MLOAD PUSH3 0x461BCD PUSH1 0xE5 SHL DUP2 MSTORE PUSH1 0x4 ADD PUSH2 0x7CB SWAP1 PUSH2 0x2C1B JUMP JUMPDEST PUSH1 0x0 DUP9 DUP2 MSTORE PUSH1 0x5 PUSH1 0x20 MSTORE PUSH1 0x40 SWAP1 KECCAK256 PUSH1 0x6 DUP2 ADD SLOAD ISZERO DUP1 ISZERO SWAP1 PUSH2 0xFA8 JUMPI POP PUSH1 0x7 DUP2 ADD SLOAD ISZERO ISZERO JUMPDEST PUSH2 0xFC4 JUMPI PUSH1 0x40 MLOAD PUSH3 0x461BCD PUSH1 0xE5 SHL DUP2 MSTORE PUSH1 0x4 ADD PUSH2 0x7CB SWAP1 PUSH2 0x2C69 JUMP JUMPDEST PUSH1 0x3 SLOAD DUP2 PUSH1 0x5 ADD SLOAD PUSH2 0xFD6 SWAP2 SWAP1 PUSH2 0x2C56 JUMP JUMPDEST TIMESTAMP LT PUSH2 0x1024 JUMPI PUSH1 0x40 MLOAD PUSH3 0x461BCD PUSH1 0xE5 SHL DUP2 MSTORE PUSH1 0x20 PUSH1 0x4 DUP3 ADD MSTORE PUSH1 0x1D PUSH1 0x24 DUP3 ADD MSTORE PUSH32 0x43616E206E6F74206D6F646966792064656261746520616E796D6F7265000000 PUSH1 0x44 DUP3 ADD MSTORE PUSH1 0x64 ADD PUSH2 0x7CB JUMP JUMPDEST PUSH1 0x6 DUP2 ADD DUP9 SWAP1 SSTORE PUSH1 0x7 DUP2 ADD DUP8 SWAP1 SSTORE PUSH1 0x0 DUP7 SWAP1 SUB PUSH2 0x1048 JUMPI PUSH1 0x1 SLOAD PUSH1 0x2 DUP3 ADD SSTORE PUSH2 0x1050 JUMP JUMPDEST PUSH1 0x2 DUP2 ADD DUP7 SWAP1 SSTORE JUMPDEST PUSH1 0x5 DUP2 ADD DUP6 SWAP1 SSTORE PUSH1 0x4 DUP2 ADD DUP5 SWAP1 SSTORE PUSH1 0x3 DUP2 ADD DUP4 SWAP1 SSTORE PUSH1 0x40 DUP1 MLOAD DUP10 DUP2 MSTORE PUSH1 0x20 DUP2 ADD DUP10 SWAP1 MSTORE SWAP1 DUP2 ADD DUP8 SWAP1 MSTORE PUSH1 0x60 DUP2 ADD DUP7 SWAP1 MSTORE PUSH1 0x80 DUP2 ADD DUP6 SWAP1 MSTORE PUSH1 0xA0 DUP2 ADD DUP5 SWAP1 MSTORE DUP10 SWAP1 PUSH32 0x5AD787FF0AB90867AA98C2A81CAFF732533E80B06F4C6910994CF0C8918D17FC SWAP1 PUSH1 0xC0 ADD JUMPDEST PUSH1 0x40 MLOAD DUP1 SWAP2 SUB SWAP1 LOG2 POP POP POP POP POP POP POP POP POP JUMP JUMPDEST PUSH1 0x0 DUP3 DUP2 MSTORE PUSH1 0x5 PUSH1 0x20 MSTORE PUSH1 0x40 DUP2 KECCAK256 DUP1 SLOAD PUSH2 0x100 SWAP1 DIV PUSH1 0xFF AND ISZERO DUP1 PUSH2 0x10EE JUMPI POP DUP1 SLOAD PUSH1 0xFF AND JUMPDEST ISZERO PUSH2 0x10FD JUMPI PUSH1 0x0 SWAP2 POP POP PUSH2 0x11E9 JUMP JUMPDEST PUSH1 0x0 DUP5 DUP2 MSTORE PUSH1 0x6 PUSH1 0x20 DUP2 DUP2 MSTORE PUSH1 0x40 DUP1 DUP5 KECCAK256 PUSH1 0x1 PUSH1 0x1 PUSH1 0xA0 SHL SUB DUP9 AND DUP6 MSTORE DUP3 MSTORE DUP1 DUP5 KECCAK256 SWAP3 DUP6 ADD SLOAD DUP5 MSTORE SWAP2 SWAP1 MSTORE DUP2 KECCAK256 PUSH1 0x2 DUP2 ADD SLOAD ISZERO DUP1 ISZERO SWAP1 PUSH2 0x1147 JUMPI POP PUSH1 0x5 DUP2 ADD SLOAD PUSH2 0x100 SWAP1 DIV PUSH1 0xFF AND ISZERO JUMPDEST DUP1 ISZERO PUSH2 0x1158 JUMPI POP PUSH1 0x5 DUP2 ADD SLOAD PUSH1 0xFF AND ISZERO JUMPDEST ISZERO PUSH2 0x116F JUMPI PUSH1 0x2 DUP2 ADD SLOAD PUSH2 0x116C SWAP1 DUP4 PUSH2 0x2CEB JUMP JUMPDEST SWAP2 POP JUMPDEST PUSH1 0x0 DUP7 DUP2 MSTORE PUSH1 0x6 PUSH1 0x20 SWAP1 DUP2 MSTORE PUSH1 0x40 DUP1 DUP4 KECCAK256 PUSH1 0x1 PUSH1 0x1 PUSH1 0xA0 SHL SUB DUP10 AND DUP5 MSTORE DUP3 MSTORE DUP1 DUP4 KECCAK256 PUSH1 0x7 DUP8 ADD SLOAD DUP5 MSTORE SWAP1 SWAP2 MSTORE SWAP1 KECCAK256 PUSH1 0x2 DUP2 ADD SLOAD ISZERO DUP1 ISZERO SWAP1 PUSH2 0x11BA JUMPI POP PUSH1 0x5 DUP2 ADD SLOAD PUSH2 0x100 SWAP1 DIV PUSH1 0xFF AND ISZERO JUMPDEST DUP1 ISZERO PUSH2 0x11CB JUMPI POP PUSH1 0x5 DUP2 ADD SLOAD PUSH1 0xFF AND ISZERO JUMPDEST ISZERO PUSH2 0x11E2 JUMPI PUSH1 0x2 DUP2 ADD SLOAD PUSH2 0x11DF SWAP1 DUP5 PUSH2 0x2CEB JUMP JUMPDEST SWAP3 POP JUMPDEST POP SWAP1 SWAP3 POP POP POP JUMPDEST SWAP3 SWAP2 POP POP JUMP JUMPDEST PUSH1 0x0 DUP1 JUMPDEST PUSH1 0x4 SLOAD DUP2 LT ISZERO PUSH2 0x1245 JUMPI CALLER PUSH1 0x1 PUSH1 0x1 PUSH1 0xA0 SHL SUB AND PUSH1 0x4 DUP3 DUP2 SLOAD DUP2 LT PUSH2 0x121A JUMPI PUSH2 0x121A PUSH2 0x2C05 JUMP JUMPDEST PUSH1 0x0 SWAP2 DUP3 MSTORE PUSH1 0x20 SWAP1 SWAP2 KECCAK256 ADD SLOAD PUSH1 0x1 PUSH1 0x1 PUSH1 0xA0 SHL SUB AND SUB PUSH2 0x123D JUMPI PUSH1 0x1 SWAP2 POP PUSH2 0x1245 JUMP JUMPDEST PUSH1 0x1 ADD PUSH2 0x11F3 JUMP JUMPDEST POP DUP1 PUSH2 0x1263 JUMPI PUSH1 0x40 MLOAD PUSH3 0x461BCD PUSH1 0xE5 SHL DUP2 MSTORE PUSH1 0x4 ADD PUSH2 0x7CB SWAP1 PUSH2 0x2C1B JUMP JUMPDEST PUSH1 0x0 DUP3 DUP2 MSTORE PUSH1 0x5 PUSH1 0x20 MSTORE PUSH1 0x40 SWAP1 KECCAK256 DUP1 SLOAD PUSH2 0x100 SWAP1 DIV PUSH1 0xFF AND PUSH2 0x1297 JUMPI PUSH1 0x40 MLOAD PUSH3 0x461BCD PUSH1 0xE5 SHL DUP2 MSTORE PUSH1 0x4 ADD PUSH2 0x7CB SWAP1 PUSH2 0x2D37 JUMP JUMPDEST DUP1 SLOAD PUSH1 0xFF AND ISZERO PUSH2 0x12E9 JUMPI PUSH1 0x40 MLOAD PUSH3 0x461BCD PUSH1 0xE5 SHL DUP2 MSTORE PUSH1 0x20 PUSH1 0x4 DUP3 ADD MSTORE PUSH1 0x1D PUSH1 0x24 DUP3 ADD MSTORE PUSH32 0x43616E6E6F7420726566756E64207265736F6C76656420646562617465000000 PUSH1 0x44 DUP3 ADD MSTORE PUSH1 0x64 ADD PUSH2 0x7CB JUMP JUMPDEST PUSH1 0x0 JUMPDEST PUSH1 0x0 DUP5 DUP2 MSTORE PUSH1 0x7 PUSH1 0x20 MSTORE PUSH1 0x40 SWAP1 KECCAK256 SLOAD DUP2 LT ISZERO PUSH2 0x141E JUMPI PUSH1 0x0 DUP5 DUP2 MSTORE PUSH1 0x7 PUSH1 0x20 MSTORE PUSH1 0x40 DUP2 KECCAK256 DUP1 SLOAD DUP4 SWAP1 DUP2 LT PUSH2 0x1322 JUMPI PUSH2 0x1322 PUSH2 0x2C05 JUMP JUMPDEST PUSH1 0x0 SWAP2 DUP3 MSTORE PUSH1 0x20 DUP1 DUP4 KECCAK256 SWAP1 SWAP2 ADD SLOAD DUP8 DUP4 MSTORE PUSH1 0x6 DUP1 DUP4 MSTORE PUSH1 0x40 DUP1 DUP6 KECCAK256 PUSH1 0x1 PUSH1 0x1 PUSH1 0xA0 SHL SUB SWAP1 SWAP4 AND DUP1 DUP7 MSTORE SWAP3 DUP5 MSTORE DUP1 DUP6 KECCAK256 SWAP2 DUP9 ADD SLOAD DUP6 MSTORE SWAP3 MSTORE SWAP2 KECCAK256 PUSH1 0x2 DUP2 ADD SLOAD SWAP2 SWAP3 POP SWAP1 ISZERO DUP1 ISZERO SWAP1 PUSH2 0x137C JUMPI POP PUSH1 0x5 DUP2 ADD SLOAD PUSH2 0x100 SWAP1 DIV PUSH1 0xFF AND ISZERO JUMPDEST DUP1 ISZERO PUSH2 0x138D JUMPI POP PUSH1 0x5 DUP2 ADD SLOAD PUSH1 0xFF AND ISZERO JUMPDEST ISZERO PUSH2 0x13A2 JUMPI PUSH2 0x13A2 DUP7 DUP4 DUP7 PUSH1 0x6 ADD SLOAD DUP5 PUSH2 0x2826 JUMP JUMPDEST PUSH1 0x0 DUP7 DUP2 MSTORE PUSH1 0x6 PUSH1 0x20 SWAP1 DUP2 MSTORE PUSH1 0x40 DUP1 DUP4 KECCAK256 PUSH1 0x1 PUSH1 0x1 PUSH1 0xA0 SHL SUB DUP7 AND DUP5 MSTORE DUP3 MSTORE DUP1 DUP4 KECCAK256 PUSH1 0x7 DUP9 ADD SLOAD DUP5 MSTORE SWAP1 SWAP2 MSTORE SWAP1 KECCAK256 PUSH1 0x2 DUP2 ADD SLOAD ISZERO DUP1 ISZERO SWAP1 PUSH2 0x13ED JUMPI POP PUSH1 0x5 DUP2 ADD SLOAD PUSH2 0x100 SWAP1 DIV PUSH1 0xFF AND ISZERO JUMPDEST DUP1 ISZERO PUSH2 0x13FE JUMPI POP PUSH1 0x5 DUP2 ADD SLOAD PUSH1 0xFF AND ISZERO JUMPDEST ISZERO PUSH2 0x1413 JUMPI PUSH2 0x1413 DUP8 DUP5 DUP8 PUSH1 0x7 ADD SLOAD DUP5 PUSH2 0x2826 JUMP JUMPDEST POP POP POP PUSH1 0x1 ADD PUSH2 0x12EC JUMP JUMPDEST POP PUSH1 0x0 DUP4 DUP2 MSTORE PUSH1 0x7 PUSH1 0x20 MSTORE PUSH1 0x40 SWAP1 DUP2 SWAP1 KECCAK256 SLOAD SWAP1 MLOAD DUP5 SWAP2 PUSH32 0x963A0BB4AF5881750826D32A622D41DD33DEF21860378B8F90B1A390FF7AEFB4 SWAP2 PUSH2 0x1462 SWAP2 DUP2 MSTORE PUSH1 0x20 ADD SWAP1 JUMP JUMPDEST PUSH1 0x40 MLOAD DUP1 SWAP2 SUB SWAP1 LOG2 POP POP POP JUMP JUMPDEST PUSH2 0x1477 PUSH2 0x27A9 JUMP JUMPDEST PUSH1 0x0 DUP2 DUP2 MSTORE PUSH1 0x5 PUSH1 0x20 MSTORE PUSH1 0x40 SWAP1 KECCAK256 DUP1 SLOAD PUSH1 0xFF AND PUSH2 0x14A6 JUMPI PUSH1 0x40 MLOAD PUSH3 0x461BCD PUSH1 0xE5 SHL DUP2 MSTORE PUSH1 0x4 ADD PUSH2 0x7CB SWAP1 PUSH2 0x2D79 JUMP JUMPDEST DUP1 PUSH1 0x1 ADD SLOAD PUSH1 0x0 SUB PUSH2 0x14CA JUMPI PUSH1 0x40 MLOAD PUSH3 0x461BCD PUSH1 0xE5 SHL DUP2 MSTORE PUSH1 0x4 ADD PUSH2 0x7CB SWAP1 PUSH2 0x2D79 JUMP JUMPDEST PUSH1 0x0 DUP2 PUSH1 0x9 ADD SLOAD DUP3 PUSH1 0x8 ADD SLOAD PUSH2 0x14E0 SWAP2 SWAP1 PUSH2 0x2CEB JUMP JUMPDEST SWAP1 POP PUSH1 0x0 PUSH2 0x2710 DUP4 PUSH1 0x2 ADD SLOAD DUP4 PUSH2 0x14F7 SWAP2 SWAP1 PUSH2 0x2CFE JUMP JUMPDEST PUSH2 0x1501 SWAP2 SWAP1 PUSH2 0x2D15 JUMP JUMPDEST SWAP1 POP CALLER SELFBALANCE DUP3 GT ISZERO PUSH2 0x1524 JUMPI PUSH1 0x40 MLOAD PUSH3 0x461BCD PUSH1 0xE5 SHL DUP2 MSTORE PUSH1 0x4 ADD PUSH2 0x7CB SWAP1 PUSH2 0x2CB6 JUMP JUMPDEST PUSH1 0x40 MLOAD PUSH1 0x1 PUSH1 0x1 PUSH1 0xA0 SHL SUB DUP3 AND SWAP1 DUP4 ISZERO PUSH2 0x8FC MUL SWAP1 DUP5 SWAP1 PUSH1 0x0 DUP2 DUP2 DUP2 DUP6 DUP9 DUP9 CALL SWAP4 POP POP POP POP ISZERO DUP1 ISZERO PUSH2 0x155A JUMPI RETURNDATASIZE PUSH1 0x0 DUP1 RETURNDATACOPY RETURNDATASIZE PUSH1 0x0 REVERT JUMPDEST POP POP POP POP POP POP JUMP JUMPDEST PUSH1 0x0 DUP2 DUP2 MSTORE PUSH1 0x5 PUSH1 0x20 SWAP1 DUP2 MSTORE PUSH1 0x40 DUP1 DUP4 KECCAK256 PUSH1 0x7 DUP4 MSTORE DUP2 DUP5 KECCAK256 DUP1 SLOAD DUP4 MLOAD DUP2 DUP7 MUL DUP2 ADD DUP7 ADD SWAP1 SWAP5 MSTORE DUP1 DUP5 MSTORE PUSH1 0x60 SWAP6 SWAP3 SWAP5 SWAP3 SWAP4 SWAP3 DUP4 ADD DUP3 DUP3 DUP1 ISZERO PUSH2 0x15CC JUMPI PUSH1 0x20 MUL DUP3 ADD SWAP2 SWAP1 PUSH1 0x0 MSTORE PUSH1 0x20 PUSH1 0x0 KECCAK256 SWAP1 JUMPDEST DUP2 SLOAD PUSH1 0x1 PUSH1 0x1 PUSH1 0xA0 SHL SUB AND DUP2 MSTORE PUSH1 0x1 SWAP1 SWAP2 ADD SWAP1 PUSH1 0x20 ADD DUP1 DUP4 GT PUSH2 0x15AE JUMPI JUMPDEST POP POP POP POP POP SWAP1 POP PUSH1 0x0 DUP2 MLOAD SWAP1 POP PUSH1 0x0 DUP2 PUSH8 0xFFFFFFFFFFFFFFFF DUP2 GT ISZERO PUSH2 0x15F4 JUMPI PUSH2 0x15F4 PUSH2 0x2DB0 JUMP JUMPDEST PUSH1 0x40 MLOAD SWAP1 DUP1 DUP3 MSTORE DUP1 PUSH1 0x20 MUL PUSH1 0x20 ADD DUP3 ADD PUSH1 0x40 MSTORE DUP1 ISZERO PUSH2 0x163F JUMPI DUP2 PUSH1 0x20 ADD JUMPDEST PUSH1 0x40 DUP1 MLOAD PUSH1 0x60 DUP2 ADD DUP3 MSTORE PUSH1 0x0 DUP1 DUP3 MSTORE PUSH1 0x20 DUP1 DUP4 ADD DUP3 SWAP1 MSTORE SWAP3 DUP3 ADD MSTORE DUP3 MSTORE PUSH1 0x0 NOT SWAP1 SWAP3 ADD SWAP2 ADD DUP2 PUSH2 0x1612 JUMPI SWAP1 POP JUMPDEST POP SWAP1 POP PUSH1 0x0 JUMPDEST DUP3 DUP2 LT ISZERO PUSH2 0x17E2 JUMPI PUSH1 0x0 DUP5 DUP3 DUP2 MLOAD DUP2 LT PUSH2 0x1661 JUMPI PUSH2 0x1661 PUSH2 0x2C05 JUMP JUMPDEST PUSH1 0x20 SWAP1 DUP2 MUL SWAP2 SWAP1 SWAP2 ADD DUP2 ADD MLOAD PUSH1 0x0 DUP11 DUP2 MSTORE PUSH1 0x6 DUP1 DUP5 MSTORE PUSH1 0x40 DUP1 DUP4 KECCAK256 PUSH1 0x1 PUSH1 0x1 PUSH1 0xA0 SHL SUB DUP6 AND DUP5 MSTORE DUP6 MSTORE DUP1 DUP4 KECCAK256 SWAP2 DUP12 ADD SLOAD DUP4 MSTORE SWAP4 MSTORE SWAP2 DUP3 KECCAK256 PUSH1 0x2 DUP2 ADD SLOAD SWAP2 SWAP4 POP DUP3 SWAP2 ISZERO PUSH2 0x16D0 JUMPI PUSH1 0x2 DUP2 ADD SLOAD PUSH2 0x16B6 SWAP1 DUP5 PUSH2 0x2CEB JUMP JUMPDEST PUSH1 0x5 DUP3 ADD SLOAD SWAP1 SWAP4 POP PUSH2 0x100 SWAP1 DIV PUSH1 0xFF AND ISZERO PUSH2 0x16D0 JUMPI PUSH1 0x1 SWAP2 POP JUMPDEST PUSH1 0x0 DUP12 DUP2 MSTORE PUSH1 0x6 PUSH1 0x20 SWAP1 DUP2 MSTORE PUSH1 0x40 DUP1 DUP4 KECCAK256 PUSH1 0x1 PUSH1 0x1 PUSH1 0xA0 SHL SUB DUP9 AND DUP5 MSTORE DUP3 MSTORE DUP1 DUP4 KECCAK256 PUSH1 0x7 DUP14 ADD SLOAD DUP5 MSTORE SWAP1 SWAP2 MSTORE SWAP1 KECCAK256 PUSH1 0x2 DUP2 ADD SLOAD ISZERO PUSH2 0x1731 JUMPI PUSH1 0x2 DUP2 ADD SLOAD PUSH2 0x1717 SWAP1 DUP6 PUSH2 0x2CEB JUMP JUMPDEST PUSH1 0x5 DUP3 ADD SLOAD SWAP1 SWAP5 POP PUSH2 0x100 SWAP1 DIV PUSH1 0xFF AND ISZERO PUSH2 0x1731 JUMPI PUSH1 0x1 SWAP3 POP JUMPDEST PUSH1 0x0 DUP5 ISZERO PUSH2 0x178C JUMPI PUSH1 0x2 DUP4 ADD SLOAD PUSH1 0x1 SWAP1 ISZERO DUP1 ISZERO SWAP1 PUSH2 0x1759 JUMPI POP PUSH1 0x5 DUP5 ADD SLOAD PUSH2 0x100 SWAP1 DIV PUSH1 0xFF AND ISZERO JUMPDEST ISZERO PUSH2 0x1762 JUMPI POP PUSH1 0x0 JUMPDEST PUSH1 0x0 DUP4 PUSH1 0x2 ADD SLOAD GT DUP1 ISZERO PUSH2 0x1780 JUMPI POP PUSH1 0x5 DUP4 ADD SLOAD PUSH2 0x100 SWAP1 DIV PUSH1 0xFF AND ISZERO JUMPDEST ISZERO PUSH2 0x1789 JUMPI POP PUSH1 0x0 JUMPDEST SWAP1 POP JUMPDEST PUSH1 0x40 MLOAD DUP1 PUSH1 0x60 ADD PUSH1 0x40 MSTORE DUP1 DUP8 PUSH1 0x1 PUSH1 0x1 PUSH1 0xA0 SHL SUB AND DUP2 MSTORE PUSH1 0x20 ADD DUP7 DUP2 MSTORE PUSH1 0x20 ADD DUP3 ISZERO ISZERO DUP2 MSTORE POP DUP9 DUP9 DUP2 MLOAD DUP2 LT PUSH2 0x17C4 JUMPI PUSH2 0x17C4 PUSH2 0x2C05 JUMP JUMPDEST PUSH1 0x20 MUL PUSH1 0x20 ADD ADD DUP2 SWAP1 MSTORE POP POP POP POP POP POP POP DUP1 DUP1 PUSH1 0x1 ADD SWAP2 POP POP PUSH2 0x1645 JUMP JUMPDEST POP SWAP6 SWAP5 POP POP POP POP POP JUMP JUMPDEST PUSH1 0x0 DUP2 DUP2 MSTORE PUSH1 0x5 PUSH1 0x20 MSTORE PUSH1 0x40 SWAP1 KECCAK256 DUP1 SLOAD PUSH2 0x100 SWAP1 DIV PUSH1 0xFF AND PUSH2 0x1820 JUMPI PUSH1 0x40 MLOAD PUSH3 0x461BCD PUSH1 0xE5 SHL DUP2 MSTORE PUSH1 0x4 ADD PUSH2 0x7CB SWAP1 PUSH2 0x2D37 JUMP JUMPDEST DUP1 SLOAD PUSH1 0xFF AND ISZERO PUSH2 0x1872 JUMPI PUSH1 0x40 MLOAD PUSH3 0x461BCD PUSH1 0xE5 SHL DUP2 MSTORE PUSH1 0x20 PUSH1 0x4 DUP3 ADD MSTORE PUSH1 0x1D PUSH1 0x24 DUP3 ADD MSTORE PUSH32 0x43616E6E6F7420726566756E64207265736F6C76656420646562617465000000 PUSH1 0x44 DUP3 ADD MSTORE PUSH1 0x64 ADD PUSH2 0x7CB JUMP JUMPDEST PUSH1 0x0 DUP1 JUMPDEST PUSH1 0x0 DUP5 DUP2 MSTORE PUSH1 0x7 PUSH1 0x20 MSTORE PUSH1 0x40 SWAP1 KECCAK256 SLOAD DUP2 LT ISZERO PUSH2 0x18DA JUMPI PUSH1 0x0 DUP5 DUP2 MSTORE PUSH1 0x7 PUSH1 0x20 MSTORE PUSH1 0x40 SWAP1 KECCAK256 DUP1 SLOAD CALLER SWAP2 SWAP1 DUP4 SWAP1 DUP2 LT PUSH2 0x18AF JUMPI PUSH2 0x18AF PUSH2 0x2C05 JUMP JUMPDEST PUSH1 0x0 SWAP2 DUP3 MSTORE PUSH1 0x20 SWAP1 SWAP2 KECCAK256 ADD SLOAD PUSH1 0x1 PUSH1 0x1 PUSH1 0xA0 SHL SUB AND SUB PUSH2 0x18D2 JUMPI PUSH1 0x1 SWAP2 POP PUSH2 0x18DA JUMP JUMPDEST PUSH1 0x1 ADD PUSH2 0x1876 JUMP JUMPDEST POP DUP1 PUSH2 0x18F8 JUMPI PUSH1 0x40 MLOAD PUSH3 0x461BCD PUSH1 0xE5 SHL DUP2 MSTORE PUSH1 0x4 ADD PUSH2 0x7CB SWAP1 PUSH2 0x2DC6 JUMP JUMPDEST PUSH1 0x0 DUP4 DUP2 MSTORE PUSH1 0x6 PUSH1 0x20 DUP2 DUP2 MSTORE PUSH1 0x40 DUP1 DUP5 KECCAK256 CALLER DUP6 MSTORE DUP3 MSTORE DUP1 DUP5 KECCAK256 SWAP3 DUP7 ADD SLOAD DUP5 MSTORE SWAP2 SWAP1 MSTORE DUP2 KECCAK256 PUSH1 0x2 DUP2 ADD SLOAD ISZERO DUP1 ISZERO SWAP1 PUSH2 0x1939 JUMPI POP PUSH1 0x5 DUP2 ADD SLOAD PUSH2 0x100 SWAP1 DIV PUSH1 0xFF AND ISZERO JUMPDEST DUP1 ISZERO PUSH2 0x194A JUMPI POP PUSH1 0x5 DUP2 ADD SLOAD PUSH1 0xFF AND ISZERO JUMPDEST ISZERO PUSH2 0x19FB JUMPI PUSH1 0x2 DUP2 ADD SLOAD PUSH1 0x5 DUP3 ADD DUP1 SLOAD PUSH2 0xFF00 NOT AND PUSH2 0x100 OR SWAP1 SSTORE PUSH1 0x1 SWAP3 POP CALLER SELFBALANCE DUP3 GT ISZERO PUSH2 0x198A JUMPI PUSH1 0x40 MLOAD PUSH3 0x461BCD PUSH1 0xE5 SHL DUP2 MSTORE PUSH1 0x4 ADD PUSH2 0x7CB SWAP1 PUSH2 0x2E0E JUMP JUMPDEST PUSH1 0x40 MLOAD PUSH1 0x1 PUSH1 0x1 PUSH1 0xA0 SHL SUB DUP3 AND SWAP1 DUP4 ISZERO PUSH2 0x8FC MUL SWAP1 DUP5 SWAP1 PUSH1 0x0 DUP2 DUP2 DUP2 DUP6 DUP9 DUP9 CALL SWAP4 POP POP POP POP ISZERO DUP1 ISZERO PUSH2 0x19C0 JUMPI RETURNDATASIZE PUSH1 0x0 DUP1 RETURNDATACOPY RETURNDATASIZE PUSH1 0x0 REVERT JUMPDEST POP PUSH1 0x40 MLOAD DUP3 DUP2 MSTORE CALLER SWAP1 DUP9 SWAP1 PUSH32 0xCB528FCDE812AC8AFD931070257CC24789E622614EDE1FFD81C7A38BEACF3F7B SWAP1 PUSH1 0x20 ADD PUSH1 0x40 MLOAD DUP1 SWAP2 SUB SWAP1 LOG3 POP POP JUMPDEST PUSH1 0x0 DUP6 DUP2 MSTORE PUSH1 0x6 PUSH1 0x20 SWAP1 DUP2 MSTORE PUSH1 0x40 DUP1 DUP4 KECCAK256 CALLER DUP5 MSTORE DUP3 MSTORE DUP1 DUP4 KECCAK256 PUSH1 0x7 DUP9 ADD SLOAD DUP5 MSTORE SWAP1 SWAP2 MSTORE SWAP1 KECCAK256 PUSH1 0x2 DUP2 ADD SLOAD ISZERO DUP1 ISZERO SWAP1 PUSH2 0x1A3D JUMPI POP PUSH1 0x5 DUP2 ADD SLOAD PUSH2 0x100 SWAP1 DIV PUSH1 0xFF AND ISZERO JUMPDEST DUP1 ISZERO PUSH2 0x1A4E JUMPI POP PUSH1 0x5 DUP2 ADD SLOAD PUSH1 0xFF AND ISZERO JUMPDEST ISZERO PUSH2 0x1AFF JUMPI PUSH1 0x2 DUP2 ADD SLOAD PUSH1 0x5 DUP3 ADD DUP1 SLOAD PUSH2 0xFF00 NOT AND PUSH2 0x100 OR SWAP1 SSTORE PUSH1 0x1 SWAP4 POP CALLER SELFBALANCE DUP3 GT ISZERO PUSH2 0x1A8E JUMPI PUSH1 0x40 MLOAD PUSH3 0x461BCD PUSH1 0xE5 SHL DUP2 MSTORE PUSH1 0x4 ADD PUSH2 0x7CB SWAP1 PUSH2 0x2E0E JUMP JUMPDEST PUSH1 0x40 MLOAD PUSH1 0x1 PUSH1 0x1 PUSH1 0xA0 SHL SUB DUP3 AND SWAP1 DUP4 ISZERO PUSH2 0x8FC MUL SWAP1 DUP5 SWAP1 PUSH1 0x0 DUP2 DUP2 DUP2 DUP6 DUP9 DUP9 CALL SWAP4 POP POP POP POP ISZERO DUP1 ISZERO PUSH2 0x1AC4 JUMPI RETURNDATASIZE PUSH1 0x0 DUP1 RETURNDATACOPY RETURNDATASIZE PUSH1 0x0 REVERT JUMPDEST POP PUSH1 0x40 MLOAD DUP3 DUP2 MSTORE CALLER SWAP1 DUP10 SWAP1 PUSH32 0xCB528FCDE812AC8AFD931070257CC24789E622614EDE1FFD81C7A38BEACF3F7B SWAP1 PUSH1 0x20 ADD PUSH1 0x40 MLOAD DUP1 SWAP2 SUB SWAP1 LOG3 POP POP JUMPDEST DUP3 PUSH2 0x155A JUMPI PUSH1 0x40 MLOAD PUSH3 0x461BCD PUSH1 0xE5 SHL DUP2 MSTORE PUSH1 0x20 PUSH1 0x4 DUP3 ADD MSTORE PUSH1 0x21 PUSH1 0x24 DUP3 ADD MSTORE PUSH32 0x4E6F20656C696769626C65206265747320666F756E6420666F7220726566756E PUSH1 0x44 DUP3 ADD MSTORE PUSH1 0x19 PUSH1 0xFA SHL PUSH1 0x64 DUP3 ADD MSTORE PUSH1 0x84 ADD PUSH2 0x7CB JUMP JUMPDEST PUSH1 0x0 DUP3 GT PUSH2 0x1BA6 JUMPI PUSH1 0x40 MLOAD PUSH3 0x461BCD PUSH1 0xE5 SHL DUP2 MSTORE PUSH1 0x20 PUSH1 0x4 DUP3 ADD MSTORE PUSH1 0x1D PUSH1 0x24 DUP3 ADD MSTORE PUSH32 0x416D6F756E74206D7573742062652067726561746572207468616E2030000000 PUSH1 0x44 DUP3 ADD MSTORE PUSH1 0x64 ADD PUSH2 0x7CB JUMP JUMPDEST PUSH1 0x0 DUP4 DUP2 MSTORE PUSH1 0x5 PUSH1 0x20 DUP2 SWAP1 MSTORE PUSH1 0x40 SWAP1 SWAP2 KECCAK256 SWAP1 DUP2 ADD SLOAD PUSH2 0x1C07 JUMPI PUSH1 0x40 MLOAD PUSH3 0x461BCD PUSH1 0xE5 SHL DUP2 MSTORE PUSH1 0x20 PUSH1 0x4 DUP3 ADD MSTORE PUSH1 0x1B PUSH1 0x24 DUP3 ADD MSTORE PUSH32 0x446562617465206973206E6F74207075626C6973686564207965740000000000 PUSH1 0x44 DUP3 ADD MSTORE PUSH1 0x64 ADD PUSH2 0x7CB JUMP JUMPDEST DUP1 PUSH1 0x4 ADD SLOAD PUSH1 0x0 SUB PUSH2 0x1C4F JUMPI PUSH1 0x40 MLOAD PUSH3 0x461BCD PUSH1 0xE5 SHL DUP2 MSTORE PUSH1 0x20 PUSH1 0x4 DUP3 ADD MSTORE PUSH1 0x11 PUSH1 0x24 DUP3 ADD MSTORE PUSH17 0x111958985D19481A5CC819195B195D1959 PUSH1 0x7A SHL PUSH1 0x44 DUP3 ADD MSTORE PUSH1 0x64 ADD PUSH2 0x7CB JUMP JUMPDEST DUP1 SLOAD PUSH1 0xFF AND ISZERO PUSH2 0x1CAC JUMPI PUSH1 0x40 MLOAD PUSH3 0x461BCD PUSH1 0xE5 SHL DUP2 MSTORE PUSH1 0x20 PUSH1 0x4 DUP3 ADD MSTORE PUSH1 0x22 PUSH1 0x24 DUP3 ADD MSTORE PUSH32 0x4465626174652073657373696F6E20697320616C7265616479207265736F6C76 PUSH1 0x44 DUP3 ADD MSTORE PUSH2 0x1959 PUSH1 0xF2 SHL PUSH1 0x64 DUP3 ADD MSTORE PUSH1 0x84 ADD PUSH2 0x7CB JUMP JUMPDEST DUP1 SLOAD PUSH2 0x100 SWAP1 DIV PUSH1 0xFF AND ISZERO PUSH2 0x1D1F JUMPI PUSH1 0x40 MLOAD PUSH3 0x461BCD PUSH1 0xE5 SHL DUP2 MSTORE PUSH1 0x20 PUSH1 0x4 DUP3 ADD MSTORE PUSH1 0x33 PUSH1 0x24 DUP3 ADD MSTORE PUSH32 0x446562617465206973206D61726B656420617320726566756E6461626C652C20 PUSH1 0x44 DUP3 ADD MSTORE PUSH19 0x1B9BC81B995DC818995D1CC8185B1B1BDDD959 PUSH1 0x6A SHL PUSH1 0x64 DUP3 ADD MSTORE PUSH1 0x84 ADD PUSH2 0x7CB JUMP JUMPDEST DUP1 PUSH1 0x5 ADD SLOAD TIMESTAMP GT PUSH2 0x1D7C JUMPI PUSH1 0x40 MLOAD PUSH3 0x461BCD PUSH1 0xE5 SHL DUP2 MSTORE PUSH1 0x20 PUSH1 0x4 DUP3 ADD MSTORE PUSH1 0x21 PUSH1 0x24 DUP3 ADD MSTORE PUSH32 0x4465626174652073657373696F6E206973206E6F742073746172746564207965 PUSH1 0x44 DUP3 ADD MSTORE PUSH1 0x1D PUSH1 0xFA SHL PUSH1 0x64 DUP3 ADD MSTORE PUSH1 0x84 ADD PUSH2 0x7CB JUMP JUMPDEST PUSH1 0x2 SLOAD DUP2 PUSH1 0x3 ADD SLOAD DUP3 PUSH1 0x4 ADD SLOAD PUSH2 0x1D93 SWAP2 SWAP1 PUSH2 0x2CEB JUMP JUMPDEST PUSH2 0x1D9D SWAP2 SWAP1 PUSH2 0x2C56 JUMP JUMPDEST TIMESTAMP LT PUSH2 0x1DEB JUMPI PUSH1 0x40 MLOAD PUSH3 0x461BCD PUSH1 0xE5 SHL DUP2 MSTORE PUSH1 0x20 PUSH1 0x4 DUP3 ADD MSTORE PUSH1 0x19 PUSH1 0x24 DUP3 ADD MSTORE PUSH32 0x43616E206E6F7420706C6163652062657420616E796D6F726500000000000000 PUSH1 0x44 DUP3 ADD MSTORE PUSH1 0x64 ADD PUSH2 0x7CB JUMP JUMPDEST DUP3 CALLVALUE LT ISZERO PUSH2 0x1E3B JUMPI PUSH1 0x40 MLOAD PUSH3 0x461BCD PUSH1 0xE5 SHL DUP2 MSTORE PUSH1 0x20 PUSH1 0x4 DUP3 ADD MSTORE PUSH1 0x19 PUSH1 0x24 DUP3 ADD MSTORE PUSH32 0x46656520616D6F756E74206973206E6F7420636F727265637400000000000000 PUSH1 0x44 DUP3 ADD MSTORE PUSH1 0x64 ADD PUSH2 0x7CB JUMP JUMPDEST DUP1 PUSH1 0x6 ADD SLOAD DUP3 SUB PUSH2 0x1E65 JUMPI DUP3 DUP2 PUSH1 0x8 ADD PUSH1 0x0 DUP3 DUP3 SLOAD PUSH2 0x1E5A SWAP2 SWAP1 PUSH2 0x2CEB JUMP JUMPDEST SWAP1 SWAP2 SSTORE POP PUSH2 0x1F2F SWAP1 POP JUMP JUMPDEST DUP1 PUSH1 0x7 ADD SLOAD DUP3 SUB PUSH2 0x1E84 JUMPI DUP3 DUP2 PUSH1 0x9 ADD PUSH1 0x0 DUP3 DUP3 SLOAD PUSH2 0x1E5A SWAP2 SWAP1 PUSH2 0x2CEB JUMP JUMPDEST PUSH1 0x6 DUP2 ADD SLOAD ISZERO DUP1 PUSH2 0x1E97 JUMPI POP PUSH1 0x7 DUP2 ADD SLOAD ISZERO JUMPDEST PUSH2 0x1EE3 JUMPI PUSH1 0x40 MLOAD PUSH3 0x461BCD PUSH1 0xE5 SHL DUP2 MSTORE PUSH1 0x20 PUSH1 0x4 DUP3 ADD DUP2 SWAP1 MSTORE PUSH1 0x24 DUP3 ADD MSTORE PUSH32 0x426F7468206167656E74732061726520616C72656164792061737369676E6564 PUSH1 0x44 DUP3 ADD MSTORE PUSH1 0x64 ADD PUSH2 0x7CB JUMP JUMPDEST DUP1 PUSH1 0x6 ADD SLOAD PUSH1 0x0 SUB PUSH2 0x1F0C JUMPI DUP2 DUP2 PUSH1 0x6 ADD DUP2 SWAP1 SSTORE POP DUP3 DUP2 PUSH1 0x8 ADD PUSH1 0x0 DUP3 DUP3 SLOAD PUSH2 0x1E5A SWAP2 SWAP1 PUSH2 0x2CEB JUMP JUMPDEST DUP2 DUP2 PUSH1 0x7 ADD DUP2 SWAP1 SSTORE POP DUP3 DUP2 PUSH1 0x9 ADD PUSH1 0x0 DUP3 DUP3 SLOAD PUSH2 0x1F29 SWAP2 SWAP1 PUSH2 0x2CEB JUMP JUMPDEST SWAP1 SWAP2 SSTORE POP POP JUMPDEST PUSH1 0x0 DUP5 DUP2 MSTORE PUSH1 0x6 PUSH1 0x20 SWAP1 DUP2 MSTORE PUSH1 0x40 DUP1 DUP4 KECCAK256 CALLER DUP5 MSTORE DUP3 MSTORE DUP1 DUP4 KECCAK256 DUP6 DUP5 MSTORE SWAP1 SWAP2 MSTORE SWAP1 KECCAK256 PUSH1 0x2 DUP2 ADD SLOAD ISZERO PUSH2 0x1F79 JUMPI DUP4 DUP2 PUSH1 0x2 ADD PUSH1 0x0 DUP3 DUP3 SLOAD PUSH2 0x1F6E SWAP2 SWAP1 PUSH2 0x2CEB JUMP JUMPDEST SWAP1 SWAP2 SSTORE POP PUSH2 0x2038 SWAP1 POP JUMP JUMPDEST PUSH1 0x40 DUP1 MLOAD PUSH1 0xE0 DUP2 ADD DUP3 MSTORE DUP7 DUP2 MSTORE CALLER PUSH1 0x20 DUP1 DUP4 ADD DUP3 DUP2 MSTORE DUP4 DUP6 ADD DUP10 DUP2 MSTORE PUSH1 0x0 PUSH1 0x60 DUP7 ADD DUP2 DUP2 MSTORE PUSH1 0x80 DUP8 ADD DUP12 DUP2 MSTORE PUSH1 0xA0 DUP9 ADD DUP4 DUP2 MSTORE PUSH1 0xC0 DUP10 ADD DUP5 DUP2 MSTORE DUP16 DUP6 MSTORE PUSH1 0x6 DUP9 MSTORE DUP11 DUP6 KECCAK256 SWAP9 DUP6 MSTORE SWAP8 DUP8 MSTORE DUP10 DUP5 KECCAK256 DUP14 DUP6 MSTORE SWAP1 SWAP7 MSTORE SWAP8 SWAP1 SWAP2 KECCAK256 SWAP6 MLOAD DUP7 SSTORE SWAP2 MLOAD PUSH1 0x1 DUP7 ADD DUP1 SLOAD PUSH1 0x1 PUSH1 0x1 PUSH1 0xA0 SHL SUB SWAP3 SWAP1 SWAP3 AND PUSH1 0x1 PUSH1 0x1 PUSH1 0xA0 SHL SUB NOT SWAP1 SWAP3 AND SWAP2 SWAP1 SWAP2 OR SWAP1 SSTORE MLOAD PUSH1 0x2 DUP6 ADD SSTORE MLOAD PUSH1 0x3 DUP5 ADD SSTORE SWAP3 MLOAD PUSH1 0x4 DUP4 ADD SSTORE SWAP2 MLOAD PUSH1 0x5 SWAP1 SWAP2 ADD DUP1 SLOAD SWAP3 MLOAD ISZERO ISZERO PUSH2 0x100 MUL PUSH2 0xFF00 NOT SWAP3 ISZERO ISZERO SWAP3 SWAP1 SWAP3 AND PUSH2 0xFFFF NOT SWAP1 SWAP4 AND SWAP3 SWAP1 SWAP3 OR OR SWAP1 SSTORE JUMPDEST PUSH1 0x0 DUP1 JUMPDEST PUSH1 0x0 DUP8 DUP2 MSTORE PUSH1 0x7 PUSH1 0x20 MSTORE PUSH1 0x40 SWAP1 KECCAK256 SLOAD DUP2 LT ISZERO PUSH2 0x20A0 JUMPI PUSH1 0x0 DUP8 DUP2 MSTORE PUSH1 0x7 PUSH1 0x20 MSTORE PUSH1 0x40 SWAP1 KECCAK256 DUP1 SLOAD CALLER SWAP2 SWAP1 DUP4 SWAP1 DUP2 LT PUSH2 0x2075 JUMPI PUSH2 0x2075 PUSH2 0x2C05 JUMP JUMPDEST PUSH1 0x0 SWAP2 DUP3 MSTORE PUSH1 0x20 SWAP1 SWAP2 KECCAK256 ADD SLOAD PUSH1 0x1 PUSH1 0x1 PUSH1 0xA0 SHL SUB AND SUB PUSH2 0x2098 JUMPI PUSH1 0x1 SWAP2 POP PUSH2 0x20A0 JUMP JUMPDEST PUSH1 0x1 ADD PUSH2 0x203C JUMP JUMPDEST POP DUP1 PUSH2 0x20D5 JUMPI PUSH1 0x0 DUP7 DUP2 MSTORE PUSH1 0x7 PUSH1 0x20 SWAP1 DUP2 MSTORE PUSH1 0x40 DUP3 KECCAK256 DUP1 SLOAD PUSH1 0x1 DUP2 ADD DUP3 SSTORE SWAP1 DUP4 MSTORE SWAP2 KECCAK256 ADD DUP1 SLOAD PUSH1 0x1 PUSH1 0x1 PUSH1 0xA0 SHL SUB NOT AND CALLER OR SWAP1 SSTORE JUMPDEST PUSH1 0x2 DUP4 ADD SLOAD PUSH1 0x40 DUP1 MLOAD DUP7 DUP2 MSTORE PUSH1 0x20 DUP2 ADD DUP9 SWAP1 MSTORE SWAP1 DUP2 ADD SWAP2 SWAP1 SWAP2 MSTORE CALLER SWAP1 DUP8 SWAP1 PUSH32 0xAB2115BAC1DE808EB7FE2BE0309085B11F1F42B1EB980DE8352EFEFDBFC098E2 SWAP1 PUSH1 0x60 ADD JUMPDEST PUSH1 0x40 MLOAD DUP1 SWAP2 SUB SWAP1 LOG3 POP POP POP POP POP POP JUMP JUMPDEST PUSH2 0x2131 PUSH2 0x27A9 JUMP JUMPDEST PUSH1 0x1 PUSH1 0x1 PUSH1 0xA0 SHL SUB DUP2 AND PUSH2 0x215B JUMPI PUSH1 0x40 MLOAD PUSH4 0x1E4FBDF7 PUSH1 0xE0 SHL DUP2 MSTORE PUSH1 0x0 PUSH1 0x4 DUP3 ADD MSTORE PUSH1 0x24 ADD PUSH2 0x7CB JUMP JUMPDEST PUSH2 0x2164 DUP2 PUSH2 0x27D6 JUMP JUMPDEST POP JUMP JUMPDEST PUSH1 0x0 DUP1 JUMPDEST PUSH1 0x4 SLOAD DUP2 LT ISZERO PUSH2 0x21BD JUMPI CALLER PUSH1 0x1 PUSH1 0x1 PUSH1 0xA0 SHL SUB AND PUSH1 0x4 DUP3 DUP2 SLOAD DUP2 LT PUSH2 0x2192 JUMPI PUSH2 0x2192 PUSH2 0x2C05 JUMP JUMPDEST PUSH1 0x0 SWAP2 DUP3 MSTORE PUSH1 0x20 SWAP1 SWAP2 KECCAK256 ADD SLOAD PUSH1 0x1 PUSH1 0x1 PUSH1 0xA0 SHL SUB AND SUB PUSH2 0x21B5 JUMPI PUSH1 0x1 SWAP2 POP PUSH2 0x21BD JUMP JUMPDEST PUSH1 0x1 ADD PUSH2 0x216B JUMP JUMPDEST POP DUP1 PUSH2 0x21DB JUMPI PUSH1 0x40 MLOAD PUSH3 0x461BCD PUSH1 0xE5 SHL DUP2 MSTORE PUSH1 0x4 ADD PUSH2 0x7CB SWAP1 PUSH2 0x2C1B JUMP JUMPDEST PUSH1 0x0 DUP9 DUP2 MSTORE PUSH1 0x5 PUSH1 0x20 MSTORE PUSH1 0x40 SWAP1 KECCAK256 PUSH1 0x6 DUP2 ADD SLOAD ISZERO DUP1 ISZERO PUSH2 0x21FD JUMPI POP PUSH1 0x7 DUP2 ADD SLOAD ISZERO JUMPDEST PUSH2 0x2249 JUMPI PUSH1 0x40 MLOAD PUSH3 0x461BCD PUSH1 0xE5 SHL DUP2 MSTORE PUSH1 0x20 PUSH1 0x4 DUP3 ADD MSTORE PUSH1 0x19 PUSH1 0x24 DUP3 ADD MSTORE PUSH32 0x44656261746520697320616C7265616479206372656174656400000000000000 PUSH1 0x44 DUP3 ADD MSTORE PUSH1 0x64 ADD PUSH2 0x7CB JUMP JUMPDEST DUP5 PUSH2 0x2254 DUP5 DUP7 PUSH2 0x2CEB JUMP JUMPDEST GT PUSH2 0x22B3 JUMPI PUSH1 0x40 MLOAD PUSH3 0x461BCD PUSH1 0xE5 SHL DUP2 MSTORE PUSH1 0x20 PUSH1 0x4 DUP3 ADD MSTORE PUSH1 0x29 PUSH1 0x24 DUP3 ADD MSTORE PUSH32 0x456E642074696D65206D7573742062652067726561746572207468616E207075 PUSH1 0x44 DUP3 ADD MSTORE PUSH9 0x626C69632074696D65 PUSH1 0xB8 SHL PUSH1 0x64 DUP3 ADD MSTORE PUSH1 0x84 ADD PUSH2 0x7CB JUMP JUMPDEST PUSH1 0x6 DUP2 ADD DUP9 SWAP1 SSTORE PUSH1 0x7 DUP2 ADD DUP8 SWAP1 SSTORE PUSH1 0x0 DUP7 SWAP1 SUB PUSH2 0x22D7 JUMPI PUSH1 0x1 SLOAD PUSH1 0x2 DUP3 ADD SSTORE PUSH2 0x22DF JUMP JUMPDEST PUSH1 0x2 DUP2 ADD DUP7 SWAP1 SSTORE JUMPDEST PUSH1 0x5 DUP2 ADD DUP6 SWAP1 SSTORE PUSH1 0x4 DUP2 ADD DUP5 SWAP1 SSTORE PUSH1 0x3 DUP2 ADD DUP4 SWAP1 SSTORE PUSH1 0x40 DUP1 MLOAD DUP10 DUP2 MSTORE PUSH1 0x20 DUP2 ADD DUP10 SWAP1 MSTORE SWAP1 DUP2 ADD DUP8 SWAP1 MSTORE PUSH1 0x60 DUP2 ADD DUP7 SWAP1 MSTORE PUSH1 0x80 DUP2 ADD DUP6 SWAP1 MSTORE PUSH1 0xA0 DUP2 ADD DUP5 SWAP1 MSTORE DUP10 SWAP1 PUSH32 0x74245C13FA29018D2E3827A29B9F092A79B7D948264385DCA981D1D6BA38A76F SWAP1 PUSH1 0xC0 ADD PUSH2 0x10B6 JUMP JUMPDEST PUSH1 0x0 DUP2 DUP2 MSTORE PUSH1 0x5 PUSH1 0x20 MSTORE PUSH1 0x40 SWAP1 KECCAK256 DUP1 SLOAD PUSH1 0xFF AND PUSH2 0x2378 JUMPI PUSH1 0x40 MLOAD PUSH3 0x461BCD PUSH1 0xE5 SHL DUP2 MSTORE PUSH1 0x4 ADD PUSH2 0x7CB SWAP1 PUSH2 0x2D79 JUMP JUMPDEST DUP1 SLOAD PUSH2 0x100 SWAP1 DIV PUSH1 0xFF AND ISZERO PUSH2 0x23E9 JUMPI PUSH1 0x40 MLOAD PUSH3 0x461BCD PUSH1 0xE5 SHL DUP2 MSTORE PUSH1 0x20 PUSH1 0x4 DUP3 ADD MSTORE PUSH1 0x31 PUSH1 0x24 DUP3 ADD MSTORE PUSH32 0x44656261746520697320726566756E6461626C652C2075736520726566756E64 PUSH1 0x44 DUP3 ADD MSTORE PUSH17 0x20696E7374656164206F6620636C61696D PUSH1 0x78 SHL PUSH1 0x64 DUP3 ADD MSTORE PUSH1 0x84 ADD PUSH2 0x7CB JUMP JUMPDEST PUSH1 0x0 DUP1 JUMPDEST PUSH1 0x0 DUP5 DUP2 MSTORE PUSH1 0x7 PUSH1 0x20 MSTORE PUSH1 0x40 SWAP1 KECCAK256 SLOAD DUP2 LT ISZERO PUSH2 0x2451 JUMPI PUSH1 0x0 DUP5 DUP2 MSTORE PUSH1 0x7 PUSH1 0x20 MSTORE PUSH1 0x40 SWAP1 KECCAK256 DUP1 SLOAD CALLER SWAP2 SWAP1 DUP4 SWAP1 DUP2 LT PUSH2 0x2426 JUMPI PUSH2 0x2426 PUSH2 0x2C05 JUMP JUMPDEST PUSH1 0x0 SWAP2 DUP3 MSTORE PUSH1 0x20 SWAP1 SWAP2 KECCAK256 ADD SLOAD PUSH1 0x1 PUSH1 0x1 PUSH1 0xA0 SHL SUB AND SUB PUSH2 0x2449 JUMPI PUSH1 0x1 SWAP2 POP PUSH2 0x2451 JUMP JUMPDEST PUSH1 0x1 ADD PUSH2 0x23ED JUMP JUMPDEST POP DUP1 PUSH2 0x246F JUMPI PUSH1 0x40 MLOAD PUSH3 0x461BCD PUSH1 0xE5 SHL DUP2 MSTORE PUSH1 0x4 ADD PUSH2 0x7CB SWAP1 PUSH2 0x2DC6 JUMP JUMPDEST PUSH1 0x1 DUP3 ADD SLOAD PUSH1 0x0 DUP5 DUP2 MSTORE PUSH1 0x6 PUSH1 0x20 SWAP1 DUP2 MSTORE PUSH1 0x40 DUP1 DUP4 KECCAK256 CALLER DUP5 MSTORE DUP3 MSTORE DUP1 DUP4 KECCAK256 DUP5 DUP5 MSTORE SWAP1 SWAP2 MSTORE SWAP1 KECCAK256 PUSH1 0x5 DUP2 ADD SLOAD PUSH1 0xFF AND ISZERO PUSH2 0x24F6 JUMPI PUSH1 0x40 MLOAD PUSH3 0x461BCD PUSH1 0xE5 SHL DUP2 MSTORE PUSH1 0x20 PUSH1 0x4 DUP3 ADD MSTORE PUSH1 0x23 PUSH1 0x24 DUP3 ADD MSTORE PUSH32 0x596F75206861766520616C726561647920636C61696D65642074686520726577 PUSH1 0x44 DUP3 ADD MSTORE PUSH3 0x185C99 PUSH1 0xEA SHL PUSH1 0x64 DUP3 ADD MSTORE PUSH1 0x84 ADD PUSH2 0x7CB JUMP JUMPDEST PUSH1 0x0 DUP2 PUSH1 0x3 ADD SLOAD GT PUSH2 0x254A JUMPI PUSH1 0x40 MLOAD PUSH3 0x461BCD PUSH1 0xE5 SHL DUP2 MSTORE PUSH1 0x20 PUSH1 0x4 DUP3 ADD MSTORE PUSH1 0x17 PUSH1 0x24 DUP3 ADD MSTORE PUSH32 0x596F7520646964206E6F742077696E2074686520626574000000000000000000 PUSH1 0x44 DUP3 ADD MSTORE PUSH1 0x64 ADD PUSH2 0x7CB JUMP JUMPDEST PUSH1 0x3 DUP2 ADD SLOAD CALLER SWAP1 SELFBALANCE LT ISZERO PUSH2 0x2570 JUMPI PUSH1 0x40 MLOAD PUSH3 0x461BCD PUSH1 0xE5 SHL DUP2 MSTORE PUSH1 0x4 ADD PUSH2 0x7CB SWAP1 PUSH2 0x2CB6 JUMP JUMPDEST PUSH1 0x3 DUP3 ADD SLOAD PUSH1 0x40 MLOAD PUSH1 0x1 PUSH1 0x1 PUSH1 0xA0 SHL SUB DUP4 AND SWAP2 DUP1 ISZERO PUSH2 0x8FC MUL SWAP2 PUSH1 0x0 DUP2 DUP2 DUP2 DUP6 DUP9 DUP9 CALL SWAP4 POP POP POP POP ISZERO DUP1 ISZERO PUSH2 0x25A9 JUMPI RETURNDATASIZE PUSH1 0x0 DUP1 RETURNDATACOPY RETURNDATASIZE PUSH1 0x0 REVERT JUMPDEST POP PUSH1 0x5 DUP3 ADD DUP1 SLOAD PUSH1 0xFF NOT AND PUSH1 0x1 OR SWAP1 SSTORE PUSH1 0x4 DUP3 ADD SLOAD PUSH1 0x3 DUP4 ADD SLOAD PUSH1 0x40 MLOAD CALLER SWAP3 DUP10 SWAP3 PUSH32 0x4EED845A8C2DAB6B8F3276326563AE95A67314D068314298838CC3246BB3E3E0 SWAP3 PUSH2 0x2119 SWAP3 SWAP2 SWAP1 SWAP2 DUP3 MSTORE PUSH1 0x20 DUP3 ADD MSTORE PUSH1 0x40 ADD SWAP1 JUMP JUMPDEST PUSH1 0x0 DUP1 JUMPDEST PUSH1 0x4 SLOAD DUP2 LT ISZERO PUSH2 0x2656 JUMPI CALLER PUSH1 0x1 PUSH1 0x1 PUSH1 0xA0 SHL SUB AND PUSH1 0x4 DUP3 DUP2 SLOAD DUP2 LT PUSH2 0x262B JUMPI PUSH2 0x262B PUSH2 0x2C05 JUMP JUMPDEST PUSH1 0x0 SWAP2 DUP3 MSTORE PUSH1 0x20 SWAP1 SWAP2 KECCAK256 ADD SLOAD PUSH1 0x1 PUSH1 0x1 PUSH1 0xA0 SHL SUB AND SUB PUSH2 0x264E JUMPI PUSH1 0x1 SWAP2 POP PUSH2 0x2656 JUMP JUMPDEST PUSH1 0x1 ADD PUSH2 0x2604 JUMP JUMPDEST POP DUP1 PUSH2 0x2674 JUMPI PUSH1 0x40 MLOAD PUSH3 0x461BCD PUSH1 0xE5 SHL DUP2 MSTORE PUSH1 0x4 ADD PUSH2 0x7CB SWAP1 PUSH2 0x2C1B JUMP JUMPDEST PUSH1 0x0 DUP3 DUP2 MSTORE PUSH1 0x5 PUSH1 0x20 MSTORE PUSH1 0x40 SWAP1 KECCAK256 PUSH1 0x6 DUP2 ADD SLOAD ISZERO DUP1 ISZERO SWAP1 PUSH2 0x2698 JUMPI POP PUSH1 0x7 DUP2 ADD SLOAD ISZERO ISZERO JUMPDEST PUSH2 0x26B4 JUMPI PUSH1 0x40 MLOAD PUSH3 0x461BCD PUSH1 0xE5 SHL DUP2 MSTORE PUSH1 0x4 ADD PUSH2 0x7CB SWAP1 PUSH2 0x2C69 JUMP JUMPDEST DUP1 SLOAD PUSH1 0xFF AND ISZERO PUSH2 0x2706 JUMPI PUSH1 0x40 MLOAD PUSH3 0x461BCD PUSH1 0xE5 SHL DUP2 MSTORE PUSH1 0x20 PUSH1 0x4 DUP3 ADD MSTORE PUSH1 0x1A PUSH1 0x24 DUP3 ADD MSTORE PUSH32 0x44656261746520697320616C7265616479207265736F6C766564000000000000 PUSH1 0x44 DUP3 ADD MSTORE PUSH1 0x64 ADD PUSH2 0x7CB JUMP JUMPDEST DUP1 SLOAD PUSH2 0x100 SWAP1 DIV PUSH1 0xFF AND ISZERO PUSH2 0x276C JUMPI PUSH1 0x40 MLOAD PUSH3 0x461BCD PUSH1 0xE5 SHL DUP2 MSTORE PUSH1 0x20 PUSH1 0x4 DUP3 ADD MSTORE PUSH1 0x26 PUSH1 0x24 DUP3 ADD MSTORE PUSH32 0x44656261746520697320616C7265616479206D61726B65642061732072656675 PUSH1 0x44 DUP3 ADD MSTORE PUSH6 0x6E6461626C65 PUSH1 0xD0 SHL PUSH1 0x64 DUP3 ADD MSTORE PUSH1 0x84 ADD PUSH2 0x7CB JUMP JUMPDEST DUP1 SLOAD PUSH2 0xFF00 NOT AND PUSH2 0x100 OR DUP2 SSTORE PUSH1 0x40 MLOAD DUP4 SWAP1 PUSH32 0xDA718C7FAB5DE6540A4AFCF73416CFF740CE2DE5286111F87C86D8CC68C99FFF SWAP1 PUSH1 0x0 SWAP1 LOG2 POP POP POP JUMP JUMPDEST PUSH1 0x0 SLOAD PUSH1 0x1 PUSH1 0x1 PUSH1 0xA0 SHL SUB AND CALLER EQ PUSH2 0xB31 JUMPI PUSH1 0x40 MLOAD PUSH4 0x118CDAA7 PUSH1 0xE0 SHL DUP2 MSTORE CALLER PUSH1 0x4 DUP3 ADD MSTORE PUSH1 0x24 ADD PUSH2 0x7CB JUMP JUMPDEST PUSH1 0x0 DUP1 SLOAD PUSH1 0x1 PUSH1 0x1 PUSH1 0xA0 SHL SUB DUP4 DUP2 AND PUSH1 0x1 PUSH1 0x1 PUSH1 0xA0 SHL SUB NOT DUP4 AND DUP2 OR DUP5 SSTORE PUSH1 0x40 MLOAD SWAP2 SWAP1 SWAP3 AND SWAP3 DUP4 SWAP2 PUSH32 0x8BE0079C531659141344CD1FD0A4F28419497F9722A3DAAFE3B4186F6B6457E0 SWAP2 SWAP1 LOG3 POP POP JUMP JUMPDEST PUSH1 0x0 DUP2 PUSH1 0x2 ADD SLOAD GT PUSH2 0x287A JUMPI PUSH1 0x40 MLOAD PUSH3 0x461BCD PUSH1 0xE5 SHL DUP2 MSTORE PUSH1 0x20 PUSH1 0x4 DUP3 ADD MSTORE PUSH1 0x17 PUSH1 0x24 DUP3 ADD MSTORE PUSH32 0x4E6F2062657420616D6F756E7420746F20726566756E64000000000000000000 PUSH1 0x44 DUP3 ADD MSTORE PUSH1 0x64 ADD PUSH2 0x7CB JUMP JUMPDEST PUSH1 0x5 DUP2 ADD SLOAD PUSH2 0x100 SWAP1 DIV PUSH1 0xFF AND ISZERO PUSH2 0x28C7 JUMPI PUSH1 0x40 MLOAD PUSH3 0x461BCD PUSH1 0xE5 SHL DUP2 MSTORE PUSH1 0x20 PUSH1 0x4 DUP3 ADD MSTORE PUSH1 0x10 PUSH1 0x24 DUP3 ADD MSTORE PUSH16 0x105B1C9958591E481C99599D5B991959 PUSH1 0x82 SHL PUSH1 0x44 DUP3 ADD MSTORE PUSH1 0x64 ADD PUSH2 0x7CB JUMP JUMPDEST PUSH1 0x5 DUP2 ADD SLOAD PUSH1 0xFF AND ISZERO PUSH2 0x291C JUMPI PUSH1 0x40 MLOAD PUSH3 0x461BCD PUSH1 0xE5 SHL DUP2 MSTORE PUSH1 0x20 PUSH1 0x4 DUP3 ADD MSTORE PUSH1 0x19 PUSH1 0x24 DUP3 ADD MSTORE PUSH32 0x43616E6E6F7420726566756E6420636C61696D65642062657400000000000000 PUSH1 0x44 DUP3 ADD MSTORE PUSH1 0x64 ADD PUSH2 0x7CB JUMP JUMPDEST PUSH1 0x2 DUP2 ADD SLOAD PUSH1 0x5 DUP3 ADD DUP1 SLOAD PUSH2 0xFF00 NOT AND PUSH2 0x100 OR SWAP1 SSTORE DUP4 SELFBALANCE DUP3 GT ISZERO PUSH2 0x2953 JUMPI PUSH1 0x40 MLOAD PUSH3 0x461BCD PUSH1 0xE5 SHL DUP2 MSTORE PUSH1 0x4 ADD PUSH2 0x7CB SWAP1 PUSH2 0x2E0E JUMP JUMPDEST PUSH1 0x40 MLOAD PUSH1 0x1 PUSH1 0x1 PUSH1 0xA0 SHL SUB DUP3 AND SWAP1 DUP4 ISZERO PUSH2 0x8FC MUL SWAP1 DUP5 SWAP1 PUSH1 0x0 DUP2 DUP2 DUP2 DUP6 DUP9 DUP9 CALL SWAP4 POP POP POP POP ISZERO DUP1 ISZERO PUSH2 0x2989 JUMPI RETURNDATASIZE PUSH1 0x0 DUP1 RETURNDATACOPY RETURNDATASIZE PUSH1 0x0 REVERT JUMPDEST POP DUP5 PUSH1 0x1 PUSH1 0x1 PUSH1 0xA0 SHL SUB AND DUP7 PUSH32 0xCB528FCDE812AC8AFD931070257CC24789E622614EDE1FFD81C7A38BEACF3F7B DUP5 PUSH1 0x40 MLOAD PUSH2 0x2119 SWAP2 DUP2 MSTORE PUSH1 0x20 ADD SWAP1 JUMP JUMPDEST DUP1 CALLDATALOAD PUSH1 0x1 PUSH1 0x1 PUSH1 0xA0 SHL SUB DUP2 AND DUP2 EQ PUSH2 0x29DD JUMPI PUSH1 0x0 DUP1 REVERT JUMPDEST SWAP2 SWAP1 POP JUMP JUMPDEST PUSH1 0x0 PUSH1 0x20 DUP3 DUP5 SUB SLT ISZERO PUSH2 0x29F4 JUMPI PUSH1 0x0 DUP1 REVERT JUMPDEST PUSH2 0x29FD DUP3 PUSH2 0x29C6 JUMP JUMPDEST SWAP4 SWAP3 POP POP POP JUMP JUMPDEST PUSH1 0x0 PUSH1 0x20 DUP3 DUP5 SUB SLT ISZERO PUSH2 0x2A16 JUMPI PUSH1 0x0 DUP1 REVERT JUMPDEST POP CALLDATALOAD SWAP2 SWAP1 POP JUMP JUMPDEST DUP2 MLOAD ISZERO ISZERO DUP2 MSTORE PUSH2 0x160 DUP2 ADD PUSH1 0x20 DUP4 ADD MLOAD PUSH2 0x2A3B PUSH1 0x20 DUP5 ADD DUP3 ISZERO ISZERO SWAP1 MSTORE JUMP JUMPDEST POP PUSH1 0x40 DUP4 ADD MLOAD PUSH1 0x40 DUP4 ADD MSTORE PUSH1 0x60 DUP4 ADD MLOAD PUSH1 0x60 DUP4 ADD MSTORE PUSH1 0x80 DUP4 ADD MLOAD PUSH1 0x80 DUP4 ADD MSTORE PUSH1 0xA0 DUP4 ADD MLOAD PUSH1 0xA0 DUP4 ADD MSTORE PUSH1 0xC0 DUP4 ADD MLOAD PUSH1 0xC0 DUP4 ADD MSTORE PUSH1 0xE0 DUP4 ADD MLOAD PUSH1 0xE0 DUP4 ADD MSTORE PUSH2 0x100 DUP4 ADD MLOAD PUSH2 0x100 DUP4 ADD MSTORE PUSH2 0x120 DUP4 ADD MLOAD PUSH2 0x120 DUP4 ADD MSTORE PUSH2 0x140 DUP4 ADD MLOAD PUSH2 0x140 DUP4 ADD MSTORE SWAP3 SWAP2 POP POP JUMP JUMPDEST PUSH1 0x0 DUP1 PUSH1 0x40 DUP4 DUP6 SUB SLT ISZERO PUSH2 0x2AB5 JUMPI PUSH1 0x0 DUP1 REVERT JUMPDEST POP POP DUP1 CALLDATALOAD SWAP3 PUSH1 0x20 SWAP1 SWAP2 ADD CALLDATALOAD SWAP2 POP JUMP JUMPDEST PUSH1 0x0 DUP1 PUSH1 0x0 DUP1 PUSH1 0x0 DUP1 PUSH1 0x0 PUSH1 0xE0 DUP9 DUP11 SUB SLT ISZERO PUSH2 0x2ADF JUMPI PUSH1 0x0 DUP1 REVERT JUMPDEST POP POP DUP6 CALLDATALOAD SWAP8 PUSH1 0x20 DUP8 ADD CALLDATALOAD SWAP8 POP PUSH1 0x40 DUP8 ADD CALLDATALOAD SWAP7 PUSH1 0x60 DUP2 ADD CALLDATALOAD SWAP7 POP PUSH1 0x80 DUP2 ADD CALLDATALOAD SWAP6 POP PUSH1 0xA0 DUP2 ADD CALLDATALOAD SWAP5 POP PUSH1 0xC0 ADD CALLDATALOAD SWAP3 POP SWAP1 POP JUMP JUMPDEST PUSH1 0x0 DUP1 PUSH1 0x40 DUP4 DUP6 SUB SLT ISZERO PUSH2 0x2B23 JUMPI PUSH1 0x0 DUP1 REVERT JUMPDEST DUP3 CALLDATALOAD SWAP2 POP PUSH2 0x2B33 PUSH1 0x20 DUP5 ADD PUSH2 0x29C6 JUMP JUMPDEST SWAP1 POP SWAP3 POP SWAP3 SWAP1 POP JUMP JUMPDEST PUSH1 0x0 DUP1 PUSH1 0x0 PUSH1 0x60 DUP5 DUP7 SUB SLT ISZERO PUSH2 0x2B51 JUMPI PUSH1 0x0 DUP1 REVERT JUMPDEST DUP4 CALLDATALOAD SWAP3 POP PUSH2 0x2B61 PUSH1 0x20 DUP6 ADD PUSH2 0x29C6 JUMP JUMPDEST SWAP3 SWAP6 SWAP3 SWAP5 POP POP POP PUSH1 0x40 SWAP2 SWAP1 SWAP2 ADD CALLDATALOAD SWAP1 JUMP JUMPDEST PUSH1 0x20 DUP1 DUP3 MSTORE DUP3 MLOAD DUP3 DUP3 ADD DUP2 SWAP1 MSTORE PUSH1 0x0 SWAP2 DUP5 ADD SWAP1 PUSH1 0x40 DUP5 ADD SWAP1 DUP4 JUMPDEST DUP2 DUP2 LT ISZERO PUSH2 0x2BCE JUMPI DUP4 MLOAD DUP1 MLOAD PUSH1 0x1 PUSH1 0x1 PUSH1 0xA0 SHL SUB AND DUP5 MSTORE PUSH1 0x20 DUP1 DUP3 ADD MLOAD DUP2 DUP7 ADD MSTORE PUSH1 0x40 SWAP2 DUP3 ADD MLOAD ISZERO ISZERO SWAP2 DUP6 ADD SWAP2 SWAP1 SWAP2 MSTORE SWAP1 SWAP4 ADD SWAP3 PUSH1 0x60 SWAP1 SWAP3 ADD SWAP2 PUSH1 0x1 ADD PUSH2 0x2B8C JUMP JUMPDEST POP SWAP1 SWAP6 SWAP5 POP POP POP POP POP JUMP JUMPDEST PUSH1 0x0 DUP1 PUSH1 0x0 PUSH1 0x60 DUP5 DUP7 SUB SLT ISZERO PUSH2 0x2BEE JUMPI PUSH1 0x0 DUP1 REVERT JUMPDEST POP POP DUP2 CALLDATALOAD SWAP4 PUSH1 0x20 DUP4 ADD CALLDATALOAD SWAP4 POP PUSH1 0x40 SWAP1 SWAP3 ADD CALLDATALOAD SWAP2 SWAP1 POP JUMP JUMPDEST PUSH4 0x4E487B71 PUSH1 0xE0 SHL PUSH1 0x0 MSTORE PUSH1 0x32 PUSH1 0x4 MSTORE PUSH1 0x24 PUSH1 0x0 REVERT JUMPDEST PUSH1 0x20 DUP1 DUP3 MSTORE PUSH1 0xB SWAP1 DUP3 ADD MSTORE PUSH11 0x139BDD08185B1B1BDDD959 PUSH1 0xAA SHL PUSH1 0x40 DUP3 ADD MSTORE PUSH1 0x60 ADD SWAP1 JUMP JUMPDEST PUSH4 0x4E487B71 PUSH1 0xE0 SHL PUSH1 0x0 MSTORE PUSH1 0x11 PUSH1 0x4 MSTORE PUSH1 0x24 PUSH1 0x0 REVERT JUMPDEST DUP2 DUP2 SUB DUP2 DUP2 GT ISZERO PUSH2 0x11E9 JUMPI PUSH2 0x11E9 PUSH2 0x2C40 JUMP JUMPDEST PUSH1 0x20 DUP1 DUP3 MSTORE PUSH1 0x19 SWAP1 DUP3 ADD MSTORE PUSH32 0x446562617465206973206E6F7420637265617465642079657400000000000000 PUSH1 0x40 DUP3 ADD MSTORE PUSH1 0x60 ADD SWAP1 JUMP JUMPDEST PUSH4 0x4E487B71 PUSH1 0xE0 SHL PUSH1 0x0 MSTORE PUSH1 0x31 PUSH1 0x4 MSTORE PUSH1 0x24 PUSH1 0x0 REVERT JUMPDEST PUSH1 0x20 DUP1 DUP3 MSTORE DUP2 DUP2 ADD MSTORE PUSH32 0x496E73756666696369656E742062616C616E636520696E20636F6E7472616374 PUSH1 0x40 DUP3 ADD MSTORE PUSH1 0x60 ADD SWAP1 JUMP JUMPDEST DUP1 DUP3 ADD DUP1 DUP3 GT ISZERO PUSH2 0x11E9 JUMPI PUSH2 0x11E9 PUSH2 0x2C40 JUMP JUMPDEST DUP1 DUP3 MUL DUP2 ISZERO DUP3 DUP3 DIV DUP5 EQ OR PUSH2 0x11E9 JUMPI PUSH2 0x11E9 PUSH2 0x2C40 JUMP JUMPDEST PUSH1 0x0 DUP3 PUSH2 0x2D32 JUMPI PUSH4 0x4E487B71 PUSH1 0xE0 SHL PUSH1 0x0 MSTORE PUSH1 0x12 PUSH1 0x4 MSTORE PUSH1 0x24 PUSH1 0x0 REVERT JUMPDEST POP DIV SWAP1 JUMP JUMPDEST PUSH1 0x20 DUP1 DUP3 MSTORE PUSH1 0x22 SWAP1 DUP3 ADD MSTORE PUSH32 0x446562617465206973206E6F74206D61726B656420617320726566756E646162 PUSH1 0x40 DUP3 ADD MSTORE PUSH2 0x6C65 PUSH1 0xF0 SHL PUSH1 0x60 DUP3 ADD MSTORE PUSH1 0x80 ADD SWAP1 JUMP JUMPDEST PUSH1 0x20 DUP1 DUP3 MSTORE PUSH1 0x1A SWAP1 DUP3 ADD MSTORE PUSH32 0x446562617465206973206E6F74207265736F6C76656420796574000000000000 PUSH1 0x40 DUP3 ADD MSTORE PUSH1 0x60 ADD SWAP1 JUMP JUMPDEST PUSH4 0x4E487B71 PUSH1 0xE0 SHL PUSH1 0x0 MSTORE PUSH1 0x41 PUSH1 0x4 MSTORE PUSH1 0x24 PUSH1 0x0 REVERT JUMPDEST PUSH1 0x20 DUP1 DUP3 MSTORE PUSH1 0x28 SWAP1 DUP3 ADD MSTORE PUSH32 0x596F7520646964206E6F7420706C61636520616E7920626574206F6E20746869 PUSH1 0x40 DUP3 ADD MSTORE PUSH8 0x7320646562617465 PUSH1 0xC0 SHL PUSH1 0x60 DUP3 ADD MSTORE PUSH1 0x80 ADD SWAP1 JUMP JUMPDEST PUSH1 0x20 DUP1 DUP3 MSTORE PUSH1 0x1D SWAP1 DUP3 ADD MSTORE PUSH32 0x496E73756666696369656E7420636F6E74726163742062616C616E6365000000 PUSH1 0x40 DUP3 ADD MSTORE PUSH1 0x60 ADD SWAP1 JUMP INVALID LOG2 PUSH5 0x6970667358 0x22 SLT KECCAK256 DUP10 DUP9 CALLCODE 0xB0 ADDRESS 0xCB LOG4 PUSH3 0xA330E4 0xCC PUSH19 0x41C2386C3E59AA4E31A2CB4D5EA90742868321 PUSH5 0x736F6C6343 STOP ADDMOD SHR STOP CALLER "},"methodIdentifiers":{"addMod(address)":"01a00216","addressJoinedList(uint256,uint256)":"7a27fbb2","adminCreateDebate(uint256,uint256,uint256,uint256,uint256,uint256,uint256)":"f674a9de","adminDeleteDebate(uint256)":"28392554","adminMarkDebateRefundable(uint256)":"fe695133","adminProcessRefunds(uint256)":"c1f639bd","adminResolveDebate(uint256,uint256)":"9048b53b","adminUpdateDebate(uint256,uint256,uint256,uint256,uint256,uint256,uint256)":"98a18707","betList(uint256,address,uint256)":"fe84d4b6","debateList(uint256)":"39938348","defaultPlatformFeePercentage()":"43674131","getDebateInfo(uint256)":"5b99a012","getUserRefundStatus(uint256,address,uint256)":"bfea80b2","getUserRefundableAmount(uint256,address)":"a272fef4","getUsersRefundInfo(uint256)":"c7f61c70","isDebateRefundable(uint256)":"c9c57ac4","modList(uint256)":"2071a2d2","owner()":"8da5cb5b","placeBet(uint256,uint256,uint256)":"e71c9697","removeMod(address)":"4637de3c","renounceOwnership()":"715018a6","transferOwnership(address)":"f2fde38b","userClaim(uint256)":"fe43efda","userRefund(uint256)":"e386ee56","withdrawAll()":"853828b6","withdrawByAmount(uint256)":"5521e9bf","withdrawByID(uint256)":"c42ab704"}}}}}