{"contracts/Debate.sol":{"AIDebate":{"abi":[{"inputs":[{"internalType":"address","name":"initialOwner","type":"address"}],"stateMutability":"nonpayable","type":"constructor"},{"inputs":[],"name":"InvalidInitialization","type":"error"},{"inputs":[],"name":"NotInitializing","type":"error"},{"inputs":[{"internalType":"address","name":"owner","type":"address"}],"name":"OwnableInvalidOwner","type":"error"},{"inputs":[{"internalType":"address","name":"account","type":"address"}],"name":"OwnableUnauthorizedAccount","type":"error"},{"anonymous":false,"inputs":[{"indexed":true,"internalType":"uint256","name":"debateId","type":"uint256"},{"indexed":true,"internalType":"address","name":"bettor","type":"address"},{"indexed":false,"internalType":"uint8","name":"chosenAgentId","type":"uint8"},{"indexed":false,"internalType":"uint256","name":"amount","type":"uint256"},{"indexed":false,"internalType":"uint256","name":"platformFeePercentage","type":"uint256"}],"name":"BetPlaced","type":"event"},{"anonymous":false,"inputs":[{"indexed":true,"internalType":"uint256","name":"debateId","type":"uint256"},{"indexed":false,"internalType":"uint8","name":"agentAID","type":"uint8"},{"indexed":false,"internalType":"uint8","name":"agentBID","type":"uint8"},{"indexed":false,"internalType":"uint256","name":"platformFeePercentage","type":"uint256"},{"indexed":false,"internalType":"uint256","name":"publicTimeStamp","type":"uint256"},{"indexed":false,"internalType":"uint256","name":"endTimeStamp","type":"uint256"}],"name":"DebateCreated","type":"event"},{"anonymous":false,"inputs":[{"indexed":true,"internalType":"uint256","name":"debateId","type":"uint256"}],"name":"DebateDeleted","type":"event"},{"anonymous":false,"inputs":[{"indexed":true,"internalType":"uint256","name":"debateId","type":"uint256"},{"indexed":false,"internalType":"uint8","name":"winnAgentId","type":"uint8"}],"name":"DebateResolved","type":"event"},{"anonymous":false,"inputs":[{"indexed":true,"internalType":"uint256","name":"debateId","type":"uint256"},{"indexed":false,"internalType":"uint8","name":"agentAID","type":"uint8"},{"indexed":false,"internalType":"uint8","name":"agentBID","type":"uint8"},{"indexed":false,"internalType":"uint256","name":"platformFeePercentage","type":"uint256"},{"indexed":false,"internalType":"uint256","name":"publicTimeStamp","type":"uint256"},{"indexed":false,"internalType":"uint256","name":"endTimeStamp","type":"uint256"}],"name":"DebateUpdated","type":"event"},{"anonymous":false,"inputs":[{"indexed":false,"internalType":"uint64","name":"version","type":"uint64"}],"name":"Initialized","type":"event"},{"anonymous":false,"inputs":[{"indexed":true,"internalType":"address","name":"previousOwner","type":"address"},{"indexed":true,"internalType":"address","name":"newOwner","type":"address"}],"name":"OwnershipTransferred","type":"event"},{"anonymous":false,"inputs":[{"indexed":true,"internalType":"uint256","name":"debateId","type":"uint256"},{"indexed":true,"internalType":"address","name":"bettor","type":"address"},{"indexed":false,"internalType":"uint8","name":"chosenAgentId","type":"uint8"},{"indexed":false,"internalType":"uint256","name":"amount","type":"uint256"}],"name":"UserClaimed","type":"event"},{"inputs":[{"internalType":"address","name":"_address","type":"address"}],"name":"addWhitelist","outputs":[],"stateMutability":"nonpayable","type":"function"},{"inputs":[{"internalType":"uint256","name":"","type":"uint256"},{"internalType":"uint256","name":"","type":"uint256"}],"name":"addressJoinedList","outputs":[{"internalType":"address","name":"","type":"address"}],"stateMutability":"view","type":"function"},{"inputs":[{"internalType":"uint256","name":"_debateId","type":"uint256"},{"internalType":"uint8","name":"_agentAID","type":"uint8"},{"internalType":"uint8","name":"_agentBID","type":"uint8"},{"internalType":"uint256","name":"_platformFeePercentage","type":"uint256"},{"internalType":"uint256","name":"_publicTimeStamp","type":"uint256"},{"internalType":"uint256","name":"_endSessionTimeStamp","type":"uint256"}],"name":"adminCreateDebate","outputs":[],"stateMutability":"nonpayable","type":"function"},{"inputs":[{"internalType":"uint256","name":"_debateId","type":"uint256"},{"internalType":"uint8","name":"_winAgentId","type":"uint8"}],"name":"adminResolveDebate","outputs":[],"stateMutability":"nonpayable","type":"function"},{"inputs":[{"internalType":"uint256","name":"_debateId","type":"uint256"},{"internalType":"uint8","name":"_agentAID","type":"uint8"},{"internalType":"uint8","name":"_agentBID","type":"uint8"},{"internalType":"uint256","name":"_platformFeePercentage","type":"uint256"},{"internalType":"uint256","name":"_publicTimeStamp","type":"uint256"},{"internalType":"uint256","name":"_endSessionTimeStamp","type":"uint256"}],"name":"adminUpdateDebate","outputs":[],"stateMutability":"nonpayable","type":"function"},{"inputs":[{"internalType":"uint256","name":"_debateId","type":"uint256"}],"name":"admindDeleteDebate","outputs":[],"stateMutability":"nonpayable","type":"function"},{"inputs":[{"internalType":"uint256","name":"","type":"uint256"},{"internalType":"address","name":"","type":"address"},{"internalType":"uint256","name":"","type":"uint256"}],"name":"betList","outputs":[{"internalType":"uint256","name":"debateId","type":"uint256"},{"internalType":"address","name":"bettor","type":"address"},{"internalType":"uint256","name":"amount","type":"uint256"},{"internalType":"uint256","name":"winAmount","type":"uint256"},{"internalType":"uint8","name":"chosenAgentId","type":"uint8"},{"internalType":"bool","name":"isClaimed","type":"bool"}],"stateMutability":"view","type":"function"},{"inputs":[{"internalType":"uint256","name":"","type":"uint256"}],"name":"debateList","outputs":[{"internalType":"bool","name":"isResolved","type":"bool"},{"internalType":"uint8","name":"winAgentId","type":"uint8"},{"internalType":"uint256","name":"platformFeePercentage","type":"uint256"},{"internalType":"uint256","name":"endTimeStamp","type":"uint256"},{"internalType":"uint256","name":"publicTimeStamp","type":"uint256"},{"internalType":"uint8","name":"agentAID","type":"uint8"},{"internalType":"uint8","name":"agentBID","type":"uint8"},{"internalType":"uint256","name":"totalAgentABetAmount","type":"uint256"},{"internalType":"uint256","name":"totalAgentBBetAmount","type":"uint256"}],"stateMutability":"view","type":"function"},{"inputs":[],"name":"defaultPlatformFeePercentage","outputs":[{"internalType":"uint256","name":"","type":"uint256"}],"stateMutability":"view","type":"function"},{"inputs":[{"internalType":"uint256","name":"_debateId","type":"uint256"}],"name":"getDebateInfo","outputs":[{"components":[{"internalType":"bool","name":"isResolved","type":"bool"},{"internalType":"uint8","name":"winAgentId","type":"uint8"},{"internalType":"uint256","name":"platformFeePercentage","type":"uint256"},{"internalType":"uint256","name":"endTimeStamp","type":"uint256"},{"internalType":"uint256","name":"publicTimeStamp","type":"uint256"},{"internalType":"uint8","name":"agentAID","type":"uint8"},{"internalType":"uint8","name":"agentBID","type":"uint8"},{"internalType":"uint256","name":"totalAgentABetAmount","type":"uint256"},{"internalType":"uint256","name":"totalAgentBBetAmount","type":"uint256"}],"internalType":"struct AIDebate.Debate","name":"","type":"tuple"}],"stateMutability":"view","type":"function"},{"inputs":[],"name":"owner","outputs":[{"internalType":"address","name":"","type":"address"}],"stateMutability":"view","type":"function"},{"inputs":[{"internalType":"uint256","name":"_debateId","type":"uint256"},{"internalType":"uint256","name":"_amount","type":"uint256"},{"internalType":"uint8","name":"_chosenAgent","type":"uint8"}],"name":"placeBet","outputs":[],"stateMutability":"payable","type":"function"},{"inputs":[{"internalType":"address","name":"_address","type":"address"}],"name":"removeWhitelist","outputs":[],"stateMutability":"nonpayable","type":"function"},{"inputs":[],"name":"renounceOwnership","outputs":[],"stateMutability":"nonpayable","type":"function"},{"inputs":[{"internalType":"address","name":"newOwner","type":"address"}],"name":"transferOwnership","outputs":[],"stateMutability":"nonpayable","type":"function"},{"inputs":[{"internalType":"uint256","name":"_debateId","type":"uint256"}],"name":"userClaim","outputs":[],"stateMutability":"nonpayable","type":"function"}],"evm":{"bytecode":{"linkReferences":{},"object":"60806040526005600155620493e060025534801561001c57600080fd5b50604051612de5380380612de5833981810160405281019061003e91906101ee565b80600073ffffffffffffffffffffffffffffffffffffffff168173ffffffffffffffffffffffffffffffffffffffff16036100b15760006040517f1e4fbdf70000000000000000000000000000000000000000000000000000000081526004016100a8919061022a565b60405180910390fd5b6100c0816100c760201b60201c565b5050610245565b60008060009054906101000a900473ffffffffffffffffffffffffffffffffffffffff169050816000806101000a81548173ffffffffffffffffffffffffffffffffffffffff021916908373ffffffffffffffffffffffffffffffffffffffff1602179055508173ffffffffffffffffffffffffffffffffffffffff168173ffffffffffffffffffffffffffffffffffffffff167f8be0079c531659141344cd1fd0a4f28419497f9722a3daafe3b4186f6b6457e060405160405180910390a35050565b600080fd5b600073ffffffffffffffffffffffffffffffffffffffff82169050919050565b60006101bb82610190565b9050919050565b6101cb816101b0565b81146101d657600080fd5b50565b6000815190506101e8816101c2565b92915050565b6000602082840312156102045761020361018b565b5b6000610212848285016101d9565b91505092915050565b610224816101b0565b82525050565b600060208201905061023f600083018461021b565b92915050565b612b91806102546000396000f3fe6080604052600436106100f35760003560e01c80638da5cb5b1161008a578063f2fde38b11610059578063f2fde38b1461030d578063f80f5dd514610336578063fe43efda1461035f578063fe84d4b614610388576100f3565b80638da5cb5b146102745780639e14427e1461029f578063be8f2ffb146102bb578063d1d9f6ac146102e4576100f3565b80635b99a012116100c65780635b99a012146101ba578063715018a6146101f757806378c8cda71461020e5780637a27fbb214610237576100f3565b80631b84f210146100f8578063310026df14610121578063399383481461014a578063436741311461018f575b600080fd5b34801561010457600080fd5b5061011f600480360381019061011a9190611b5b565b6103ca565b005b34801561012d57600080fd5b5061014860048036038101906101439190611be8565b610559565b005b34801561015657600080fd5b50610171600480360381019061016c9190611c28565b6108b7565b60405161018699989796959493929190611c8e565b60405180910390f35b34801561019b57600080fd5b506101a4610939565b6040516101b19190611d1b565b60405180910390f35b3480156101c657600080fd5b506101e160048036038101906101dc9190611c28565b61093f565b6040516101ee9190611e1a565b60405180910390f35b34801561020357600080fd5b5061020c610a17565b005b34801561021a57600080fd5b5061023560048036038101906102309190611e94565b610a2b565b005b34801561024357600080fd5b5061025e60048036038101906102599190611ec1565b610a8e565b60405161026b9190611f10565b60405180910390f35b34801561028057600080fd5b50610289610adc565b6040516102969190611f10565b60405180910390f35b6102b960048036038101906102b49190611f2b565b610b05565b005b3480156102c757600080fd5b506102e260048036038101906102dd9190611b5b565b611160565b005b3480156102f057600080fd5b5061030b60048036038101906103069190611c28565b6112af565b005b34801561031957600080fd5b50610334600480360381019061032f9190611e94565b61138c565b005b34801561034257600080fd5b5061035d60048036038101906103589190611e94565b611412565b005b34801561036b57600080fd5b5061038660048036038101906103819190611c28565b611475565b005b34801561039457600080fd5b506103af60048036038101906103aa9190611f7e565b6117af565b6040516103c196959493929190611fd1565b60405180910390f35b6103d261183f565b600060036000888152602001908152602001600020905060008160040160009054906101000a900460ff1660ff16148015610421575060008160040160019054906101000a900460ff1660ff16145b610460576040517f08c379a00000000000000000000000000000000000000000000000000000000081526004016104579061208f565b60405180910390fd5b8282116104a2576040517f08c379a000000000000000000000000000000000000000000000000000000000815260040161049990612121565b60405180910390fd5b858160040160006101000a81548160ff021916908360ff160217905550848160040160016101000a81548160ff021916908360ff160217905550600084036104f45760015481600101819055506104fe565b8381600101819055505b828160030181905550818160020181905550867f4d9876e18138e94b574a905e63021c936600ab7e940d5ef88bcb7e06c4de34638787878787604051610548959493929190612141565b60405180910390a250505050505050565b61056161183f565b60006003600084815260200190815260200160002090508060000160009054906101000a900460ff16156105ca576040517f08c379a00000000000000000000000000000000000000000000000000000000081526004016105c1906121e0565b60405180910390fd5b8060040160009054906101000a900460ff1660ff168260ff16148061060557508060040160019054906101000a900460ff1660ff168260ff16145b610644576040517f08c379a000000000000000000000000000000000000000000000000000000000815260040161063b9061224c565b60405180910390fd5b60018160000160006101000a81548160ff021916908315150217905550818160000160016101000a81548160ff021916908360ff160217905550600081600601548260050154610694919061229b565b905060005b60056000868152602001908152602001600020805490508110156108785760006005600087815260200190815260200160002082815481106106de576106dd6122cf565b5b9060005260206000200160009054906101000a900473ffffffffffffffffffffffffffffffffffffffff16905060006004600088815260200190815260200160002060008373ffffffffffffffffffffffffffffffffffffffff1673ffffffffffffffffffffffffffffffffffffffff16815260200190815260200160002060008760ff16815260200190815260200160002090508560ff168160040160009054906101000a900460ff1660ff1614610798575050610878565b60008560040160009054906101000a900460ff1660ff168260040160009054906101000a900460ff1660ff1603610816576064866001015460646107dc91906122fe565b86886005015485600201546107f19190612361565b6107fb9190612392565b6108059190612392565b61080f9190612361565b905061085f565b60648660010154606461082991906122fe565b868860060154856002015461083e9190612361565b6108489190612392565b6108529190612392565b61085c9190612361565b90505b8082600301819055505050508080600101915050610699565b50837fce9132b398f004c2439d9df899fbaab5d9bb01c6dd02a720728f73eac95e578f846040516108a991906123d4565b60405180910390a250505050565b60036020528060005260406000206000915090508060000160009054906101000a900460ff16908060000160019054906101000a900460ff16908060010154908060020154908060030154908060040160009054906101000a900460ff16908060040160019054906101000a900460ff16908060050154908060060154905089565b60015481565b610947611a90565b600060036000848152602001908152602001600020905080604051806101200160405290816000820160009054906101000a900460ff161515151581526020016000820160019054906101000a900460ff1660ff1660ff1681526020016001820154815260200160028201548152602001600382015481526020016004820160009054906101000a900460ff1660ff1660ff1681526020016004820160019054906101000a900460ff1660ff1660ff16815260200160058201548152602001600682015481525050915050919050565b610a1f61183f565b610a2960006118c6565b565b610a3361183f565b6000600660008373ffffffffffffffffffffffffffffffffffffffff1673ffffffffffffffffffffffffffffffffffffffff16815260200190815260200160002060006101000a81548160ff02191690831515021790555050565b60056020528160005260406000208181548110610aaa57600080fd5b906000526020600020016000915091509054906101000a900473ffffffffffffffffffffffffffffffffffffffff1681565b60008060009054906101000a900473ffffffffffffffffffffffffffffffffffffffff16905090565b60008211610b48576040517f08c379a0000000000000000000000000000000000000000000000000000000008152600401610b3f9061243b565b60405180910390fd5b60006003600085815260200190815260200160002090506000816003015411610ba6576040517f08c379a0000000000000000000000000000000000000000000000000000000008152600401610b9d906124a7565b60405180910390fd5b6000816002015403610bed576040517f08c379a0000000000000000000000000000000000000000000000000000000008152600401610be490612513565b60405180910390fd5b8060000160009054906101000a900460ff1615610c3f576040517f08c379a0000000000000000000000000000000000000000000000000000000008152600401610c36906125a5565b60405180910390fd5b80600301544211610c85576040517f08c379a0000000000000000000000000000000000000000000000000000000008152600401610c7c90612637565b60405180910390fd5b6002548160020154610c9791906122fe565b4210610cd8576040517f08c379a0000000000000000000000000000000000000000000000000000000008152600401610ccf906126a3565b60405180910390fd5b82341015610d1b576040517f08c379a0000000000000000000000000000000000000000000000000000000008152600401610d129061270f565b60405180910390fd5b8060040160009054906101000a900460ff1660ff168260ff1603610d595782816005016000828254610d4d919061229b565b92505081905550610ea1565b8060040160019054906101000a900460ff1660ff168260ff1603610d975782816006016000828254610d8b919061229b565b92505081905550610ea0565b60008160040160009054906101000a900460ff1660ff161480610dce575060008160040160019054906101000a900460ff1660ff16145b610e0d576040517f08c379a0000000000000000000000000000000000000000000000000000000008152600401610e049061277b565b60405180910390fd5b60008160040160009054906101000a900460ff1660ff1603610e6657818160040160006101000a81548160ff021916908360ff16021790555082816005016000828254610e5a919061229b565b92505081905550610e9f565b818160040160016101000a81548160ff021916908360ff16021790555082816006016000828254610e97919061229b565b925050819055505b5b5b60006004600086815260200190815260200160002060003373ffffffffffffffffffffffffffffffffffffffff1673ffffffffffffffffffffffffffffffffffffffff16815260200190815260200160002060008460ff1681526020019081526020016000209050600081600201541115610f365783816002016000828254610f2a919061229b565b9250508190555061108e565b6040518060c001604052808681526020013373ffffffffffffffffffffffffffffffffffffffff168152602001858152602001600081526020018460ff168152602001600015158152506004600087815260200190815260200160002060003373ffffffffffffffffffffffffffffffffffffffff1673ffffffffffffffffffffffffffffffffffffffff16815260200190815260200160002060008560ff1681526020019081526020016000206000820151816000015560208201518160010160006101000a81548173ffffffffffffffffffffffffffffffffffffffff021916908373ffffffffffffffffffffffffffffffffffffffff160217905550604082015181600201556060820151816003015560808201518160040160006101000a81548160ff021916908360ff16021790555060a08201518160040160016101000a81548160ff0219169083151502179055509050505b60056000868152602001908152602001600020339080600181540180825580915050600190039060005260206000200160009091909190916101000a81548173ffffffffffffffffffffffffffffffffffffffff021916908373ffffffffffffffffffffffffffffffffffffffff1602179055503373ffffffffffffffffffffffffffffffffffffffff16857fbfcd8f4e47cc529f86cdc7eab8fb80e015a298e021fcaee72df1f76dd57cf487858786600101546040516111519392919061279b565b60405180910390a35050505050565b61116861183f565b600060036000888152602001908152602001600020905060008160040160009054906101000a900460ff1660ff16141580156111b9575060008160040160019054906101000a900460ff1660ff1614155b6111f8576040517f08c379a00000000000000000000000000000000000000000000000000000000081526004016111ef9061281e565b60405180910390fd5b858160040160006101000a81548160ff021916908360ff160217905550848160040160016101000a81548160ff021916908360ff1602179055506000840361124a576001548160010181905550611254565b8381600101819055505b828160030181905550818160020181905550867f85e6363dea01c8f1966c922694c98b6beedff411f939611a7e66aa43d1373168878787878760405161129e959493929190612141565b60405180910390a250505050505050565b6112b761183f565b600060036000838152602001908152602001600020905060008160040160009054906101000a900460ff1660ff1614158015611308575060008160040160019054906101000a900460ff1660ff1614155b611347576040517f08c379a000000000000000000000000000000000000000000000000000000000815260040161133e9061281e565b60405180910390fd5b6000816003018190555060008160020181905550817f80bed4ceeb2dfbd88f61cca1c30bc6dede3047d1862345ef30f1cbc44c2016d760405160405180910390a25050565b61139461183f565b600073ffffffffffffffffffffffffffffffffffffffff168173ffffffffffffffffffffffffffffffffffffffff16036114065760006040517f1e4fbdf70000000000000000000000000000000000000000000000000000000081526004016113fd9190611f10565b60405180910390fd5b61140f816118c6565b50565b61141a61183f565b6001600660008373ffffffffffffffffffffffffffffffffffffffff1673ffffffffffffffffffffffffffffffffffffffff16815260200190815260200160002060006101000a81548160ff02191690831515021790555050565b60006003600083815260200190815260200160002090508060000160009054906101000a900460ff166114dd576040517f08c379a00000000000000000000000000000000000000000000000000000000081526004016114d49061288a565b60405180910390fd5b60005b60056000848152602001908152602001600020805490508110156115f2573373ffffffffffffffffffffffffffffffffffffffff1660056000858152602001908152602001600020828154811061153a576115396122cf565b5b9060005260206000200160009054906101000a900473ffffffffffffffffffffffffffffffffffffffff1673ffffffffffffffffffffffffffffffffffffffff1603156115f257600160056000858152602001908152602001600020805490506115a491906122fe565b81036115e5576040517f08c379a00000000000000000000000000000000000000000000000000000000081526004016115dc906128f6565b60405180910390fd5b80806001019150506114e0565b5060008160000160019054906101000a900460ff1660ff16905060006004600085815260200190815260200160002060003373ffffffffffffffffffffffffffffffffffffffff1673ffffffffffffffffffffffffffffffffffffffff168152602001908152602001600020600083815260200190815260200160002090508060040160019054906101000a900460ff16156116c3576040517f08c379a00000000000000000000000000000000000000000000000000000000081526004016116ba90612988565b60405180910390fd5b600081600301541161170a576040517f08c379a0000000000000000000000000000000000000000000000000000000008152600401611701906129f4565b60405180910390fd5b60006117153361198a565b9050611725818360030154611994565b60018260040160016101000a81548160ff0219169083151502179055503373ffffffffffffffffffffffffffffffffffffffff16857f117469dc6e53cc28b431071a5558d9ba93ba1fa0a223492d196a9fa9e541c0d78460040160009054906101000a900460ff1685600301546040516117a0929190612a14565b60405180910390a35050505050565b600460205282600052604060002060205281600052604060002060205280600052604060002060009250925050508060000154908060010160009054906101000a900473ffffffffffffffffffffffffffffffffffffffff16908060020154908060030154908060040160009054906101000a900460ff16908060040160019054906101000a900460ff16905086565b611847611a88565b73ffffffffffffffffffffffffffffffffffffffff16611865610adc565b73ffffffffffffffffffffffffffffffffffffffff16146118c457611888611a88565b6040517f118cdaa70000000000000000000000000000000000000000000000000000000081526004016118bb9190611f10565b60405180910390fd5b565b60008060009054906101000a900473ffffffffffffffffffffffffffffffffffffffff169050816000806101000a81548173ffffffffffffffffffffffffffffffffffffffff021916908373ffffffffffffffffffffffffffffffffffffffff1602179055508173ffffffffffffffffffffffffffffffffffffffff168173ffffffffffffffffffffffffffffffffffffffff167f8be0079c531659141344cd1fd0a4f28419497f9722a3daafe3b4186f6b6457e060405160405180910390a35050565b6000819050919050565b804710156119d7576040517f08c379a00000000000000000000000000000000000000000000000000000000081526004016119ce90612a89565b60405180910390fd5b60008273ffffffffffffffffffffffffffffffffffffffff16826040516119fd90612ada565b60006040518083038185875af1925050503d8060008114611a3a576040519150601f19603f3d011682016040523d82523d6000602084013e611a3f565b606091505b5050905080611a83576040517f08c379a0000000000000000000000000000000000000000000000000000000008152600401611a7a90612b3b565b60405180910390fd5b505050565b600033905090565b604051806101200160405280600015158152602001600060ff168152602001600081526020016000815260200160008152602001600060ff168152602001600060ff16815260200160008152602001600081525090565b600080fd5b6000819050919050565b611aff81611aec565b8114611b0a57600080fd5b50565b600081359050611b1c81611af6565b92915050565b600060ff82169050919050565b611b3881611b22565b8114611b4357600080fd5b50565b600081359050611b5581611b2f565b92915050565b60008060008060008060c08789031215611b7857611b77611ae7565b5b6000611b8689828a01611b0d565b9650506020611b9789828a01611b46565b9550506040611ba889828a01611b46565b9450506060611bb989828a01611b0d565b9350506080611bca89828a01611b0d565b92505060a0611bdb89828a01611b0d565b9150509295509295509295565b60008060408385031215611bff57611bfe611ae7565b5b6000611c0d85828601611b0d565b9250506020611c1e85828601611b46565b9150509250929050565b600060208284031215611c3e57611c3d611ae7565b5b6000611c4c84828501611b0d565b91505092915050565b60008115159050919050565b611c6a81611c55565b82525050565b611c7981611b22565b82525050565b611c8881611aec565b82525050565b600061012082019050611ca4600083018c611c61565b611cb1602083018b611c70565b611cbe604083018a611c7f565b611ccb6060830189611c7f565b611cd86080830188611c7f565b611ce560a0830187611c70565b611cf260c0830186611c70565b611cff60e0830185611c7f565b611d0d610100830184611c7f565b9a9950505050505050505050565b6000602082019050611d306000830184611c7f565b92915050565b611d3f81611c55565b82525050565b611d4e81611b22565b82525050565b611d5d81611aec565b82525050565b61012082016000820151611d7a6000850182611d36565b506020820151611d8d6020850182611d45565b506040820151611da06040850182611d54565b506060820151611db36060850182611d54565b506080820151611dc66080850182611d54565b5060a0820151611dd960a0850182611d45565b5060c0820151611dec60c0850182611d45565b5060e0820151611dff60e0850182611d54565b50610100820151611e14610100850182611d54565b50505050565b600061012082019050611e306000830184611d63565b92915050565b600073ffffffffffffffffffffffffffffffffffffffff82169050919050565b6000611e6182611e36565b9050919050565b611e7181611e56565b8114611e7c57600080fd5b50565b600081359050611e8e81611e68565b92915050565b600060208284031215611eaa57611ea9611ae7565b5b6000611eb884828501611e7f565b91505092915050565b60008060408385031215611ed857611ed7611ae7565b5b6000611ee685828601611b0d565b9250506020611ef785828601611b0d565b9150509250929050565b611f0a81611e56565b82525050565b6000602082019050611f256000830184611f01565b92915050565b600080600060608486031215611f4457611f43611ae7565b5b6000611f5286828701611b0d565b9350506020611f6386828701611b0d565b9250506040611f7486828701611b46565b9150509250925092565b600080600060608486031215611f9757611f96611ae7565b5b6000611fa586828701611b0d565b9350506020611fb686828701611e7f565b9250506040611fc786828701611b0d565b9150509250925092565b600060c082019050611fe66000830189611c7f565b611ff36020830188611f01565b6120006040830187611c7f565b61200d6060830186611c7f565b61201a6080830185611c70565b61202760a0830184611c61565b979650505050505050565b600082825260208201905092915050565b7f44656261746520697320616c7265616479206372656174656400000000000000600082015250565b6000612079601983612032565b915061208482612043565b602082019050919050565b600060208201905081810360008301526120a88161206c565b9050919050565b7f456e642074696d65206d7573742062652067726561746572207468616e20707560008201527f626c69632074696d650000000000000000000000000000000000000000000000602082015250565b600061210b602983612032565b9150612116826120af565b604082019050919050565b6000602082019050818103600083015261213a816120fe565b9050919050565b600060a0820190506121566000830188611c70565b6121636020830187611c70565b6121706040830186611c7f565b61217d6060830185611c7f565b61218a6080830184611c7f565b9695505050505050565b7f44656261746520697320616c7265616479207265736f6c766564000000000000600082015250565b60006121ca601a83612032565b91506121d582612194565b602082019050919050565b600060208201905081810360008301526121f9816121bd565b9050919050565b7f496e76616c6964206167656e7400000000000000000000000000000000000000600082015250565b6000612236600d83612032565b915061224182612200565b602082019050919050565b6000602082019050818103600083015261226581612229565b9050919050565b7f4e487b7100000000000000000000000000000000000000000000000000000000600052601160045260246000fd5b60006122a682611aec565b91506122b183611aec565b92508282019050808211156122c9576122c861226c565b5b92915050565b7f4e487b7100000000000000000000000000000000000000000000000000000000600052603260045260246000fd5b600061230982611aec565b915061231483611aec565b925082820390508181111561232c5761232b61226c565b5b92915050565b7f4e487b7100000000000000000000000000000000000000000000000000000000600052601260045260246000fd5b600061236c82611aec565b915061237783611aec565b92508261238757612386612332565b5b828204905092915050565b600061239d82611aec565b91506123a883611aec565b92508282026123b681611aec565b915082820484148315176123cd576123cc61226c565b5b5092915050565b60006020820190506123e96000830184611c70565b92915050565b7f416d6f756e74206d7573742062652067726561746572207468616e2030000000600082015250565b6000612425601d83612032565b9150612430826123ef565b602082019050919050565b6000602082019050818103600083015261245481612418565b9050919050565b7f446562617465206973206e6f74207075626c6973686564207965740000000000600082015250565b6000612491601b83612032565b915061249c8261245b565b602082019050919050565b600060208201905081810360008301526124c081612484565b9050919050565b7f4465626174652069732064656c65746564000000000000000000000000000000600082015250565b60006124fd601183612032565b9150612508826124c7565b602082019050919050565b6000602082019050818103600083015261252c816124f0565b9050919050565b7f4465626174652073657373696f6e20697320616c7265616479207265736f6c7660008201527f6564000000000000000000000000000000000000000000000000000000000000602082015250565b600061258f602283612032565b915061259a82612533565b604082019050919050565b600060208201905081810360008301526125be81612582565b9050919050565b7f4465626174652073657373696f6e206973206e6f74207374617274656420796560008201527f7400000000000000000000000000000000000000000000000000000000000000602082015250565b6000612621602183612032565b915061262c826125c5565b604082019050919050565b6000602082019050818103600083015261265081612614565b9050919050565b7f4465626174652073657373696f6e20697320616c726561647920656e64656400600082015250565b600061268d601f83612032565b915061269882612657565b602082019050919050565b600060208201905081810360008301526126bc81612680565b9050919050565b7f46656520616d6f756e74206973206e6f7420636f727265637400000000000000600082015250565b60006126f9601983612032565b9150612704826126c3565b602082019050919050565b60006020820190508181036000830152612728816126ec565b9050919050565b7f426f7468206167656e74732061726520616c72656164792061737369676e6564600082015250565b6000612765602083612032565b91506127708261272f565b602082019050919050565b6000602082019050818103600083015261279481612758565b9050919050565b60006060820190506127b06000830186611c70565b6127bd6020830185611c7f565b6127ca6040830184611c7f565b949350505050565b7f446562617465206973206e6f7420637265617465642079657400000000000000600082015250565b6000612808601983612032565b9150612813826127d2565b602082019050919050565b60006020820190508181036000830152612837816127fb565b9050919050565b7f446562617465206973206e6f74207265736f6c76656420796574000000000000600082015250565b6000612874601a83612032565b915061287f8261283e565b602082019050919050565b600060208201905081810360008301526128a381612867565b9050919050565b7f596f7520646964206e6f74206a6f696e656420696e2074686520626174746c65600082015250565b60006128e0602083612032565b91506128eb826128aa565b602082019050919050565b6000602082019050818103600083015261290f816128d3565b9050919050565b7f596f75206861766520616c726561647920636c61696d6564207468652072657760008201527f6172640000000000000000000000000000000000000000000000000000000000602082015250565b6000612972602383612032565b915061297d82612916565b604082019050919050565b600060208201905081810360008301526129a181612965565b9050919050565b7f596f7520646964206e6f742077696e2074686520626574000000000000000000600082015250565b60006129de601783612032565b91506129e9826129a8565b602082019050919050565b60006020820190508181036000830152612a0d816129d1565b9050919050565b6000604082019050612a296000830185611c70565b612a366020830184611c7f565b9392505050565b7f496e73756666696369656e742062616c616e636520696e20636f6e7472616374600082015250565b6000612a73602083612032565b9150612a7e82612a3d565b602082019050919050565b60006020820190508181036000830152612aa281612a66565b9050919050565b600081905092915050565b50565b6000612ac4600083612aa9565b9150612acf82612ab4565b600082019050919050565b6000612ae582612ab7565b9150819050919050565b7f5472616e7366657220746f6b656e206661696c65640000000000000000000000600082015250565b6000612b25601583612032565b9150612b3082612aef565b602082019050919050565b60006020820190508181036000830152612b5481612b18565b905091905056fea2646970667358221220f2bb821c10c9d317f13eeb589c139acdff65816dc1289d4d54130a6dd87763df64736f6c634300081c0033","opcodes":"PUSH1 0x80 PUSH1 0x40 MSTORE PUSH1 0x5 PUSH1 0x1 SSTORE PUSH3 0x493E0 PUSH1 0x2 SSTORE CALLVALUE DUP1 ISZERO PUSH2 0x1C JUMPI PUSH1 0x0 DUP1 REVERT JUMPDEST POP PUSH1 0x40 MLOAD PUSH2 0x2DE5 CODESIZE SUB DUP1 PUSH2 0x2DE5 DUP4 CODECOPY DUP2 DUP2 ADD PUSH1 0x40 MSTORE DUP2 ADD SWAP1 PUSH2 0x3E SWAP2 SWAP1 PUSH2 0x1EE JUMP JUMPDEST DUP1 PUSH1 0x0 PUSH20 0xFFFFFFFFFFFFFFFFFFFFFFFFFFFFFFFFFFFFFFFF AND DUP2 PUSH20 0xFFFFFFFFFFFFFFFFFFFFFFFFFFFFFFFFFFFFFFFF AND SUB PUSH2 0xB1 JUMPI PUSH1 0x0 PUSH1 0x40 MLOAD PUSH32 0x1E4FBDF700000000000000000000000000000000000000000000000000000000 DUP2 MSTORE PUSH1 0x4 ADD PUSH2 0xA8 SWAP2 SWAP1 PUSH2 0x22A JUMP JUMPDEST PUSH1 0x40 MLOAD DUP1 SWAP2 SUB SWAP1 REVERT JUMPDEST PUSH2 0xC0 DUP2 PUSH2 0xC7 PUSH1 0x20 SHL PUSH1 0x20 SHR JUMP JUMPDEST POP POP PUSH2 0x245 JUMP JUMPDEST PUSH1 0x0 DUP1 PUSH1 0x0 SWAP1 SLOAD SWAP1 PUSH2 0x100 EXP SWAP1 DIV PUSH20 0xFFFFFFFFFFFFFFFFFFFFFFFFFFFFFFFFFFFFFFFF AND SWAP1 POP DUP2 PUSH1 0x0 DUP1 PUSH2 0x100 EXP DUP2 SLOAD DUP2 PUSH20 0xFFFFFFFFFFFFFFFFFFFFFFFFFFFFFFFFFFFFFFFF MUL NOT AND SWAP1 DUP4 PUSH20 0xFFFFFFFFFFFFFFFFFFFFFFFFFFFFFFFFFFFFFFFF AND MUL OR SWAP1 SSTORE POP DUP2 PUSH20 0xFFFFFFFFFFFFFFFFFFFFFFFFFFFFFFFFFFFFFFFF AND DUP2 PUSH20 0xFFFFFFFFFFFFFFFFFFFFFFFFFFFFFFFFFFFFFFFF AND PUSH32 0x8BE0079C531659141344CD1FD0A4F28419497F9722A3DAAFE3B4186F6B6457E0 PUSH1 0x40 MLOAD PUSH1 0x40 MLOAD DUP1 SWAP2 SUB SWAP1 LOG3 POP POP JUMP JUMPDEST PUSH1 0x0 DUP1 REVERT JUMPDEST PUSH1 0x0 PUSH20 0xFFFFFFFFFFFFFFFFFFFFFFFFFFFFFFFFFFFFFFFF DUP3 AND SWAP1 POP SWAP2 SWAP1 POP JUMP JUMPDEST PUSH1 0x0 PUSH2 0x1BB DUP3 PUSH2 0x190 JUMP JUMPDEST SWAP1 POP SWAP2 SWAP1 POP JUMP JUMPDEST PUSH2 0x1CB DUP2 PUSH2 0x1B0 JUMP JUMPDEST DUP2 EQ PUSH2 0x1D6 JUMPI PUSH1 0x0 DUP1 REVERT JUMPDEST POP JUMP JUMPDEST PUSH1 0x0 DUP2 MLOAD SWAP1 POP PUSH2 0x1E8 DUP2 PUSH2 0x1C2 JUMP JUMPDEST SWAP3 SWAP2 POP POP JUMP JUMPDEST PUSH1 0x0 PUSH1 0x20 DUP3 DUP5 SUB SLT ISZERO PUSH2 0x204 JUMPI PUSH2 0x203 PUSH2 0x18B JUMP JUMPDEST JUMPDEST PUSH1 0x0 PUSH2 0x212 DUP5 DUP3 DUP6 ADD PUSH2 0x1D9 JUMP JUMPDEST SWAP2 POP POP SWAP3 SWAP2 POP POP JUMP JUMPDEST PUSH2 0x224 DUP2 PUSH2 0x1B0 JUMP JUMPDEST DUP3 MSTORE POP POP JUMP JUMPDEST PUSH1 0x0 PUSH1 0x20 DUP3 ADD SWAP1 POP PUSH2 0x23F PUSH1 0x0 DUP4 ADD DUP5 PUSH2 0x21B JUMP JUMPDEST SWAP3 SWAP2 POP POP JUMP JUMPDEST PUSH2 0x2B91 DUP1 PUSH2 0x254 PUSH1 0x0 CODECOPY PUSH1 0x0 RETURN INVALID PUSH1 0x80 PUSH1 0x40 MSTORE PUSH1 0x4 CALLDATASIZE LT PUSH2 0xF3 JUMPI PUSH1 0x0 CALLDATALOAD PUSH1 0xE0 SHR DUP1 PUSH4 0x8DA5CB5B GT PUSH2 0x8A JUMPI DUP1 PUSH4 0xF2FDE38B GT PUSH2 0x59 JUMPI DUP1 PUSH4 0xF2FDE38B EQ PUSH2 0x30D JUMPI DUP1 PUSH4 0xF80F5DD5 EQ PUSH2 0x336 JUMPI DUP1 PUSH4 0xFE43EFDA EQ PUSH2 0x35F JUMPI DUP1 PUSH4 0xFE84D4B6 EQ PUSH2 0x388 JUMPI PUSH2 0xF3 JUMP JUMPDEST DUP1 PUSH4 0x8DA5CB5B EQ PUSH2 0x274 JUMPI DUP1 PUSH4 0x9E14427E EQ PUSH2 0x29F JUMPI DUP1 PUSH4 0xBE8F2FFB EQ PUSH2 0x2BB JUMPI DUP1 PUSH4 0xD1D9F6AC EQ PUSH2 0x2E4 JUMPI PUSH2 0xF3 JUMP JUMPDEST DUP1 PUSH4 0x5B99A012 GT PUSH2 0xC6 JUMPI DUP1 PUSH4 0x5B99A012 EQ PUSH2 0x1BA JUMPI DUP1 PUSH4 0x715018A6 EQ PUSH2 0x1F7 JUMPI DUP1 PUSH4 0x78C8CDA7 EQ PUSH2 0x20E JUMPI DUP1 PUSH4 0x7A27FBB2 EQ PUSH2 0x237 JUMPI PUSH2 0xF3 JUMP JUMPDEST DUP1 PUSH4 0x1B84F210 EQ PUSH2 0xF8 JUMPI DUP1 PUSH4 0x310026DF EQ PUSH2 0x121 JUMPI DUP1 PUSH4 0x39938348 EQ PUSH2 0x14A JUMPI DUP1 PUSH4 0x43674131 EQ PUSH2 0x18F JUMPI JUMPDEST PUSH1 0x0 DUP1 REVERT JUMPDEST CALLVALUE DUP1 ISZERO PUSH2 0x104 JUMPI PUSH1 0x0 DUP1 REVERT JUMPDEST POP PUSH2 0x11F PUSH1 0x4 DUP1 CALLDATASIZE SUB DUP2 ADD SWAP1 PUSH2 0x11A SWAP2 SWAP1 PUSH2 0x1B5B JUMP JUMPDEST PUSH2 0x3CA JUMP JUMPDEST STOP JUMPDEST CALLVALUE DUP1 ISZERO PUSH2 0x12D JUMPI PUSH1 0x0 DUP1 REVERT JUMPDEST POP PUSH2 0x148 PUSH1 0x4 DUP1 CALLDATASIZE SUB DUP2 ADD SWAP1 PUSH2 0x143 SWAP2 SWAP1 PUSH2 0x1BE8 JUMP JUMPDEST PUSH2 0x559 JUMP JUMPDEST STOP JUMPDEST CALLVALUE DUP1 ISZERO PUSH2 0x156 JUMPI PUSH1 0x0 DUP1 REVERT JUMPDEST POP PUSH2 0x171 PUSH1 0x4 DUP1 CALLDATASIZE SUB DUP2 ADD SWAP1 PUSH2 0x16C SWAP2 SWAP1 PUSH2 0x1C28 JUMP JUMPDEST PUSH2 0x8B7 JUMP JUMPDEST PUSH1 0x40 MLOAD PUSH2 0x186 SWAP10 SWAP9 SWAP8 SWAP7 SWAP6 SWAP5 SWAP4 SWAP3 SWAP2 SWAP1 PUSH2 0x1C8E JUMP JUMPDEST PUSH1 0x40 MLOAD DUP1 SWAP2 SUB SWAP1 RETURN JUMPDEST CALLVALUE DUP1 ISZERO PUSH2 0x19B JUMPI PUSH1 0x0 DUP1 REVERT JUMPDEST POP PUSH2 0x1A4 PUSH2 0x939 JUMP JUMPDEST PUSH1 0x40 MLOAD PUSH2 0x1B1 SWAP2 SWAP1 PUSH2 0x1D1B JUMP JUMPDEST PUSH1 0x40 MLOAD DUP1 SWAP2 SUB SWAP1 RETURN JUMPDEST CALLVALUE DUP1 ISZERO PUSH2 0x1C6 JUMPI PUSH1 0x0 DUP1 REVERT JUMPDEST POP PUSH2 0x1E1 PUSH1 0x4 DUP1 CALLDATASIZE SUB DUP2 ADD SWAP1 PUSH2 0x1DC SWAP2 SWAP1 PUSH2 0x1C28 JUMP JUMPDEST PUSH2 0x93F JUMP JUMPDEST PUSH1 0x40 MLOAD PUSH2 0x1EE SWAP2 SWAP1 PUSH2 0x1E1A JUMP JUMPDEST PUSH1 0x40 MLOAD DUP1 SWAP2 SUB SWAP1 RETURN JUMPDEST CALLVALUE DUP1 ISZERO PUSH2 0x203 JUMPI PUSH1 0x0 DUP1 REVERT JUMPDEST POP PUSH2 0x20C PUSH2 0xA17 JUMP JUMPDEST STOP JUMPDEST CALLVALUE DUP1 ISZERO PUSH2 0x21A JUMPI PUSH1 0x0 DUP1 REVERT JUMPDEST POP PUSH2 0x235 PUSH1 0x4 DUP1 CALLDATASIZE SUB DUP2 ADD SWAP1 PUSH2 0x230 SWAP2 SWAP1 PUSH2 0x1E94 JUMP JUMPDEST PUSH2 0xA2B JUMP JUMPDEST STOP JUMPDEST CALLVALUE DUP1 ISZERO PUSH2 0x243 JUMPI PUSH1 0x0 DUP1 REVERT JUMPDEST POP PUSH2 0x25E PUSH1 0x4 DUP1 CALLDATASIZE SUB DUP2 ADD SWAP1 PUSH2 0x259 SWAP2 SWAP1 PUSH2 0x1EC1 JUMP JUMPDEST PUSH2 0xA8E JUMP JUMPDEST PUSH1 0x40 MLOAD PUSH2 0x26B SWAP2 SWAP1 PUSH2 0x1F10 JUMP JUMPDEST PUSH1 0x40 MLOAD DUP1 SWAP2 SUB SWAP1 RETURN JUMPDEST CALLVALUE DUP1 ISZERO PUSH2 0x280 JUMPI PUSH1 0x0 DUP1 REVERT JUMPDEST POP PUSH2 0x289 PUSH2 0xADC JUMP JUMPDEST PUSH1 0x40 MLOAD PUSH2 0x296 SWAP2 SWAP1 PUSH2 0x1F10 JUMP JUMPDEST PUSH1 0x40 MLOAD DUP1 SWAP2 SUB SWAP1 RETURN JUMPDEST PUSH2 0x2B9 PUSH1 0x4 DUP1 CALLDATASIZE SUB DUP2 ADD SWAP1 PUSH2 0x2B4 SWAP2 SWAP1 PUSH2 0x1F2B JUMP JUMPDEST PUSH2 0xB05 JUMP JUMPDEST STOP JUMPDEST CALLVALUE DUP1 ISZERO PUSH2 0x2C7 JUMPI PUSH1 0x0 DUP1 REVERT JUMPDEST POP PUSH2 0x2E2 PUSH1 0x4 DUP1 CALLDATASIZE SUB DUP2 ADD SWAP1 PUSH2 0x2DD SWAP2 SWAP1 PUSH2 0x1B5B JUMP JUMPDEST PUSH2 0x1160 JUMP JUMPDEST STOP JUMPDEST CALLVALUE DUP1 ISZERO PUSH2 0x2F0 JUMPI PUSH1 0x0 DUP1 REVERT JUMPDEST POP PUSH2 0x30B PUSH1 0x4 DUP1 CALLDATASIZE SUB DUP2 ADD SWAP1 PUSH2 0x306 SWAP2 SWAP1 PUSH2 0x1C28 JUMP JUMPDEST PUSH2 0x12AF JUMP JUMPDEST STOP JUMPDEST CALLVALUE DUP1 ISZERO PUSH2 0x319 JUMPI PUSH1 0x0 DUP1 REVERT JUMPDEST POP PUSH2 0x334 PUSH1 0x4 DUP1 CALLDATASIZE SUB DUP2 ADD SWAP1 PUSH2 0x32F SWAP2 SWAP1 PUSH2 0x1E94 JUMP JUMPDEST PUSH2 0x138C JUMP JUMPDEST STOP JUMPDEST CALLVALUE DUP1 ISZERO PUSH2 0x342 JUMPI PUSH1 0x0 DUP1 REVERT JUMPDEST POP PUSH2 0x35D PUSH1 0x4 DUP1 CALLDATASIZE SUB DUP2 ADD SWAP1 PUSH2 0x358 SWAP2 SWAP1 PUSH2 0x1E94 JUMP JUMPDEST PUSH2 0x1412 JUMP JUMPDEST STOP JUMPDEST CALLVALUE DUP1 ISZERO PUSH2 0x36B JUMPI PUSH1 0x0 DUP1 REVERT JUMPDEST POP PUSH2 0x386 PUSH1 0x4 DUP1 CALLDATASIZE SUB DUP2 ADD SWAP1 PUSH2 0x381 SWAP2 SWAP1 PUSH2 0x1C28 JUMP JUMPDEST PUSH2 0x1475 JUMP JUMPDEST STOP JUMPDEST CALLVALUE DUP1 ISZERO PUSH2 0x394 JUMPI PUSH1 0x0 DUP1 REVERT JUMPDEST POP PUSH2 0x3AF PUSH1 0x4 DUP1 CALLDATASIZE SUB DUP2 ADD SWAP1 PUSH2 0x3AA SWAP2 SWAP1 PUSH2 0x1F7E JUMP JUMPDEST PUSH2 0x17AF JUMP JUMPDEST PUSH1 0x40 MLOAD PUSH2 0x3C1 SWAP7 SWAP6 SWAP5 SWAP4 SWAP3 SWAP2 SWAP1 PUSH2 0x1FD1 JUMP JUMPDEST PUSH1 0x40 MLOAD DUP1 SWAP2 SUB SWAP1 RETURN JUMPDEST PUSH2 0x3D2 PUSH2 0x183F JUMP JUMPDEST PUSH1 0x0 PUSH1 0x3 PUSH1 0x0 DUP9 DUP2 MSTORE PUSH1 0x20 ADD SWAP1 DUP2 MSTORE PUSH1 0x20 ADD PUSH1 0x0 KECCAK256 SWAP1 POP PUSH1 0x0 DUP2 PUSH1 0x4 ADD PUSH1 0x0 SWAP1 SLOAD SWAP1 PUSH2 0x100 EXP SWAP1 DIV PUSH1 0xFF AND PUSH1 0xFF AND EQ DUP1 ISZERO PUSH2 0x421 JUMPI POP PUSH1 0x0 DUP2 PUSH1 0x4 ADD PUSH1 0x1 SWAP1 SLOAD SWAP1 PUSH2 0x100 EXP SWAP1 DIV PUSH1 0xFF AND PUSH1 0xFF AND EQ JUMPDEST PUSH2 0x460 JUMPI PUSH1 0x40 MLOAD PUSH32 0x8C379A000000000000000000000000000000000000000000000000000000000 DUP2 MSTORE PUSH1 0x4 ADD PUSH2 0x457 SWAP1 PUSH2 0x208F JUMP JUMPDEST PUSH1 0x40 MLOAD DUP1 SWAP2 SUB SWAP1 REVERT JUMPDEST DUP3 DUP3 GT PUSH2 0x4A2 JUMPI PUSH1 0x40 MLOAD PUSH32 0x8C379A000000000000000000000000000000000000000000000000000000000 DUP2 MSTORE PUSH1 0x4 ADD PUSH2 0x499 SWAP1 PUSH2 0x2121 JUMP JUMPDEST PUSH1 0x40 MLOAD DUP1 SWAP2 SUB SWAP1 REVERT JUMPDEST DUP6 DUP2 PUSH1 0x4 ADD PUSH1 0x0 PUSH2 0x100 EXP DUP2 SLOAD DUP2 PUSH1 0xFF MUL NOT AND SWAP1 DUP4 PUSH1 0xFF AND MUL OR SWAP1 SSTORE POP DUP5 DUP2 PUSH1 0x4 ADD PUSH1 0x1 PUSH2 0x100 EXP DUP2 SLOAD DUP2 PUSH1 0xFF MUL NOT AND SWAP1 DUP4 PUSH1 0xFF AND MUL OR SWAP1 SSTORE POP PUSH1 0x0 DUP5 SUB PUSH2 0x4F4 JUMPI PUSH1 0x1 SLOAD DUP2 PUSH1 0x1 ADD DUP2 SWAP1 SSTORE POP PUSH2 0x4FE JUMP JUMPDEST DUP4 DUP2 PUSH1 0x1 ADD DUP2 SWAP1 SSTORE POP JUMPDEST DUP3 DUP2 PUSH1 0x3 ADD DUP2 SWAP1 SSTORE POP DUP2 DUP2 PUSH1 0x2 ADD DUP2 SWAP1 SSTORE POP DUP7 PUSH32 0x4D9876E18138E94B574A905E63021C936600AB7E940D5EF88BCB7E06C4DE3463 DUP8 DUP8 DUP8 DUP8 DUP8 PUSH1 0x40 MLOAD PUSH2 0x548 SWAP6 SWAP5 SWAP4 SWAP3 SWAP2 SWAP1 PUSH2 0x2141 JUMP JUMPDEST PUSH1 0x40 MLOAD DUP1 SWAP2 SUB SWAP1 LOG2 POP POP POP POP POP POP POP JUMP JUMPDEST PUSH2 0x561 PUSH2 0x183F JUMP JUMPDEST PUSH1 0x0 PUSH1 0x3 PUSH1 0x0 DUP5 DUP2 MSTORE PUSH1 0x20 ADD SWAP1 DUP2 MSTORE PUSH1 0x20 ADD PUSH1 0x0 KECCAK256 SWAP1 POP DUP1 PUSH1 0x0 ADD PUSH1 0x0 SWAP1 SLOAD SWAP1 PUSH2 0x100 EXP SWAP1 DIV PUSH1 0xFF AND ISZERO PUSH2 0x5CA JUMPI PUSH1 0x40 MLOAD PUSH32 0x8C379A000000000000000000000000000000000000000000000000000000000 DUP2 MSTORE PUSH1 0x4 ADD PUSH2 0x5C1 SWAP1 PUSH2 0x21E0 JUMP JUMPDEST PUSH1 0x40 MLOAD DUP1 SWAP2 SUB SWAP1 REVERT JUMPDEST DUP1 PUSH1 0x4 ADD PUSH1 0x0 SWAP1 SLOAD SWAP1 PUSH2 0x100 EXP SWAP1 DIV PUSH1 0xFF AND PUSH1 0xFF AND DUP3 PUSH1 0xFF AND EQ DUP1 PUSH2 0x605 JUMPI POP DUP1 PUSH1 0x4 ADD PUSH1 0x1 SWAP1 SLOAD SWAP1 PUSH2 0x100 EXP SWAP1 DIV PUSH1 0xFF AND PUSH1 0xFF AND DUP3 PUSH1 0xFF AND EQ JUMPDEST PUSH2 0x644 JUMPI PUSH1 0x40 MLOAD PUSH32 0x8C379A000000000000000000000000000000000000000000000000000000000 DUP2 MSTORE PUSH1 0x4 ADD PUSH2 0x63B SWAP1 PUSH2 0x224C JUMP JUMPDEST PUSH1 0x40 MLOAD DUP1 SWAP2 SUB SWAP1 REVERT JUMPDEST PUSH1 0x1 DUP2 PUSH1 0x0 ADD PUSH1 0x0 PUSH2 0x100 EXP DUP2 SLOAD DUP2 PUSH1 0xFF MUL NOT AND SWAP1 DUP4 ISZERO ISZERO MUL OR SWAP1 SSTORE POP DUP2 DUP2 PUSH1 0x0 ADD PUSH1 0x1 PUSH2 0x100 EXP DUP2 SLOAD DUP2 PUSH1 0xFF MUL NOT AND SWAP1 DUP4 PUSH1 0xFF AND MUL OR SWAP1 SSTORE POP PUSH1 0x0 DUP2 PUSH1 0x6 ADD SLOAD DUP3 PUSH1 0x5 ADD SLOAD PUSH2 0x694 SWAP2 SWAP1 PUSH2 0x229B JUMP JUMPDEST SWAP1 POP PUSH1 0x0 JUMPDEST PUSH1 0x5 PUSH1 0x0 DUP7 DUP2 MSTORE PUSH1 0x20 ADD SWAP1 DUP2 MSTORE PUSH1 0x20 ADD PUSH1 0x0 KECCAK256 DUP1 SLOAD SWAP1 POP DUP2 LT ISZERO PUSH2 0x878 JUMPI PUSH1 0x0 PUSH1 0x5 PUSH1 0x0 DUP8 DUP2 MSTORE PUSH1 0x20 ADD SWAP1 DUP2 MSTORE PUSH1 0x20 ADD PUSH1 0x0 KECCAK256 DUP3 DUP2 SLOAD DUP2 LT PUSH2 0x6DE JUMPI PUSH2 0x6DD PUSH2 0x22CF JUMP JUMPDEST JUMPDEST SWAP1 PUSH1 0x0 MSTORE PUSH1 0x20 PUSH1 0x0 KECCAK256 ADD PUSH1 0x0 SWAP1 SLOAD SWAP1 PUSH2 0x100 EXP SWAP1 DIV PUSH20 0xFFFFFFFFFFFFFFFFFFFFFFFFFFFFFFFFFFFFFFFF AND SWAP1 POP PUSH1 0x0 PUSH1 0x4 PUSH1 0x0 DUP9 DUP2 MSTORE PUSH1 0x20 ADD SWAP1 DUP2 MSTORE PUSH1 0x20 ADD PUSH1 0x0 KECCAK256 PUSH1 0x0 DUP4 PUSH20 0xFFFFFFFFFFFFFFFFFFFFFFFFFFFFFFFFFFFFFFFF AND PUSH20 0xFFFFFFFFFFFFFFFFFFFFFFFFFFFFFFFFFFFFFFFF AND DUP2 MSTORE PUSH1 0x20 ADD SWAP1 DUP2 MSTORE PUSH1 0x20 ADD PUSH1 0x0 KECCAK256 PUSH1 0x0 DUP8 PUSH1 0xFF AND DUP2 MSTORE PUSH1 0x20 ADD SWAP1 DUP2 MSTORE PUSH1 0x20 ADD PUSH1 0x0 KECCAK256 SWAP1 POP DUP6 PUSH1 0xFF AND DUP2 PUSH1 0x4 ADD PUSH1 0x0 SWAP1 SLOAD SWAP1 PUSH2 0x100 EXP SWAP1 DIV PUSH1 0xFF AND PUSH1 0xFF AND EQ PUSH2 0x798 JUMPI POP POP PUSH2 0x878 JUMP JUMPDEST PUSH1 0x0 DUP6 PUSH1 0x4 ADD PUSH1 0x0 SWAP1 SLOAD SWAP1 PUSH2 0x100 EXP SWAP1 DIV PUSH1 0xFF AND PUSH1 0xFF AND DUP3 PUSH1 0x4 ADD PUSH1 0x0 SWAP1 SLOAD SWAP1 PUSH2 0x100 EXP SWAP1 DIV PUSH1 0xFF AND PUSH1 0xFF AND SUB PUSH2 0x816 JUMPI PUSH1 0x64 DUP7 PUSH1 0x1 ADD SLOAD PUSH1 0x64 PUSH2 0x7DC SWAP2 SWAP1 PUSH2 0x22FE JUMP JUMPDEST DUP7 DUP9 PUSH1 0x5 ADD SLOAD DUP6 PUSH1 0x2 ADD SLOAD PUSH2 0x7F1 SWAP2 SWAP1 PUSH2 0x2361 JUMP JUMPDEST PUSH2 0x7FB SWAP2 SWAP1 PUSH2 0x2392 JUMP JUMPDEST PUSH2 0x805 SWAP2 SWAP1 PUSH2 0x2392 JUMP JUMPDEST PUSH2 0x80F SWAP2 SWAP1 PUSH2 0x2361 JUMP JUMPDEST SWAP1 POP PUSH2 0x85F JUMP JUMPDEST PUSH1 0x64 DUP7 PUSH1 0x1 ADD SLOAD PUSH1 0x64 PUSH2 0x829 SWAP2 SWAP1 PUSH2 0x22FE JUMP JUMPDEST DUP7 DUP9 PUSH1 0x6 ADD SLOAD DUP6 PUSH1 0x2 ADD SLOAD PUSH2 0x83E SWAP2 SWAP1 PUSH2 0x2361 JUMP JUMPDEST PUSH2 0x848 SWAP2 SWAP1 PUSH2 0x2392 JUMP JUMPDEST PUSH2 0x852 SWAP2 SWAP1 PUSH2 0x2392 JUMP JUMPDEST PUSH2 0x85C SWAP2 SWAP1 PUSH2 0x2361 JUMP JUMPDEST SWAP1 POP JUMPDEST DUP1 DUP3 PUSH1 0x3 ADD DUP2 SWAP1 SSTORE POP POP POP POP DUP1 DUP1 PUSH1 0x1 ADD SWAP2 POP POP PUSH2 0x699 JUMP JUMPDEST POP DUP4 PUSH32 0xCE9132B398F004C2439D9DF899FBAAB5D9BB01C6DD02A720728F73EAC95E578F DUP5 PUSH1 0x40 MLOAD PUSH2 0x8A9 SWAP2 SWAP1 PUSH2 0x23D4 JUMP JUMPDEST PUSH1 0x40 MLOAD DUP1 SWAP2 SUB SWAP1 LOG2 POP POP POP POP JUMP JUMPDEST PUSH1 0x3 PUSH1 0x20 MSTORE DUP1 PUSH1 0x0 MSTORE PUSH1 0x40 PUSH1 0x0 KECCAK256 PUSH1 0x0 SWAP2 POP SWAP1 POP DUP1 PUSH1 0x0 ADD PUSH1 0x0 SWAP1 SLOAD SWAP1 PUSH2 0x100 EXP SWAP1 DIV PUSH1 0xFF AND SWAP1 DUP1 PUSH1 0x0 ADD PUSH1 0x1 SWAP1 SLOAD SWAP1 PUSH2 0x100 EXP SWAP1 DIV PUSH1 0xFF AND SWAP1 DUP1 PUSH1 0x1 ADD SLOAD SWAP1 DUP1 PUSH1 0x2 ADD SLOAD SWAP1 DUP1 PUSH1 0x3 ADD SLOAD SWAP1 DUP1 PUSH1 0x4 ADD PUSH1 0x0 SWAP1 SLOAD SWAP1 PUSH2 0x100 EXP SWAP1 DIV PUSH1 0xFF AND SWAP1 DUP1 PUSH1 0x4 ADD PUSH1 0x1 SWAP1 SLOAD SWAP1 PUSH2 0x100 EXP SWAP1 DIV PUSH1 0xFF AND SWAP1 DUP1 PUSH1 0x5 ADD SLOAD SWAP1 DUP1 PUSH1 0x6 ADD SLOAD SWAP1 POP DUP10 JUMP JUMPDEST PUSH1 0x1 SLOAD DUP2 JUMP JUMPDEST PUSH2 0x947 PUSH2 0x1A90 JUMP JUMPDEST PUSH1 0x0 PUSH1 0x3 PUSH1 0x0 DUP5 DUP2 MSTORE PUSH1 0x20 ADD SWAP1 DUP2 MSTORE PUSH1 0x20 ADD PUSH1 0x0 KECCAK256 SWAP1 POP DUP1 PUSH1 0x40 MLOAD DUP1 PUSH2 0x120 ADD PUSH1 0x40 MSTORE SWAP1 DUP2 PUSH1 0x0 DUP3 ADD PUSH1 0x0 SWAP1 SLOAD SWAP1 PUSH2 0x100 EXP SWAP1 DIV PUSH1 0xFF AND ISZERO ISZERO ISZERO ISZERO DUP2 MSTORE PUSH1 0x20 ADD PUSH1 0x0 DUP3 ADD PUSH1 0x1 SWAP1 SLOAD SWAP1 PUSH2 0x100 EXP SWAP1 DIV PUSH1 0xFF AND PUSH1 0xFF AND PUSH1 0xFF AND DUP2 MSTORE PUSH1 0x20 ADD PUSH1 0x1 DUP3 ADD SLOAD DUP2 MSTORE PUSH1 0x20 ADD PUSH1 0x2 DUP3 ADD SLOAD DUP2 MSTORE PUSH1 0x20 ADD PUSH1 0x3 DUP3 ADD SLOAD DUP2 MSTORE PUSH1 0x20 ADD PUSH1 0x4 DUP3 ADD PUSH1 0x0 SWAP1 SLOAD SWAP1 PUSH2 0x100 EXP SWAP1 DIV PUSH1 0xFF AND PUSH1 0xFF AND PUSH1 0xFF AND DUP2 MSTORE PUSH1 0x20 ADD PUSH1 0x4 DUP3 ADD PUSH1 0x1 SWAP1 SLOAD SWAP1 PUSH2 0x100 EXP SWAP1 DIV PUSH1 0xFF AND PUSH1 0xFF AND PUSH1 0xFF AND DUP2 MSTORE PUSH1 0x20 ADD PUSH1 0x5 DUP3 ADD SLOAD DUP2 MSTORE PUSH1 0x20 ADD PUSH1 0x6 DUP3 ADD SLOAD DUP2 MSTORE POP POP SWAP2 POP POP SWAP2 SWAP1 POP JUMP JUMPDEST PUSH2 0xA1F PUSH2 0x183F JUMP JUMPDEST PUSH2 0xA29 PUSH1 0x0 PUSH2 0x18C6 JUMP JUMPDEST JUMP JUMPDEST PUSH2 0xA33 PUSH2 0x183F JUMP JUMPDEST PUSH1 0x0 PUSH1 0x6 PUSH1 0x0 DUP4 PUSH20 0xFFFFFFFFFFFFFFFFFFFFFFFFFFFFFFFFFFFFFFFF AND PUSH20 0xFFFFFFFFFFFFFFFFFFFFFFFFFFFFFFFFFFFFFFFF AND DUP2 MSTORE PUSH1 0x20 ADD SWAP1 DUP2 MSTORE PUSH1 0x20 ADD PUSH1 0x0 KECCAK256 PUSH1 0x0 PUSH2 0x100 EXP DUP2 SLOAD DUP2 PUSH1 0xFF MUL NOT AND SWAP1 DUP4 ISZERO ISZERO MUL OR SWAP1 SSTORE POP POP JUMP JUMPDEST PUSH1 0x5 PUSH1 0x20 MSTORE DUP2 PUSH1 0x0 MSTORE PUSH1 0x40 PUSH1 0x0 KECCAK256 DUP2 DUP2 SLOAD DUP2 LT PUSH2 0xAAA JUMPI PUSH1 0x0 DUP1 REVERT JUMPDEST SWAP1 PUSH1 0x0 MSTORE PUSH1 0x20 PUSH1 0x0 KECCAK256 ADD PUSH1 0x0 SWAP2 POP SWAP2 POP SWAP1 SLOAD SWAP1 PUSH2 0x100 EXP SWAP1 DIV PUSH20 0xFFFFFFFFFFFFFFFFFFFFFFFFFFFFFFFFFFFFFFFF AND DUP2 JUMP JUMPDEST PUSH1 0x0 DUP1 PUSH1 0x0 SWAP1 SLOAD SWAP1 PUSH2 0x100 EXP SWAP1 DIV PUSH20 0xFFFFFFFFFFFFFFFFFFFFFFFFFFFFFFFFFFFFFFFF AND SWAP1 POP SWAP1 JUMP JUMPDEST PUSH1 0x0 DUP3 GT PUSH2 0xB48 JUMPI PUSH1 0x40 MLOAD PUSH32 0x8C379A000000000000000000000000000000000000000000000000000000000 DUP2 MSTORE PUSH1 0x4 ADD PUSH2 0xB3F SWAP1 PUSH2 0x243B JUMP JUMPDEST PUSH1 0x40 MLOAD DUP1 SWAP2 SUB SWAP1 REVERT JUMPDEST PUSH1 0x0 PUSH1 0x3 PUSH1 0x0 DUP6 DUP2 MSTORE PUSH1 0x20 ADD SWAP1 DUP2 MSTORE PUSH1 0x20 ADD PUSH1 0x0 KECCAK256 SWAP1 POP PUSH1 0x0 DUP2 PUSH1 0x3 ADD SLOAD GT PUSH2 0xBA6 JUMPI PUSH1 0x40 MLOAD PUSH32 0x8C379A000000000000000000000000000000000000000000000000000000000 DUP2 MSTORE PUSH1 0x4 ADD PUSH2 0xB9D SWAP1 PUSH2 0x24A7 JUMP JUMPDEST PUSH1 0x40 MLOAD DUP1 SWAP2 SUB SWAP1 REVERT JUMPDEST PUSH1 0x0 DUP2 PUSH1 0x2 ADD SLOAD SUB PUSH2 0xBED JUMPI PUSH1 0x40 MLOAD PUSH32 0x8C379A000000000000000000000000000000000000000000000000000000000 DUP2 MSTORE PUSH1 0x4 ADD PUSH2 0xBE4 SWAP1 PUSH2 0x2513 JUMP JUMPDEST PUSH1 0x40 MLOAD DUP1 SWAP2 SUB SWAP1 REVERT JUMPDEST DUP1 PUSH1 0x0 ADD PUSH1 0x0 SWAP1 SLOAD SWAP1 PUSH2 0x100 EXP SWAP1 DIV PUSH1 0xFF AND ISZERO PUSH2 0xC3F JUMPI PUSH1 0x40 MLOAD PUSH32 0x8C379A000000000000000000000000000000000000000000000000000000000 DUP2 MSTORE PUSH1 0x4 ADD PUSH2 0xC36 SWAP1 PUSH2 0x25A5 JUMP JUMPDEST PUSH1 0x40 MLOAD DUP1 SWAP2 SUB SWAP1 REVERT JUMPDEST DUP1 PUSH1 0x3 ADD SLOAD TIMESTAMP GT PUSH2 0xC85 JUMPI PUSH1 0x40 MLOAD PUSH32 0x8C379A000000000000000000000000000000000000000000000000000000000 DUP2 MSTORE PUSH1 0x4 ADD PUSH2 0xC7C SWAP1 PUSH2 0x2637 JUMP JUMPDEST PUSH1 0x40 MLOAD DUP1 SWAP2 SUB SWAP1 REVERT JUMPDEST PUSH1 0x2 SLOAD DUP2 PUSH1 0x2 ADD SLOAD PUSH2 0xC97 SWAP2 SWAP1 PUSH2 0x22FE JUMP JUMPDEST TIMESTAMP LT PUSH2 0xCD8 JUMPI PUSH1 0x40 MLOAD PUSH32 0x8C379A000000000000000000000000000000000000000000000000000000000 DUP2 MSTORE PUSH1 0x4 ADD PUSH2 0xCCF SWAP1 PUSH2 0x26A3 JUMP JUMPDEST PUSH1 0x40 MLOAD DUP1 SWAP2 SUB SWAP1 REVERT JUMPDEST DUP3 CALLVALUE LT ISZERO PUSH2 0xD1B JUMPI PUSH1 0x40 MLOAD PUSH32 0x8C379A000000000000000000000000000000000000000000000000000000000 DUP2 MSTORE PUSH1 0x4 ADD PUSH2 0xD12 SWAP1 PUSH2 0x270F JUMP JUMPDEST PUSH1 0x40 MLOAD DUP1 SWAP2 SUB SWAP1 REVERT JUMPDEST DUP1 PUSH1 0x4 ADD PUSH1 0x0 SWAP1 SLOAD SWAP1 PUSH2 0x100 EXP SWAP1 DIV PUSH1 0xFF AND PUSH1 0xFF AND DUP3 PUSH1 0xFF AND SUB PUSH2 0xD59 JUMPI DUP3 DUP2 PUSH1 0x5 ADD PUSH1 0x0 DUP3 DUP3 SLOAD PUSH2 0xD4D SWAP2 SWAP1 PUSH2 0x229B JUMP JUMPDEST SWAP3 POP POP DUP2 SWAP1 SSTORE POP PUSH2 0xEA1 JUMP JUMPDEST DUP1 PUSH1 0x4 ADD PUSH1 0x1 SWAP1 SLOAD SWAP1 PUSH2 0x100 EXP SWAP1 DIV PUSH1 0xFF AND PUSH1 0xFF AND DUP3 PUSH1 0xFF AND SUB PUSH2 0xD97 JUMPI DUP3 DUP2 PUSH1 0x6 ADD PUSH1 0x0 DUP3 DUP3 SLOAD PUSH2 0xD8B SWAP2 SWAP1 PUSH2 0x229B JUMP JUMPDEST SWAP3 POP POP DUP2 SWAP1 SSTORE POP PUSH2 0xEA0 JUMP JUMPDEST PUSH1 0x0 DUP2 PUSH1 0x4 ADD PUSH1 0x0 SWAP1 SLOAD SWAP1 PUSH2 0x100 EXP SWAP1 DIV PUSH1 0xFF AND PUSH1 0xFF AND EQ DUP1 PUSH2 0xDCE JUMPI POP PUSH1 0x0 DUP2 PUSH1 0x4 ADD PUSH1 0x1 SWAP1 SLOAD SWAP1 PUSH2 0x100 EXP SWAP1 DIV PUSH1 0xFF AND PUSH1 0xFF AND EQ JUMPDEST PUSH2 0xE0D JUMPI PUSH1 0x40 MLOAD PUSH32 0x8C379A000000000000000000000000000000000000000000000000000000000 DUP2 MSTORE PUSH1 0x4 ADD PUSH2 0xE04 SWAP1 PUSH2 0x277B JUMP JUMPDEST PUSH1 0x40 MLOAD DUP1 SWAP2 SUB SWAP1 REVERT JUMPDEST PUSH1 0x0 DUP2 PUSH1 0x4 ADD PUSH1 0x0 SWAP1 SLOAD SWAP1 PUSH2 0x100 EXP SWAP1 DIV PUSH1 0xFF AND PUSH1 0xFF AND SUB PUSH2 0xE66 JUMPI DUP2 DUP2 PUSH1 0x4 ADD PUSH1 0x0 PUSH2 0x100 EXP DUP2 SLOAD DUP2 PUSH1 0xFF MUL NOT AND SWAP1 DUP4 PUSH1 0xFF AND MUL OR SWAP1 SSTORE POP DUP3 DUP2 PUSH1 0x5 ADD PUSH1 0x0 DUP3 DUP3 SLOAD PUSH2 0xE5A SWAP2 SWAP1 PUSH2 0x229B JUMP JUMPDEST SWAP3 POP POP DUP2 SWAP1 SSTORE POP PUSH2 0xE9F JUMP JUMPDEST DUP2 DUP2 PUSH1 0x4 ADD PUSH1 0x1 PUSH2 0x100 EXP DUP2 SLOAD DUP2 PUSH1 0xFF MUL NOT AND SWAP1 DUP4 PUSH1 0xFF AND MUL OR SWAP1 SSTORE POP DUP3 DUP2 PUSH1 0x6 ADD PUSH1 0x0 DUP3 DUP3 SLOAD PUSH2 0xE97 SWAP2 SWAP1 PUSH2 0x229B JUMP JUMPDEST SWAP3 POP POP DUP2 SWAP1 SSTORE POP JUMPDEST JUMPDEST JUMPDEST PUSH1 0x0 PUSH1 0x4 PUSH1 0x0 DUP7 DUP2 MSTORE PUSH1 0x20 ADD SWAP1 DUP2 MSTORE PUSH1 0x20 ADD PUSH1 0x0 KECCAK256 PUSH1 0x0 CALLER PUSH20 0xFFFFFFFFFFFFFFFFFFFFFFFFFFFFFFFFFFFFFFFF AND PUSH20 0xFFFFFFFFFFFFFFFFFFFFFFFFFFFFFFFFFFFFFFFF AND DUP2 MSTORE PUSH1 0x20 ADD SWAP1 DUP2 MSTORE PUSH1 0x20 ADD PUSH1 0x0 KECCAK256 PUSH1 0x0 DUP5 PUSH1 0xFF AND DUP2 MSTORE PUSH1 0x20 ADD SWAP1 DUP2 MSTORE PUSH1 0x20 ADD PUSH1 0x0 KECCAK256 SWAP1 POP PUSH1 0x0 DUP2 PUSH1 0x2 ADD SLOAD GT ISZERO PUSH2 0xF36 JUMPI DUP4 DUP2 PUSH1 0x2 ADD PUSH1 0x0 DUP3 DUP3 SLOAD PUSH2 0xF2A SWAP2 SWAP1 PUSH2 0x229B JUMP JUMPDEST SWAP3 POP POP DUP2 SWAP1 SSTORE POP PUSH2 0x108E JUMP JUMPDEST PUSH1 0x40 MLOAD DUP1 PUSH1 0xC0 ADD PUSH1 0x40 MSTORE DUP1 DUP7 DUP2 MSTORE PUSH1 0x20 ADD CALLER PUSH20 0xFFFFFFFFFFFFFFFFFFFFFFFFFFFFFFFFFFFFFFFF AND DUP2 MSTORE PUSH1 0x20 ADD DUP6 DUP2 MSTORE PUSH1 0x20 ADD PUSH1 0x0 DUP2 MSTORE PUSH1 0x20 ADD DUP5 PUSH1 0xFF AND DUP2 MSTORE PUSH1 0x20 ADD PUSH1 0x0 ISZERO ISZERO DUP2 MSTORE POP PUSH1 0x4 PUSH1 0x0 DUP8 DUP2 MSTORE PUSH1 0x20 ADD SWAP1 DUP2 MSTORE PUSH1 0x20 ADD PUSH1 0x0 KECCAK256 PUSH1 0x0 CALLER PUSH20 0xFFFFFFFFFFFFFFFFFFFFFFFFFFFFFFFFFFFFFFFF AND PUSH20 0xFFFFFFFFFFFFFFFFFFFFFFFFFFFFFFFFFFFFFFFF AND DUP2 MSTORE PUSH1 0x20 ADD SWAP1 DUP2 MSTORE PUSH1 0x20 ADD PUSH1 0x0 KECCAK256 PUSH1 0x0 DUP6 PUSH1 0xFF AND DUP2 MSTORE PUSH1 0x20 ADD SWAP1 DUP2 MSTORE PUSH1 0x20 ADD PUSH1 0x0 KECCAK256 PUSH1 0x0 DUP3 ADD MLOAD DUP2 PUSH1 0x0 ADD SSTORE PUSH1 0x20 DUP3 ADD MLOAD DUP2 PUSH1 0x1 ADD PUSH1 0x0 PUSH2 0x100 EXP DUP2 SLOAD DUP2 PUSH20 0xFFFFFFFFFFFFFFFFFFFFFFFFFFFFFFFFFFFFFFFF MUL NOT AND SWAP1 DUP4 PUSH20 0xFFFFFFFFFFFFFFFFFFFFFFFFFFFFFFFFFFFFFFFF AND MUL OR SWAP1 SSTORE POP PUSH1 0x40 DUP3 ADD MLOAD DUP2 PUSH1 0x2 ADD SSTORE PUSH1 0x60 DUP3 ADD MLOAD DUP2 PUSH1 0x3 ADD SSTORE PUSH1 0x80 DUP3 ADD MLOAD DUP2 PUSH1 0x4 ADD PUSH1 0x0 PUSH2 0x100 EXP DUP2 SLOAD DUP2 PUSH1 0xFF MUL NOT AND SWAP1 DUP4 PUSH1 0xFF AND MUL OR SWAP1 SSTORE POP PUSH1 0xA0 DUP3 ADD MLOAD DUP2 PUSH1 0x4 ADD PUSH1 0x1 PUSH2 0x100 EXP DUP2 SLOAD DUP2 PUSH1 0xFF MUL NOT AND SWAP1 DUP4 ISZERO ISZERO MUL OR SWAP1 SSTORE POP SWAP1 POP POP JUMPDEST PUSH1 0x5 PUSH1 0x0 DUP7 DUP2 MSTORE PUSH1 0x20 ADD SWAP1 DUP2 MSTORE PUSH1 0x20 ADD PUSH1 0x0 KECCAK256 CALLER SWAP1 DUP1 PUSH1 0x1 DUP2 SLOAD ADD DUP1 DUP3 SSTORE DUP1 SWAP2 POP POP PUSH1 0x1 SWAP1 SUB SWAP1 PUSH1 0x0 MSTORE PUSH1 0x20 PUSH1 0x0 KECCAK256 ADD PUSH1 0x0 SWAP1 SWAP2 SWAP1 SWAP2 SWAP1 SWAP2 PUSH2 0x100 EXP DUP2 SLOAD DUP2 PUSH20 0xFFFFFFFFFFFFFFFFFFFFFFFFFFFFFFFFFFFFFFFF MUL NOT AND SWAP1 DUP4 PUSH20 0xFFFFFFFFFFFFFFFFFFFFFFFFFFFFFFFFFFFFFFFF AND MUL OR SWAP1 SSTORE POP CALLER PUSH20 0xFFFFFFFFFFFFFFFFFFFFFFFFFFFFFFFFFFFFFFFF AND DUP6 PUSH32 0xBFCD8F4E47CC529F86CDC7EAB8FB80E015A298E021FCAEE72DF1F76DD57CF487 DUP6 DUP8 DUP7 PUSH1 0x1 ADD SLOAD PUSH1 0x40 MLOAD PUSH2 0x1151 SWAP4 SWAP3 SWAP2 SWAP1 PUSH2 0x279B JUMP JUMPDEST PUSH1 0x40 MLOAD DUP1 SWAP2 SUB SWAP1 LOG3 POP POP POP POP POP JUMP JUMPDEST PUSH2 0x1168 PUSH2 0x183F JUMP JUMPDEST PUSH1 0x0 PUSH1 0x3 PUSH1 0x0 DUP9 DUP2 MSTORE PUSH1 0x20 ADD SWAP1 DUP2 MSTORE PUSH1 0x20 ADD PUSH1 0x0 KECCAK256 SWAP1 POP PUSH1 0x0 DUP2 PUSH1 0x4 ADD PUSH1 0x0 SWAP1 SLOAD SWAP1 PUSH2 0x100 EXP SWAP1 DIV PUSH1 0xFF AND PUSH1 0xFF AND EQ ISZERO DUP1 ISZERO PUSH2 0x11B9 JUMPI POP PUSH1 0x0 DUP2 PUSH1 0x4 ADD PUSH1 0x1 SWAP1 SLOAD SWAP1 PUSH2 0x100 EXP SWAP1 DIV PUSH1 0xFF AND PUSH1 0xFF AND EQ ISZERO JUMPDEST PUSH2 0x11F8 JUMPI PUSH1 0x40 MLOAD PUSH32 0x8C379A000000000000000000000000000000000000000000000000000000000 DUP2 MSTORE PUSH1 0x4 ADD PUSH2 0x11EF SWAP1 PUSH2 0x281E JUMP JUMPDEST PUSH1 0x40 MLOAD DUP1 SWAP2 SUB SWAP1 REVERT JUMPDEST DUP6 DUP2 PUSH1 0x4 ADD PUSH1 0x0 PUSH2 0x100 EXP DUP2 SLOAD DUP2 PUSH1 0xFF MUL NOT AND SWAP1 DUP4 PUSH1 0xFF AND MUL OR SWAP1 SSTORE POP DUP5 DUP2 PUSH1 0x4 ADD PUSH1 0x1 PUSH2 0x100 EXP DUP2 SLOAD DUP2 PUSH1 0xFF MUL NOT AND SWAP1 DUP4 PUSH1 0xFF AND MUL OR SWAP1 SSTORE POP PUSH1 0x0 DUP5 SUB PUSH2 0x124A JUMPI PUSH1 0x1 SLOAD DUP2 PUSH1 0x1 ADD DUP2 SWAP1 SSTORE POP PUSH2 0x1254 JUMP JUMPDEST DUP4 DUP2 PUSH1 0x1 ADD DUP2 SWAP1 SSTORE POP JUMPDEST DUP3 DUP2 PUSH1 0x3 ADD DUP2 SWAP1 SSTORE POP DUP2 DUP2 PUSH1 0x2 ADD DUP2 SWAP1 SSTORE POP DUP7 PUSH32 0x85E6363DEA01C8F1966C922694C98B6BEEDFF411F939611A7E66AA43D1373168 DUP8 DUP8 DUP8 DUP8 DUP8 PUSH1 0x40 MLOAD PUSH2 0x129E SWAP6 SWAP5 SWAP4 SWAP3 SWAP2 SWAP1 PUSH2 0x2141 JUMP JUMPDEST PUSH1 0x40 MLOAD DUP1 SWAP2 SUB SWAP1 LOG2 POP POP POP POP POP POP POP JUMP JUMPDEST PUSH2 0x12B7 PUSH2 0x183F JUMP JUMPDEST PUSH1 0x0 PUSH1 0x3 PUSH1 0x0 DUP4 DUP2 MSTORE PUSH1 0x20 ADD SWAP1 DUP2 MSTORE PUSH1 0x20 ADD PUSH1 0x0 KECCAK256 SWAP1 POP PUSH1 0x0 DUP2 PUSH1 0x4 ADD PUSH1 0x0 SWAP1 SLOAD SWAP1 PUSH2 0x100 EXP SWAP1 DIV PUSH1 0xFF AND PUSH1 0xFF AND EQ ISZERO DUP1 ISZERO PUSH2 0x1308 JUMPI POP PUSH1 0x0 DUP2 PUSH1 0x4 ADD PUSH1 0x1 SWAP1 SLOAD SWAP1 PUSH2 0x100 EXP SWAP1 DIV PUSH1 0xFF AND PUSH1 0xFF AND EQ ISZERO JUMPDEST PUSH2 0x1347 JUMPI PUSH1 0x40 MLOAD PUSH32 0x8C379A000000000000000000000000000000000000000000000000000000000 DUP2 MSTORE PUSH1 0x4 ADD PUSH2 0x133E SWAP1 PUSH2 0x281E JUMP JUMPDEST PUSH1 0x40 MLOAD DUP1 SWAP2 SUB SWAP1 REVERT JUMPDEST PUSH1 0x0 DUP2 PUSH1 0x3 ADD DUP2 SWAP1 SSTORE POP PUSH1 0x0 DUP2 PUSH1 0x2 ADD DUP2 SWAP1 SSTORE POP DUP2 PUSH32 0x80BED4CEEB2DFBD88F61CCA1C30BC6DEDE3047D1862345EF30F1CBC44C2016D7 PUSH1 0x40 MLOAD PUSH1 0x40 MLOAD DUP1 SWAP2 SUB SWAP1 LOG2 POP POP JUMP JUMPDEST PUSH2 0x1394 PUSH2 0x183F JUMP JUMPDEST PUSH1 0x0 PUSH20 0xFFFFFFFFFFFFFFFFFFFFFFFFFFFFFFFFFFFFFFFF AND DUP2 PUSH20 0xFFFFFFFFFFFFFFFFFFFFFFFFFFFFFFFFFFFFFFFF AND SUB PUSH2 0x1406 JUMPI PUSH1 0x0 PUSH1 0x40 MLOAD PUSH32 0x1E4FBDF700000000000000000000000000000000000000000000000000000000 DUP2 MSTORE PUSH1 0x4 ADD PUSH2 0x13FD SWAP2 SWAP1 PUSH2 0x1F10 JUMP JUMPDEST PUSH1 0x40 MLOAD DUP1 SWAP2 SUB SWAP1 REVERT JUMPDEST PUSH2 0x140F DUP2 PUSH2 0x18C6 JUMP JUMPDEST POP JUMP JUMPDEST PUSH2 0x141A PUSH2 0x183F JUMP JUMPDEST PUSH1 0x1 PUSH1 0x6 PUSH1 0x0 DUP4 PUSH20 0xFFFFFFFFFFFFFFFFFFFFFFFFFFFFFFFFFFFFFFFF AND PUSH20 0xFFFFFFFFFFFFFFFFFFFFFFFFFFFFFFFFFFFFFFFF AND DUP2 MSTORE PUSH1 0x20 ADD SWAP1 DUP2 MSTORE PUSH1 0x20 ADD PUSH1 0x0 KECCAK256 PUSH1 0x0 PUSH2 0x100 EXP DUP2 SLOAD DUP2 PUSH1 0xFF MUL NOT AND SWAP1 DUP4 ISZERO ISZERO MUL OR SWAP1 SSTORE POP POP JUMP JUMPDEST PUSH1 0x0 PUSH1 0x3 PUSH1 0x0 DUP4 DUP2 MSTORE PUSH1 0x20 ADD SWAP1 DUP2 MSTORE PUSH1 0x20 ADD PUSH1 0x0 KECCAK256 SWAP1 POP DUP1 PUSH1 0x0 ADD PUSH1 0x0 SWAP1 SLOAD SWAP1 PUSH2 0x100 EXP SWAP1 DIV PUSH1 0xFF AND PUSH2 0x14DD JUMPI PUSH1 0x40 MLOAD PUSH32 0x8C379A000000000000000000000000000000000000000000000000000000000 DUP2 MSTORE PUSH1 0x4 ADD PUSH2 0x14D4 SWAP1 PUSH2 0x288A JUMP JUMPDEST PUSH1 0x40 MLOAD DUP1 SWAP2 SUB SWAP1 REVERT JUMPDEST PUSH1 0x0 JUMPDEST PUSH1 0x5 PUSH1 0x0 DUP5 DUP2 MSTORE PUSH1 0x20 ADD SWAP1 DUP2 MSTORE PUSH1 0x20 ADD PUSH1 0x0 KECCAK256 DUP1 SLOAD SWAP1 POP DUP2 LT ISZERO PUSH2 0x15F2 JUMPI CALLER PUSH20 0xFFFFFFFFFFFFFFFFFFFFFFFFFFFFFFFFFFFFFFFF AND PUSH1 0x5 PUSH1 0x0 DUP6 DUP2 MSTORE PUSH1 0x20 ADD SWAP1 DUP2 MSTORE PUSH1 0x20 ADD PUSH1 0x0 KECCAK256 DUP3 DUP2 SLOAD DUP2 LT PUSH2 0x153A JUMPI PUSH2 0x1539 PUSH2 0x22CF JUMP JUMPDEST JUMPDEST SWAP1 PUSH1 0x0 MSTORE PUSH1 0x20 PUSH1 0x0 KECCAK256 ADD PUSH1 0x0 SWAP1 SLOAD SWAP1 PUSH2 0x100 EXP SWAP1 DIV PUSH20 0xFFFFFFFFFFFFFFFFFFFFFFFFFFFFFFFFFFFFFFFF AND PUSH20 0xFFFFFFFFFFFFFFFFFFFFFFFFFFFFFFFFFFFFFFFF AND SUB ISZERO PUSH2 0x15F2 JUMPI PUSH1 0x1 PUSH1 0x5 PUSH1 0x0 DUP6 DUP2 MSTORE PUSH1 0x20 ADD SWAP1 DUP2 MSTORE PUSH1 0x20 ADD PUSH1 0x0 KECCAK256 DUP1 SLOAD SWAP1 POP PUSH2 0x15A4 SWAP2 SWAP1 PUSH2 0x22FE JUMP JUMPDEST DUP2 SUB PUSH2 0x15E5 JUMPI PUSH1 0x40 MLOAD PUSH32 0x8C379A000000000000000000000000000000000000000000000000000000000 DUP2 MSTORE PUSH1 0x4 ADD PUSH2 0x15DC SWAP1 PUSH2 0x28F6 JUMP JUMPDEST PUSH1 0x40 MLOAD DUP1 SWAP2 SUB SWAP1 REVERT JUMPDEST DUP1 DUP1 PUSH1 0x1 ADD SWAP2 POP POP PUSH2 0x14E0 JUMP JUMPDEST POP PUSH1 0x0 DUP2 PUSH1 0x0 ADD PUSH1 0x1 SWAP1 SLOAD SWAP1 PUSH2 0x100 EXP SWAP1 DIV PUSH1 0xFF AND PUSH1 0xFF AND SWAP1 POP PUSH1 0x0 PUSH1 0x4 PUSH1 0x0 DUP6 DUP2 MSTORE PUSH1 0x20 ADD SWAP1 DUP2 MSTORE PUSH1 0x20 ADD PUSH1 0x0 KECCAK256 PUSH1 0x0 CALLER PUSH20 0xFFFFFFFFFFFFFFFFFFFFFFFFFFFFFFFFFFFFFFFF AND PUSH20 0xFFFFFFFFFFFFFFFFFFFFFFFFFFFFFFFFFFFFFFFF AND DUP2 MSTORE PUSH1 0x20 ADD SWAP1 DUP2 MSTORE PUSH1 0x20 ADD PUSH1 0x0 KECCAK256 PUSH1 0x0 DUP4 DUP2 MSTORE PUSH1 0x20 ADD SWAP1 DUP2 MSTORE PUSH1 0x20 ADD PUSH1 0x0 KECCAK256 SWAP1 POP DUP1 PUSH1 0x4 ADD PUSH1 0x1 SWAP1 SLOAD SWAP1 PUSH2 0x100 EXP SWAP1 DIV PUSH1 0xFF AND ISZERO PUSH2 0x16C3 JUMPI PUSH1 0x40 MLOAD PUSH32 0x8C379A000000000000000000000000000000000000000000000000000000000 DUP2 MSTORE PUSH1 0x4 ADD PUSH2 0x16BA SWAP1 PUSH2 0x2988 JUMP JUMPDEST PUSH1 0x40 MLOAD DUP1 SWAP2 SUB SWAP1 REVERT JUMPDEST PUSH1 0x0 DUP2 PUSH1 0x3 ADD SLOAD GT PUSH2 0x170A JUMPI PUSH1 0x40 MLOAD PUSH32 0x8C379A000000000000000000000000000000000000000000000000000000000 DUP2 MSTORE PUSH1 0x4 ADD PUSH2 0x1701 SWAP1 PUSH2 0x29F4 JUMP JUMPDEST PUSH1 0x40 MLOAD DUP1 SWAP2 SUB SWAP1 REVERT JUMPDEST PUSH1 0x0 PUSH2 0x1715 CALLER PUSH2 0x198A JUMP JUMPDEST SWAP1 POP PUSH2 0x1725 DUP2 DUP4 PUSH1 0x3 ADD SLOAD PUSH2 0x1994 JUMP JUMPDEST PUSH1 0x1 DUP3 PUSH1 0x4 ADD PUSH1 0x1 PUSH2 0x100 EXP DUP2 SLOAD DUP2 PUSH1 0xFF MUL NOT AND SWAP1 DUP4 ISZERO ISZERO MUL OR SWAP1 SSTORE POP CALLER PUSH20 0xFFFFFFFFFFFFFFFFFFFFFFFFFFFFFFFFFFFFFFFF AND DUP6 PUSH32 0x117469DC6E53CC28B431071A5558D9BA93BA1FA0A223492D196A9FA9E541C0D7 DUP5 PUSH1 0x4 ADD PUSH1 0x0 SWAP1 SLOAD SWAP1 PUSH2 0x100 EXP SWAP1 DIV PUSH1 0xFF AND DUP6 PUSH1 0x3 ADD SLOAD PUSH1 0x40 MLOAD PUSH2 0x17A0 SWAP3 SWAP2 SWAP1 PUSH2 0x2A14 JUMP JUMPDEST PUSH1 0x40 MLOAD DUP1 SWAP2 SUB SWAP1 LOG3 POP POP POP POP POP JUMP JUMPDEST PUSH1 0x4 PUSH1 0x20 MSTORE DUP3 PUSH1 0x0 MSTORE PUSH1 0x40 PUSH1 0x0 KECCAK256 PUSH1 0x20 MSTORE DUP2 PUSH1 0x0 MSTORE PUSH1 0x40 PUSH1 0x0 KECCAK256 PUSH1 0x20 MSTORE DUP1 PUSH1 0x0 MSTORE PUSH1 0x40 PUSH1 0x0 KECCAK256 PUSH1 0x0 SWAP3 POP SWAP3 POP POP POP DUP1 PUSH1 0x0 ADD SLOAD SWAP1 DUP1 PUSH1 0x1 ADD PUSH1 0x0 SWAP1 SLOAD SWAP1 PUSH2 0x100 EXP SWAP1 DIV PUSH20 0xFFFFFFFFFFFFFFFFFFFFFFFFFFFFFFFFFFFFFFFF AND SWAP1 DUP1 PUSH1 0x2 ADD SLOAD SWAP1 DUP1 PUSH1 0x3 ADD SLOAD SWAP1 DUP1 PUSH1 0x4 ADD PUSH1 0x0 SWAP1 SLOAD SWAP1 PUSH2 0x100 EXP SWAP1 DIV PUSH1 0xFF AND SWAP1 DUP1 PUSH1 0x4 ADD PUSH1 0x1 SWAP1 SLOAD SWAP1 PUSH2 0x100 EXP SWAP1 DIV PUSH1 0xFF AND SWAP1 POP DUP7 JUMP JUMPDEST PUSH2 0x1847 PUSH2 0x1A88 JUMP JUMPDEST PUSH20 0xFFFFFFFFFFFFFFFFFFFFFFFFFFFFFFFFFFFFFFFF AND PUSH2 0x1865 PUSH2 0xADC JUMP JUMPDEST PUSH20 0xFFFFFFFFFFFFFFFFFFFFFFFFFFFFFFFFFFFFFFFF AND EQ PUSH2 0x18C4 JUMPI PUSH2 0x1888 PUSH2 0x1A88 JUMP JUMPDEST PUSH1 0x40 MLOAD PUSH32 0x118CDAA700000000000000000000000000000000000000000000000000000000 DUP2 MSTORE PUSH1 0x4 ADD PUSH2 0x18BB SWAP2 SWAP1 PUSH2 0x1F10 JUMP JUMPDEST PUSH1 0x40 MLOAD DUP1 SWAP2 SUB SWAP1 REVERT JUMPDEST JUMP JUMPDEST PUSH1 0x0 DUP1 PUSH1 0x0 SWAP1 SLOAD SWAP1 PUSH2 0x100 EXP SWAP1 DIV PUSH20 0xFFFFFFFFFFFFFFFFFFFFFFFFFFFFFFFFFFFFFFFF AND SWAP1 POP DUP2 PUSH1 0x0 DUP1 PUSH2 0x100 EXP DUP2 SLOAD DUP2 PUSH20 0xFFFFFFFFFFFFFFFFFFFFFFFFFFFFFFFFFFFFFFFF MUL NOT AND SWAP1 DUP4 PUSH20 0xFFFFFFFFFFFFFFFFFFFFFFFFFFFFFFFFFFFFFFFF AND MUL OR SWAP1 SSTORE POP DUP2 PUSH20 0xFFFFFFFFFFFFFFFFFFFFFFFFFFFFFFFFFFFFFFFF AND DUP2 PUSH20 0xFFFFFFFFFFFFFFFFFFFFFFFFFFFFFFFFFFFFFFFF AND PUSH32 0x8BE0079C531659141344CD1FD0A4F28419497F9722A3DAAFE3B4186F6B6457E0 PUSH1 0x40 MLOAD PUSH1 0x40 MLOAD DUP1 SWAP2 SUB SWAP1 LOG3 POP POP JUMP JUMPDEST PUSH1 0x0 DUP2 SWAP1 POP SWAP2 SWAP1 POP JUMP JUMPDEST DUP1 SELFBALANCE LT ISZERO PUSH2 0x19D7 JUMPI PUSH1 0x40 MLOAD PUSH32 0x8C379A000000000000000000000000000000000000000000000000000000000 DUP2 MSTORE PUSH1 0x4 ADD PUSH2 0x19CE SWAP1 PUSH2 0x2A89 JUMP JUMPDEST PUSH1 0x40 MLOAD DUP1 SWAP2 SUB SWAP1 REVERT JUMPDEST PUSH1 0x0 DUP3 PUSH20 0xFFFFFFFFFFFFFFFFFFFFFFFFFFFFFFFFFFFFFFFF AND DUP3 PUSH1 0x40 MLOAD PUSH2 0x19FD SWAP1 PUSH2 0x2ADA JUMP JUMPDEST PUSH1 0x0 PUSH1 0x40 MLOAD DUP1 DUP4 SUB DUP2 DUP6 DUP8 GAS CALL SWAP3 POP POP POP RETURNDATASIZE DUP1 PUSH1 0x0 DUP2 EQ PUSH2 0x1A3A JUMPI PUSH1 0x40 MLOAD SWAP2 POP PUSH1 0x1F NOT PUSH1 0x3F RETURNDATASIZE ADD AND DUP3 ADD PUSH1 0x40 MSTORE RETURNDATASIZE DUP3 MSTORE RETURNDATASIZE PUSH1 0x0 PUSH1 0x20 DUP5 ADD RETURNDATACOPY PUSH2 0x1A3F JUMP JUMPDEST PUSH1 0x60 SWAP2 POP JUMPDEST POP POP SWAP1 POP DUP1 PUSH2 0x1A83 JUMPI PUSH1 0x40 MLOAD PUSH32 0x8C379A000000000000000000000000000000000000000000000000000000000 DUP2 MSTORE PUSH1 0x4 ADD PUSH2 0x1A7A SWAP1 PUSH2 0x2B3B JUMP JUMPDEST PUSH1 0x40 MLOAD DUP1 SWAP2 SUB SWAP1 REVERT JUMPDEST POP POP POP JUMP JUMPDEST PUSH1 0x0 CALLER SWAP1 POP SWAP1 JUMP JUMPDEST PUSH1 0x40 MLOAD DUP1 PUSH2 0x120 ADD PUSH1 0x40 MSTORE DUP1 PUSH1 0x0 ISZERO ISZERO DUP2 MSTORE PUSH1 0x20 ADD PUSH1 0x0 PUSH1 0xFF AND DUP2 MSTORE PUSH1 0x20 ADD PUSH1 0x0 DUP2 MSTORE PUSH1 0x20 ADD PUSH1 0x0 DUP2 MSTORE PUSH1 0x20 ADD PUSH1 0x0 DUP2 MSTORE PUSH1 0x20 ADD PUSH1 0x0 PUSH1 0xFF AND DUP2 MSTORE PUSH1 0x20 ADD PUSH1 0x0 PUSH1 0xFF AND DUP2 MSTORE PUSH1 0x20 ADD PUSH1 0x0 DUP2 MSTORE PUSH1 0x20 ADD PUSH1 0x0 DUP2 MSTORE POP SWAP1 JUMP JUMPDEST PUSH1 0x0 DUP1 REVERT JUMPDEST PUSH1 0x0 DUP2 SWAP1 POP SWAP2 SWAP1 POP JUMP JUMPDEST PUSH2 0x1AFF DUP2 PUSH2 0x1AEC JUMP JUMPDEST DUP2 EQ PUSH2 0x1B0A JUMPI PUSH1 0x0 DUP1 REVERT JUMPDEST POP JUMP JUMPDEST PUSH1 0x0 DUP2 CALLDATALOAD SWAP1 POP PUSH2 0x1B1C DUP2 PUSH2 0x1AF6 JUMP JUMPDEST SWAP3 SWAP2 POP POP JUMP JUMPDEST PUSH1 0x0 PUSH1 0xFF DUP3 AND SWAP1 POP SWAP2 SWAP1 POP JUMP JUMPDEST PUSH2 0x1B38 DUP2 PUSH2 0x1B22 JUMP JUMPDEST DUP2 EQ PUSH2 0x1B43 JUMPI PUSH1 0x0 DUP1 REVERT JUMPDEST POP JUMP JUMPDEST PUSH1 0x0 DUP2 CALLDATALOAD SWAP1 POP PUSH2 0x1B55 DUP2 PUSH2 0x1B2F JUMP JUMPDEST SWAP3 SWAP2 POP POP JUMP JUMPDEST PUSH1 0x0 DUP1 PUSH1 0x0 DUP1 PUSH1 0x0 DUP1 PUSH1 0xC0 DUP8 DUP10 SUB SLT ISZERO PUSH2 0x1B78 JUMPI PUSH2 0x1B77 PUSH2 0x1AE7 JUMP JUMPDEST JUMPDEST PUSH1 0x0 PUSH2 0x1B86 DUP10 DUP3 DUP11 ADD PUSH2 0x1B0D JUMP JUMPDEST SWAP7 POP POP PUSH1 0x20 PUSH2 0x1B97 DUP10 DUP3 DUP11 ADD PUSH2 0x1B46 JUMP JUMPDEST SWAP6 POP POP PUSH1 0x40 PUSH2 0x1BA8 DUP10 DUP3 DUP11 ADD PUSH2 0x1B46 JUMP JUMPDEST SWAP5 POP POP PUSH1 0x60 PUSH2 0x1BB9 DUP10 DUP3 DUP11 ADD PUSH2 0x1B0D JUMP JUMPDEST SWAP4 POP POP PUSH1 0x80 PUSH2 0x1BCA DUP10 DUP3 DUP11 ADD PUSH2 0x1B0D JUMP JUMPDEST SWAP3 POP POP PUSH1 0xA0 PUSH2 0x1BDB DUP10 DUP3 DUP11 ADD PUSH2 0x1B0D JUMP JUMPDEST SWAP2 POP POP SWAP3 SWAP6 POP SWAP3 SWAP6 POP SWAP3 SWAP6 JUMP JUMPDEST PUSH1 0x0 DUP1 PUSH1 0x40 DUP4 DUP6 SUB SLT ISZERO PUSH2 0x1BFF JUMPI PUSH2 0x1BFE PUSH2 0x1AE7 JUMP JUMPDEST JUMPDEST PUSH1 0x0 PUSH2 0x1C0D DUP6 DUP3 DUP7 ADD PUSH2 0x1B0D JUMP JUMPDEST SWAP3 POP POP PUSH1 0x20 PUSH2 0x1C1E DUP6 DUP3 DUP7 ADD PUSH2 0x1B46 JUMP JUMPDEST SWAP2 POP POP SWAP3 POP SWAP3 SWAP1 POP JUMP JUMPDEST PUSH1 0x0 PUSH1 0x20 DUP3 DUP5 SUB SLT ISZERO PUSH2 0x1C3E JUMPI PUSH2 0x1C3D PUSH2 0x1AE7 JUMP JUMPDEST JUMPDEST PUSH1 0x0 PUSH2 0x1C4C DUP5 DUP3 DUP6 ADD PUSH2 0x1B0D JUMP JUMPDEST SWAP2 POP POP SWAP3 SWAP2 POP POP JUMP JUMPDEST PUSH1 0x0 DUP2 ISZERO ISZERO SWAP1 POP SWAP2 SWAP1 POP JUMP JUMPDEST PUSH2 0x1C6A DUP2 PUSH2 0x1C55 JUMP JUMPDEST DUP3 MSTORE POP POP JUMP JUMPDEST PUSH2 0x1C79 DUP2 PUSH2 0x1B22 JUMP JUMPDEST DUP3 MSTORE POP POP JUMP JUMPDEST PUSH2 0x1C88 DUP2 PUSH2 0x1AEC JUMP JUMPDEST DUP3 MSTORE POP POP JUMP JUMPDEST PUSH1 0x0 PUSH2 0x120 DUP3 ADD SWAP1 POP PUSH2 0x1CA4 PUSH1 0x0 DUP4 ADD DUP13 PUSH2 0x1C61 JUMP JUMPDEST PUSH2 0x1CB1 PUSH1 0x20 DUP4 ADD DUP12 PUSH2 0x1C70 JUMP JUMPDEST PUSH2 0x1CBE PUSH1 0x40 DUP4 ADD DUP11 PUSH2 0x1C7F JUMP JUMPDEST PUSH2 0x1CCB PUSH1 0x60 DUP4 ADD DUP10 PUSH2 0x1C7F JUMP JUMPDEST PUSH2 0x1CD8 PUSH1 0x80 DUP4 ADD DUP9 PUSH2 0x1C7F JUMP JUMPDEST PUSH2 0x1CE5 PUSH1 0xA0 DUP4 ADD DUP8 PUSH2 0x1C70 JUMP JUMPDEST PUSH2 0x1CF2 PUSH1 0xC0 DUP4 ADD DUP7 PUSH2 0x1C70 JUMP JUMPDEST PUSH2 0x1CFF PUSH1 0xE0 DUP4 ADD DUP6 PUSH2 0x1C7F JUMP JUMPDEST PUSH2 0x1D0D PUSH2 0x100 DUP4 ADD DUP5 PUSH2 0x1C7F JUMP JUMPDEST SWAP11 SWAP10 POP POP POP POP POP POP POP POP POP POP JUMP JUMPDEST PUSH1 0x0 PUSH1 0x20 DUP3 ADD SWAP1 POP PUSH2 0x1D30 PUSH1 0x0 DUP4 ADD DUP5 PUSH2 0x1C7F JUMP JUMPDEST SWAP3 SWAP2 POP POP JUMP JUMPDEST PUSH2 0x1D3F DUP2 PUSH2 0x1C55 JUMP JUMPDEST DUP3 MSTORE POP POP JUMP JUMPDEST PUSH2 0x1D4E DUP2 PUSH2 0x1B22 JUMP JUMPDEST DUP3 MSTORE POP POP JUMP JUMPDEST PUSH2 0x1D5D DUP2 PUSH2 0x1AEC JUMP JUMPDEST DUP3 MSTORE POP POP JUMP JUMPDEST PUSH2 0x120 DUP3 ADD PUSH1 0x0 DUP3 ADD MLOAD PUSH2 0x1D7A PUSH1 0x0 DUP6 ADD DUP3 PUSH2 0x1D36 JUMP JUMPDEST POP PUSH1 0x20 DUP3 ADD MLOAD PUSH2 0x1D8D PUSH1 0x20 DUP6 ADD DUP3 PUSH2 0x1D45 JUMP JUMPDEST POP PUSH1 0x40 DUP3 ADD MLOAD PUSH2 0x1DA0 PUSH1 0x40 DUP6 ADD DUP3 PUSH2 0x1D54 JUMP JUMPDEST POP PUSH1 0x60 DUP3 ADD MLOAD PUSH2 0x1DB3 PUSH1 0x60 DUP6 ADD DUP3 PUSH2 0x1D54 JUMP JUMPDEST POP PUSH1 0x80 DUP3 ADD MLOAD PUSH2 0x1DC6 PUSH1 0x80 DUP6 ADD DUP3 PUSH2 0x1D54 JUMP JUMPDEST POP PUSH1 0xA0 DUP3 ADD MLOAD PUSH2 0x1DD9 PUSH1 0xA0 DUP6 ADD DUP3 PUSH2 0x1D45 JUMP JUMPDEST POP PUSH1 0xC0 DUP3 ADD MLOAD PUSH2 0x1DEC PUSH1 0xC0 DUP6 ADD DUP3 PUSH2 0x1D45 JUMP JUMPDEST POP PUSH1 0xE0 DUP3 ADD MLOAD PUSH2 0x1DFF PUSH1 0xE0 DUP6 ADD DUP3 PUSH2 0x1D54 JUMP JUMPDEST POP PUSH2 0x100 DUP3 ADD MLOAD PUSH2 0x1E14 PUSH2 0x100 DUP6 ADD DUP3 PUSH2 0x1D54 JUMP JUMPDEST POP POP POP POP JUMP JUMPDEST PUSH1 0x0 PUSH2 0x120 DUP3 ADD SWAP1 POP PUSH2 0x1E30 PUSH1 0x0 DUP4 ADD DUP5 PUSH2 0x1D63 JUMP JUMPDEST SWAP3 SWAP2 POP POP JUMP JUMPDEST PUSH1 0x0 PUSH20 0xFFFFFFFFFFFFFFFFFFFFFFFFFFFFFFFFFFFFFFFF DUP3 AND SWAP1 POP SWAP2 SWAP1 POP JUMP JUMPDEST PUSH1 0x0 PUSH2 0x1E61 DUP3 PUSH2 0x1E36 JUMP JUMPDEST SWAP1 POP SWAP2 SWAP1 POP JUMP JUMPDEST PUSH2 0x1E71 DUP2 PUSH2 0x1E56 JUMP JUMPDEST DUP2 EQ PUSH2 0x1E7C JUMPI PUSH1 0x0 DUP1 REVERT JUMPDEST POP JUMP JUMPDEST PUSH1 0x0 DUP2 CALLDATALOAD SWAP1 POP PUSH2 0x1E8E DUP2 PUSH2 0x1E68 JUMP JUMPDEST SWAP3 SWAP2 POP POP JUMP JUMPDEST PUSH1 0x0 PUSH1 0x20 DUP3 DUP5 SUB SLT ISZERO PUSH2 0x1EAA JUMPI PUSH2 0x1EA9 PUSH2 0x1AE7 JUMP JUMPDEST JUMPDEST PUSH1 0x0 PUSH2 0x1EB8 DUP5 DUP3 DUP6 ADD PUSH2 0x1E7F JUMP JUMPDEST SWAP2 POP POP SWAP3 SWAP2 POP POP JUMP JUMPDEST PUSH1 0x0 DUP1 PUSH1 0x40 DUP4 DUP6 SUB SLT ISZERO PUSH2 0x1ED8 JUMPI PUSH2 0x1ED7 PUSH2 0x1AE7 JUMP JUMPDEST JUMPDEST PUSH1 0x0 PUSH2 0x1EE6 DUP6 DUP3 DUP7 ADD PUSH2 0x1B0D JUMP JUMPDEST SWAP3 POP POP PUSH1 0x20 PUSH2 0x1EF7 DUP6 DUP3 DUP7 ADD PUSH2 0x1B0D JUMP JUMPDEST SWAP2 POP POP SWAP3 POP SWAP3 SWAP1 POP JUMP JUMPDEST PUSH2 0x1F0A DUP2 PUSH2 0x1E56 JUMP JUMPDEST DUP3 MSTORE POP POP JUMP JUMPDEST PUSH1 0x0 PUSH1 0x20 DUP3 ADD SWAP1 POP PUSH2 0x1F25 PUSH1 0x0 DUP4 ADD DUP5 PUSH2 0x1F01 JUMP JUMPDEST SWAP3 SWAP2 POP POP JUMP JUMPDEST PUSH1 0x0 DUP1 PUSH1 0x0 PUSH1 0x60 DUP5 DUP7 SUB SLT ISZERO PUSH2 0x1F44 JUMPI PUSH2 0x1F43 PUSH2 0x1AE7 JUMP JUMPDEST JUMPDEST PUSH1 0x0 PUSH2 0x1F52 DUP7 DUP3 DUP8 ADD PUSH2 0x1B0D JUMP JUMPDEST SWAP4 POP POP PUSH1 0x20 PUSH2 0x1F63 DUP7 DUP3 DUP8 ADD PUSH2 0x1B0D JUMP JUMPDEST SWAP3 POP POP PUSH1 0x40 PUSH2 0x1F74 DUP7 DUP3 DUP8 ADD PUSH2 0x1B46 JUMP JUMPDEST SWAP2 POP POP SWAP3 POP SWAP3 POP SWAP3 JUMP JUMPDEST PUSH1 0x0 DUP1 PUSH1 0x0 PUSH1 0x60 DUP5 DUP7 SUB SLT ISZERO PUSH2 0x1F97 JUMPI PUSH2 0x1F96 PUSH2 0x1AE7 JUMP JUMPDEST JUMPDEST PUSH1 0x0 PUSH2 0x1FA5 DUP7 DUP3 DUP8 ADD PUSH2 0x1B0D JUMP JUMPDEST SWAP4 POP POP PUSH1 0x20 PUSH2 0x1FB6 DUP7 DUP3 DUP8 ADD PUSH2 0x1E7F JUMP JUMPDEST SWAP3 POP POP PUSH1 0x40 PUSH2 0x1FC7 DUP7 DUP3 DUP8 ADD PUSH2 0x1B0D JUMP JUMPDEST SWAP2 POP POP SWAP3 POP SWAP3 POP SWAP3 JUMP JUMPDEST PUSH1 0x0 PUSH1 0xC0 DUP3 ADD SWAP1 POP PUSH2 0x1FE6 PUSH1 0x0 DUP4 ADD DUP10 PUSH2 0x1C7F JUMP JUMPDEST PUSH2 0x1FF3 PUSH1 0x20 DUP4 ADD DUP9 PUSH2 0x1F01 JUMP JUMPDEST PUSH2 0x2000 PUSH1 0x40 DUP4 ADD DUP8 PUSH2 0x1C7F JUMP JUMPDEST PUSH2 0x200D PUSH1 0x60 DUP4 ADD DUP7 PUSH2 0x1C7F JUMP JUMPDEST PUSH2 0x201A PUSH1 0x80 DUP4 ADD DUP6 PUSH2 0x1C70 JUMP JUMPDEST PUSH2 0x2027 PUSH1 0xA0 DUP4 ADD DUP5 PUSH2 0x1C61 JUMP JUMPDEST SWAP8 SWAP7 POP POP POP POP POP POP POP JUMP JUMPDEST PUSH1 0x0 DUP3 DUP3 MSTORE PUSH1 0x20 DUP3 ADD SWAP1 POP SWAP3 SWAP2 POP POP JUMP JUMPDEST PUSH32 0x44656261746520697320616C7265616479206372656174656400000000000000 PUSH1 0x0 DUP3 ADD MSTORE POP JUMP JUMPDEST PUSH1 0x0 PUSH2 0x2079 PUSH1 0x19 DUP4 PUSH2 0x2032 JUMP JUMPDEST SWAP2 POP PUSH2 0x2084 DUP3 PUSH2 0x2043 JUMP JUMPDEST PUSH1 0x20 DUP3 ADD SWAP1 POP SWAP2 SWAP1 POP JUMP JUMPDEST PUSH1 0x0 PUSH1 0x20 DUP3 ADD SWAP1 POP DUP2 DUP2 SUB PUSH1 0x0 DUP4 ADD MSTORE PUSH2 0x20A8 DUP2 PUSH2 0x206C JUMP JUMPDEST SWAP1 POP SWAP2 SWAP1 POP JUMP JUMPDEST PUSH32 0x456E642074696D65206D7573742062652067726561746572207468616E207075 PUSH1 0x0 DUP3 ADD MSTORE PUSH32 0x626C69632074696D650000000000000000000000000000000000000000000000 PUSH1 0x20 DUP3 ADD MSTORE POP JUMP JUMPDEST PUSH1 0x0 PUSH2 0x210B PUSH1 0x29 DUP4 PUSH2 0x2032 JUMP JUMPDEST SWAP2 POP PUSH2 0x2116 DUP3 PUSH2 0x20AF JUMP JUMPDEST PUSH1 0x40 DUP3 ADD SWAP1 POP SWAP2 SWAP1 POP JUMP JUMPDEST PUSH1 0x0 PUSH1 0x20 DUP3 ADD SWAP1 POP DUP2 DUP2 SUB PUSH1 0x0 DUP4 ADD MSTORE PUSH2 0x213A DUP2 PUSH2 0x20FE JUMP JUMPDEST SWAP1 POP SWAP2 SWAP1 POP JUMP JUMPDEST PUSH1 0x0 PUSH1 0xA0 DUP3 ADD SWAP1 POP PUSH2 0x2156 PUSH1 0x0 DUP4 ADD DUP9 PUSH2 0x1C70 JUMP JUMPDEST PUSH2 0x2163 PUSH1 0x20 DUP4 ADD DUP8 PUSH2 0x1C70 JUMP JUMPDEST PUSH2 0x2170 PUSH1 0x40 DUP4 ADD DUP7 PUSH2 0x1C7F JUMP JUMPDEST PUSH2 0x217D PUSH1 0x60 DUP4 ADD DUP6 PUSH2 0x1C7F JUMP JUMPDEST PUSH2 0x218A PUSH1 0x80 DUP4 ADD DUP5 PUSH2 0x1C7F JUMP JUMPDEST SWAP7 SWAP6 POP POP POP POP POP POP JUMP JUMPDEST PUSH32 0x44656261746520697320616C7265616479207265736F6C766564000000000000 PUSH1 0x0 DUP3 ADD MSTORE POP JUMP JUMPDEST PUSH1 0x0 PUSH2 0x21CA PUSH1 0x1A DUP4 PUSH2 0x2032 JUMP JUMPDEST SWAP2 POP PUSH2 0x21D5 DUP3 PUSH2 0x2194 JUMP JUMPDEST PUSH1 0x20 DUP3 ADD SWAP1 POP SWAP2 SWAP1 POP JUMP JUMPDEST PUSH1 0x0 PUSH1 0x20 DUP3 ADD SWAP1 POP DUP2 DUP2 SUB PUSH1 0x0 DUP4 ADD MSTORE PUSH2 0x21F9 DUP2 PUSH2 0x21BD JUMP JUMPDEST SWAP1 POP SWAP2 SWAP1 POP JUMP JUMPDEST PUSH32 0x496E76616C6964206167656E7400000000000000000000000000000000000000 PUSH1 0x0 DUP3 ADD MSTORE POP JUMP JUMPDEST PUSH1 0x0 PUSH2 0x2236 PUSH1 0xD DUP4 PUSH2 0x2032 JUMP JUMPDEST SWAP2 POP PUSH2 0x2241 DUP3 PUSH2 0x2200 JUMP JUMPDEST PUSH1 0x20 DUP3 ADD SWAP1 POP SWAP2 SWAP1 POP JUMP JUMPDEST PUSH1 0x0 PUSH1 0x20 DUP3 ADD SWAP1 POP DUP2 DUP2 SUB PUSH1 0x0 DUP4 ADD MSTORE PUSH2 0x2265 DUP2 PUSH2 0x2229 JUMP JUMPDEST SWAP1 POP SWAP2 SWAP1 POP JUMP JUMPDEST PUSH32 0x4E487B7100000000000000000000000000000000000000000000000000000000 PUSH1 0x0 MSTORE PUSH1 0x11 PUSH1 0x4 MSTORE PUSH1 0x24 PUSH1 0x0 REVERT JUMPDEST PUSH1 0x0 PUSH2 0x22A6 DUP3 PUSH2 0x1AEC JUMP JUMPDEST SWAP2 POP PUSH2 0x22B1 DUP4 PUSH2 0x1AEC JUMP JUMPDEST SWAP3 POP DUP3 DUP3 ADD SWAP1 POP DUP1 DUP3 GT ISZERO PUSH2 0x22C9 JUMPI PUSH2 0x22C8 PUSH2 0x226C JUMP JUMPDEST JUMPDEST SWAP3 SWAP2 POP POP JUMP JUMPDEST PUSH32 0x4E487B7100000000000000000000000000000000000000000000000000000000 PUSH1 0x0 MSTORE PUSH1 0x32 PUSH1 0x4 MSTORE PUSH1 0x24 PUSH1 0x0 REVERT JUMPDEST PUSH1 0x0 PUSH2 0x2309 DUP3 PUSH2 0x1AEC JUMP JUMPDEST SWAP2 POP PUSH2 0x2314 DUP4 PUSH2 0x1AEC JUMP JUMPDEST SWAP3 POP DUP3 DUP3 SUB SWAP1 POP DUP2 DUP2 GT ISZERO PUSH2 0x232C JUMPI PUSH2 0x232B PUSH2 0x226C JUMP JUMPDEST JUMPDEST SWAP3 SWAP2 POP POP JUMP JUMPDEST PUSH32 0x4E487B7100000000000000000000000000000000000000000000000000000000 PUSH1 0x0 MSTORE PUSH1 0x12 PUSH1 0x4 MSTORE PUSH1 0x24 PUSH1 0x0 REVERT JUMPDEST PUSH1 0x0 PUSH2 0x236C DUP3 PUSH2 0x1AEC JUMP JUMPDEST SWAP2 POP PUSH2 0x2377 DUP4 PUSH2 0x1AEC JUMP JUMPDEST SWAP3 POP DUP3 PUSH2 0x2387 JUMPI PUSH2 0x2386 PUSH2 0x2332 JUMP JUMPDEST JUMPDEST DUP3 DUP3 DIV SWAP1 POP SWAP3 SWAP2 POP POP JUMP JUMPDEST PUSH1 0x0 PUSH2 0x239D DUP3 PUSH2 0x1AEC JUMP JUMPDEST SWAP2 POP PUSH2 0x23A8 DUP4 PUSH2 0x1AEC JUMP JUMPDEST SWAP3 POP DUP3 DUP3 MUL PUSH2 0x23B6 DUP2 PUSH2 0x1AEC JUMP JUMPDEST SWAP2 POP DUP3 DUP3 DIV DUP5 EQ DUP4 ISZERO OR PUSH2 0x23CD JUMPI PUSH2 0x23CC PUSH2 0x226C JUMP JUMPDEST JUMPDEST POP SWAP3 SWAP2 POP POP JUMP JUMPDEST PUSH1 0x0 PUSH1 0x20 DUP3 ADD SWAP1 POP PUSH2 0x23E9 PUSH1 0x0 DUP4 ADD DUP5 PUSH2 0x1C70 JUMP JUMPDEST SWAP3 SWAP2 POP POP JUMP JUMPDEST PUSH32 0x416D6F756E74206D7573742062652067726561746572207468616E2030000000 PUSH1 0x0 DUP3 ADD MSTORE POP JUMP JUMPDEST PUSH1 0x0 PUSH2 0x2425 PUSH1 0x1D DUP4 PUSH2 0x2032 JUMP JUMPDEST SWAP2 POP PUSH2 0x2430 DUP3 PUSH2 0x23EF JUMP JUMPDEST PUSH1 0x20 DUP3 ADD SWAP1 POP SWAP2 SWAP1 POP JUMP JUMPDEST PUSH1 0x0 PUSH1 0x20 DUP3 ADD SWAP1 POP DUP2 DUP2 SUB PUSH1 0x0 DUP4 ADD MSTORE PUSH2 0x2454 DUP2 PUSH2 0x2418 JUMP JUMPDEST SWAP1 POP SWAP2 SWAP1 POP JUMP JUMPDEST PUSH32 0x446562617465206973206E6F74207075626C6973686564207965740000000000 PUSH1 0x0 DUP3 ADD MSTORE POP JUMP JUMPDEST PUSH1 0x0 PUSH2 0x2491 PUSH1 0x1B DUP4 PUSH2 0x2032 JUMP JUMPDEST SWAP2 POP PUSH2 0x249C DUP3 PUSH2 0x245B JUMP JUMPDEST PUSH1 0x20 DUP3 ADD SWAP1 POP SWAP2 SWAP1 POP JUMP JUMPDEST PUSH1 0x0 PUSH1 0x20 DUP3 ADD SWAP1 POP DUP2 DUP2 SUB PUSH1 0x0 DUP4 ADD MSTORE PUSH2 0x24C0 DUP2 PUSH2 0x2484 JUMP JUMPDEST SWAP1 POP SWAP2 SWAP1 POP JUMP JUMPDEST PUSH32 0x4465626174652069732064656C65746564000000000000000000000000000000 PUSH1 0x0 DUP3 ADD MSTORE POP JUMP JUMPDEST PUSH1 0x0 PUSH2 0x24FD PUSH1 0x11 DUP4 PUSH2 0x2032 JUMP JUMPDEST SWAP2 POP PUSH2 0x2508 DUP3 PUSH2 0x24C7 JUMP JUMPDEST PUSH1 0x20 DUP3 ADD SWAP1 POP SWAP2 SWAP1 POP JUMP JUMPDEST PUSH1 0x0 PUSH1 0x20 DUP3 ADD SWAP1 POP DUP2 DUP2 SUB PUSH1 0x0 DUP4 ADD MSTORE PUSH2 0x252C DUP2 PUSH2 0x24F0 JUMP JUMPDEST SWAP1 POP SWAP2 SWAP1 POP JUMP JUMPDEST PUSH32 0x4465626174652073657373696F6E20697320616C7265616479207265736F6C76 PUSH1 0x0 DUP3 ADD MSTORE PUSH32 0x6564000000000000000000000000000000000000000000000000000000000000 PUSH1 0x20 DUP3 ADD MSTORE POP JUMP JUMPDEST PUSH1 0x0 PUSH2 0x258F PUSH1 0x22 DUP4 PUSH2 0x2032 JUMP JUMPDEST SWAP2 POP PUSH2 0x259A DUP3 PUSH2 0x2533 JUMP JUMPDEST PUSH1 0x40 DUP3 ADD SWAP1 POP SWAP2 SWAP1 POP JUMP JUMPDEST PUSH1 0x0 PUSH1 0x20 DUP3 ADD SWAP1 POP DUP2 DUP2 SUB PUSH1 0x0 DUP4 ADD MSTORE PUSH2 0x25BE DUP2 PUSH2 0x2582 JUMP JUMPDEST SWAP1 POP SWAP2 SWAP1 POP JUMP JUMPDEST PUSH32 0x4465626174652073657373696F6E206973206E6F742073746172746564207965 PUSH1 0x0 DUP3 ADD MSTORE PUSH32 0x7400000000000000000000000000000000000000000000000000000000000000 PUSH1 0x20 DUP3 ADD MSTORE POP JUMP JUMPDEST PUSH1 0x0 PUSH2 0x2621 PUSH1 0x21 DUP4 PUSH2 0x2032 JUMP JUMPDEST SWAP2 POP PUSH2 0x262C DUP3 PUSH2 0x25C5 JUMP JUMPDEST PUSH1 0x40 DUP3 ADD SWAP1 POP SWAP2 SWAP1 POP JUMP JUMPDEST PUSH1 0x0 PUSH1 0x20 DUP3 ADD SWAP1 POP DUP2 DUP2 SUB PUSH1 0x0 DUP4 ADD MSTORE PUSH2 0x2650 DUP2 PUSH2 0x2614 JUMP JUMPDEST SWAP1 POP SWAP2 SWAP1 POP JUMP JUMPDEST PUSH32 0x4465626174652073657373696F6E20697320616C726561647920656E64656400 PUSH1 0x0 DUP3 ADD MSTORE POP JUMP JUMPDEST PUSH1 0x0 PUSH2 0x268D PUSH1 0x1F DUP4 PUSH2 0x2032 JUMP JUMPDEST SWAP2 POP PUSH2 0x2698 DUP3 PUSH2 0x2657 JUMP JUMPDEST PUSH1 0x20 DUP3 ADD SWAP1 POP SWAP2 SWAP1 POP JUMP JUMPDEST PUSH1 0x0 PUSH1 0x20 DUP3 ADD SWAP1 POP DUP2 DUP2 SUB PUSH1 0x0 DUP4 ADD MSTORE PUSH2 0x26BC DUP2 PUSH2 0x2680 JUMP JUMPDEST SWAP1 POP SWAP2 SWAP1 POP JUMP JUMPDEST PUSH32 0x46656520616D6F756E74206973206E6F7420636F727265637400000000000000 PUSH1 0x0 DUP3 ADD MSTORE POP JUMP JUMPDEST PUSH1 0x0 PUSH2 0x26F9 PUSH1 0x19 DUP4 PUSH2 0x2032 JUMP JUMPDEST SWAP2 POP PUSH2 0x2704 DUP3 PUSH2 0x26C3 JUMP JUMPDEST PUSH1 0x20 DUP3 ADD SWAP1 POP SWAP2 SWAP1 POP JUMP JUMPDEST PUSH1 0x0 PUSH1 0x20 DUP3 ADD SWAP1 POP DUP2 DUP2 SUB PUSH1 0x0 DUP4 ADD MSTORE PUSH2 0x2728 DUP2 PUSH2 0x26EC JUMP JUMPDEST SWAP1 POP SWAP2 SWAP1 POP JUMP JUMPDEST PUSH32 0x426F7468206167656E74732061726520616C72656164792061737369676E6564 PUSH1 0x0 DUP3 ADD MSTORE POP JUMP JUMPDEST PUSH1 0x0 PUSH2 0x2765 PUSH1 0x20 DUP4 PUSH2 0x2032 JUMP JUMPDEST SWAP2 POP PUSH2 0x2770 DUP3 PUSH2 0x272F JUMP JUMPDEST PUSH1 0x20 DUP3 ADD SWAP1 POP SWAP2 SWAP1 POP JUMP JUMPDEST PUSH1 0x0 PUSH1 0x20 DUP3 ADD SWAP1 POP DUP2 DUP2 SUB PUSH1 0x0 DUP4 ADD MSTORE PUSH2 0x2794 DUP2 PUSH2 0x2758 JUMP JUMPDEST SWAP1 POP SWAP2 SWAP1 POP JUMP JUMPDEST PUSH1 0x0 PUSH1 0x60 DUP3 ADD SWAP1 POP PUSH2 0x27B0 PUSH1 0x0 DUP4 ADD DUP7 PUSH2 0x1C70 JUMP JUMPDEST PUSH2 0x27BD PUSH1 0x20 DUP4 ADD DUP6 PUSH2 0x1C7F JUMP JUMPDEST PUSH2 0x27CA PUSH1 0x40 DUP4 ADD DUP5 PUSH2 0x1C7F JUMP JUMPDEST SWAP5 SWAP4 POP POP POP POP JUMP JUMPDEST PUSH32 0x446562617465206973206E6F7420637265617465642079657400000000000000 PUSH1 0x0 DUP3 ADD MSTORE POP JUMP JUMPDEST PUSH1 0x0 PUSH2 0x2808 PUSH1 0x19 DUP4 PUSH2 0x2032 JUMP JUMPDEST SWAP2 POP PUSH2 0x2813 DUP3 PUSH2 0x27D2 JUMP JUMPDEST PUSH1 0x20 DUP3 ADD SWAP1 POP SWAP2 SWAP1 POP JUMP JUMPDEST PUSH1 0x0 PUSH1 0x20 DUP3 ADD SWAP1 POP DUP2 DUP2 SUB PUSH1 0x0 DUP4 ADD MSTORE PUSH2 0x2837 DUP2 PUSH2 0x27FB JUMP JUMPDEST SWAP1 POP SWAP2 SWAP1 POP JUMP JUMPDEST PUSH32 0x446562617465206973206E6F74207265736F6C76656420796574000000000000 PUSH1 0x0 DUP3 ADD MSTORE POP JUMP JUMPDEST PUSH1 0x0 PUSH2 0x2874 PUSH1 0x1A DUP4 PUSH2 0x2032 JUMP JUMPDEST SWAP2 POP PUSH2 0x287F DUP3 PUSH2 0x283E JUMP JUMPDEST PUSH1 0x20 DUP3 ADD SWAP1 POP SWAP2 SWAP1 POP JUMP JUMPDEST PUSH1 0x0 PUSH1 0x20 DUP3 ADD SWAP1 POP DUP2 DUP2 SUB PUSH1 0x0 DUP4 ADD MSTORE PUSH2 0x28A3 DUP2 PUSH2 0x2867 JUMP JUMPDEST SWAP1 POP SWAP2 SWAP1 POP JUMP JUMPDEST PUSH32 0x596F7520646964206E6F74206A6F696E656420696E2074686520626174746C65 PUSH1 0x0 DUP3 ADD MSTORE POP JUMP JUMPDEST PUSH1 0x0 PUSH2 0x28E0 PUSH1 0x20 DUP4 PUSH2 0x2032 JUMP JUMPDEST SWAP2 POP PUSH2 0x28EB DUP3 PUSH2 0x28AA JUMP JUMPDEST PUSH1 0x20 DUP3 ADD SWAP1 POP SWAP2 SWAP1 POP JUMP JUMPDEST PUSH1 0x0 PUSH1 0x20 DUP3 ADD SWAP1 POP DUP2 DUP2 SUB PUSH1 0x0 DUP4 ADD MSTORE PUSH2 0x290F DUP2 PUSH2 0x28D3 JUMP JUMPDEST SWAP1 POP SWAP2 SWAP1 POP JUMP JUMPDEST PUSH32 0x596F75206861766520616C726561647920636C61696D65642074686520726577 PUSH1 0x0 DUP3 ADD MSTORE PUSH32 0x6172640000000000000000000000000000000000000000000000000000000000 PUSH1 0x20 DUP3 ADD MSTORE POP JUMP JUMPDEST PUSH1 0x0 PUSH2 0x2972 PUSH1 0x23 DUP4 PUSH2 0x2032 JUMP JUMPDEST SWAP2 POP PUSH2 0x297D DUP3 PUSH2 0x2916 JUMP JUMPDEST PUSH1 0x40 DUP3 ADD SWAP1 POP SWAP2 SWAP1 POP JUMP JUMPDEST PUSH1 0x0 PUSH1 0x20 DUP3 ADD SWAP1 POP DUP2 DUP2 SUB PUSH1 0x0 DUP4 ADD MSTORE PUSH2 0x29A1 DUP2 PUSH2 0x2965 JUMP JUMPDEST SWAP1 POP SWAP2 SWAP1 POP JUMP JUMPDEST PUSH32 0x596F7520646964206E6F742077696E2074686520626574000000000000000000 PUSH1 0x0 DUP3 ADD MSTORE POP JUMP JUMPDEST PUSH1 0x0 PUSH2 0x29DE PUSH1 0x17 DUP4 PUSH2 0x2032 JUMP JUMPDEST SWAP2 POP PUSH2 0x29E9 DUP3 PUSH2 0x29A8 JUMP JUMPDEST PUSH1 0x20 DUP3 ADD SWAP1 POP SWAP2 SWAP1 POP JUMP JUMPDEST PUSH1 0x0 PUSH1 0x20 DUP3 ADD SWAP1 POP DUP2 DUP2 SUB PUSH1 0x0 DUP4 ADD MSTORE PUSH2 0x2A0D DUP2 PUSH2 0x29D1 JUMP JUMPDEST SWAP1 POP SWAP2 SWAP1 POP JUMP JUMPDEST PUSH1 0x0 PUSH1 0x40 DUP3 ADD SWAP1 POP PUSH2 0x2A29 PUSH1 0x0 DUP4 ADD DUP6 PUSH2 0x1C70 JUMP JUMPDEST PUSH2 0x2A36 PUSH1 0x20 DUP4 ADD DUP5 PUSH2 0x1C7F JUMP JUMPDEST SWAP4 SWAP3 POP POP POP JUMP JUMPDEST PUSH32 0x496E73756666696369656E742062616C616E636520696E20636F6E7472616374 PUSH1 0x0 DUP3 ADD MSTORE POP JUMP JUMPDEST PUSH1 0x0 PUSH2 0x2A73 PUSH1 0x20 DUP4 PUSH2 0x2032 JUMP JUMPDEST SWAP2 POP PUSH2 0x2A7E DUP3 PUSH2 0x2A3D JUMP JUMPDEST PUSH1 0x20 DUP3 ADD SWAP1 POP SWAP2 SWAP1 POP JUMP JUMPDEST PUSH1 0x0 PUSH1 0x20 DUP3 ADD SWAP1 POP DUP2 DUP2 SUB PUSH1 0x0 DUP4 ADD MSTORE PUSH2 0x2AA2 DUP2 PUSH2 0x2A66 JUMP JUMPDEST SWAP1 POP SWAP2 SWAP1 POP JUMP JUMPDEST PUSH1 0x0 DUP2 SWAP1 POP SWAP3 SWAP2 POP POP JUMP JUMPDEST POP JUMP JUMPDEST PUSH1 0x0 PUSH2 0x2AC4 PUSH1 0x0 DUP4 PUSH2 0x2AA9 JUMP JUMPDEST SWAP2 POP PUSH2 0x2ACF DUP3 PUSH2 0x2AB4 JUMP JUMPDEST PUSH1 0x0 DUP3 ADD SWAP1 POP SWAP2 SWAP1 POP JUMP JUMPDEST PUSH1 0x0 PUSH2 0x2AE5 DUP3 PUSH2 0x2AB7 JUMP JUMPDEST SWAP2 POP DUP2 SWAP1 POP SWAP2 SWAP1 POP JUMP JUMPDEST PUSH32 0x5472616E7366657220746F6B656E206661696C65640000000000000000000000 PUSH1 0x0 DUP3 ADD MSTORE POP JUMP JUMPDEST PUSH1 0x0 PUSH2 0x2B25 PUSH1 0x15 DUP4 PUSH2 0x2032 JUMP JUMPDEST SWAP2 POP PUSH2 0x2B30 DUP3 PUSH2 0x2AEF JUMP JUMPDEST PUSH1 0x20 DUP3 ADD SWAP1 POP SWAP2 SWAP1 POP JUMP JUMPDEST PUSH1 0x0 PUSH1 0x20 DUP3 ADD SWAP1 POP DUP2 DUP2 SUB PUSH1 0x0 DUP4 ADD MSTORE PUSH2 0x2B54 DUP2 PUSH2 0x2B18 JUMP JUMPDEST SWAP1 POP SWAP2 SWAP1 POP JUMP INVALID LOG2 PUSH5 0x6970667358 0x22 SLT KECCAK256 CALLCODE 0xBB DUP3 SHR LT 0xC9 0xD3 OR CALL RETURNDATACOPY 0xEB PC SWAP13 SGT SWAP11 0xCD SELFDESTRUCT PUSH6 0x816DC1289D4D SLOAD SGT EXP PUSH14 0xD87763DF64736F6C634300081C00 CALLER "},"methodIdentifiers":{"addWhitelist(address)":"f80f5dd5","addressJoinedList(uint256,uint256)":"7a27fbb2","adminCreateDebate(uint256,uint8,uint8,uint256,uint256,uint256)":"1b84f210","adminResolveDebate(uint256,uint8)":"310026df","adminUpdateDebate(uint256,uint8,uint8,uint256,uint256,uint256)":"be8f2ffb","admindDeleteDebate(uint256)":"d1d9f6ac","betList(uint256,address,uint256)":"fe84d4b6","debateList(uint256)":"39938348","defaultPlatformFeePercentage()":"43674131","getDebateInfo(uint256)":"5b99a012","owner()":"8da5cb5b","placeBet(uint256,uint256,uint8)":"9e14427e","removeWhitelist(address)":"78c8cda7","renounceOwnership()":"715018a6","transferOwnership(address)":"f2fde38b","userClaim(uint256)":"fe43efda"}}}}}