{"contracts/Debate.sol":{"AIDebate":{"abi":[{"inputs":[{"internalType":"address","name":"initialOwner","type":"address"},{"internalType":"address","name":"initialDeployer","type":"address"}],"stateMutability":"nonpayable","type":"constructor"},{"inputs":[],"name":"InvalidInitialization","type":"error"},{"inputs":[],"name":"NotInitializing","type":"error"},{"inputs":[{"internalType":"address","name":"owner","type":"address"}],"name":"OwnableInvalidOwner","type":"error"},{"inputs":[{"internalType":"address","name":"account","type":"address"}],"name":"OwnableUnauthorizedAccount","type":"error"},{"anonymous":false,"inputs":[{"indexed":true,"internalType":"uint256","name":"debateId","type":"uint256"},{"indexed":true,"internalType":"address","name":"bettor","type":"address"},{"indexed":false,"internalType":"uint256","name":"chosenAgentId","type":"uint256"},{"indexed":false,"internalType":"uint256","name":"amount","type":"uint256"},{"indexed":false,"internalType":"uint256","name":"platformFeePercentage","type":"uint256"}],"name":"BetPlaced","type":"event"},{"anonymous":false,"inputs":[{"indexed":true,"internalType":"uint256","name":"debateId","type":"uint256"},{"indexed":false,"internalType":"uint256","name":"agentAID","type":"uint256"},{"indexed":false,"internalType":"uint256","name":"agentBID","type":"uint256"},{"indexed":false,"internalType":"uint256","name":"platformFeePercentage","type":"uint256"},{"indexed":false,"internalType":"uint256","name":"publicTimeStamp","type":"uint256"},{"indexed":false,"internalType":"uint256","name":"startTimeStamp","type":"uint256"},{"indexed":false,"internalType":"uint256","name":"sessionDuration","type":"uint256"}],"name":"DebateCreated","type":"event"},{"anonymous":false,"inputs":[{"indexed":true,"internalType":"uint256","name":"debateId","type":"uint256"}],"name":"DebateDeleted","type":"event"},{"anonymous":false,"inputs":[{"indexed":true,"internalType":"uint256","name":"debateId","type":"uint256"},{"indexed":false,"internalType":"uint256","name":"winnAgentId","type":"uint256"}],"name":"DebateResolved","type":"event"},{"anonymous":false,"inputs":[{"indexed":true,"internalType":"uint256","name":"debateId","type":"uint256"},{"indexed":false,"internalType":"uint256","name":"agentAID","type":"uint256"},{"indexed":false,"internalType":"uint256","name":"agentBID","type":"uint256"},{"indexed":false,"internalType":"uint256","name":"platformFeePercentage","type":"uint256"},{"indexed":false,"internalType":"uint256","name":"publicTimeStamp","type":"uint256"},{"indexed":false,"internalType":"uint256","name":"startTimeStamp","type":"uint256"},{"indexed":false,"internalType":"uint256","name":"sessionDuration","type":"uint256"}],"name":"DebateUpdated","type":"event"},{"anonymous":false,"inputs":[{"indexed":false,"internalType":"uint64","name":"version","type":"uint64"}],"name":"Initialized","type":"event"},{"anonymous":false,"inputs":[{"indexed":true,"internalType":"address","name":"previousOwner","type":"address"},{"indexed":true,"internalType":"address","name":"newOwner","type":"address"}],"name":"OwnershipTransferred","type":"event"},{"anonymous":false,"inputs":[{"indexed":true,"internalType":"uint256","name":"debateId","type":"uint256"},{"indexed":true,"internalType":"address","name":"bettor","type":"address"},{"indexed":false,"internalType":"uint256","name":"chosenAgentId","type":"uint256"},{"indexed":false,"internalType":"uint256","name":"amount","type":"uint256"}],"name":"UserClaimed","type":"event"},{"inputs":[{"internalType":"address","name":"_mod","type":"address"}],"name":"addMod","outputs":[],"stateMutability":"nonpayable","type":"function"},{"inputs":[{"internalType":"uint256","name":"","type":"uint256"},{"internalType":"uint256","name":"","type":"uint256"}],"name":"addressJoinedList","outputs":[{"internalType":"address","name":"","type":"address"}],"stateMutability":"view","type":"function"},{"inputs":[{"internalType":"uint256","name":"_debateId","type":"uint256"},{"internalType":"uint256","name":"_agentAID","type":"uint256"},{"internalType":"uint256","name":"_agentBID","type":"uint256"},{"internalType":"uint256","name":"_platformFeePercentage","type":"uint256"},{"internalType":"uint256","name":"_publicTimeStamp","type":"uint256"},{"internalType":"uint256","name":"_startTimeStamp","type":"uint256"},{"internalType":"uint256","name":"_sessionDuration","type":"uint256"}],"name":"adminCreateDebate","outputs":[],"stateMutability":"nonpayable","type":"function"},{"inputs":[{"internalType":"uint256","name":"_debateId","type":"uint256"}],"name":"adminDeleteDebate","outputs":[],"stateMutability":"nonpayable","type":"function"},{"inputs":[{"internalType":"uint256","name":"_debateId","type":"uint256"},{"internalType":"uint256","name":"_winAgentId","type":"uint256"}],"name":"adminResolveDebate","outputs":[],"stateMutability":"nonpayable","type":"function"},{"inputs":[{"internalType":"uint256","name":"_debateId","type":"uint256"},{"internalType":"uint256","name":"_agentAID","type":"uint256"},{"internalType":"uint256","name":"_agentBID","type":"uint256"},{"internalType":"uint256","name":"_platformFeePercentage","type":"uint256"},{"internalType":"uint256","name":"_publicTimeStamp","type":"uint256"},{"internalType":"uint256","name":"_startTimeStamp","type":"uint256"},{"internalType":"uint256","name":"_sessionDuration","type":"uint256"}],"name":"adminUpdateDebate","outputs":[],"stateMutability":"nonpayable","type":"function"},{"inputs":[{"internalType":"uint256","name":"","type":"uint256"},{"internalType":"address","name":"","type":"address"},{"internalType":"uint256","name":"","type":"uint256"}],"name":"betList","outputs":[{"internalType":"uint256","name":"debateId","type":"uint256"},{"internalType":"address","name":"bettor","type":"address"},{"internalType":"uint256","name":"amount","type":"uint256"},{"internalType":"uint256","name":"winAmount","type":"uint256"},{"internalType":"uint256","name":"chosenAgentId","type":"uint256"},{"internalType":"bool","name":"isClaimed","type":"bool"}],"stateMutability":"view","type":"function"},{"inputs":[{"internalType":"uint256","name":"","type":"uint256"}],"name":"debateList","outputs":[{"internalType":"bool","name":"isResolved","type":"bool"},{"internalType":"uint256","name":"winAgentId","type":"uint256"},{"internalType":"uint256","name":"platformFeePercentage","type":"uint256"},{"internalType":"uint256","name":"sessionDuration","type":"uint256"},{"internalType":"uint256","name":"startTimeStamp","type":"uint256"},{"internalType":"uint256","name":"publicTimeStamp","type":"uint256"},{"internalType":"uint256","name":"agentAID","type":"uint256"},{"internalType":"uint256","name":"agentBID","type":"uint256"},{"internalType":"uint256","name":"totalAgentABetAmount","type":"uint256"},{"internalType":"uint256","name":"totalAgentBBetAmount","type":"uint256"}],"stateMutability":"view","type":"function"},{"inputs":[],"name":"defaultPlatformFeePercentage","outputs":[{"internalType":"uint256","name":"","type":"uint256"}],"stateMutability":"view","type":"function"},{"inputs":[{"internalType":"uint256","name":"_debateId","type":"uint256"}],"name":"getDebateInfo","outputs":[{"components":[{"internalType":"bool","name":"isResolved","type":"bool"},{"internalType":"uint256","name":"winAgentId","type":"uint256"},{"internalType":"uint256","name":"platformFeePercentage","type":"uint256"},{"internalType":"uint256","name":"sessionDuration","type":"uint256"},{"internalType":"uint256","name":"startTimeStamp","type":"uint256"},{"internalType":"uint256","name":"publicTimeStamp","type":"uint256"},{"internalType":"uint256","name":"agentAID","type":"uint256"},{"internalType":"uint256","name":"agentBID","type":"uint256"},{"internalType":"uint256","name":"totalAgentABetAmount","type":"uint256"},{"internalType":"uint256","name":"totalAgentBBetAmount","type":"uint256"}],"internalType":"struct AIDebate.Debate","name":"","type":"tuple"}],"stateMutability":"view","type":"function"},{"inputs":[{"internalType":"uint256","name":"","type":"uint256"}],"name":"modList","outputs":[{"internalType":"address","name":"","type":"address"}],"stateMutability":"view","type":"function"},{"inputs":[],"name":"owner","outputs":[{"internalType":"address","name":"","type":"address"}],"stateMutability":"view","type":"function"},{"inputs":[{"internalType":"uint256","name":"_debateId","type":"uint256"},{"internalType":"uint256","name":"_amount","type":"uint256"},{"internalType":"uint256","name":"_chosenAgent","type":"uint256"}],"name":"placeBet","outputs":[],"stateMutability":"payable","type":"function"},{"inputs":[{"internalType":"address","name":"_mod","type":"address"}],"name":"removeMod","outputs":[],"stateMutability":"nonpayable","type":"function"},{"inputs":[],"name":"renounceOwnership","outputs":[],"stateMutability":"nonpayable","type":"function"},{"inputs":[{"internalType":"address","name":"newOwner","type":"address"}],"name":"transferOwnership","outputs":[],"stateMutability":"nonpayable","type":"function"},{"inputs":[{"internalType":"uint256","name":"_debateId","type":"uint256"}],"name":"userClaim","outputs":[],"stateMutability":"nonpayable","type":"function"},{"inputs":[],"name":"withdrawAll","outputs":[],"stateMutability":"nonpayable","type":"function"},{"inputs":[{"internalType":"uint256","name":"_amount","type":"uint256"}],"name":"withdrawByAmount","outputs":[],"stateMutability":"nonpayable","type":"function"},{"inputs":[{"internalType":"uint256","name":"_debateId","type":"uint256"}],"name":"withdrawByID","outputs":[],"stateMutability":"nonpayable","type":"function"}],"evm":{"bytecode":{"linkReferences":{},"object":"6080604052600560015561012c60025561070860035534801561002157600080fd5b506040516136ee3803806136ee833981810160405281019061004391906102ba565b81600073ffffffffffffffffffffffffffffffffffffffff168173ffffffffffffffffffffffffffffffffffffffff16036100b65760006040517f1e4fbdf70000000000000000000000000000000000000000000000000000000081526004016100ad9190610309565b60405180910390fd5b6100c58161019360201b60201c565b506004829080600181540180825580915050600190039060005260206000200160009091909190916101000a81548173ffffffffffffffffffffffffffffffffffffffff021916908373ffffffffffffffffffffffffffffffffffffffff1602179055506004819080600181540180825580915050600190039060005260206000200160009091909190916101000a81548173ffffffffffffffffffffffffffffffffffffffff021916908373ffffffffffffffffffffffffffffffffffffffff1602179055505050610324565b60008060009054906101000a900473ffffffffffffffffffffffffffffffffffffffff169050816000806101000a81548173ffffffffffffffffffffffffffffffffffffffff021916908373ffffffffffffffffffffffffffffffffffffffff1602179055508173ffffffffffffffffffffffffffffffffffffffff168173ffffffffffffffffffffffffffffffffffffffff167f8be0079c531659141344cd1fd0a4f28419497f9722a3daafe3b4186f6b6457e060405160405180910390a35050565b600080fd5b600073ffffffffffffffffffffffffffffffffffffffff82169050919050565b60006102878261025c565b9050919050565b6102978161027c565b81146102a257600080fd5b50565b6000815190506102b48161028e565b92915050565b600080604083850312156102d1576102d0610257565b5b60006102df858286016102a5565b92505060206102f0858286016102a5565b9150509250929050565b6103038161027c565b82525050565b600060208201905061031e60008301846102fa565b92915050565b6133bb806103336000396000f3fe60806040526004361061011f5760003560e01c8063853828b6116100a0578063e71c969711610064578063e71c9697146103c4578063f2fde38b146103e0578063f674a9de14610409578063fe43efda14610432578063fe84d4b61461045b5761011f565b8063853828b6146103075780638da5cb5b1461031e5780639048b53b1461034957806398a1870714610372578063c42ab7041461039b5761011f565b80634637de3c116100e75780634637de3c146102245780635521e9bf1461024d5780635b99a01214610276578063715018a6146102b35780637a27fbb2146102ca5761011f565b806301a00216146101245780632071a2d21461014d578063283925541461018a57806339938348146101b357806343674131146101f9575b600080fd5b34801561013057600080fd5b5061014b600480360381019061014691906122f8565b61049d565b005b34801561015957600080fd5b50610174600480360381019061016f919061235b565b61050b565b6040516101819190612397565b60405180910390f35b34801561019657600080fd5b506101b160048036038101906101ac919061235b565b61054a565b005b3480156101bf57600080fd5b506101da60048036038101906101d5919061235b565b610736565b6040516101f09a999897969594939291906123dc565b60405180910390f35b34801561020557600080fd5b5061020e610797565b60405161021b9190612478565b60405180910390f35b34801561023057600080fd5b5061024b600480360381019061024691906122f8565b61079d565b005b34801561025957600080fd5b50610274600480360381019061026f919061235b565b61092f565b005b34801561028257600080fd5b5061029d6004803603810190610298919061235b565b6109d2565b6040516102aa919061257d565b60405180910390f35b3480156102bf57600080fd5b506102c8610a7b565b005b3480156102d657600080fd5b506102f160048036038101906102ec9190612599565b610a8f565b6040516102fe9190612397565b60405180910390f35b34801561031357600080fd5b5061031c610add565b005b34801561032a57600080fd5b50610333610b3c565b6040516103409190612397565b60405180910390f35b34801561035557600080fd5b50610370600480360381019061036b9190612599565b610b65565b005b34801561037e57600080fd5b50610399600480360381019061039491906125d9565b610fcf565b005b3480156103a757600080fd5b506103c260048036038101906103bd919061235b565b611207565b005b6103de60048036038101906103d9919061267b565b611395565b005b3480156103ec57600080fd5b50610407600480360381019061040291906122f8565b611a23565b005b34801561041557600080fd5b50610430600480360381019061042b91906125d9565b611aa9565b005b34801561043e57600080fd5b506104596004803603810190610454919061235b565b611cd9565b005b34801561046757600080fd5b50610482600480360381019061047d91906126ce565b612060565b60405161049496959493929190612721565b60405180910390f35b6104a56120e3565b6004819080600181540180825580915050600190039060005260206000200160009091909190916101000a81548173ffffffffffffffffffffffffffffffffffffffff021916908373ffffffffffffffffffffffffffffffffffffffff16021790555050565b6004818154811061051b57600080fd5b906000526020600020016000915054906101000a900473ffffffffffffffffffffffffffffffffffffffff1681565b6000805b6004805490508110156105e2573373ffffffffffffffffffffffffffffffffffffffff166004828154811061058657610585612782565b5b9060005260206000200160009054906101000a900473ffffffffffffffffffffffffffffffffffffffff1673ffffffffffffffffffffffffffffffffffffffff16036105d557600191506105e2565b808060010191505061054e565b5080610623576040517f08c379a000000000000000000000000000000000000000000000000000000000815260040161061a9061280e565b60405180910390fd5b6000600560008481526020019081526020016000209050600354816005015461064c919061285d565b421061068d576040517f08c379a0000000000000000000000000000000000000000000000000000000008152600401610684906128dd565b60405180910390fd5b60008160060154141580156106a757506000816007015414155b6106e6576040517f08c379a00000000000000000000000000000000000000000000000000000000081526004016106dd90612949565b60405180910390fd5b600081600501819055506000816004018190555060008160030181905550827f80bed4ceeb2dfbd88f61cca1c30bc6dede3047d1862345ef30f1cbc44c2016d760405160405180910390a2505050565b60056020528060005260406000206000915090508060000160009054906101000a900460ff1690806001015490806002015490806003015490806004015490806005015490806006015490806007015490806008015490806009015490508a565b60015481565b6107a56120e3565b60005b60048054905081101561092b578173ffffffffffffffffffffffffffffffffffffffff16600482815481106107e0576107df612782565b5b9060005260206000200160009054906101000a900473ffffffffffffffffffffffffffffffffffffffff1673ffffffffffffffffffffffffffffffffffffffff160361091e576004600160048054905061083a919061285d565b8154811061084b5761084a612782565b5b9060005260206000200160009054906101000a900473ffffffffffffffffffffffffffffffffffffffff166004828154811061088a57610889612782565b5b9060005260206000200160006101000a81548173ffffffffffffffffffffffffffffffffffffffff021916908373ffffffffffffffffffffffffffffffffffffffff16021790555060048054806108e4576108e3612969565b5b6001900381819060005260206000200160006101000a81549073ffffffffffffffffffffffffffffffffffffffff0219169055905561092b565b80806001019150506107a8565b5050565b6109376120e3565b60006109423361216a565b905081471015610987576040517f08c379a000000000000000000000000000000000000000000000000000000000815260040161097e906129e4565b60405180910390fd5b8073ffffffffffffffffffffffffffffffffffffffff166108fc839081150290604051600060405180830381858888f193505050501580156109cd573d6000803e3d6000fd5b505050565b6109da612240565b600060056000848152602001908152602001600020905080604051806101400160405290816000820160009054906101000a900460ff161515151581526020016001820154815260200160028201548152602001600382015481526020016004820154815260200160058201548152602001600682015481526020016007820154815260200160088201548152602001600982015481525050915050919050565b610a836120e3565b610a8d6000612174565b565b60076020528160005260406000208181548110610aab57600080fd5b906000526020600020016000915091509054906101000a900473ffffffffffffffffffffffffffffffffffffffff1681565b610ae56120e3565b6000610af03361216a565b90508073ffffffffffffffffffffffffffffffffffffffff166108fc479081150290604051600060405180830381858888f19350505050158015610b38573d6000803e3d6000fd5b5050565b60008060009054906101000a900473ffffffffffffffffffffffffffffffffffffffff16905090565b6000805b600480549050811015610bfd573373ffffffffffffffffffffffffffffffffffffffff1660048281548110610ba157610ba0612782565b5b9060005260206000200160009054906101000a900473ffffffffffffffffffffffffffffffffffffffff1673ffffffffffffffffffffffffffffffffffffffff1603610bf05760019150610bfd565b8080600101915050610b69565b5080610c3e576040517f08c379a0000000000000000000000000000000000000000000000000000000008152600401610c359061280e565b60405180910390fd5b60006005600085815260200190815260200160002090508060000160009054906101000a900460ff1615610ca7576040517f08c379a0000000000000000000000000000000000000000000000000000000008152600401610c9e90612a50565b60405180910390fd5b8060060154831480610cbc5750806007015483145b610cfb576040517f08c379a0000000000000000000000000000000000000000000000000000000008152600401610cf290612abc565b60405180910390fd5b60018160000160006101000a81548160ff021916908315150217905550828160010181905550600081600901548260080154610d379190612adc565b905060008260020154612710610d4d919061285d565b905060005b6007600088815260200190815260200160002080549050811015610f8e576000600760008981526020019081526020016000208281548110610d9757610d96612782565b5b9060005260206000200160009054906101000a900473ffffffffffffffffffffffffffffffffffffffff1690506000600660008a815260200190815260200160002060008373ffffffffffffffffffffffffffffffffffffffff1673ffffffffffffffffffffffffffffffffffffffff1681526020019081526020016000206000898152602001908152602001600020905087816004015403610f7f57600086600601548260040154148015610e51575060008760080154145b15610e7a57612710858360020154610e699190612b10565b610e739190612b81565b9050610ebb565b86600701548260040154148015610e95575060008760090154145b15610eba57612710858360020154610ead9190612b10565b610eb79190612b81565b90505b5b86600601548260040154148015610ed6575060008760080154115b15610f19576127108760080154610eed9190612b10565b85878460020154610efe9190612b10565b610f089190612b10565b610f129190612b81565b9050610f74565b86600701548260040154148015610f34575060008760090154115b15610f73576127108760090154610f4b9190612b10565b85878460020154610f5c9190612b10565b610f669190612b10565b610f709190612b81565b90505b5b808260030181905550505b50508080600101915050610d52565b50857fb6284c12d8a21c06155f14e4b5a2c21bdd2a90abcd3b5d0ada8275279cb0ca6f86604051610fbf9190612478565b60405180910390a2505050505050565b6000805b600480549050811015611067573373ffffffffffffffffffffffffffffffffffffffff166004828154811061100b5761100a612782565b5b9060005260206000200160009054906101000a900473ffffffffffffffffffffffffffffffffffffffff1673ffffffffffffffffffffffffffffffffffffffff160361105a5760019150611067565b8080600101915050610fd3565b50806110a8576040517f08c379a000000000000000000000000000000000000000000000000000000000815260040161109f9061280e565b60405180910390fd5b6000600560008a8152602001908152602001600020905060008160060154141580156110d957506000816007015414155b611118576040517f08c379a000000000000000000000000000000000000000000000000000000000815260040161110f90612949565b60405180910390fd5b600354816005015461112a919061285d565b421061116b576040517f08c379a000000000000000000000000000000000000000000000000000000000815260040161116290612bfe565b60405180910390fd5b8781600601819055508681600701819055506000860361119557600154816002018190555061119f565b8581600201819055505b848160050181905550838160040181905550828160030181905550887f5ad787ff0ab90867aa98c2a81caff732533e80b06f4c6910994cf0c8918d17fc8989898989896040516111f496959493929190612c1e565b60405180910390a2505050505050505050565b61120f6120e3565b60006005600083815260200190815260200160002090508060000160009054906101000a900460ff16611277576040517f08c379a000000000000000000000000000000000000000000000000000000000815260040161126e90612ccb565b60405180910390fd5b60008160010154036112be576040517f08c379a00000000000000000000000000000000000000000000000000000000081526004016112b590612ccb565b60405180910390fd5b6000816009015482600801546112d49190612adc565b905060006127108360020154836112eb9190612b10565b6112f59190612b81565b905060006113023361216a565b905081471015611347576040517f08c379a000000000000000000000000000000000000000000000000000000000815260040161133e906129e4565b60405180910390fd5b8073ffffffffffffffffffffffffffffffffffffffff166108fc839081150290604051600060405180830381858888f1935050505015801561138d573d6000803e3d6000fd5b505050505050565b600082116113d8576040517f08c379a00000000000000000000000000000000000000000000000000000000081526004016113cf90612d37565b60405180910390fd5b60006005600085815260200190815260200160002090506000816005015411611436576040517f08c379a000000000000000000000000000000000000000000000000000000000815260040161142d90612da3565b60405180910390fd5b600081600401540361147d576040517f08c379a000000000000000000000000000000000000000000000000000000000815260040161147490612e0f565b60405180910390fd5b8060000160009054906101000a900460ff16156114cf576040517f08c379a00000000000000000000000000000000000000000000000000000000081526004016114c690612ea1565b60405180910390fd5b80600501544211611515576040517f08c379a000000000000000000000000000000000000000000000000000000000815260040161150c90612f33565b60405180910390fd5b6002548160030154826004015461152c9190612adc565b611536919061285d565b4210611577576040517f08c379a000000000000000000000000000000000000000000000000000000000815260040161156e90612f9f565b60405180910390fd5b823410156115ba576040517f08c379a00000000000000000000000000000000000000000000000000000000081526004016115b19061300b565b60405180910390fd5b806006015482036115e557828160080160008282546115d99190612adc565b925050819055506116c2565b8060070154820361161057828160090160008282546116049190612adc565b925050819055506116c1565b600081600601541480611627575060008160070154145b611666576040517f08c379a000000000000000000000000000000000000000000000000000000000815260040161165d90613077565b60405180910390fd5b600081600601540361169b578181600601819055508281600801600082825461168f9190612adc565b925050819055506116c0565b818160070181905550828160090160008282546116b89190612adc565b925050819055505b5b5b60006006600086815260200190815260200160002060003373ffffffffffffffffffffffffffffffffffffffff1673ffffffffffffffffffffffffffffffffffffffff1681526020019081526020016000206000848152602001908152602001600020905060008160020154111561175457838160020160008282546117489190612adc565b9250508190555061188f565b6040518060c001604052808681526020013373ffffffffffffffffffffffffffffffffffffffff16815260200185815260200160008152602001848152602001600015158152506006600087815260200190815260200160002060003373ffffffffffffffffffffffffffffffffffffffff1673ffffffffffffffffffffffffffffffffffffffff16815260200190815260200160002060008581526020019081526020016000206000820151816000015560208201518160010160006101000a81548173ffffffffffffffffffffffffffffffffffffffff021916908373ffffffffffffffffffffffffffffffffffffffff16021790555060408201518160020155606082015181600301556080820151816004015560a08201518160050160006101000a81548160ff0219169083151502179055509050505b6000805b6007600088815260200190815260200160002080549050811015611949573373ffffffffffffffffffffffffffffffffffffffff166007600089815260200190815260200160002082815481106118ed576118ec612782565b5b9060005260206000200160009054906101000a900473ffffffffffffffffffffffffffffffffffffffff1673ffffffffffffffffffffffffffffffffffffffff160361193c5760019150611949565b8080600101915050611893565b50806119c45760076000878152602001908152602001600020339080600181540180825580915050600190039060005260206000200160009091909190916101000a81548173ffffffffffffffffffffffffffffffffffffffff021916908373ffffffffffffffffffffffffffffffffffffffff1602179055505b3373ffffffffffffffffffffffffffffffffffffffff16867fab2115bac1de808eb7fe2be0309085b11f1f42b1eb980de8352efefdbfc098e286888760020154604051611a1393929190613097565b60405180910390a3505050505050565b611a2b6120e3565b600073ffffffffffffffffffffffffffffffffffffffff168173ffffffffffffffffffffffffffffffffffffffff1603611a9d5760006040517f1e4fbdf7000000000000000000000000000000000000000000000000000000008152600401611a949190612397565b60405180910390fd5b611aa681612174565b50565b6000805b600480549050811015611b41573373ffffffffffffffffffffffffffffffffffffffff1660048281548110611ae557611ae4612782565b5b9060005260206000200160009054906101000a900473ffffffffffffffffffffffffffffffffffffffff1673ffffffffffffffffffffffffffffffffffffffff1603611b345760019150611b41565b8080600101915050611aad565b5080611b82576040517f08c379a0000000000000000000000000000000000000000000000000000000008152600401611b799061280e565b60405180910390fd5b6000600560008a8152602001908152602001600020905060008160060154148015611bb1575060008160070154145b611bf0576040517f08c379a0000000000000000000000000000000000000000000000000000000008152600401611be79061311a565b60405180910390fd5b848385611bfd9190612adc565b11611c3d576040517f08c379a0000000000000000000000000000000000000000000000000000000008152600401611c34906131ac565b60405180910390fd5b87816006018190555086816007018190555060008603611c67576001548160020181905550611c71565b8581600201819055505b848160050181905550838160040181905550828160030181905550887f74245c13fa29018d2e3827a29b9f092a79b7d948264385dca981d1d6ba38a76f898989898989604051611cc696959493929190612c1e565b60405180910390a2505050505050505050565b60006005600083815260200190815260200160002090508060000160009054906101000a900460ff16611d41576040517f08c379a0000000000000000000000000000000000000000000000000000000008152600401611d3890612ccb565b60405180910390fd5b6000805b6007600085815260200190815260200160002080549050811015611dfb573373ffffffffffffffffffffffffffffffffffffffff16600760008681526020019081526020016000208281548110611d9f57611d9e612782565b5b9060005260206000200160009054906101000a900473ffffffffffffffffffffffffffffffffffffffff1673ffffffffffffffffffffffffffffffffffffffff1603611dee5760019150611dfb565b8080600101915050611d45565b5080611e3c576040517f08c379a0000000000000000000000000000000000000000000000000000000008152600401611e339061323e565b60405180910390fd5b60008260010154905060006006600086815260200190815260200160002060003373ffffffffffffffffffffffffffffffffffffffff1673ffffffffffffffffffffffffffffffffffffffff168152602001908152602001600020600083815260200190815260200160002090508060050160009054906101000a900460ff1615611efc576040517f08c379a0000000000000000000000000000000000000000000000000000000008152600401611ef3906132d0565b60405180910390fd5b6000816003015411611f43576040517f08c379a0000000000000000000000000000000000000000000000000000000008152600401611f3a9061333c565b60405180910390fd5b6000611f4e3361216a565b90508160030154471015611f97576040517f08c379a0000000000000000000000000000000000000000000000000000000008152600401611f8e906129e4565b60405180910390fd5b8073ffffffffffffffffffffffffffffffffffffffff166108fc83600301549081150290604051600060405180830381858888f19350505050158015611fe1573d6000803e3d6000fd5b5060018260050160006101000a81548160ff0219169083151502179055503373ffffffffffffffffffffffffffffffffffffffff16867f4eed845a8c2dab6b8f3276326563ae95a67314d068314298838cc3246bb3e3e08460040154856003015460405161205092919061335c565b60405180910390a3505050505050565b600660205282600052604060002060205281600052604060002060205280600052604060002060009250925050508060000154908060010160009054906101000a900473ffffffffffffffffffffffffffffffffffffffff16908060020154908060030154908060040154908060050160009054906101000a900460ff16905086565b6120eb612238565b73ffffffffffffffffffffffffffffffffffffffff16612109610b3c565b73ffffffffffffffffffffffffffffffffffffffff16146121685761212c612238565b6040517f118cdaa700000000000000000000000000000000000000000000000000000000815260040161215f9190612397565b60405180910390fd5b565b6000819050919050565b60008060009054906101000a900473ffffffffffffffffffffffffffffffffffffffff169050816000806101000a81548173ffffffffffffffffffffffffffffffffffffffff021916908373ffffffffffffffffffffffffffffffffffffffff1602179055508173ffffffffffffffffffffffffffffffffffffffff168173ffffffffffffffffffffffffffffffffffffffff167f8be0079c531659141344cd1fd0a4f28419497f9722a3daafe3b4186f6b6457e060405160405180910390a35050565b600033905090565b6040518061014001604052806000151581526020016000815260200160008152602001600081526020016000815260200160008152602001600081526020016000815260200160008152602001600081525090565b600080fd5b600073ffffffffffffffffffffffffffffffffffffffff82169050919050565b60006122c58261229a565b9050919050565b6122d5816122ba565b81146122e057600080fd5b50565b6000813590506122f2816122cc565b92915050565b60006020828403121561230e5761230d612295565b5b600061231c848285016122e3565b91505092915050565b6000819050919050565b61233881612325565b811461234357600080fd5b50565b6000813590506123558161232f565b92915050565b60006020828403121561237157612370612295565b5b600061237f84828501612346565b91505092915050565b612391816122ba565b82525050565b60006020820190506123ac6000830184612388565b92915050565b60008115159050919050565b6123c7816123b2565b82525050565b6123d681612325565b82525050565b6000610140820190506123f2600083018d6123be565b6123ff602083018c6123cd565b61240c604083018b6123cd565b612419606083018a6123cd565b61242660808301896123cd565b61243360a08301886123cd565b61244060c08301876123cd565b61244d60e08301866123cd565b61245b6101008301856123cd565b6124696101208301846123cd565b9b9a5050505050505050505050565b600060208201905061248d60008301846123cd565b92915050565b61249c816123b2565b82525050565b6124ab81612325565b82525050565b610140820160008201516124c86000850182612493565b5060208201516124db60208501826124a2565b5060408201516124ee60408501826124a2565b50606082015161250160608501826124a2565b50608082015161251460808501826124a2565b5060a082015161252760a08501826124a2565b5060c082015161253a60c08501826124a2565b5060e082015161254d60e08501826124a2565b506101008201516125626101008501826124a2565b506101208201516125776101208501826124a2565b50505050565b60006101408201905061259360008301846124b1565b92915050565b600080604083850312156125b0576125af612295565b5b60006125be85828601612346565b92505060206125cf85828601612346565b9150509250929050565b600080600080600080600060e0888a0312156125f8576125f7612295565b5b60006126068a828b01612346565b97505060206126178a828b01612346565b96505060406126288a828b01612346565b95505060606126398a828b01612346565b945050608061264a8a828b01612346565b93505060a061265b8a828b01612346565b92505060c061266c8a828b01612346565b91505092959891949750929550565b60008060006060848603121561269457612693612295565b5b60006126a286828701612346565b93505060206126b386828701612346565b92505060406126c486828701612346565b9150509250925092565b6000806000606084860312156126e7576126e6612295565b5b60006126f586828701612346565b9350506020612706868287016122e3565b925050604061271786828701612346565b9150509250925092565b600060c08201905061273660008301896123cd565b6127436020830188612388565b61275060408301876123cd565b61275d60608301866123cd565b61276a60808301856123cd565b61277760a08301846123be565b979650505050505050565b7f4e487b7100000000000000000000000000000000000000000000000000000000600052603260045260246000fd5b600082825260208201905092915050565b7f4e6f7420616c6c6f776564000000000000000000000000000000000000000000600082015250565b60006127f8600b836127b1565b9150612803826127c2565b602082019050919050565b60006020820190508181036000830152612827816127eb565b9050919050565b7f4e487b7100000000000000000000000000000000000000000000000000000000600052601160045260246000fd5b600061286882612325565b915061287383612325565b925082820390508181111561288b5761288a61282e565b5b92915050565b7f43616e206e6f742072656d6f76652064656261746520616e796d6f7265000000600082015250565b60006128c7601d836127b1565b91506128d282612891565b602082019050919050565b600060208201905081810360008301526128f6816128ba565b9050919050565b7f446562617465206973206e6f7420637265617465642079657400000000000000600082015250565b60006129336019836127b1565b915061293e826128fd565b602082019050919050565b6000602082019050818103600083015261296281612926565b9050919050565b7f4e487b7100000000000000000000000000000000000000000000000000000000600052603160045260246000fd5b7f496e73756666696369656e742062616c616e636520696e20636f6e7472616374600082015250565b60006129ce6020836127b1565b91506129d982612998565b602082019050919050565b600060208201905081810360008301526129fd816129c1565b9050919050565b7f44656261746520697320616c7265616479207265736f6c766564000000000000600082015250565b6000612a3a601a836127b1565b9150612a4582612a04565b602082019050919050565b60006020820190508181036000830152612a6981612a2d565b9050919050565b7f496e76616c6964206167656e7400000000000000000000000000000000000000600082015250565b6000612aa6600d836127b1565b9150612ab182612a70565b602082019050919050565b60006020820190508181036000830152612ad581612a99565b9050919050565b6000612ae782612325565b9150612af283612325565b9250828201905080821115612b0a57612b0961282e565b5b92915050565b6000612b1b82612325565b9150612b2683612325565b9250828202612b3481612325565b91508282048414831517612b4b57612b4a61282e565b5b5092915050565b7f4e487b7100000000000000000000000000000000000000000000000000000000600052601260045260246000fd5b6000612b8c82612325565b9150612b9783612325565b925082612ba757612ba6612b52565b5b828204905092915050565b7f43616e206e6f74206d6f646966792064656261746520616e796d6f7265000000600082015250565b6000612be8601d836127b1565b9150612bf382612bb2565b602082019050919050565b60006020820190508181036000830152612c1781612bdb565b9050919050565b600060c082019050612c3360008301896123cd565b612c4060208301886123cd565b612c4d60408301876123cd565b612c5a60608301866123cd565b612c6760808301856123cd565b612c7460a08301846123cd565b979650505050505050565b7f446562617465206973206e6f74207265736f6c76656420796574000000000000600082015250565b6000612cb5601a836127b1565b9150612cc082612c7f565b602082019050919050565b60006020820190508181036000830152612ce481612ca8565b9050919050565b7f416d6f756e74206d7573742062652067726561746572207468616e2030000000600082015250565b6000612d21601d836127b1565b9150612d2c82612ceb565b602082019050919050565b60006020820190508181036000830152612d5081612d14565b9050919050565b7f446562617465206973206e6f74207075626c6973686564207965740000000000600082015250565b6000612d8d601b836127b1565b9150612d9882612d57565b602082019050919050565b60006020820190508181036000830152612dbc81612d80565b9050919050565b7f4465626174652069732064656c65746564000000000000000000000000000000600082015250565b6000612df96011836127b1565b9150612e0482612dc3565b602082019050919050565b60006020820190508181036000830152612e2881612dec565b9050919050565b7f4465626174652073657373696f6e20697320616c7265616479207265736f6c7660008201527f6564000000000000000000000000000000000000000000000000000000000000602082015250565b6000612e8b6022836127b1565b9150612e9682612e2f565b604082019050919050565b60006020820190508181036000830152612eba81612e7e565b9050919050565b7f4465626174652073657373696f6e206973206e6f74207374617274656420796560008201527f7400000000000000000000000000000000000000000000000000000000000000602082015250565b6000612f1d6021836127b1565b9150612f2882612ec1565b604082019050919050565b60006020820190508181036000830152612f4c81612f10565b9050919050565b7f43616e206e6f7420706c6163652062657420616e796d6f726500000000000000600082015250565b6000612f896019836127b1565b9150612f9482612f53565b602082019050919050565b60006020820190508181036000830152612fb881612f7c565b9050919050565b7f46656520616d6f756e74206973206e6f7420636f727265637400000000000000600082015250565b6000612ff56019836127b1565b915061300082612fbf565b602082019050919050565b6000602082019050818103600083015261302481612fe8565b9050919050565b7f426f7468206167656e74732061726520616c72656164792061737369676e6564600082015250565b60006130616020836127b1565b915061306c8261302b565b602082019050919050565b6000602082019050818103600083015261309081613054565b9050919050565b60006060820190506130ac60008301866123cd565b6130b960208301856123cd565b6130c660408301846123cd565b949350505050565b7f44656261746520697320616c7265616479206372656174656400000000000000600082015250565b60006131046019836127b1565b915061310f826130ce565b602082019050919050565b60006020820190508181036000830152613133816130f7565b9050919050565b7f456e642074696d65206d7573742062652067726561746572207468616e20707560008201527f626c69632074696d650000000000000000000000000000000000000000000000602082015250565b60006131966029836127b1565b91506131a18261313a565b604082019050919050565b600060208201905081810360008301526131c581613189565b9050919050565b7f596f7520646964206e6f7420706c61636520616e7920626574206f6e2074686960008201527f7320646562617465000000000000000000000000000000000000000000000000602082015250565b60006132286028836127b1565b9150613233826131cc565b604082019050919050565b600060208201905081810360008301526132578161321b565b9050919050565b7f596f75206861766520616c726561647920636c61696d6564207468652072657760008201527f6172640000000000000000000000000000000000000000000000000000000000602082015250565b60006132ba6023836127b1565b91506132c58261325e565b604082019050919050565b600060208201905081810360008301526132e9816132ad565b9050919050565b7f596f7520646964206e6f742077696e2074686520626574000000000000000000600082015250565b60006133266017836127b1565b9150613331826132f0565b602082019050919050565b6000602082019050818103600083015261335581613319565b9050919050565b600060408201905061337160008301856123cd565b61337e60208301846123cd565b939250505056fea2646970667358221220c02b2c2fe4bd36efe317ff45cc3534e22af167e281303ea9e2b920bcdb4911ac64736f6c634300081c0033","opcodes":"PUSH1 0x80 PUSH1 0x40 MSTORE PUSH1 0x5 PUSH1 0x1 SSTORE PUSH2 0x12C PUSH1 0x2 SSTORE PUSH2 0x708 PUSH1 0x3 SSTORE CALLVALUE DUP1 ISZERO PUSH2 0x21 JUMPI PUSH1 0x0 DUP1 REVERT JUMPDEST POP PUSH1 0x40 MLOAD PUSH2 0x36EE CODESIZE SUB DUP1 PUSH2 0x36EE DUP4 CODECOPY DUP2 DUP2 ADD PUSH1 0x40 MSTORE DUP2 ADD SWAP1 PUSH2 0x43 SWAP2 SWAP1 PUSH2 0x2BA JUMP JUMPDEST DUP2 PUSH1 0x0 PUSH20 0xFFFFFFFFFFFFFFFFFFFFFFFFFFFFFFFFFFFFFFFF AND DUP2 PUSH20 0xFFFFFFFFFFFFFFFFFFFFFFFFFFFFFFFFFFFFFFFF AND SUB PUSH2 0xB6 JUMPI PUSH1 0x0 PUSH1 0x40 MLOAD PUSH32 0x1E4FBDF700000000000000000000000000000000000000000000000000000000 DUP2 MSTORE PUSH1 0x4 ADD PUSH2 0xAD SWAP2 SWAP1 PUSH2 0x309 JUMP JUMPDEST PUSH1 0x40 MLOAD DUP1 SWAP2 SUB SWAP1 REVERT JUMPDEST PUSH2 0xC5 DUP2 PUSH2 0x193 PUSH1 0x20 SHL PUSH1 0x20 SHR JUMP JUMPDEST POP PUSH1 0x4 DUP3 SWAP1 DUP1 PUSH1 0x1 DUP2 SLOAD ADD DUP1 DUP3 SSTORE DUP1 SWAP2 POP POP PUSH1 0x1 SWAP1 SUB SWAP1 PUSH1 0x0 MSTORE PUSH1 0x20 PUSH1 0x0 KECCAK256 ADD PUSH1 0x0 SWAP1 SWAP2 SWAP1 SWAP2 SWAP1 SWAP2 PUSH2 0x100 EXP DUP2 SLOAD DUP2 PUSH20 0xFFFFFFFFFFFFFFFFFFFFFFFFFFFFFFFFFFFFFFFF MUL NOT AND SWAP1 DUP4 PUSH20 0xFFFFFFFFFFFFFFFFFFFFFFFFFFFFFFFFFFFFFFFF AND MUL OR SWAP1 SSTORE POP PUSH1 0x4 DUP2 SWAP1 DUP1 PUSH1 0x1 DUP2 SLOAD ADD DUP1 DUP3 SSTORE DUP1 SWAP2 POP POP PUSH1 0x1 SWAP1 SUB SWAP1 PUSH1 0x0 MSTORE PUSH1 0x20 PUSH1 0x0 KECCAK256 ADD PUSH1 0x0 SWAP1 SWAP2 SWAP1 SWAP2 SWAP1 SWAP2 PUSH2 0x100 EXP DUP2 SLOAD DUP2 PUSH20 0xFFFFFFFFFFFFFFFFFFFFFFFFFFFFFFFFFFFFFFFF MUL NOT AND SWAP1 DUP4 PUSH20 0xFFFFFFFFFFFFFFFFFFFFFFFFFFFFFFFFFFFFFFFF AND MUL OR SWAP1 SSTORE POP POP POP PUSH2 0x324 JUMP JUMPDEST PUSH1 0x0 DUP1 PUSH1 0x0 SWAP1 SLOAD SWAP1 PUSH2 0x100 EXP SWAP1 DIV PUSH20 0xFFFFFFFFFFFFFFFFFFFFFFFFFFFFFFFFFFFFFFFF AND SWAP1 POP DUP2 PUSH1 0x0 DUP1 PUSH2 0x100 EXP DUP2 SLOAD DUP2 PUSH20 0xFFFFFFFFFFFFFFFFFFFFFFFFFFFFFFFFFFFFFFFF MUL NOT AND SWAP1 DUP4 PUSH20 0xFFFFFFFFFFFFFFFFFFFFFFFFFFFFFFFFFFFFFFFF AND MUL OR SWAP1 SSTORE POP DUP2 PUSH20 0xFFFFFFFFFFFFFFFFFFFFFFFFFFFFFFFFFFFFFFFF AND DUP2 PUSH20 0xFFFFFFFFFFFFFFFFFFFFFFFFFFFFFFFFFFFFFFFF AND PUSH32 0x8BE0079C531659141344CD1FD0A4F28419497F9722A3DAAFE3B4186F6B6457E0 PUSH1 0x40 MLOAD PUSH1 0x40 MLOAD DUP1 SWAP2 SUB SWAP1 LOG3 POP POP JUMP JUMPDEST PUSH1 0x0 DUP1 REVERT JUMPDEST PUSH1 0x0 PUSH20 0xFFFFFFFFFFFFFFFFFFFFFFFFFFFFFFFFFFFFFFFF DUP3 AND SWAP1 POP SWAP2 SWAP1 POP JUMP JUMPDEST PUSH1 0x0 PUSH2 0x287 DUP3 PUSH2 0x25C JUMP JUMPDEST SWAP1 POP SWAP2 SWAP1 POP JUMP JUMPDEST PUSH2 0x297 DUP2 PUSH2 0x27C JUMP JUMPDEST DUP2 EQ PUSH2 0x2A2 JUMPI PUSH1 0x0 DUP1 REVERT JUMPDEST POP JUMP JUMPDEST PUSH1 0x0 DUP2 MLOAD SWAP1 POP PUSH2 0x2B4 DUP2 PUSH2 0x28E JUMP JUMPDEST SWAP3 SWAP2 POP POP JUMP JUMPDEST PUSH1 0x0 DUP1 PUSH1 0x40 DUP4 DUP6 SUB SLT ISZERO PUSH2 0x2D1 JUMPI PUSH2 0x2D0 PUSH2 0x257 JUMP JUMPDEST JUMPDEST PUSH1 0x0 PUSH2 0x2DF DUP6 DUP3 DUP7 ADD PUSH2 0x2A5 JUMP JUMPDEST SWAP3 POP POP PUSH1 0x20 PUSH2 0x2F0 DUP6 DUP3 DUP7 ADD PUSH2 0x2A5 JUMP JUMPDEST SWAP2 POP POP SWAP3 POP SWAP3 SWAP1 POP JUMP JUMPDEST PUSH2 0x303 DUP2 PUSH2 0x27C JUMP JUMPDEST DUP3 MSTORE POP POP JUMP JUMPDEST PUSH1 0x0 PUSH1 0x20 DUP3 ADD SWAP1 POP PUSH2 0x31E PUSH1 0x0 DUP4 ADD DUP5 PUSH2 0x2FA JUMP JUMPDEST SWAP3 SWAP2 POP POP JUMP JUMPDEST PUSH2 0x33BB DUP1 PUSH2 0x333 PUSH1 0x0 CODECOPY PUSH1 0x0 RETURN INVALID PUSH1 0x80 PUSH1 0x40 MSTORE PUSH1 0x4 CALLDATASIZE LT PUSH2 0x11F JUMPI PUSH1 0x0 CALLDATALOAD PUSH1 0xE0 SHR DUP1 PUSH4 0x853828B6 GT PUSH2 0xA0 JUMPI DUP1 PUSH4 0xE71C9697 GT PUSH2 0x64 JUMPI DUP1 PUSH4 0xE71C9697 EQ PUSH2 0x3C4 JUMPI DUP1 PUSH4 0xF2FDE38B EQ PUSH2 0x3E0 JUMPI DUP1 PUSH4 0xF674A9DE EQ PUSH2 0x409 JUMPI DUP1 PUSH4 0xFE43EFDA EQ PUSH2 0x432 JUMPI DUP1 PUSH4 0xFE84D4B6 EQ PUSH2 0x45B JUMPI PUSH2 0x11F JUMP JUMPDEST DUP1 PUSH4 0x853828B6 EQ PUSH2 0x307 JUMPI DUP1 PUSH4 0x8DA5CB5B EQ PUSH2 0x31E JUMPI DUP1 PUSH4 0x9048B53B EQ PUSH2 0x349 JUMPI DUP1 PUSH4 0x98A18707 EQ PUSH2 0x372 JUMPI DUP1 PUSH4 0xC42AB704 EQ PUSH2 0x39B JUMPI PUSH2 0x11F JUMP JUMPDEST DUP1 PUSH4 0x4637DE3C GT PUSH2 0xE7 JUMPI DUP1 PUSH4 0x4637DE3C EQ PUSH2 0x224 JUMPI DUP1 PUSH4 0x5521E9BF EQ PUSH2 0x24D JUMPI DUP1 PUSH4 0x5B99A012 EQ PUSH2 0x276 JUMPI DUP1 PUSH4 0x715018A6 EQ PUSH2 0x2B3 JUMPI DUP1 PUSH4 0x7A27FBB2 EQ PUSH2 0x2CA JUMPI PUSH2 0x11F JUMP JUMPDEST DUP1 PUSH4 0x1A00216 EQ PUSH2 0x124 JUMPI DUP1 PUSH4 0x2071A2D2 EQ PUSH2 0x14D JUMPI DUP1 PUSH4 0x28392554 EQ PUSH2 0x18A JUMPI DUP1 PUSH4 0x39938348 EQ PUSH2 0x1B3 JUMPI DUP1 PUSH4 0x43674131 EQ PUSH2 0x1F9 JUMPI JUMPDEST PUSH1 0x0 DUP1 REVERT JUMPDEST CALLVALUE DUP1 ISZERO PUSH2 0x130 JUMPI PUSH1 0x0 DUP1 REVERT JUMPDEST POP PUSH2 0x14B PUSH1 0x4 DUP1 CALLDATASIZE SUB DUP2 ADD SWAP1 PUSH2 0x146 SWAP2 SWAP1 PUSH2 0x22F8 JUMP JUMPDEST PUSH2 0x49D JUMP JUMPDEST STOP JUMPDEST CALLVALUE DUP1 ISZERO PUSH2 0x159 JUMPI PUSH1 0x0 DUP1 REVERT JUMPDEST POP PUSH2 0x174 PUSH1 0x4 DUP1 CALLDATASIZE SUB DUP2 ADD SWAP1 PUSH2 0x16F SWAP2 SWAP1 PUSH2 0x235B JUMP JUMPDEST PUSH2 0x50B JUMP JUMPDEST PUSH1 0x40 MLOAD PUSH2 0x181 SWAP2 SWAP1 PUSH2 0x2397 JUMP JUMPDEST PUSH1 0x40 MLOAD DUP1 SWAP2 SUB SWAP1 RETURN JUMPDEST CALLVALUE DUP1 ISZERO PUSH2 0x196 JUMPI PUSH1 0x0 DUP1 REVERT JUMPDEST POP PUSH2 0x1B1 PUSH1 0x4 DUP1 CALLDATASIZE SUB DUP2 ADD SWAP1 PUSH2 0x1AC SWAP2 SWAP1 PUSH2 0x235B JUMP JUMPDEST PUSH2 0x54A JUMP JUMPDEST STOP JUMPDEST CALLVALUE DUP1 ISZERO PUSH2 0x1BF JUMPI PUSH1 0x0 DUP1 REVERT JUMPDEST POP PUSH2 0x1DA PUSH1 0x4 DUP1 CALLDATASIZE SUB DUP2 ADD SWAP1 PUSH2 0x1D5 SWAP2 SWAP1 PUSH2 0x235B JUMP JUMPDEST PUSH2 0x736 JUMP JUMPDEST PUSH1 0x40 MLOAD PUSH2 0x1F0 SWAP11 SWAP10 SWAP9 SWAP8 SWAP7 SWAP6 SWAP5 SWAP4 SWAP3 SWAP2 SWAP1 PUSH2 0x23DC JUMP JUMPDEST PUSH1 0x40 MLOAD DUP1 SWAP2 SUB SWAP1 RETURN JUMPDEST CALLVALUE DUP1 ISZERO PUSH2 0x205 JUMPI PUSH1 0x0 DUP1 REVERT JUMPDEST POP PUSH2 0x20E PUSH2 0x797 JUMP JUMPDEST PUSH1 0x40 MLOAD PUSH2 0x21B SWAP2 SWAP1 PUSH2 0x2478 JUMP JUMPDEST PUSH1 0x40 MLOAD DUP1 SWAP2 SUB SWAP1 RETURN JUMPDEST CALLVALUE DUP1 ISZERO PUSH2 0x230 JUMPI PUSH1 0x0 DUP1 REVERT JUMPDEST POP PUSH2 0x24B PUSH1 0x4 DUP1 CALLDATASIZE SUB DUP2 ADD SWAP1 PUSH2 0x246 SWAP2 SWAP1 PUSH2 0x22F8 JUMP JUMPDEST PUSH2 0x79D JUMP JUMPDEST STOP JUMPDEST CALLVALUE DUP1 ISZERO PUSH2 0x259 JUMPI PUSH1 0x0 DUP1 REVERT JUMPDEST POP PUSH2 0x274 PUSH1 0x4 DUP1 CALLDATASIZE SUB DUP2 ADD SWAP1 PUSH2 0x26F SWAP2 SWAP1 PUSH2 0x235B JUMP JUMPDEST PUSH2 0x92F JUMP JUMPDEST STOP JUMPDEST CALLVALUE DUP1 ISZERO PUSH2 0x282 JUMPI PUSH1 0x0 DUP1 REVERT JUMPDEST POP PUSH2 0x29D PUSH1 0x4 DUP1 CALLDATASIZE SUB DUP2 ADD SWAP1 PUSH2 0x298 SWAP2 SWAP1 PUSH2 0x235B JUMP JUMPDEST PUSH2 0x9D2 JUMP JUMPDEST PUSH1 0x40 MLOAD PUSH2 0x2AA SWAP2 SWAP1 PUSH2 0x257D JUMP JUMPDEST PUSH1 0x40 MLOAD DUP1 SWAP2 SUB SWAP1 RETURN JUMPDEST CALLVALUE DUP1 ISZERO PUSH2 0x2BF JUMPI PUSH1 0x0 DUP1 REVERT JUMPDEST POP PUSH2 0x2C8 PUSH2 0xA7B JUMP JUMPDEST STOP JUMPDEST CALLVALUE DUP1 ISZERO PUSH2 0x2D6 JUMPI PUSH1 0x0 DUP1 REVERT JUMPDEST POP PUSH2 0x2F1 PUSH1 0x4 DUP1 CALLDATASIZE SUB DUP2 ADD SWAP1 PUSH2 0x2EC SWAP2 SWAP1 PUSH2 0x2599 JUMP JUMPDEST PUSH2 0xA8F JUMP JUMPDEST PUSH1 0x40 MLOAD PUSH2 0x2FE SWAP2 SWAP1 PUSH2 0x2397 JUMP JUMPDEST PUSH1 0x40 MLOAD DUP1 SWAP2 SUB SWAP1 RETURN JUMPDEST CALLVALUE DUP1 ISZERO PUSH2 0x313 JUMPI PUSH1 0x0 DUP1 REVERT JUMPDEST POP PUSH2 0x31C PUSH2 0xADD JUMP JUMPDEST STOP JUMPDEST CALLVALUE DUP1 ISZERO PUSH2 0x32A JUMPI PUSH1 0x0 DUP1 REVERT JUMPDEST POP PUSH2 0x333 PUSH2 0xB3C JUMP JUMPDEST PUSH1 0x40 MLOAD PUSH2 0x340 SWAP2 SWAP1 PUSH2 0x2397 JUMP JUMPDEST PUSH1 0x40 MLOAD DUP1 SWAP2 SUB SWAP1 RETURN JUMPDEST CALLVALUE DUP1 ISZERO PUSH2 0x355 JUMPI PUSH1 0x0 DUP1 REVERT JUMPDEST POP PUSH2 0x370 PUSH1 0x4 DUP1 CALLDATASIZE SUB DUP2 ADD SWAP1 PUSH2 0x36B SWAP2 SWAP1 PUSH2 0x2599 JUMP JUMPDEST PUSH2 0xB65 JUMP JUMPDEST STOP JUMPDEST CALLVALUE DUP1 ISZERO PUSH2 0x37E JUMPI PUSH1 0x0 DUP1 REVERT JUMPDEST POP PUSH2 0x399 PUSH1 0x4 DUP1 CALLDATASIZE SUB DUP2 ADD SWAP1 PUSH2 0x394 SWAP2 SWAP1 PUSH2 0x25D9 JUMP JUMPDEST PUSH2 0xFCF JUMP JUMPDEST STOP JUMPDEST CALLVALUE DUP1 ISZERO PUSH2 0x3A7 JUMPI PUSH1 0x0 DUP1 REVERT JUMPDEST POP PUSH2 0x3C2 PUSH1 0x4 DUP1 CALLDATASIZE SUB DUP2 ADD SWAP1 PUSH2 0x3BD SWAP2 SWAP1 PUSH2 0x235B JUMP JUMPDEST PUSH2 0x1207 JUMP JUMPDEST STOP JUMPDEST PUSH2 0x3DE PUSH1 0x4 DUP1 CALLDATASIZE SUB DUP2 ADD SWAP1 PUSH2 0x3D9 SWAP2 SWAP1 PUSH2 0x267B JUMP JUMPDEST PUSH2 0x1395 JUMP JUMPDEST STOP JUMPDEST CALLVALUE DUP1 ISZERO PUSH2 0x3EC JUMPI PUSH1 0x0 DUP1 REVERT JUMPDEST POP PUSH2 0x407 PUSH1 0x4 DUP1 CALLDATASIZE SUB DUP2 ADD SWAP1 PUSH2 0x402 SWAP2 SWAP1 PUSH2 0x22F8 JUMP JUMPDEST PUSH2 0x1A23 JUMP JUMPDEST STOP JUMPDEST CALLVALUE DUP1 ISZERO PUSH2 0x415 JUMPI PUSH1 0x0 DUP1 REVERT JUMPDEST POP PUSH2 0x430 PUSH1 0x4 DUP1 CALLDATASIZE SUB DUP2 ADD SWAP1 PUSH2 0x42B SWAP2 SWAP1 PUSH2 0x25D9 JUMP JUMPDEST PUSH2 0x1AA9 JUMP JUMPDEST STOP JUMPDEST CALLVALUE DUP1 ISZERO PUSH2 0x43E JUMPI PUSH1 0x0 DUP1 REVERT JUMPDEST POP PUSH2 0x459 PUSH1 0x4 DUP1 CALLDATASIZE SUB DUP2 ADD SWAP1 PUSH2 0x454 SWAP2 SWAP1 PUSH2 0x235B JUMP JUMPDEST PUSH2 0x1CD9 JUMP JUMPDEST STOP JUMPDEST CALLVALUE DUP1 ISZERO PUSH2 0x467 JUMPI PUSH1 0x0 DUP1 REVERT JUMPDEST POP PUSH2 0x482 PUSH1 0x4 DUP1 CALLDATASIZE SUB DUP2 ADD SWAP1 PUSH2 0x47D SWAP2 SWAP1 PUSH2 0x26CE JUMP JUMPDEST PUSH2 0x2060 JUMP JUMPDEST PUSH1 0x40 MLOAD PUSH2 0x494 SWAP7 SWAP6 SWAP5 SWAP4 SWAP3 SWAP2 SWAP1 PUSH2 0x2721 JUMP JUMPDEST PUSH1 0x40 MLOAD DUP1 SWAP2 SUB SWAP1 RETURN JUMPDEST PUSH2 0x4A5 PUSH2 0x20E3 JUMP JUMPDEST PUSH1 0x4 DUP2 SWAP1 DUP1 PUSH1 0x1 DUP2 SLOAD ADD DUP1 DUP3 SSTORE DUP1 SWAP2 POP POP PUSH1 0x1 SWAP1 SUB SWAP1 PUSH1 0x0 MSTORE PUSH1 0x20 PUSH1 0x0 KECCAK256 ADD PUSH1 0x0 SWAP1 SWAP2 SWAP1 SWAP2 SWAP1 SWAP2 PUSH2 0x100 EXP DUP2 SLOAD DUP2 PUSH20 0xFFFFFFFFFFFFFFFFFFFFFFFFFFFFFFFFFFFFFFFF MUL NOT AND SWAP1 DUP4 PUSH20 0xFFFFFFFFFFFFFFFFFFFFFFFFFFFFFFFFFFFFFFFF AND MUL OR SWAP1 SSTORE POP POP JUMP JUMPDEST PUSH1 0x4 DUP2 DUP2 SLOAD DUP2 LT PUSH2 0x51B JUMPI PUSH1 0x0 DUP1 REVERT JUMPDEST SWAP1 PUSH1 0x0 MSTORE PUSH1 0x20 PUSH1 0x0 KECCAK256 ADD PUSH1 0x0 SWAP2 POP SLOAD SWAP1 PUSH2 0x100 EXP SWAP1 DIV PUSH20 0xFFFFFFFFFFFFFFFFFFFFFFFFFFFFFFFFFFFFFFFF AND DUP2 JUMP JUMPDEST PUSH1 0x0 DUP1 JUMPDEST PUSH1 0x4 DUP1 SLOAD SWAP1 POP DUP2 LT ISZERO PUSH2 0x5E2 JUMPI CALLER PUSH20 0xFFFFFFFFFFFFFFFFFFFFFFFFFFFFFFFFFFFFFFFF AND PUSH1 0x4 DUP3 DUP2 SLOAD DUP2 LT PUSH2 0x586 JUMPI PUSH2 0x585 PUSH2 0x2782 JUMP JUMPDEST JUMPDEST SWAP1 PUSH1 0x0 MSTORE PUSH1 0x20 PUSH1 0x0 KECCAK256 ADD PUSH1 0x0 SWAP1 SLOAD SWAP1 PUSH2 0x100 EXP SWAP1 DIV PUSH20 0xFFFFFFFFFFFFFFFFFFFFFFFFFFFFFFFFFFFFFFFF AND PUSH20 0xFFFFFFFFFFFFFFFFFFFFFFFFFFFFFFFFFFFFFFFF AND SUB PUSH2 0x5D5 JUMPI PUSH1 0x1 SWAP2 POP PUSH2 0x5E2 JUMP JUMPDEST DUP1 DUP1 PUSH1 0x1 ADD SWAP2 POP POP PUSH2 0x54E JUMP JUMPDEST POP DUP1 PUSH2 0x623 JUMPI PUSH1 0x40 MLOAD PUSH32 0x8C379A000000000000000000000000000000000000000000000000000000000 DUP2 MSTORE PUSH1 0x4 ADD PUSH2 0x61A SWAP1 PUSH2 0x280E JUMP JUMPDEST PUSH1 0x40 MLOAD DUP1 SWAP2 SUB SWAP1 REVERT JUMPDEST PUSH1 0x0 PUSH1 0x5 PUSH1 0x0 DUP5 DUP2 MSTORE PUSH1 0x20 ADD SWAP1 DUP2 MSTORE PUSH1 0x20 ADD PUSH1 0x0 KECCAK256 SWAP1 POP PUSH1 0x3 SLOAD DUP2 PUSH1 0x5 ADD SLOAD PUSH2 0x64C SWAP2 SWAP1 PUSH2 0x285D JUMP JUMPDEST TIMESTAMP LT PUSH2 0x68D JUMPI PUSH1 0x40 MLOAD PUSH32 0x8C379A000000000000000000000000000000000000000000000000000000000 DUP2 MSTORE PUSH1 0x4 ADD PUSH2 0x684 SWAP1 PUSH2 0x28DD JUMP JUMPDEST PUSH1 0x40 MLOAD DUP1 SWAP2 SUB SWAP1 REVERT JUMPDEST PUSH1 0x0 DUP2 PUSH1 0x6 ADD SLOAD EQ ISZERO DUP1 ISZERO PUSH2 0x6A7 JUMPI POP PUSH1 0x0 DUP2 PUSH1 0x7 ADD SLOAD EQ ISZERO JUMPDEST PUSH2 0x6E6 JUMPI PUSH1 0x40 MLOAD PUSH32 0x8C379A000000000000000000000000000000000000000000000000000000000 DUP2 MSTORE PUSH1 0x4 ADD PUSH2 0x6DD SWAP1 PUSH2 0x2949 JUMP JUMPDEST PUSH1 0x40 MLOAD DUP1 SWAP2 SUB SWAP1 REVERT JUMPDEST PUSH1 0x0 DUP2 PUSH1 0x5 ADD DUP2 SWAP1 SSTORE POP PUSH1 0x0 DUP2 PUSH1 0x4 ADD DUP2 SWAP1 SSTORE POP PUSH1 0x0 DUP2 PUSH1 0x3 ADD DUP2 SWAP1 SSTORE POP DUP3 PUSH32 0x80BED4CEEB2DFBD88F61CCA1C30BC6DEDE3047D1862345EF30F1CBC44C2016D7 PUSH1 0x40 MLOAD PUSH1 0x40 MLOAD DUP1 SWAP2 SUB SWAP1 LOG2 POP POP POP JUMP JUMPDEST PUSH1 0x5 PUSH1 0x20 MSTORE DUP1 PUSH1 0x0 MSTORE PUSH1 0x40 PUSH1 0x0 KECCAK256 PUSH1 0x0 SWAP2 POP SWAP1 POP DUP1 PUSH1 0x0 ADD PUSH1 0x0 SWAP1 SLOAD SWAP1 PUSH2 0x100 EXP SWAP1 DIV PUSH1 0xFF AND SWAP1 DUP1 PUSH1 0x1 ADD SLOAD SWAP1 DUP1 PUSH1 0x2 ADD SLOAD SWAP1 DUP1 PUSH1 0x3 ADD SLOAD SWAP1 DUP1 PUSH1 0x4 ADD SLOAD SWAP1 DUP1 PUSH1 0x5 ADD SLOAD SWAP1 DUP1 PUSH1 0x6 ADD SLOAD SWAP1 DUP1 PUSH1 0x7 ADD SLOAD SWAP1 DUP1 PUSH1 0x8 ADD SLOAD SWAP1 DUP1 PUSH1 0x9 ADD SLOAD SWAP1 POP DUP11 JUMP JUMPDEST PUSH1 0x1 SLOAD DUP2 JUMP JUMPDEST PUSH2 0x7A5 PUSH2 0x20E3 JUMP JUMPDEST PUSH1 0x0 JUMPDEST PUSH1 0x4 DUP1 SLOAD SWAP1 POP DUP2 LT ISZERO PUSH2 0x92B JUMPI DUP2 PUSH20 0xFFFFFFFFFFFFFFFFFFFFFFFFFFFFFFFFFFFFFFFF AND PUSH1 0x4 DUP3 DUP2 SLOAD DUP2 LT PUSH2 0x7E0 JUMPI PUSH2 0x7DF PUSH2 0x2782 JUMP JUMPDEST JUMPDEST SWAP1 PUSH1 0x0 MSTORE PUSH1 0x20 PUSH1 0x0 KECCAK256 ADD PUSH1 0x0 SWAP1 SLOAD SWAP1 PUSH2 0x100 EXP SWAP1 DIV PUSH20 0xFFFFFFFFFFFFFFFFFFFFFFFFFFFFFFFFFFFFFFFF AND PUSH20 0xFFFFFFFFFFFFFFFFFFFFFFFFFFFFFFFFFFFFFFFF AND SUB PUSH2 0x91E JUMPI PUSH1 0x4 PUSH1 0x1 PUSH1 0x4 DUP1 SLOAD SWAP1 POP PUSH2 0x83A SWAP2 SWAP1 PUSH2 0x285D JUMP JUMPDEST DUP2 SLOAD DUP2 LT PUSH2 0x84B JUMPI PUSH2 0x84A PUSH2 0x2782 JUMP JUMPDEST JUMPDEST SWAP1 PUSH1 0x0 MSTORE PUSH1 0x20 PUSH1 0x0 KECCAK256 ADD PUSH1 0x0 SWAP1 SLOAD SWAP1 PUSH2 0x100 EXP SWAP1 DIV PUSH20 0xFFFFFFFFFFFFFFFFFFFFFFFFFFFFFFFFFFFFFFFF AND PUSH1 0x4 DUP3 DUP2 SLOAD DUP2 LT PUSH2 0x88A JUMPI PUSH2 0x889 PUSH2 0x2782 JUMP JUMPDEST JUMPDEST SWAP1 PUSH1 0x0 MSTORE PUSH1 0x20 PUSH1 0x0 KECCAK256 ADD PUSH1 0x0 PUSH2 0x100 EXP DUP2 SLOAD DUP2 PUSH20 0xFFFFFFFFFFFFFFFFFFFFFFFFFFFFFFFFFFFFFFFF MUL NOT AND SWAP1 DUP4 PUSH20 0xFFFFFFFFFFFFFFFFFFFFFFFFFFFFFFFFFFFFFFFF AND MUL OR SWAP1 SSTORE POP PUSH1 0x4 DUP1 SLOAD DUP1 PUSH2 0x8E4 JUMPI PUSH2 0x8E3 PUSH2 0x2969 JUMP JUMPDEST JUMPDEST PUSH1 0x1 SWAP1 SUB DUP2 DUP2 SWAP1 PUSH1 0x0 MSTORE PUSH1 0x20 PUSH1 0x0 KECCAK256 ADD PUSH1 0x0 PUSH2 0x100 EXP DUP2 SLOAD SWAP1 PUSH20 0xFFFFFFFFFFFFFFFFFFFFFFFFFFFFFFFFFFFFFFFF MUL NOT AND SWAP1 SSTORE SWAP1 SSTORE PUSH2 0x92B JUMP JUMPDEST DUP1 DUP1 PUSH1 0x1 ADD SWAP2 POP POP PUSH2 0x7A8 JUMP JUMPDEST POP POP JUMP JUMPDEST PUSH2 0x937 PUSH2 0x20E3 JUMP JUMPDEST PUSH1 0x0 PUSH2 0x942 CALLER PUSH2 0x216A JUMP JUMPDEST SWAP1 POP DUP2 SELFBALANCE LT ISZERO PUSH2 0x987 JUMPI PUSH1 0x40 MLOAD PUSH32 0x8C379A000000000000000000000000000000000000000000000000000000000 DUP2 MSTORE PUSH1 0x4 ADD PUSH2 0x97E SWAP1 PUSH2 0x29E4 JUMP JUMPDEST PUSH1 0x40 MLOAD DUP1 SWAP2 SUB SWAP1 REVERT JUMPDEST DUP1 PUSH20 0xFFFFFFFFFFFFFFFFFFFFFFFFFFFFFFFFFFFFFFFF AND PUSH2 0x8FC DUP4 SWAP1 DUP2 ISZERO MUL SWAP1 PUSH1 0x40 MLOAD PUSH1 0x0 PUSH1 0x40 MLOAD DUP1 DUP4 SUB DUP2 DUP6 DUP9 DUP9 CALL SWAP4 POP POP POP POP ISZERO DUP1 ISZERO PUSH2 0x9CD JUMPI RETURNDATASIZE PUSH1 0x0 DUP1 RETURNDATACOPY RETURNDATASIZE PUSH1 0x0 REVERT JUMPDEST POP POP POP JUMP JUMPDEST PUSH2 0x9DA PUSH2 0x2240 JUMP JUMPDEST PUSH1 0x0 PUSH1 0x5 PUSH1 0x0 DUP5 DUP2 MSTORE PUSH1 0x20 ADD SWAP1 DUP2 MSTORE PUSH1 0x20 ADD PUSH1 0x0 KECCAK256 SWAP1 POP DUP1 PUSH1 0x40 MLOAD DUP1 PUSH2 0x140 ADD PUSH1 0x40 MSTORE SWAP1 DUP2 PUSH1 0x0 DUP3 ADD PUSH1 0x0 SWAP1 SLOAD SWAP1 PUSH2 0x100 EXP SWAP1 DIV PUSH1 0xFF AND ISZERO ISZERO ISZERO ISZERO DUP2 MSTORE PUSH1 0x20 ADD PUSH1 0x1 DUP3 ADD SLOAD DUP2 MSTORE PUSH1 0x20 ADD PUSH1 0x2 DUP3 ADD SLOAD DUP2 MSTORE PUSH1 0x20 ADD PUSH1 0x3 DUP3 ADD SLOAD DUP2 MSTORE PUSH1 0x20 ADD PUSH1 0x4 DUP3 ADD SLOAD DUP2 MSTORE PUSH1 0x20 ADD PUSH1 0x5 DUP3 ADD SLOAD DUP2 MSTORE PUSH1 0x20 ADD PUSH1 0x6 DUP3 ADD SLOAD DUP2 MSTORE PUSH1 0x20 ADD PUSH1 0x7 DUP3 ADD SLOAD DUP2 MSTORE PUSH1 0x20 ADD PUSH1 0x8 DUP3 ADD SLOAD DUP2 MSTORE PUSH1 0x20 ADD PUSH1 0x9 DUP3 ADD SLOAD DUP2 MSTORE POP POP SWAP2 POP POP SWAP2 SWAP1 POP JUMP JUMPDEST PUSH2 0xA83 PUSH2 0x20E3 JUMP JUMPDEST PUSH2 0xA8D PUSH1 0x0 PUSH2 0x2174 JUMP JUMPDEST JUMP JUMPDEST PUSH1 0x7 PUSH1 0x20 MSTORE DUP2 PUSH1 0x0 MSTORE PUSH1 0x40 PUSH1 0x0 KECCAK256 DUP2 DUP2 SLOAD DUP2 LT PUSH2 0xAAB JUMPI PUSH1 0x0 DUP1 REVERT JUMPDEST SWAP1 PUSH1 0x0 MSTORE PUSH1 0x20 PUSH1 0x0 KECCAK256 ADD PUSH1 0x0 SWAP2 POP SWAP2 POP SWAP1 SLOAD SWAP1 PUSH2 0x100 EXP SWAP1 DIV PUSH20 0xFFFFFFFFFFFFFFFFFFFFFFFFFFFFFFFFFFFFFFFF AND DUP2 JUMP JUMPDEST PUSH2 0xAE5 PUSH2 0x20E3 JUMP JUMPDEST PUSH1 0x0 PUSH2 0xAF0 CALLER PUSH2 0x216A JUMP JUMPDEST SWAP1 POP DUP1 PUSH20 0xFFFFFFFFFFFFFFFFFFFFFFFFFFFFFFFFFFFFFFFF AND PUSH2 0x8FC SELFBALANCE SWAP1 DUP2 ISZERO MUL SWAP1 PUSH1 0x40 MLOAD PUSH1 0x0 PUSH1 0x40 MLOAD DUP1 DUP4 SUB DUP2 DUP6 DUP9 DUP9 CALL SWAP4 POP POP POP POP ISZERO DUP1 ISZERO PUSH2 0xB38 JUMPI RETURNDATASIZE PUSH1 0x0 DUP1 RETURNDATACOPY RETURNDATASIZE PUSH1 0x0 REVERT JUMPDEST POP POP JUMP JUMPDEST PUSH1 0x0 DUP1 PUSH1 0x0 SWAP1 SLOAD SWAP1 PUSH2 0x100 EXP SWAP1 DIV PUSH20 0xFFFFFFFFFFFFFFFFFFFFFFFFFFFFFFFFFFFFFFFF AND SWAP1 POP SWAP1 JUMP JUMPDEST PUSH1 0x0 DUP1 JUMPDEST PUSH1 0x4 DUP1 SLOAD SWAP1 POP DUP2 LT ISZERO PUSH2 0xBFD JUMPI CALLER PUSH20 0xFFFFFFFFFFFFFFFFFFFFFFFFFFFFFFFFFFFFFFFF AND PUSH1 0x4 DUP3 DUP2 SLOAD DUP2 LT PUSH2 0xBA1 JUMPI PUSH2 0xBA0 PUSH2 0x2782 JUMP JUMPDEST JUMPDEST SWAP1 PUSH1 0x0 MSTORE PUSH1 0x20 PUSH1 0x0 KECCAK256 ADD PUSH1 0x0 SWAP1 SLOAD SWAP1 PUSH2 0x100 EXP SWAP1 DIV PUSH20 0xFFFFFFFFFFFFFFFFFFFFFFFFFFFFFFFFFFFFFFFF AND PUSH20 0xFFFFFFFFFFFFFFFFFFFFFFFFFFFFFFFFFFFFFFFF AND SUB PUSH2 0xBF0 JUMPI PUSH1 0x1 SWAP2 POP PUSH2 0xBFD JUMP JUMPDEST DUP1 DUP1 PUSH1 0x1 ADD SWAP2 POP POP PUSH2 0xB69 JUMP JUMPDEST POP DUP1 PUSH2 0xC3E JUMPI PUSH1 0x40 MLOAD PUSH32 0x8C379A000000000000000000000000000000000000000000000000000000000 DUP2 MSTORE PUSH1 0x4 ADD PUSH2 0xC35 SWAP1 PUSH2 0x280E JUMP JUMPDEST PUSH1 0x40 MLOAD DUP1 SWAP2 SUB SWAP1 REVERT JUMPDEST PUSH1 0x0 PUSH1 0x5 PUSH1 0x0 DUP6 DUP2 MSTORE PUSH1 0x20 ADD SWAP1 DUP2 MSTORE PUSH1 0x20 ADD PUSH1 0x0 KECCAK256 SWAP1 POP DUP1 PUSH1 0x0 ADD PUSH1 0x0 SWAP1 SLOAD SWAP1 PUSH2 0x100 EXP SWAP1 DIV PUSH1 0xFF AND ISZERO PUSH2 0xCA7 JUMPI PUSH1 0x40 MLOAD PUSH32 0x8C379A000000000000000000000000000000000000000000000000000000000 DUP2 MSTORE PUSH1 0x4 ADD PUSH2 0xC9E SWAP1 PUSH2 0x2A50 JUMP JUMPDEST PUSH1 0x40 MLOAD DUP1 SWAP2 SUB SWAP1 REVERT JUMPDEST DUP1 PUSH1 0x6 ADD SLOAD DUP4 EQ DUP1 PUSH2 0xCBC JUMPI POP DUP1 PUSH1 0x7 ADD SLOAD DUP4 EQ JUMPDEST PUSH2 0xCFB JUMPI PUSH1 0x40 MLOAD PUSH32 0x8C379A000000000000000000000000000000000000000000000000000000000 DUP2 MSTORE PUSH1 0x4 ADD PUSH2 0xCF2 SWAP1 PUSH2 0x2ABC JUMP JUMPDEST PUSH1 0x40 MLOAD DUP1 SWAP2 SUB SWAP1 REVERT JUMPDEST PUSH1 0x1 DUP2 PUSH1 0x0 ADD PUSH1 0x0 PUSH2 0x100 EXP DUP2 SLOAD DUP2 PUSH1 0xFF MUL NOT AND SWAP1 DUP4 ISZERO ISZERO MUL OR SWAP1 SSTORE POP DUP3 DUP2 PUSH1 0x1 ADD DUP2 SWAP1 SSTORE POP PUSH1 0x0 DUP2 PUSH1 0x9 ADD SLOAD DUP3 PUSH1 0x8 ADD SLOAD PUSH2 0xD37 SWAP2 SWAP1 PUSH2 0x2ADC JUMP JUMPDEST SWAP1 POP PUSH1 0x0 DUP3 PUSH1 0x2 ADD SLOAD PUSH2 0x2710 PUSH2 0xD4D SWAP2 SWAP1 PUSH2 0x285D JUMP JUMPDEST SWAP1 POP PUSH1 0x0 JUMPDEST PUSH1 0x7 PUSH1 0x0 DUP9 DUP2 MSTORE PUSH1 0x20 ADD SWAP1 DUP2 MSTORE PUSH1 0x20 ADD PUSH1 0x0 KECCAK256 DUP1 SLOAD SWAP1 POP DUP2 LT ISZERO PUSH2 0xF8E JUMPI PUSH1 0x0 PUSH1 0x7 PUSH1 0x0 DUP10 DUP2 MSTORE PUSH1 0x20 ADD SWAP1 DUP2 MSTORE PUSH1 0x20 ADD PUSH1 0x0 KECCAK256 DUP3 DUP2 SLOAD DUP2 LT PUSH2 0xD97 JUMPI PUSH2 0xD96 PUSH2 0x2782 JUMP JUMPDEST JUMPDEST SWAP1 PUSH1 0x0 MSTORE PUSH1 0x20 PUSH1 0x0 KECCAK256 ADD PUSH1 0x0 SWAP1 SLOAD SWAP1 PUSH2 0x100 EXP SWAP1 DIV PUSH20 0xFFFFFFFFFFFFFFFFFFFFFFFFFFFFFFFFFFFFFFFF AND SWAP1 POP PUSH1 0x0 PUSH1 0x6 PUSH1 0x0 DUP11 DUP2 MSTORE PUSH1 0x20 ADD SWAP1 DUP2 MSTORE PUSH1 0x20 ADD PUSH1 0x0 KECCAK256 PUSH1 0x0 DUP4 PUSH20 0xFFFFFFFFFFFFFFFFFFFFFFFFFFFFFFFFFFFFFFFF AND PUSH20 0xFFFFFFFFFFFFFFFFFFFFFFFFFFFFFFFFFFFFFFFF AND DUP2 MSTORE PUSH1 0x20 ADD SWAP1 DUP2 MSTORE PUSH1 0x20 ADD PUSH1 0x0 KECCAK256 PUSH1 0x0 DUP10 DUP2 MSTORE PUSH1 0x20 ADD SWAP1 DUP2 MSTORE PUSH1 0x20 ADD PUSH1 0x0 KECCAK256 SWAP1 POP DUP8 DUP2 PUSH1 0x4 ADD SLOAD SUB PUSH2 0xF7F JUMPI PUSH1 0x0 DUP7 PUSH1 0x6 ADD SLOAD DUP3 PUSH1 0x4 ADD SLOAD EQ DUP1 ISZERO PUSH2 0xE51 JUMPI POP PUSH1 0x0 DUP8 PUSH1 0x8 ADD SLOAD EQ JUMPDEST ISZERO PUSH2 0xE7A JUMPI PUSH2 0x2710 DUP6 DUP4 PUSH1 0x2 ADD SLOAD PUSH2 0xE69 SWAP2 SWAP1 PUSH2 0x2B10 JUMP JUMPDEST PUSH2 0xE73 SWAP2 SWAP1 PUSH2 0x2B81 JUMP JUMPDEST SWAP1 POP PUSH2 0xEBB JUMP JUMPDEST DUP7 PUSH1 0x7 ADD SLOAD DUP3 PUSH1 0x4 ADD SLOAD EQ DUP1 ISZERO PUSH2 0xE95 JUMPI POP PUSH1 0x0 DUP8 PUSH1 0x9 ADD SLOAD EQ JUMPDEST ISZERO PUSH2 0xEBA JUMPI PUSH2 0x2710 DUP6 DUP4 PUSH1 0x2 ADD SLOAD PUSH2 0xEAD SWAP2 SWAP1 PUSH2 0x2B10 JUMP JUMPDEST PUSH2 0xEB7 SWAP2 SWAP1 PUSH2 0x2B81 JUMP JUMPDEST SWAP1 POP JUMPDEST JUMPDEST DUP7 PUSH1 0x6 ADD SLOAD DUP3 PUSH1 0x4 ADD SLOAD EQ DUP1 ISZERO PUSH2 0xED6 JUMPI POP PUSH1 0x0 DUP8 PUSH1 0x8 ADD SLOAD GT JUMPDEST ISZERO PUSH2 0xF19 JUMPI PUSH2 0x2710 DUP8 PUSH1 0x8 ADD SLOAD PUSH2 0xEED SWAP2 SWAP1 PUSH2 0x2B10 JUMP JUMPDEST DUP6 DUP8 DUP5 PUSH1 0x2 ADD SLOAD PUSH2 0xEFE SWAP2 SWAP1 PUSH2 0x2B10 JUMP JUMPDEST PUSH2 0xF08 SWAP2 SWAP1 PUSH2 0x2B10 JUMP JUMPDEST PUSH2 0xF12 SWAP2 SWAP1 PUSH2 0x2B81 JUMP JUMPDEST SWAP1 POP PUSH2 0xF74 JUMP JUMPDEST DUP7 PUSH1 0x7 ADD SLOAD DUP3 PUSH1 0x4 ADD SLOAD EQ DUP1 ISZERO PUSH2 0xF34 JUMPI POP PUSH1 0x0 DUP8 PUSH1 0x9 ADD SLOAD GT JUMPDEST ISZERO PUSH2 0xF73 JUMPI PUSH2 0x2710 DUP8 PUSH1 0x9 ADD SLOAD PUSH2 0xF4B SWAP2 SWAP1 PUSH2 0x2B10 JUMP JUMPDEST DUP6 DUP8 DUP5 PUSH1 0x2 ADD SLOAD PUSH2 0xF5C SWAP2 SWAP1 PUSH2 0x2B10 JUMP JUMPDEST PUSH2 0xF66 SWAP2 SWAP1 PUSH2 0x2B10 JUMP JUMPDEST PUSH2 0xF70 SWAP2 SWAP1 PUSH2 0x2B81 JUMP JUMPDEST SWAP1 POP JUMPDEST JUMPDEST DUP1 DUP3 PUSH1 0x3 ADD DUP2 SWAP1 SSTORE POP POP JUMPDEST POP POP DUP1 DUP1 PUSH1 0x1 ADD SWAP2 POP POP PUSH2 0xD52 JUMP JUMPDEST POP DUP6 PUSH32 0xB6284C12D8A21C06155F14E4B5A2C21BDD2A90ABCD3B5D0ADA8275279CB0CA6F DUP7 PUSH1 0x40 MLOAD PUSH2 0xFBF SWAP2 SWAP1 PUSH2 0x2478 JUMP JUMPDEST PUSH1 0x40 MLOAD DUP1 SWAP2 SUB SWAP1 LOG2 POP POP POP POP POP POP JUMP JUMPDEST PUSH1 0x0 DUP1 JUMPDEST PUSH1 0x4 DUP1 SLOAD SWAP1 POP DUP2 LT ISZERO PUSH2 0x1067 JUMPI CALLER PUSH20 0xFFFFFFFFFFFFFFFFFFFFFFFFFFFFFFFFFFFFFFFF AND PUSH1 0x4 DUP3 DUP2 SLOAD DUP2 LT PUSH2 0x100B JUMPI PUSH2 0x100A PUSH2 0x2782 JUMP JUMPDEST JUMPDEST SWAP1 PUSH1 0x0 MSTORE PUSH1 0x20 PUSH1 0x0 KECCAK256 ADD PUSH1 0x0 SWAP1 SLOAD SWAP1 PUSH2 0x100 EXP SWAP1 DIV PUSH20 0xFFFFFFFFFFFFFFFFFFFFFFFFFFFFFFFFFFFFFFFF AND PUSH20 0xFFFFFFFFFFFFFFFFFFFFFFFFFFFFFFFFFFFFFFFF AND SUB PUSH2 0x105A JUMPI PUSH1 0x1 SWAP2 POP PUSH2 0x1067 JUMP JUMPDEST DUP1 DUP1 PUSH1 0x1 ADD SWAP2 POP POP PUSH2 0xFD3 JUMP JUMPDEST POP DUP1 PUSH2 0x10A8 JUMPI PUSH1 0x40 MLOAD PUSH32 0x8C379A000000000000000000000000000000000000000000000000000000000 DUP2 MSTORE PUSH1 0x4 ADD PUSH2 0x109F SWAP1 PUSH2 0x280E JUMP JUMPDEST PUSH1 0x40 MLOAD DUP1 SWAP2 SUB SWAP1 REVERT JUMPDEST PUSH1 0x0 PUSH1 0x5 PUSH1 0x0 DUP11 DUP2 MSTORE PUSH1 0x20 ADD SWAP1 DUP2 MSTORE PUSH1 0x20 ADD PUSH1 0x0 KECCAK256 SWAP1 POP PUSH1 0x0 DUP2 PUSH1 0x6 ADD SLOAD EQ ISZERO DUP1 ISZERO PUSH2 0x10D9 JUMPI POP PUSH1 0x0 DUP2 PUSH1 0x7 ADD SLOAD EQ ISZERO JUMPDEST PUSH2 0x1118 JUMPI PUSH1 0x40 MLOAD PUSH32 0x8C379A000000000000000000000000000000000000000000000000000000000 DUP2 MSTORE PUSH1 0x4 ADD PUSH2 0x110F SWAP1 PUSH2 0x2949 JUMP JUMPDEST PUSH1 0x40 MLOAD DUP1 SWAP2 SUB SWAP1 REVERT JUMPDEST PUSH1 0x3 SLOAD DUP2 PUSH1 0x5 ADD SLOAD PUSH2 0x112A SWAP2 SWAP1 PUSH2 0x285D JUMP JUMPDEST TIMESTAMP LT PUSH2 0x116B JUMPI PUSH1 0x40 MLOAD PUSH32 0x8C379A000000000000000000000000000000000000000000000000000000000 DUP2 MSTORE PUSH1 0x4 ADD PUSH2 0x1162 SWAP1 PUSH2 0x2BFE JUMP JUMPDEST PUSH1 0x40 MLOAD DUP1 SWAP2 SUB SWAP1 REVERT JUMPDEST DUP8 DUP2 PUSH1 0x6 ADD DUP2 SWAP1 SSTORE POP DUP7 DUP2 PUSH1 0x7 ADD DUP2 SWAP1 SSTORE POP PUSH1 0x0 DUP7 SUB PUSH2 0x1195 JUMPI PUSH1 0x1 SLOAD DUP2 PUSH1 0x2 ADD DUP2 SWAP1 SSTORE POP PUSH2 0x119F JUMP JUMPDEST DUP6 DUP2 PUSH1 0x2 ADD DUP2 SWAP1 SSTORE POP JUMPDEST DUP5 DUP2 PUSH1 0x5 ADD DUP2 SWAP1 SSTORE POP DUP4 DUP2 PUSH1 0x4 ADD DUP2 SWAP1 SSTORE POP DUP3 DUP2 PUSH1 0x3 ADD DUP2 SWAP1 SSTORE POP DUP9 PUSH32 0x5AD787FF0AB90867AA98C2A81CAFF732533E80B06F4C6910994CF0C8918D17FC DUP10 DUP10 DUP10 DUP10 DUP10 DUP10 PUSH1 0x40 MLOAD PUSH2 0x11F4 SWAP7 SWAP6 SWAP5 SWAP4 SWAP3 SWAP2 SWAP1 PUSH2 0x2C1E JUMP JUMPDEST PUSH1 0x40 MLOAD DUP1 SWAP2 SUB SWAP1 LOG2 POP POP POP POP POP POP POP POP POP JUMP JUMPDEST PUSH2 0x120F PUSH2 0x20E3 JUMP JUMPDEST PUSH1 0x0 PUSH1 0x5 PUSH1 0x0 DUP4 DUP2 MSTORE PUSH1 0x20 ADD SWAP1 DUP2 MSTORE PUSH1 0x20 ADD PUSH1 0x0 KECCAK256 SWAP1 POP DUP1 PUSH1 0x0 ADD PUSH1 0x0 SWAP1 SLOAD SWAP1 PUSH2 0x100 EXP SWAP1 DIV PUSH1 0xFF AND PUSH2 0x1277 JUMPI PUSH1 0x40 MLOAD PUSH32 0x8C379A000000000000000000000000000000000000000000000000000000000 DUP2 MSTORE PUSH1 0x4 ADD PUSH2 0x126E SWAP1 PUSH2 0x2CCB JUMP JUMPDEST PUSH1 0x40 MLOAD DUP1 SWAP2 SUB SWAP1 REVERT JUMPDEST PUSH1 0x0 DUP2 PUSH1 0x1 ADD SLOAD SUB PUSH2 0x12BE JUMPI PUSH1 0x40 MLOAD PUSH32 0x8C379A000000000000000000000000000000000000000000000000000000000 DUP2 MSTORE PUSH1 0x4 ADD PUSH2 0x12B5 SWAP1 PUSH2 0x2CCB JUMP JUMPDEST PUSH1 0x40 MLOAD DUP1 SWAP2 SUB SWAP1 REVERT JUMPDEST PUSH1 0x0 DUP2 PUSH1 0x9 ADD SLOAD DUP3 PUSH1 0x8 ADD SLOAD PUSH2 0x12D4 SWAP2 SWAP1 PUSH2 0x2ADC JUMP JUMPDEST SWAP1 POP PUSH1 0x0 PUSH2 0x2710 DUP4 PUSH1 0x2 ADD SLOAD DUP4 PUSH2 0x12EB SWAP2 SWAP1 PUSH2 0x2B10 JUMP JUMPDEST PUSH2 0x12F5 SWAP2 SWAP1 PUSH2 0x2B81 JUMP JUMPDEST SWAP1 POP PUSH1 0x0 PUSH2 0x1302 CALLER PUSH2 0x216A JUMP JUMPDEST SWAP1 POP DUP2 SELFBALANCE LT ISZERO PUSH2 0x1347 JUMPI PUSH1 0x40 MLOAD PUSH32 0x8C379A000000000000000000000000000000000000000000000000000000000 DUP2 MSTORE PUSH1 0x4 ADD PUSH2 0x133E SWAP1 PUSH2 0x29E4 JUMP JUMPDEST PUSH1 0x40 MLOAD DUP1 SWAP2 SUB SWAP1 REVERT JUMPDEST DUP1 PUSH20 0xFFFFFFFFFFFFFFFFFFFFFFFFFFFFFFFFFFFFFFFF AND PUSH2 0x8FC DUP4 SWAP1 DUP2 ISZERO MUL SWAP1 PUSH1 0x40 MLOAD PUSH1 0x0 PUSH1 0x40 MLOAD DUP1 DUP4 SUB DUP2 DUP6 DUP9 DUP9 CALL SWAP4 POP POP POP POP ISZERO DUP1 ISZERO PUSH2 0x138D JUMPI RETURNDATASIZE PUSH1 0x0 DUP1 RETURNDATACOPY RETURNDATASIZE PUSH1 0x0 REVERT JUMPDEST POP POP POP POP POP POP JUMP JUMPDEST PUSH1 0x0 DUP3 GT PUSH2 0x13D8 JUMPI PUSH1 0x40 MLOAD PUSH32 0x8C379A000000000000000000000000000000000000000000000000000000000 DUP2 MSTORE PUSH1 0x4 ADD PUSH2 0x13CF SWAP1 PUSH2 0x2D37 JUMP JUMPDEST PUSH1 0x40 MLOAD DUP1 SWAP2 SUB SWAP1 REVERT JUMPDEST PUSH1 0x0 PUSH1 0x5 PUSH1 0x0 DUP6 DUP2 MSTORE PUSH1 0x20 ADD SWAP1 DUP2 MSTORE PUSH1 0x20 ADD PUSH1 0x0 KECCAK256 SWAP1 POP PUSH1 0x0 DUP2 PUSH1 0x5 ADD SLOAD GT PUSH2 0x1436 JUMPI PUSH1 0x40 MLOAD PUSH32 0x8C379A000000000000000000000000000000000000000000000000000000000 DUP2 MSTORE PUSH1 0x4 ADD PUSH2 0x142D SWAP1 PUSH2 0x2DA3 JUMP JUMPDEST PUSH1 0x40 MLOAD DUP1 SWAP2 SUB SWAP1 REVERT JUMPDEST PUSH1 0x0 DUP2 PUSH1 0x4 ADD SLOAD SUB PUSH2 0x147D JUMPI PUSH1 0x40 MLOAD PUSH32 0x8C379A000000000000000000000000000000000000000000000000000000000 DUP2 MSTORE PUSH1 0x4 ADD PUSH2 0x1474 SWAP1 PUSH2 0x2E0F JUMP JUMPDEST PUSH1 0x40 MLOAD DUP1 SWAP2 SUB SWAP1 REVERT JUMPDEST DUP1 PUSH1 0x0 ADD PUSH1 0x0 SWAP1 SLOAD SWAP1 PUSH2 0x100 EXP SWAP1 DIV PUSH1 0xFF AND ISZERO PUSH2 0x14CF JUMPI PUSH1 0x40 MLOAD PUSH32 0x8C379A000000000000000000000000000000000000000000000000000000000 DUP2 MSTORE PUSH1 0x4 ADD PUSH2 0x14C6 SWAP1 PUSH2 0x2EA1 JUMP JUMPDEST PUSH1 0x40 MLOAD DUP1 SWAP2 SUB SWAP1 REVERT JUMPDEST DUP1 PUSH1 0x5 ADD SLOAD TIMESTAMP GT PUSH2 0x1515 JUMPI PUSH1 0x40 MLOAD PUSH32 0x8C379A000000000000000000000000000000000000000000000000000000000 DUP2 MSTORE PUSH1 0x4 ADD PUSH2 0x150C SWAP1 PUSH2 0x2F33 JUMP JUMPDEST PUSH1 0x40 MLOAD DUP1 SWAP2 SUB SWAP1 REVERT JUMPDEST PUSH1 0x2 SLOAD DUP2 PUSH1 0x3 ADD SLOAD DUP3 PUSH1 0x4 ADD SLOAD PUSH2 0x152C SWAP2 SWAP1 PUSH2 0x2ADC JUMP JUMPDEST PUSH2 0x1536 SWAP2 SWAP1 PUSH2 0x285D JUMP JUMPDEST TIMESTAMP LT PUSH2 0x1577 JUMPI PUSH1 0x40 MLOAD PUSH32 0x8C379A000000000000000000000000000000000000000000000000000000000 DUP2 MSTORE PUSH1 0x4 ADD PUSH2 0x156E SWAP1 PUSH2 0x2F9F JUMP JUMPDEST PUSH1 0x40 MLOAD DUP1 SWAP2 SUB SWAP1 REVERT JUMPDEST DUP3 CALLVALUE LT ISZERO PUSH2 0x15BA JUMPI PUSH1 0x40 MLOAD PUSH32 0x8C379A000000000000000000000000000000000000000000000000000000000 DUP2 MSTORE PUSH1 0x4 ADD PUSH2 0x15B1 SWAP1 PUSH2 0x300B JUMP JUMPDEST PUSH1 0x40 MLOAD DUP1 SWAP2 SUB SWAP1 REVERT JUMPDEST DUP1 PUSH1 0x6 ADD SLOAD DUP3 SUB PUSH2 0x15E5 JUMPI DUP3 DUP2 PUSH1 0x8 ADD PUSH1 0x0 DUP3 DUP3 SLOAD PUSH2 0x15D9 SWAP2 SWAP1 PUSH2 0x2ADC JUMP JUMPDEST SWAP3 POP POP DUP2 SWAP1 SSTORE POP PUSH2 0x16C2 JUMP JUMPDEST DUP1 PUSH1 0x7 ADD SLOAD DUP3 SUB PUSH2 0x1610 JUMPI DUP3 DUP2 PUSH1 0x9 ADD PUSH1 0x0 DUP3 DUP3 SLOAD PUSH2 0x1604 SWAP2 SWAP1 PUSH2 0x2ADC JUMP JUMPDEST SWAP3 POP POP DUP2 SWAP1 SSTORE POP PUSH2 0x16C1 JUMP JUMPDEST PUSH1 0x0 DUP2 PUSH1 0x6 ADD SLOAD EQ DUP1 PUSH2 0x1627 JUMPI POP PUSH1 0x0 DUP2 PUSH1 0x7 ADD SLOAD EQ JUMPDEST PUSH2 0x1666 JUMPI PUSH1 0x40 MLOAD PUSH32 0x8C379A000000000000000000000000000000000000000000000000000000000 DUP2 MSTORE PUSH1 0x4 ADD PUSH2 0x165D SWAP1 PUSH2 0x3077 JUMP JUMPDEST PUSH1 0x40 MLOAD DUP1 SWAP2 SUB SWAP1 REVERT JUMPDEST PUSH1 0x0 DUP2 PUSH1 0x6 ADD SLOAD SUB PUSH2 0x169B JUMPI DUP2 DUP2 PUSH1 0x6 ADD DUP2 SWAP1 SSTORE POP DUP3 DUP2 PUSH1 0x8 ADD PUSH1 0x0 DUP3 DUP3 SLOAD PUSH2 0x168F SWAP2 SWAP1 PUSH2 0x2ADC JUMP JUMPDEST SWAP3 POP POP DUP2 SWAP1 SSTORE POP PUSH2 0x16C0 JUMP JUMPDEST DUP2 DUP2 PUSH1 0x7 ADD DUP2 SWAP1 SSTORE POP DUP3 DUP2 PUSH1 0x9 ADD PUSH1 0x0 DUP3 DUP3 SLOAD PUSH2 0x16B8 SWAP2 SWAP1 PUSH2 0x2ADC JUMP JUMPDEST SWAP3 POP POP DUP2 SWAP1 SSTORE POP JUMPDEST JUMPDEST JUMPDEST PUSH1 0x0 PUSH1 0x6 PUSH1 0x0 DUP7 DUP2 MSTORE PUSH1 0x20 ADD SWAP1 DUP2 MSTORE PUSH1 0x20 ADD PUSH1 0x0 KECCAK256 PUSH1 0x0 CALLER PUSH20 0xFFFFFFFFFFFFFFFFFFFFFFFFFFFFFFFFFFFFFFFF AND PUSH20 0xFFFFFFFFFFFFFFFFFFFFFFFFFFFFFFFFFFFFFFFF AND DUP2 MSTORE PUSH1 0x20 ADD SWAP1 DUP2 MSTORE PUSH1 0x20 ADD PUSH1 0x0 KECCAK256 PUSH1 0x0 DUP5 DUP2 MSTORE PUSH1 0x20 ADD SWAP1 DUP2 MSTORE PUSH1 0x20 ADD PUSH1 0x0 KECCAK256 SWAP1 POP PUSH1 0x0 DUP2 PUSH1 0x2 ADD SLOAD GT ISZERO PUSH2 0x1754 JUMPI DUP4 DUP2 PUSH1 0x2 ADD PUSH1 0x0 DUP3 DUP3 SLOAD PUSH2 0x1748 SWAP2 SWAP1 PUSH2 0x2ADC JUMP JUMPDEST SWAP3 POP POP DUP2 SWAP1 SSTORE POP PUSH2 0x188F JUMP JUMPDEST PUSH1 0x40 MLOAD DUP1 PUSH1 0xC0 ADD PUSH1 0x40 MSTORE DUP1 DUP7 DUP2 MSTORE PUSH1 0x20 ADD CALLER PUSH20 0xFFFFFFFFFFFFFFFFFFFFFFFFFFFFFFFFFFFFFFFF AND DUP2 MSTORE PUSH1 0x20 ADD DUP6 DUP2 MSTORE PUSH1 0x20 ADD PUSH1 0x0 DUP2 MSTORE PUSH1 0x20 ADD DUP5 DUP2 MSTORE PUSH1 0x20 ADD PUSH1 0x0 ISZERO ISZERO DUP2 MSTORE POP PUSH1 0x6 PUSH1 0x0 DUP8 DUP2 MSTORE PUSH1 0x20 ADD SWAP1 DUP2 MSTORE PUSH1 0x20 ADD PUSH1 0x0 KECCAK256 PUSH1 0x0 CALLER PUSH20 0xFFFFFFFFFFFFFFFFFFFFFFFFFFFFFFFFFFFFFFFF AND PUSH20 0xFFFFFFFFFFFFFFFFFFFFFFFFFFFFFFFFFFFFFFFF AND DUP2 MSTORE PUSH1 0x20 ADD SWAP1 DUP2 MSTORE PUSH1 0x20 ADD PUSH1 0x0 KECCAK256 PUSH1 0x0 DUP6 DUP2 MSTORE PUSH1 0x20 ADD SWAP1 DUP2 MSTORE PUSH1 0x20 ADD PUSH1 0x0 KECCAK256 PUSH1 0x0 DUP3 ADD MLOAD DUP2 PUSH1 0x0 ADD SSTORE PUSH1 0x20 DUP3 ADD MLOAD DUP2 PUSH1 0x1 ADD PUSH1 0x0 PUSH2 0x100 EXP DUP2 SLOAD DUP2 PUSH20 0xFFFFFFFFFFFFFFFFFFFFFFFFFFFFFFFFFFFFFFFF MUL NOT AND SWAP1 DUP4 PUSH20 0xFFFFFFFFFFFFFFFFFFFFFFFFFFFFFFFFFFFFFFFF AND MUL OR SWAP1 SSTORE POP PUSH1 0x40 DUP3 ADD MLOAD DUP2 PUSH1 0x2 ADD SSTORE PUSH1 0x60 DUP3 ADD MLOAD DUP2 PUSH1 0x3 ADD SSTORE PUSH1 0x80 DUP3 ADD MLOAD DUP2 PUSH1 0x4 ADD SSTORE PUSH1 0xA0 DUP3 ADD MLOAD DUP2 PUSH1 0x5 ADD PUSH1 0x0 PUSH2 0x100 EXP DUP2 SLOAD DUP2 PUSH1 0xFF MUL NOT AND SWAP1 DUP4 ISZERO ISZERO MUL OR SWAP1 SSTORE POP SWAP1 POP POP JUMPDEST PUSH1 0x0 DUP1 JUMPDEST PUSH1 0x7 PUSH1 0x0 DUP9 DUP2 MSTORE PUSH1 0x20 ADD SWAP1 DUP2 MSTORE PUSH1 0x20 ADD PUSH1 0x0 KECCAK256 DUP1 SLOAD SWAP1 POP DUP2 LT ISZERO PUSH2 0x1949 JUMPI CALLER PUSH20 0xFFFFFFFFFFFFFFFFFFFFFFFFFFFFFFFFFFFFFFFF AND PUSH1 0x7 PUSH1 0x0 DUP10 DUP2 MSTORE PUSH1 0x20 ADD SWAP1 DUP2 MSTORE PUSH1 0x20 ADD PUSH1 0x0 KECCAK256 DUP3 DUP2 SLOAD DUP2 LT PUSH2 0x18ED JUMPI PUSH2 0x18EC PUSH2 0x2782 JUMP JUMPDEST JUMPDEST SWAP1 PUSH1 0x0 MSTORE PUSH1 0x20 PUSH1 0x0 KECCAK256 ADD PUSH1 0x0 SWAP1 SLOAD SWAP1 PUSH2 0x100 EXP SWAP1 DIV PUSH20 0xFFFFFFFFFFFFFFFFFFFFFFFFFFFFFFFFFFFFFFFF AND PUSH20 0xFFFFFFFFFFFFFFFFFFFFFFFFFFFFFFFFFFFFFFFF AND SUB PUSH2 0x193C JUMPI PUSH1 0x1 SWAP2 POP PUSH2 0x1949 JUMP JUMPDEST DUP1 DUP1 PUSH1 0x1 ADD SWAP2 POP POP PUSH2 0x1893 JUMP JUMPDEST POP DUP1 PUSH2 0x19C4 JUMPI PUSH1 0x7 PUSH1 0x0 DUP8 DUP2 MSTORE PUSH1 0x20 ADD SWAP1 DUP2 MSTORE PUSH1 0x20 ADD PUSH1 0x0 KECCAK256 CALLER SWAP1 DUP1 PUSH1 0x1 DUP2 SLOAD ADD DUP1 DUP3 SSTORE DUP1 SWAP2 POP POP PUSH1 0x1 SWAP1 SUB SWAP1 PUSH1 0x0 MSTORE PUSH1 0x20 PUSH1 0x0 KECCAK256 ADD PUSH1 0x0 SWAP1 SWAP2 SWAP1 SWAP2 SWAP1 SWAP2 PUSH2 0x100 EXP DUP2 SLOAD DUP2 PUSH20 0xFFFFFFFFFFFFFFFFFFFFFFFFFFFFFFFFFFFFFFFF MUL NOT AND SWAP1 DUP4 PUSH20 0xFFFFFFFFFFFFFFFFFFFFFFFFFFFFFFFFFFFFFFFF AND MUL OR SWAP1 SSTORE POP JUMPDEST CALLER PUSH20 0xFFFFFFFFFFFFFFFFFFFFFFFFFFFFFFFFFFFFFFFF AND DUP7 PUSH32 0xAB2115BAC1DE808EB7FE2BE0309085B11F1F42B1EB980DE8352EFEFDBFC098E2 DUP7 DUP9 DUP8 PUSH1 0x2 ADD SLOAD PUSH1 0x40 MLOAD PUSH2 0x1A13 SWAP4 SWAP3 SWAP2 SWAP1 PUSH2 0x3097 JUMP JUMPDEST PUSH1 0x40 MLOAD DUP1 SWAP2 SUB SWAP1 LOG3 POP POP POP POP POP POP JUMP JUMPDEST PUSH2 0x1A2B PUSH2 0x20E3 JUMP JUMPDEST PUSH1 0x0 PUSH20 0xFFFFFFFFFFFFFFFFFFFFFFFFFFFFFFFFFFFFFFFF AND DUP2 PUSH20 0xFFFFFFFFFFFFFFFFFFFFFFFFFFFFFFFFFFFFFFFF AND SUB PUSH2 0x1A9D JUMPI PUSH1 0x0 PUSH1 0x40 MLOAD PUSH32 0x1E4FBDF700000000000000000000000000000000000000000000000000000000 DUP2 MSTORE PUSH1 0x4 ADD PUSH2 0x1A94 SWAP2 SWAP1 PUSH2 0x2397 JUMP JUMPDEST PUSH1 0x40 MLOAD DUP1 SWAP2 SUB SWAP1 REVERT JUMPDEST PUSH2 0x1AA6 DUP2 PUSH2 0x2174 JUMP JUMPDEST POP JUMP JUMPDEST PUSH1 0x0 DUP1 JUMPDEST PUSH1 0x4 DUP1 SLOAD SWAP1 POP DUP2 LT ISZERO PUSH2 0x1B41 JUMPI CALLER PUSH20 0xFFFFFFFFFFFFFFFFFFFFFFFFFFFFFFFFFFFFFFFF AND PUSH1 0x4 DUP3 DUP2 SLOAD DUP2 LT PUSH2 0x1AE5 JUMPI PUSH2 0x1AE4 PUSH2 0x2782 JUMP JUMPDEST JUMPDEST SWAP1 PUSH1 0x0 MSTORE PUSH1 0x20 PUSH1 0x0 KECCAK256 ADD PUSH1 0x0 SWAP1 SLOAD SWAP1 PUSH2 0x100 EXP SWAP1 DIV PUSH20 0xFFFFFFFFFFFFFFFFFFFFFFFFFFFFFFFFFFFFFFFF AND PUSH20 0xFFFFFFFFFFFFFFFFFFFFFFFFFFFFFFFFFFFFFFFF AND SUB PUSH2 0x1B34 JUMPI PUSH1 0x1 SWAP2 POP PUSH2 0x1B41 JUMP JUMPDEST DUP1 DUP1 PUSH1 0x1 ADD SWAP2 POP POP PUSH2 0x1AAD JUMP JUMPDEST POP DUP1 PUSH2 0x1B82 JUMPI PUSH1 0x40 MLOAD PUSH32 0x8C379A000000000000000000000000000000000000000000000000000000000 DUP2 MSTORE PUSH1 0x4 ADD PUSH2 0x1B79 SWAP1 PUSH2 0x280E JUMP JUMPDEST PUSH1 0x40 MLOAD DUP1 SWAP2 SUB SWAP1 REVERT JUMPDEST PUSH1 0x0 PUSH1 0x5 PUSH1 0x0 DUP11 DUP2 MSTORE PUSH1 0x20 ADD SWAP1 DUP2 MSTORE PUSH1 0x20 ADD PUSH1 0x0 KECCAK256 SWAP1 POP PUSH1 0x0 DUP2 PUSH1 0x6 ADD SLOAD EQ DUP1 ISZERO PUSH2 0x1BB1 JUMPI POP PUSH1 0x0 DUP2 PUSH1 0x7 ADD SLOAD EQ JUMPDEST PUSH2 0x1BF0 JUMPI PUSH1 0x40 MLOAD PUSH32 0x8C379A000000000000000000000000000000000000000000000000000000000 DUP2 MSTORE PUSH1 0x4 ADD PUSH2 0x1BE7 SWAP1 PUSH2 0x311A JUMP JUMPDEST PUSH1 0x40 MLOAD DUP1 SWAP2 SUB SWAP1 REVERT JUMPDEST DUP5 DUP4 DUP6 PUSH2 0x1BFD SWAP2 SWAP1 PUSH2 0x2ADC JUMP JUMPDEST GT PUSH2 0x1C3D JUMPI PUSH1 0x40 MLOAD PUSH32 0x8C379A000000000000000000000000000000000000000000000000000000000 DUP2 MSTORE PUSH1 0x4 ADD PUSH2 0x1C34 SWAP1 PUSH2 0x31AC JUMP JUMPDEST PUSH1 0x40 MLOAD DUP1 SWAP2 SUB SWAP1 REVERT JUMPDEST DUP8 DUP2 PUSH1 0x6 ADD DUP2 SWAP1 SSTORE POP DUP7 DUP2 PUSH1 0x7 ADD DUP2 SWAP1 SSTORE POP PUSH1 0x0 DUP7 SUB PUSH2 0x1C67 JUMPI PUSH1 0x1 SLOAD DUP2 PUSH1 0x2 ADD DUP2 SWAP1 SSTORE POP PUSH2 0x1C71 JUMP JUMPDEST DUP6 DUP2 PUSH1 0x2 ADD DUP2 SWAP1 SSTORE POP JUMPDEST DUP5 DUP2 PUSH1 0x5 ADD DUP2 SWAP1 SSTORE POP DUP4 DUP2 PUSH1 0x4 ADD DUP2 SWAP1 SSTORE POP DUP3 DUP2 PUSH1 0x3 ADD DUP2 SWAP1 SSTORE POP DUP9 PUSH32 0x74245C13FA29018D2E3827A29B9F092A79B7D948264385DCA981D1D6BA38A76F DUP10 DUP10 DUP10 DUP10 DUP10 DUP10 PUSH1 0x40 MLOAD PUSH2 0x1CC6 SWAP7 SWAP6 SWAP5 SWAP4 SWAP3 SWAP2 SWAP1 PUSH2 0x2C1E JUMP JUMPDEST PUSH1 0x40 MLOAD DUP1 SWAP2 SUB SWAP1 LOG2 POP POP POP POP POP POP POP POP POP JUMP JUMPDEST PUSH1 0x0 PUSH1 0x5 PUSH1 0x0 DUP4 DUP2 MSTORE PUSH1 0x20 ADD SWAP1 DUP2 MSTORE PUSH1 0x20 ADD PUSH1 0x0 KECCAK256 SWAP1 POP DUP1 PUSH1 0x0 ADD PUSH1 0x0 SWAP1 SLOAD SWAP1 PUSH2 0x100 EXP SWAP1 DIV PUSH1 0xFF AND PUSH2 0x1D41 JUMPI PUSH1 0x40 MLOAD PUSH32 0x8C379A000000000000000000000000000000000000000000000000000000000 DUP2 MSTORE PUSH1 0x4 ADD PUSH2 0x1D38 SWAP1 PUSH2 0x2CCB JUMP JUMPDEST PUSH1 0x40 MLOAD DUP1 SWAP2 SUB SWAP1 REVERT JUMPDEST PUSH1 0x0 DUP1 JUMPDEST PUSH1 0x7 PUSH1 0x0 DUP6 DUP2 MSTORE PUSH1 0x20 ADD SWAP1 DUP2 MSTORE PUSH1 0x20 ADD PUSH1 0x0 KECCAK256 DUP1 SLOAD SWAP1 POP DUP2 LT ISZERO PUSH2 0x1DFB JUMPI CALLER PUSH20 0xFFFFFFFFFFFFFFFFFFFFFFFFFFFFFFFFFFFFFFFF AND PUSH1 0x7 PUSH1 0x0 DUP7 DUP2 MSTORE PUSH1 0x20 ADD SWAP1 DUP2 MSTORE PUSH1 0x20 ADD PUSH1 0x0 KECCAK256 DUP3 DUP2 SLOAD DUP2 LT PUSH2 0x1D9F JUMPI PUSH2 0x1D9E PUSH2 0x2782 JUMP JUMPDEST JUMPDEST SWAP1 PUSH1 0x0 MSTORE PUSH1 0x20 PUSH1 0x0 KECCAK256 ADD PUSH1 0x0 SWAP1 SLOAD SWAP1 PUSH2 0x100 EXP SWAP1 DIV PUSH20 0xFFFFFFFFFFFFFFFFFFFFFFFFFFFFFFFFFFFFFFFF AND PUSH20 0xFFFFFFFFFFFFFFFFFFFFFFFFFFFFFFFFFFFFFFFF AND SUB PUSH2 0x1DEE JUMPI PUSH1 0x1 SWAP2 POP PUSH2 0x1DFB JUMP JUMPDEST DUP1 DUP1 PUSH1 0x1 ADD SWAP2 POP POP PUSH2 0x1D45 JUMP JUMPDEST POP DUP1 PUSH2 0x1E3C JUMPI PUSH1 0x40 MLOAD PUSH32 0x8C379A000000000000000000000000000000000000000000000000000000000 DUP2 MSTORE PUSH1 0x4 ADD PUSH2 0x1E33 SWAP1 PUSH2 0x323E JUMP JUMPDEST PUSH1 0x40 MLOAD DUP1 SWAP2 SUB SWAP1 REVERT JUMPDEST PUSH1 0x0 DUP3 PUSH1 0x1 ADD SLOAD SWAP1 POP PUSH1 0x0 PUSH1 0x6 PUSH1 0x0 DUP7 DUP2 MSTORE PUSH1 0x20 ADD SWAP1 DUP2 MSTORE PUSH1 0x20 ADD PUSH1 0x0 KECCAK256 PUSH1 0x0 CALLER PUSH20 0xFFFFFFFFFFFFFFFFFFFFFFFFFFFFFFFFFFFFFFFF AND PUSH20 0xFFFFFFFFFFFFFFFFFFFFFFFFFFFFFFFFFFFFFFFF AND DUP2 MSTORE PUSH1 0x20 ADD SWAP1 DUP2 MSTORE PUSH1 0x20 ADD PUSH1 0x0 KECCAK256 PUSH1 0x0 DUP4 DUP2 MSTORE PUSH1 0x20 ADD SWAP1 DUP2 MSTORE PUSH1 0x20 ADD PUSH1 0x0 KECCAK256 SWAP1 POP DUP1 PUSH1 0x5 ADD PUSH1 0x0 SWAP1 SLOAD SWAP1 PUSH2 0x100 EXP SWAP1 DIV PUSH1 0xFF AND ISZERO PUSH2 0x1EFC JUMPI PUSH1 0x40 MLOAD PUSH32 0x8C379A000000000000000000000000000000000000000000000000000000000 DUP2 MSTORE PUSH1 0x4 ADD PUSH2 0x1EF3 SWAP1 PUSH2 0x32D0 JUMP JUMPDEST PUSH1 0x40 MLOAD DUP1 SWAP2 SUB SWAP1 REVERT JUMPDEST PUSH1 0x0 DUP2 PUSH1 0x3 ADD SLOAD GT PUSH2 0x1F43 JUMPI PUSH1 0x40 MLOAD PUSH32 0x8C379A000000000000000000000000000000000000000000000000000000000 DUP2 MSTORE PUSH1 0x4 ADD PUSH2 0x1F3A SWAP1 PUSH2 0x333C JUMP JUMPDEST PUSH1 0x40 MLOAD DUP1 SWAP2 SUB SWAP1 REVERT JUMPDEST PUSH1 0x0 PUSH2 0x1F4E CALLER PUSH2 0x216A JUMP JUMPDEST SWAP1 POP DUP2 PUSH1 0x3 ADD SLOAD SELFBALANCE LT ISZERO PUSH2 0x1F97 JUMPI PUSH1 0x40 MLOAD PUSH32 0x8C379A000000000000000000000000000000000000000000000000000000000 DUP2 MSTORE PUSH1 0x4 ADD PUSH2 0x1F8E SWAP1 PUSH2 0x29E4 JUMP JUMPDEST PUSH1 0x40 MLOAD DUP1 SWAP2 SUB SWAP1 REVERT JUMPDEST DUP1 PUSH20 0xFFFFFFFFFFFFFFFFFFFFFFFFFFFFFFFFFFFFFFFF AND PUSH2 0x8FC DUP4 PUSH1 0x3 ADD SLOAD SWAP1 DUP2 ISZERO MUL SWAP1 PUSH1 0x40 MLOAD PUSH1 0x0 PUSH1 0x40 MLOAD DUP1 DUP4 SUB DUP2 DUP6 DUP9 DUP9 CALL SWAP4 POP POP POP POP ISZERO DUP1 ISZERO PUSH2 0x1FE1 JUMPI RETURNDATASIZE PUSH1 0x0 DUP1 RETURNDATACOPY RETURNDATASIZE PUSH1 0x0 REVERT JUMPDEST POP PUSH1 0x1 DUP3 PUSH1 0x5 ADD PUSH1 0x0 PUSH2 0x100 EXP DUP2 SLOAD DUP2 PUSH1 0xFF MUL NOT AND SWAP1 DUP4 ISZERO ISZERO MUL OR SWAP1 SSTORE POP CALLER PUSH20 0xFFFFFFFFFFFFFFFFFFFFFFFFFFFFFFFFFFFFFFFF AND DUP7 PUSH32 0x4EED845A8C2DAB6B8F3276326563AE95A67314D068314298838CC3246BB3E3E0 DUP5 PUSH1 0x4 ADD SLOAD DUP6 PUSH1 0x3 ADD SLOAD PUSH1 0x40 MLOAD PUSH2 0x2050 SWAP3 SWAP2 SWAP1 PUSH2 0x335C JUMP JUMPDEST PUSH1 0x40 MLOAD DUP1 SWAP2 SUB SWAP1 LOG3 POP POP POP POP POP POP JUMP JUMPDEST PUSH1 0x6 PUSH1 0x20 MSTORE DUP3 PUSH1 0x0 MSTORE PUSH1 0x40 PUSH1 0x0 KECCAK256 PUSH1 0x20 MSTORE DUP2 PUSH1 0x0 MSTORE PUSH1 0x40 PUSH1 0x0 KECCAK256 PUSH1 0x20 MSTORE DUP1 PUSH1 0x0 MSTORE PUSH1 0x40 PUSH1 0x0 KECCAK256 PUSH1 0x0 SWAP3 POP SWAP3 POP POP POP DUP1 PUSH1 0x0 ADD SLOAD SWAP1 DUP1 PUSH1 0x1 ADD PUSH1 0x0 SWAP1 SLOAD SWAP1 PUSH2 0x100 EXP SWAP1 DIV PUSH20 0xFFFFFFFFFFFFFFFFFFFFFFFFFFFFFFFFFFFFFFFF AND SWAP1 DUP1 PUSH1 0x2 ADD SLOAD SWAP1 DUP1 PUSH1 0x3 ADD SLOAD SWAP1 DUP1 PUSH1 0x4 ADD SLOAD SWAP1 DUP1 PUSH1 0x5 ADD PUSH1 0x0 SWAP1 SLOAD SWAP1 PUSH2 0x100 EXP SWAP1 DIV PUSH1 0xFF AND SWAP1 POP DUP7 JUMP JUMPDEST PUSH2 0x20EB PUSH2 0x2238 JUMP JUMPDEST PUSH20 0xFFFFFFFFFFFFFFFFFFFFFFFFFFFFFFFFFFFFFFFF AND PUSH2 0x2109 PUSH2 0xB3C JUMP JUMPDEST PUSH20 0xFFFFFFFFFFFFFFFFFFFFFFFFFFFFFFFFFFFFFFFF AND EQ PUSH2 0x2168 JUMPI PUSH2 0x212C PUSH2 0x2238 JUMP JUMPDEST PUSH1 0x40 MLOAD PUSH32 0x118CDAA700000000000000000000000000000000000000000000000000000000 DUP2 MSTORE PUSH1 0x4 ADD PUSH2 0x215F SWAP2 SWAP1 PUSH2 0x2397 JUMP JUMPDEST PUSH1 0x40 MLOAD DUP1 SWAP2 SUB SWAP1 REVERT JUMPDEST JUMP JUMPDEST PUSH1 0x0 DUP2 SWAP1 POP SWAP2 SWAP1 POP JUMP JUMPDEST PUSH1 0x0 DUP1 PUSH1 0x0 SWAP1 SLOAD SWAP1 PUSH2 0x100 EXP SWAP1 DIV PUSH20 0xFFFFFFFFFFFFFFFFFFFFFFFFFFFFFFFFFFFFFFFF AND SWAP1 POP DUP2 PUSH1 0x0 DUP1 PUSH2 0x100 EXP DUP2 SLOAD DUP2 PUSH20 0xFFFFFFFFFFFFFFFFFFFFFFFFFFFFFFFFFFFFFFFF MUL NOT AND SWAP1 DUP4 PUSH20 0xFFFFFFFFFFFFFFFFFFFFFFFFFFFFFFFFFFFFFFFF AND MUL OR SWAP1 SSTORE POP DUP2 PUSH20 0xFFFFFFFFFFFFFFFFFFFFFFFFFFFFFFFFFFFFFFFF AND DUP2 PUSH20 0xFFFFFFFFFFFFFFFFFFFFFFFFFFFFFFFFFFFFFFFF AND PUSH32 0x8BE0079C531659141344CD1FD0A4F28419497F9722A3DAAFE3B4186F6B6457E0 PUSH1 0x40 MLOAD PUSH1 0x40 MLOAD DUP1 SWAP2 SUB SWAP1 LOG3 POP POP JUMP JUMPDEST PUSH1 0x0 CALLER SWAP1 POP SWAP1 JUMP JUMPDEST PUSH1 0x40 MLOAD DUP1 PUSH2 0x140 ADD PUSH1 0x40 MSTORE DUP1 PUSH1 0x0 ISZERO ISZERO DUP2 MSTORE PUSH1 0x20 ADD PUSH1 0x0 DUP2 MSTORE PUSH1 0x20 ADD PUSH1 0x0 DUP2 MSTORE PUSH1 0x20 ADD PUSH1 0x0 DUP2 MSTORE PUSH1 0x20 ADD PUSH1 0x0 DUP2 MSTORE PUSH1 0x20 ADD PUSH1 0x0 DUP2 MSTORE PUSH1 0x20 ADD PUSH1 0x0 DUP2 MSTORE PUSH1 0x20 ADD PUSH1 0x0 DUP2 MSTORE PUSH1 0x20 ADD PUSH1 0x0 DUP2 MSTORE PUSH1 0x20 ADD PUSH1 0x0 DUP2 MSTORE POP SWAP1 JUMP JUMPDEST PUSH1 0x0 DUP1 REVERT JUMPDEST PUSH1 0x0 PUSH20 0xFFFFFFFFFFFFFFFFFFFFFFFFFFFFFFFFFFFFFFFF DUP3 AND SWAP1 POP SWAP2 SWAP1 POP JUMP JUMPDEST PUSH1 0x0 PUSH2 0x22C5 DUP3 PUSH2 0x229A JUMP JUMPDEST SWAP1 POP SWAP2 SWAP1 POP JUMP JUMPDEST PUSH2 0x22D5 DUP2 PUSH2 0x22BA JUMP JUMPDEST DUP2 EQ PUSH2 0x22E0 JUMPI PUSH1 0x0 DUP1 REVERT JUMPDEST POP JUMP JUMPDEST PUSH1 0x0 DUP2 CALLDATALOAD SWAP1 POP PUSH2 0x22F2 DUP2 PUSH2 0x22CC JUMP JUMPDEST SWAP3 SWAP2 POP POP JUMP JUMPDEST PUSH1 0x0 PUSH1 0x20 DUP3 DUP5 SUB SLT ISZERO PUSH2 0x230E JUMPI PUSH2 0x230D PUSH2 0x2295 JUMP JUMPDEST JUMPDEST PUSH1 0x0 PUSH2 0x231C DUP5 DUP3 DUP6 ADD PUSH2 0x22E3 JUMP JUMPDEST SWAP2 POP POP SWAP3 SWAP2 POP POP JUMP JUMPDEST PUSH1 0x0 DUP2 SWAP1 POP SWAP2 SWAP1 POP JUMP JUMPDEST PUSH2 0x2338 DUP2 PUSH2 0x2325 JUMP JUMPDEST DUP2 EQ PUSH2 0x2343 JUMPI PUSH1 0x0 DUP1 REVERT JUMPDEST POP JUMP JUMPDEST PUSH1 0x0 DUP2 CALLDATALOAD SWAP1 POP PUSH2 0x2355 DUP2 PUSH2 0x232F JUMP JUMPDEST SWAP3 SWAP2 POP POP JUMP JUMPDEST PUSH1 0x0 PUSH1 0x20 DUP3 DUP5 SUB SLT ISZERO PUSH2 0x2371 JUMPI PUSH2 0x2370 PUSH2 0x2295 JUMP JUMPDEST JUMPDEST PUSH1 0x0 PUSH2 0x237F DUP5 DUP3 DUP6 ADD PUSH2 0x2346 JUMP JUMPDEST SWAP2 POP POP SWAP3 SWAP2 POP POP JUMP JUMPDEST PUSH2 0x2391 DUP2 PUSH2 0x22BA JUMP JUMPDEST DUP3 MSTORE POP POP JUMP JUMPDEST PUSH1 0x0 PUSH1 0x20 DUP3 ADD SWAP1 POP PUSH2 0x23AC PUSH1 0x0 DUP4 ADD DUP5 PUSH2 0x2388 JUMP JUMPDEST SWAP3 SWAP2 POP POP JUMP JUMPDEST PUSH1 0x0 DUP2 ISZERO ISZERO SWAP1 POP SWAP2 SWAP1 POP JUMP JUMPDEST PUSH2 0x23C7 DUP2 PUSH2 0x23B2 JUMP JUMPDEST DUP3 MSTORE POP POP JUMP JUMPDEST PUSH2 0x23D6 DUP2 PUSH2 0x2325 JUMP JUMPDEST DUP3 MSTORE POP POP JUMP JUMPDEST PUSH1 0x0 PUSH2 0x140 DUP3 ADD SWAP1 POP PUSH2 0x23F2 PUSH1 0x0 DUP4 ADD DUP14 PUSH2 0x23BE JUMP JUMPDEST PUSH2 0x23FF PUSH1 0x20 DUP4 ADD DUP13 PUSH2 0x23CD JUMP JUMPDEST PUSH2 0x240C PUSH1 0x40 DUP4 ADD DUP12 PUSH2 0x23CD JUMP JUMPDEST PUSH2 0x2419 PUSH1 0x60 DUP4 ADD DUP11 PUSH2 0x23CD JUMP JUMPDEST PUSH2 0x2426 PUSH1 0x80 DUP4 ADD DUP10 PUSH2 0x23CD JUMP JUMPDEST PUSH2 0x2433 PUSH1 0xA0 DUP4 ADD DUP9 PUSH2 0x23CD JUMP JUMPDEST PUSH2 0x2440 PUSH1 0xC0 DUP4 ADD DUP8 PUSH2 0x23CD JUMP JUMPDEST PUSH2 0x244D PUSH1 0xE0 DUP4 ADD DUP7 PUSH2 0x23CD JUMP JUMPDEST PUSH2 0x245B PUSH2 0x100 DUP4 ADD DUP6 PUSH2 0x23CD JUMP JUMPDEST PUSH2 0x2469 PUSH2 0x120 DUP4 ADD DUP5 PUSH2 0x23CD JUMP JUMPDEST SWAP12 SWAP11 POP POP POP POP POP POP POP POP POP POP POP JUMP JUMPDEST PUSH1 0x0 PUSH1 0x20 DUP3 ADD SWAP1 POP PUSH2 0x248D PUSH1 0x0 DUP4 ADD DUP5 PUSH2 0x23CD JUMP JUMPDEST SWAP3 SWAP2 POP POP JUMP JUMPDEST PUSH2 0x249C DUP2 PUSH2 0x23B2 JUMP JUMPDEST DUP3 MSTORE POP POP JUMP JUMPDEST PUSH2 0x24AB DUP2 PUSH2 0x2325 JUMP JUMPDEST DUP3 MSTORE POP POP JUMP JUMPDEST PUSH2 0x140 DUP3 ADD PUSH1 0x0 DUP3 ADD MLOAD PUSH2 0x24C8 PUSH1 0x0 DUP6 ADD DUP3 PUSH2 0x2493 JUMP JUMPDEST POP PUSH1 0x20 DUP3 ADD MLOAD PUSH2 0x24DB PUSH1 0x20 DUP6 ADD DUP3 PUSH2 0x24A2 JUMP JUMPDEST POP PUSH1 0x40 DUP3 ADD MLOAD PUSH2 0x24EE PUSH1 0x40 DUP6 ADD DUP3 PUSH2 0x24A2 JUMP JUMPDEST POP PUSH1 0x60 DUP3 ADD MLOAD PUSH2 0x2501 PUSH1 0x60 DUP6 ADD DUP3 PUSH2 0x24A2 JUMP JUMPDEST POP PUSH1 0x80 DUP3 ADD MLOAD PUSH2 0x2514 PUSH1 0x80 DUP6 ADD DUP3 PUSH2 0x24A2 JUMP JUMPDEST POP PUSH1 0xA0 DUP3 ADD MLOAD PUSH2 0x2527 PUSH1 0xA0 DUP6 ADD DUP3 PUSH2 0x24A2 JUMP JUMPDEST POP PUSH1 0xC0 DUP3 ADD MLOAD PUSH2 0x253A PUSH1 0xC0 DUP6 ADD DUP3 PUSH2 0x24A2 JUMP JUMPDEST POP PUSH1 0xE0 DUP3 ADD MLOAD PUSH2 0x254D PUSH1 0xE0 DUP6 ADD DUP3 PUSH2 0x24A2 JUMP JUMPDEST POP PUSH2 0x100 DUP3 ADD MLOAD PUSH2 0x2562 PUSH2 0x100 DUP6 ADD DUP3 PUSH2 0x24A2 JUMP JUMPDEST POP PUSH2 0x120 DUP3 ADD MLOAD PUSH2 0x2577 PUSH2 0x120 DUP6 ADD DUP3 PUSH2 0x24A2 JUMP JUMPDEST POP POP POP POP JUMP JUMPDEST PUSH1 0x0 PUSH2 0x140 DUP3 ADD SWAP1 POP PUSH2 0x2593 PUSH1 0x0 DUP4 ADD DUP5 PUSH2 0x24B1 JUMP JUMPDEST SWAP3 SWAP2 POP POP JUMP JUMPDEST PUSH1 0x0 DUP1 PUSH1 0x40 DUP4 DUP6 SUB SLT ISZERO PUSH2 0x25B0 JUMPI PUSH2 0x25AF PUSH2 0x2295 JUMP JUMPDEST JUMPDEST PUSH1 0x0 PUSH2 0x25BE DUP6 DUP3 DUP7 ADD PUSH2 0x2346 JUMP JUMPDEST SWAP3 POP POP PUSH1 0x20 PUSH2 0x25CF DUP6 DUP3 DUP7 ADD PUSH2 0x2346 JUMP JUMPDEST SWAP2 POP POP SWAP3 POP SWAP3 SWAP1 POP JUMP JUMPDEST PUSH1 0x0 DUP1 PUSH1 0x0 DUP1 PUSH1 0x0 DUP1 PUSH1 0x0 PUSH1 0xE0 DUP9 DUP11 SUB SLT ISZERO PUSH2 0x25F8 JUMPI PUSH2 0x25F7 PUSH2 0x2295 JUMP JUMPDEST JUMPDEST PUSH1 0x0 PUSH2 0x2606 DUP11 DUP3 DUP12 ADD PUSH2 0x2346 JUMP JUMPDEST SWAP8 POP POP PUSH1 0x20 PUSH2 0x2617 DUP11 DUP3 DUP12 ADD PUSH2 0x2346 JUMP JUMPDEST SWAP7 POP POP PUSH1 0x40 PUSH2 0x2628 DUP11 DUP3 DUP12 ADD PUSH2 0x2346 JUMP JUMPDEST SWAP6 POP POP PUSH1 0x60 PUSH2 0x2639 DUP11 DUP3 DUP12 ADD PUSH2 0x2346 JUMP JUMPDEST SWAP5 POP POP PUSH1 0x80 PUSH2 0x264A DUP11 DUP3 DUP12 ADD PUSH2 0x2346 JUMP JUMPDEST SWAP4 POP POP PUSH1 0xA0 PUSH2 0x265B DUP11 DUP3 DUP12 ADD PUSH2 0x2346 JUMP JUMPDEST SWAP3 POP POP PUSH1 0xC0 PUSH2 0x266C DUP11 DUP3 DUP12 ADD PUSH2 0x2346 JUMP JUMPDEST SWAP2 POP POP SWAP3 SWAP6 SWAP9 SWAP2 SWAP5 SWAP8 POP SWAP3 SWAP6 POP JUMP JUMPDEST PUSH1 0x0 DUP1 PUSH1 0x0 PUSH1 0x60 DUP5 DUP7 SUB SLT ISZERO PUSH2 0x2694 JUMPI PUSH2 0x2693 PUSH2 0x2295 JUMP JUMPDEST JUMPDEST PUSH1 0x0 PUSH2 0x26A2 DUP7 DUP3 DUP8 ADD PUSH2 0x2346 JUMP JUMPDEST SWAP4 POP POP PUSH1 0x20 PUSH2 0x26B3 DUP7 DUP3 DUP8 ADD PUSH2 0x2346 JUMP JUMPDEST SWAP3 POP POP PUSH1 0x40 PUSH2 0x26C4 DUP7 DUP3 DUP8 ADD PUSH2 0x2346 JUMP JUMPDEST SWAP2 POP POP SWAP3 POP SWAP3 POP SWAP3 JUMP JUMPDEST PUSH1 0x0 DUP1 PUSH1 0x0 PUSH1 0x60 DUP5 DUP7 SUB SLT ISZERO PUSH2 0x26E7 JUMPI PUSH2 0x26E6 PUSH2 0x2295 JUMP JUMPDEST JUMPDEST PUSH1 0x0 PUSH2 0x26F5 DUP7 DUP3 DUP8 ADD PUSH2 0x2346 JUMP JUMPDEST SWAP4 POP POP PUSH1 0x20 PUSH2 0x2706 DUP7 DUP3 DUP8 ADD PUSH2 0x22E3 JUMP JUMPDEST SWAP3 POP POP PUSH1 0x40 PUSH2 0x2717 DUP7 DUP3 DUP8 ADD PUSH2 0x2346 JUMP JUMPDEST SWAP2 POP POP SWAP3 POP SWAP3 POP SWAP3 JUMP JUMPDEST PUSH1 0x0 PUSH1 0xC0 DUP3 ADD SWAP1 POP PUSH2 0x2736 PUSH1 0x0 DUP4 ADD DUP10 PUSH2 0x23CD JUMP JUMPDEST PUSH2 0x2743 PUSH1 0x20 DUP4 ADD DUP9 PUSH2 0x2388 JUMP JUMPDEST PUSH2 0x2750 PUSH1 0x40 DUP4 ADD DUP8 PUSH2 0x23CD JUMP JUMPDEST PUSH2 0x275D PUSH1 0x60 DUP4 ADD DUP7 PUSH2 0x23CD JUMP JUMPDEST PUSH2 0x276A PUSH1 0x80 DUP4 ADD DUP6 PUSH2 0x23CD JUMP JUMPDEST PUSH2 0x2777 PUSH1 0xA0 DUP4 ADD DUP5 PUSH2 0x23BE JUMP JUMPDEST SWAP8 SWAP7 POP POP POP POP POP POP POP JUMP JUMPDEST PUSH32 0x4E487B7100000000000000000000000000000000000000000000000000000000 PUSH1 0x0 MSTORE PUSH1 0x32 PUSH1 0x4 MSTORE PUSH1 0x24 PUSH1 0x0 REVERT JUMPDEST PUSH1 0x0 DUP3 DUP3 MSTORE PUSH1 0x20 DUP3 ADD SWAP1 POP SWAP3 SWAP2 POP POP JUMP JUMPDEST PUSH32 0x4E6F7420616C6C6F776564000000000000000000000000000000000000000000 PUSH1 0x0 DUP3 ADD MSTORE POP JUMP JUMPDEST PUSH1 0x0 PUSH2 0x27F8 PUSH1 0xB DUP4 PUSH2 0x27B1 JUMP JUMPDEST SWAP2 POP PUSH2 0x2803 DUP3 PUSH2 0x27C2 JUMP JUMPDEST PUSH1 0x20 DUP3 ADD SWAP1 POP SWAP2 SWAP1 POP JUMP JUMPDEST PUSH1 0x0 PUSH1 0x20 DUP3 ADD SWAP1 POP DUP2 DUP2 SUB PUSH1 0x0 DUP4 ADD MSTORE PUSH2 0x2827 DUP2 PUSH2 0x27EB JUMP JUMPDEST SWAP1 POP SWAP2 SWAP1 POP JUMP JUMPDEST PUSH32 0x4E487B7100000000000000000000000000000000000000000000000000000000 PUSH1 0x0 MSTORE PUSH1 0x11 PUSH1 0x4 MSTORE PUSH1 0x24 PUSH1 0x0 REVERT JUMPDEST PUSH1 0x0 PUSH2 0x2868 DUP3 PUSH2 0x2325 JUMP JUMPDEST SWAP2 POP PUSH2 0x2873 DUP4 PUSH2 0x2325 JUMP JUMPDEST SWAP3 POP DUP3 DUP3 SUB SWAP1 POP DUP2 DUP2 GT ISZERO PUSH2 0x288B JUMPI PUSH2 0x288A PUSH2 0x282E JUMP JUMPDEST JUMPDEST SWAP3 SWAP2 POP POP JUMP JUMPDEST PUSH32 0x43616E206E6F742072656D6F76652064656261746520616E796D6F7265000000 PUSH1 0x0 DUP3 ADD MSTORE POP JUMP JUMPDEST PUSH1 0x0 PUSH2 0x28C7 PUSH1 0x1D DUP4 PUSH2 0x27B1 JUMP JUMPDEST SWAP2 POP PUSH2 0x28D2 DUP3 PUSH2 0x2891 JUMP JUMPDEST PUSH1 0x20 DUP3 ADD SWAP1 POP SWAP2 SWAP1 POP JUMP JUMPDEST PUSH1 0x0 PUSH1 0x20 DUP3 ADD SWAP1 POP DUP2 DUP2 SUB PUSH1 0x0 DUP4 ADD MSTORE PUSH2 0x28F6 DUP2 PUSH2 0x28BA JUMP JUMPDEST SWAP1 POP SWAP2 SWAP1 POP JUMP JUMPDEST PUSH32 0x446562617465206973206E6F7420637265617465642079657400000000000000 PUSH1 0x0 DUP3 ADD MSTORE POP JUMP JUMPDEST PUSH1 0x0 PUSH2 0x2933 PUSH1 0x19 DUP4 PUSH2 0x27B1 JUMP JUMPDEST SWAP2 POP PUSH2 0x293E DUP3 PUSH2 0x28FD JUMP JUMPDEST PUSH1 0x20 DUP3 ADD SWAP1 POP SWAP2 SWAP1 POP JUMP JUMPDEST PUSH1 0x0 PUSH1 0x20 DUP3 ADD SWAP1 POP DUP2 DUP2 SUB PUSH1 0x0 DUP4 ADD MSTORE PUSH2 0x2962 DUP2 PUSH2 0x2926 JUMP JUMPDEST SWAP1 POP SWAP2 SWAP1 POP JUMP JUMPDEST PUSH32 0x4E487B7100000000000000000000000000000000000000000000000000000000 PUSH1 0x0 MSTORE PUSH1 0x31 PUSH1 0x4 MSTORE PUSH1 0x24 PUSH1 0x0 REVERT JUMPDEST PUSH32 0x496E73756666696369656E742062616C616E636520696E20636F6E7472616374 PUSH1 0x0 DUP3 ADD MSTORE POP JUMP JUMPDEST PUSH1 0x0 PUSH2 0x29CE PUSH1 0x20 DUP4 PUSH2 0x27B1 JUMP JUMPDEST SWAP2 POP PUSH2 0x29D9 DUP3 PUSH2 0x2998 JUMP JUMPDEST PUSH1 0x20 DUP3 ADD SWAP1 POP SWAP2 SWAP1 POP JUMP JUMPDEST PUSH1 0x0 PUSH1 0x20 DUP3 ADD SWAP1 POP DUP2 DUP2 SUB PUSH1 0x0 DUP4 ADD MSTORE PUSH2 0x29FD DUP2 PUSH2 0x29C1 JUMP JUMPDEST SWAP1 POP SWAP2 SWAP1 POP JUMP JUMPDEST PUSH32 0x44656261746520697320616C7265616479207265736F6C766564000000000000 PUSH1 0x0 DUP3 ADD MSTORE POP JUMP JUMPDEST PUSH1 0x0 PUSH2 0x2A3A PUSH1 0x1A DUP4 PUSH2 0x27B1 JUMP JUMPDEST SWAP2 POP PUSH2 0x2A45 DUP3 PUSH2 0x2A04 JUMP JUMPDEST PUSH1 0x20 DUP3 ADD SWAP1 POP SWAP2 SWAP1 POP JUMP JUMPDEST PUSH1 0x0 PUSH1 0x20 DUP3 ADD SWAP1 POP DUP2 DUP2 SUB PUSH1 0x0 DUP4 ADD MSTORE PUSH2 0x2A69 DUP2 PUSH2 0x2A2D JUMP JUMPDEST SWAP1 POP SWAP2 SWAP1 POP JUMP JUMPDEST PUSH32 0x496E76616C6964206167656E7400000000000000000000000000000000000000 PUSH1 0x0 DUP3 ADD MSTORE POP JUMP JUMPDEST PUSH1 0x0 PUSH2 0x2AA6 PUSH1 0xD DUP4 PUSH2 0x27B1 JUMP JUMPDEST SWAP2 POP PUSH2 0x2AB1 DUP3 PUSH2 0x2A70 JUMP JUMPDEST PUSH1 0x20 DUP3 ADD SWAP1 POP SWAP2 SWAP1 POP JUMP JUMPDEST PUSH1 0x0 PUSH1 0x20 DUP3 ADD SWAP1 POP DUP2 DUP2 SUB PUSH1 0x0 DUP4 ADD MSTORE PUSH2 0x2AD5 DUP2 PUSH2 0x2A99 JUMP JUMPDEST SWAP1 POP SWAP2 SWAP1 POP JUMP JUMPDEST PUSH1 0x0 PUSH2 0x2AE7 DUP3 PUSH2 0x2325 JUMP JUMPDEST SWAP2 POP PUSH2 0x2AF2 DUP4 PUSH2 0x2325 JUMP JUMPDEST SWAP3 POP DUP3 DUP3 ADD SWAP1 POP DUP1 DUP3 GT ISZERO PUSH2 0x2B0A JUMPI PUSH2 0x2B09 PUSH2 0x282E JUMP JUMPDEST JUMPDEST SWAP3 SWAP2 POP POP JUMP JUMPDEST PUSH1 0x0 PUSH2 0x2B1B DUP3 PUSH2 0x2325 JUMP JUMPDEST SWAP2 POP PUSH2 0x2B26 DUP4 PUSH2 0x2325 JUMP JUMPDEST SWAP3 POP DUP3 DUP3 MUL PUSH2 0x2B34 DUP2 PUSH2 0x2325 JUMP JUMPDEST SWAP2 POP DUP3 DUP3 DIV DUP5 EQ DUP4 ISZERO OR PUSH2 0x2B4B JUMPI PUSH2 0x2B4A PUSH2 0x282E JUMP JUMPDEST JUMPDEST POP SWAP3 SWAP2 POP POP JUMP JUMPDEST PUSH32 0x4E487B7100000000000000000000000000000000000000000000000000000000 PUSH1 0x0 MSTORE PUSH1 0x12 PUSH1 0x4 MSTORE PUSH1 0x24 PUSH1 0x0 REVERT JUMPDEST PUSH1 0x0 PUSH2 0x2B8C DUP3 PUSH2 0x2325 JUMP JUMPDEST SWAP2 POP PUSH2 0x2B97 DUP4 PUSH2 0x2325 JUMP JUMPDEST SWAP3 POP DUP3 PUSH2 0x2BA7 JUMPI PUSH2 0x2BA6 PUSH2 0x2B52 JUMP JUMPDEST JUMPDEST DUP3 DUP3 DIV SWAP1 POP SWAP3 SWAP2 POP POP JUMP JUMPDEST PUSH32 0x43616E206E6F74206D6F646966792064656261746520616E796D6F7265000000 PUSH1 0x0 DUP3 ADD MSTORE POP JUMP JUMPDEST PUSH1 0x0 PUSH2 0x2BE8 PUSH1 0x1D DUP4 PUSH2 0x27B1 JUMP JUMPDEST SWAP2 POP PUSH2 0x2BF3 DUP3 PUSH2 0x2BB2 JUMP JUMPDEST PUSH1 0x20 DUP3 ADD SWAP1 POP SWAP2 SWAP1 POP JUMP JUMPDEST PUSH1 0x0 PUSH1 0x20 DUP3 ADD SWAP1 POP DUP2 DUP2 SUB PUSH1 0x0 DUP4 ADD MSTORE PUSH2 0x2C17 DUP2 PUSH2 0x2BDB JUMP JUMPDEST SWAP1 POP SWAP2 SWAP1 POP JUMP JUMPDEST PUSH1 0x0 PUSH1 0xC0 DUP3 ADD SWAP1 POP PUSH2 0x2C33 PUSH1 0x0 DUP4 ADD DUP10 PUSH2 0x23CD JUMP JUMPDEST PUSH2 0x2C40 PUSH1 0x20 DUP4 ADD DUP9 PUSH2 0x23CD JUMP JUMPDEST PUSH2 0x2C4D PUSH1 0x40 DUP4 ADD DUP8 PUSH2 0x23CD JUMP JUMPDEST PUSH2 0x2C5A PUSH1 0x60 DUP4 ADD DUP7 PUSH2 0x23CD JUMP JUMPDEST PUSH2 0x2C67 PUSH1 0x80 DUP4 ADD DUP6 PUSH2 0x23CD JUMP JUMPDEST PUSH2 0x2C74 PUSH1 0xA0 DUP4 ADD DUP5 PUSH2 0x23CD JUMP JUMPDEST SWAP8 SWAP7 POP POP POP POP POP POP POP JUMP JUMPDEST PUSH32 0x446562617465206973206E6F74207265736F6C76656420796574000000000000 PUSH1 0x0 DUP3 ADD MSTORE POP JUMP JUMPDEST PUSH1 0x0 PUSH2 0x2CB5 PUSH1 0x1A DUP4 PUSH2 0x27B1 JUMP JUMPDEST SWAP2 POP PUSH2 0x2CC0 DUP3 PUSH2 0x2C7F JUMP JUMPDEST PUSH1 0x20 DUP3 ADD SWAP1 POP SWAP2 SWAP1 POP JUMP JUMPDEST PUSH1 0x0 PUSH1 0x20 DUP3 ADD SWAP1 POP DUP2 DUP2 SUB PUSH1 0x0 DUP4 ADD MSTORE PUSH2 0x2CE4 DUP2 PUSH2 0x2CA8 JUMP JUMPDEST SWAP1 POP SWAP2 SWAP1 POP JUMP JUMPDEST PUSH32 0x416D6F756E74206D7573742062652067726561746572207468616E2030000000 PUSH1 0x0 DUP3 ADD MSTORE POP JUMP JUMPDEST PUSH1 0x0 PUSH2 0x2D21 PUSH1 0x1D DUP4 PUSH2 0x27B1 JUMP JUMPDEST SWAP2 POP PUSH2 0x2D2C DUP3 PUSH2 0x2CEB JUMP JUMPDEST PUSH1 0x20 DUP3 ADD SWAP1 POP SWAP2 SWAP1 POP JUMP JUMPDEST PUSH1 0x0 PUSH1 0x20 DUP3 ADD SWAP1 POP DUP2 DUP2 SUB PUSH1 0x0 DUP4 ADD MSTORE PUSH2 0x2D50 DUP2 PUSH2 0x2D14 JUMP JUMPDEST SWAP1 POP SWAP2 SWAP1 POP JUMP JUMPDEST PUSH32 0x446562617465206973206E6F74207075626C6973686564207965740000000000 PUSH1 0x0 DUP3 ADD MSTORE POP JUMP JUMPDEST PUSH1 0x0 PUSH2 0x2D8D PUSH1 0x1B DUP4 PUSH2 0x27B1 JUMP JUMPDEST SWAP2 POP PUSH2 0x2D98 DUP3 PUSH2 0x2D57 JUMP JUMPDEST PUSH1 0x20 DUP3 ADD SWAP1 POP SWAP2 SWAP1 POP JUMP JUMPDEST PUSH1 0x0 PUSH1 0x20 DUP3 ADD SWAP1 POP DUP2 DUP2 SUB PUSH1 0x0 DUP4 ADD MSTORE PUSH2 0x2DBC DUP2 PUSH2 0x2D80 JUMP JUMPDEST SWAP1 POP SWAP2 SWAP1 POP JUMP JUMPDEST PUSH32 0x4465626174652069732064656C65746564000000000000000000000000000000 PUSH1 0x0 DUP3 ADD MSTORE POP JUMP JUMPDEST PUSH1 0x0 PUSH2 0x2DF9 PUSH1 0x11 DUP4 PUSH2 0x27B1 JUMP JUMPDEST SWAP2 POP PUSH2 0x2E04 DUP3 PUSH2 0x2DC3 JUMP JUMPDEST PUSH1 0x20 DUP3 ADD SWAP1 POP SWAP2 SWAP1 POP JUMP JUMPDEST PUSH1 0x0 PUSH1 0x20 DUP3 ADD SWAP1 POP DUP2 DUP2 SUB PUSH1 0x0 DUP4 ADD MSTORE PUSH2 0x2E28 DUP2 PUSH2 0x2DEC JUMP JUMPDEST SWAP1 POP SWAP2 SWAP1 POP JUMP JUMPDEST PUSH32 0x4465626174652073657373696F6E20697320616C7265616479207265736F6C76 PUSH1 0x0 DUP3 ADD MSTORE PUSH32 0x6564000000000000000000000000000000000000000000000000000000000000 PUSH1 0x20 DUP3 ADD MSTORE POP JUMP JUMPDEST PUSH1 0x0 PUSH2 0x2E8B PUSH1 0x22 DUP4 PUSH2 0x27B1 JUMP JUMPDEST SWAP2 POP PUSH2 0x2E96 DUP3 PUSH2 0x2E2F JUMP JUMPDEST PUSH1 0x40 DUP3 ADD SWAP1 POP SWAP2 SWAP1 POP JUMP JUMPDEST PUSH1 0x0 PUSH1 0x20 DUP3 ADD SWAP1 POP DUP2 DUP2 SUB PUSH1 0x0 DUP4 ADD MSTORE PUSH2 0x2EBA DUP2 PUSH2 0x2E7E JUMP JUMPDEST SWAP1 POP SWAP2 SWAP1 POP JUMP JUMPDEST PUSH32 0x4465626174652073657373696F6E206973206E6F742073746172746564207965 PUSH1 0x0 DUP3 ADD MSTORE PUSH32 0x7400000000000000000000000000000000000000000000000000000000000000 PUSH1 0x20 DUP3 ADD MSTORE POP JUMP JUMPDEST PUSH1 0x0 PUSH2 0x2F1D PUSH1 0x21 DUP4 PUSH2 0x27B1 JUMP JUMPDEST SWAP2 POP PUSH2 0x2F28 DUP3 PUSH2 0x2EC1 JUMP JUMPDEST PUSH1 0x40 DUP3 ADD SWAP1 POP SWAP2 SWAP1 POP JUMP JUMPDEST PUSH1 0x0 PUSH1 0x20 DUP3 ADD SWAP1 POP DUP2 DUP2 SUB PUSH1 0x0 DUP4 ADD MSTORE PUSH2 0x2F4C DUP2 PUSH2 0x2F10 JUMP JUMPDEST SWAP1 POP SWAP2 SWAP1 POP JUMP JUMPDEST PUSH32 0x43616E206E6F7420706C6163652062657420616E796D6F726500000000000000 PUSH1 0x0 DUP3 ADD MSTORE POP JUMP JUMPDEST PUSH1 0x0 PUSH2 0x2F89 PUSH1 0x19 DUP4 PUSH2 0x27B1 JUMP JUMPDEST SWAP2 POP PUSH2 0x2F94 DUP3 PUSH2 0x2F53 JUMP JUMPDEST PUSH1 0x20 DUP3 ADD SWAP1 POP SWAP2 SWAP1 POP JUMP JUMPDEST PUSH1 0x0 PUSH1 0x20 DUP3 ADD SWAP1 POP DUP2 DUP2 SUB PUSH1 0x0 DUP4 ADD MSTORE PUSH2 0x2FB8 DUP2 PUSH2 0x2F7C JUMP JUMPDEST SWAP1 POP SWAP2 SWAP1 POP JUMP JUMPDEST PUSH32 0x46656520616D6F756E74206973206E6F7420636F727265637400000000000000 PUSH1 0x0 DUP3 ADD MSTORE POP JUMP JUMPDEST PUSH1 0x0 PUSH2 0x2FF5 PUSH1 0x19 DUP4 PUSH2 0x27B1 JUMP JUMPDEST SWAP2 POP PUSH2 0x3000 DUP3 PUSH2 0x2FBF JUMP JUMPDEST PUSH1 0x20 DUP3 ADD SWAP1 POP SWAP2 SWAP1 POP JUMP JUMPDEST PUSH1 0x0 PUSH1 0x20 DUP3 ADD SWAP1 POP DUP2 DUP2 SUB PUSH1 0x0 DUP4 ADD MSTORE PUSH2 0x3024 DUP2 PUSH2 0x2FE8 JUMP JUMPDEST SWAP1 POP SWAP2 SWAP1 POP JUMP JUMPDEST PUSH32 0x426F7468206167656E74732061726520616C72656164792061737369676E6564 PUSH1 0x0 DUP3 ADD MSTORE POP JUMP JUMPDEST PUSH1 0x0 PUSH2 0x3061 PUSH1 0x20 DUP4 PUSH2 0x27B1 JUMP JUMPDEST SWAP2 POP PUSH2 0x306C DUP3 PUSH2 0x302B JUMP JUMPDEST PUSH1 0x20 DUP3 ADD SWAP1 POP SWAP2 SWAP1 POP JUMP JUMPDEST PUSH1 0x0 PUSH1 0x20 DUP3 ADD SWAP1 POP DUP2 DUP2 SUB PUSH1 0x0 DUP4 ADD MSTORE PUSH2 0x3090 DUP2 PUSH2 0x3054 JUMP JUMPDEST SWAP1 POP SWAP2 SWAP1 POP JUMP JUMPDEST PUSH1 0x0 PUSH1 0x60 DUP3 ADD SWAP1 POP PUSH2 0x30AC PUSH1 0x0 DUP4 ADD DUP7 PUSH2 0x23CD JUMP JUMPDEST PUSH2 0x30B9 PUSH1 0x20 DUP4 ADD DUP6 PUSH2 0x23CD JUMP JUMPDEST PUSH2 0x30C6 PUSH1 0x40 DUP4 ADD DUP5 PUSH2 0x23CD JUMP JUMPDEST SWAP5 SWAP4 POP POP POP POP JUMP JUMPDEST PUSH32 0x44656261746520697320616C7265616479206372656174656400000000000000 PUSH1 0x0 DUP3 ADD MSTORE POP JUMP JUMPDEST PUSH1 0x0 PUSH2 0x3104 PUSH1 0x19 DUP4 PUSH2 0x27B1 JUMP JUMPDEST SWAP2 POP PUSH2 0x310F DUP3 PUSH2 0x30CE JUMP JUMPDEST PUSH1 0x20 DUP3 ADD SWAP1 POP SWAP2 SWAP1 POP JUMP JUMPDEST PUSH1 0x0 PUSH1 0x20 DUP3 ADD SWAP1 POP DUP2 DUP2 SUB PUSH1 0x0 DUP4 ADD MSTORE PUSH2 0x3133 DUP2 PUSH2 0x30F7 JUMP JUMPDEST SWAP1 POP SWAP2 SWAP1 POP JUMP JUMPDEST PUSH32 0x456E642074696D65206D7573742062652067726561746572207468616E207075 PUSH1 0x0 DUP3 ADD MSTORE PUSH32 0x626C69632074696D650000000000000000000000000000000000000000000000 PUSH1 0x20 DUP3 ADD MSTORE POP JUMP JUMPDEST PUSH1 0x0 PUSH2 0x3196 PUSH1 0x29 DUP4 PUSH2 0x27B1 JUMP JUMPDEST SWAP2 POP PUSH2 0x31A1 DUP3 PUSH2 0x313A JUMP JUMPDEST PUSH1 0x40 DUP3 ADD SWAP1 POP SWAP2 SWAP1 POP JUMP JUMPDEST PUSH1 0x0 PUSH1 0x20 DUP3 ADD SWAP1 POP DUP2 DUP2 SUB PUSH1 0x0 DUP4 ADD MSTORE PUSH2 0x31C5 DUP2 PUSH2 0x3189 JUMP JUMPDEST SWAP1 POP SWAP2 SWAP1 POP JUMP JUMPDEST PUSH32 0x596F7520646964206E6F7420706C61636520616E7920626574206F6E20746869 PUSH1 0x0 DUP3 ADD MSTORE PUSH32 0x7320646562617465000000000000000000000000000000000000000000000000 PUSH1 0x20 DUP3 ADD MSTORE POP JUMP JUMPDEST PUSH1 0x0 PUSH2 0x3228 PUSH1 0x28 DUP4 PUSH2 0x27B1 JUMP JUMPDEST SWAP2 POP PUSH2 0x3233 DUP3 PUSH2 0x31CC JUMP JUMPDEST PUSH1 0x40 DUP3 ADD SWAP1 POP SWAP2 SWAP1 POP JUMP JUMPDEST PUSH1 0x0 PUSH1 0x20 DUP3 ADD SWAP1 POP DUP2 DUP2 SUB PUSH1 0x0 DUP4 ADD MSTORE PUSH2 0x3257 DUP2 PUSH2 0x321B JUMP JUMPDEST SWAP1 POP SWAP2 SWAP1 POP JUMP JUMPDEST PUSH32 0x596F75206861766520616C726561647920636C61696D65642074686520726577 PUSH1 0x0 DUP3 ADD MSTORE PUSH32 0x6172640000000000000000000000000000000000000000000000000000000000 PUSH1 0x20 DUP3 ADD MSTORE POP JUMP JUMPDEST PUSH1 0x0 PUSH2 0x32BA PUSH1 0x23 DUP4 PUSH2 0x27B1 JUMP JUMPDEST SWAP2 POP PUSH2 0x32C5 DUP3 PUSH2 0x325E JUMP JUMPDEST PUSH1 0x40 DUP3 ADD SWAP1 POP SWAP2 SWAP1 POP JUMP JUMPDEST PUSH1 0x0 PUSH1 0x20 DUP3 ADD SWAP1 POP DUP2 DUP2 SUB PUSH1 0x0 DUP4 ADD MSTORE PUSH2 0x32E9 DUP2 PUSH2 0x32AD JUMP JUMPDEST SWAP1 POP SWAP2 SWAP1 POP JUMP JUMPDEST PUSH32 0x596F7520646964206E6F742077696E2074686520626574000000000000000000 PUSH1 0x0 DUP3 ADD MSTORE POP JUMP JUMPDEST PUSH1 0x0 PUSH2 0x3326 PUSH1 0x17 DUP4 PUSH2 0x27B1 JUMP JUMPDEST SWAP2 POP PUSH2 0x3331 DUP3 PUSH2 0x32F0 JUMP JUMPDEST PUSH1 0x20 DUP3 ADD SWAP1 POP SWAP2 SWAP1 POP JUMP JUMPDEST PUSH1 0x0 PUSH1 0x20 DUP3 ADD SWAP1 POP DUP2 DUP2 SUB PUSH1 0x0 DUP4 ADD MSTORE PUSH2 0x3355 DUP2 PUSH2 0x3319 JUMP JUMPDEST SWAP1 POP SWAP2 SWAP1 POP JUMP JUMPDEST PUSH1 0x0 PUSH1 0x40 DUP3 ADD SWAP1 POP PUSH2 0x3371 PUSH1 0x0 DUP4 ADD DUP6 PUSH2 0x23CD JUMP JUMPDEST PUSH2 0x337E PUSH1 0x20 DUP4 ADD DUP5 PUSH2 0x23CD JUMP JUMPDEST SWAP4 SWAP3 POP POP POP JUMP INVALID LOG2 PUSH5 0x6970667358 0x22 SLT KECCAK256 0xC0 0x2B 0x2C 0x2F 0xE4 0xBD CALLDATASIZE 0xEF 0xE3 OR SELFDESTRUCT GASLIMIT 0xCC CALLDATALOAD CALLVALUE 0xE2 0x2A CALL PUSH8 0xE281303EA9E2B920 0xBC 0xDB BLOBHASH GT 0xAC PUSH5 0x736F6C6343 STOP ADDMOD SHR STOP CALLER "},"methodIdentifiers":{"addMod(address)":"01a00216","addressJoinedList(uint256,uint256)":"7a27fbb2","adminCreateDebate(uint256,uint256,uint256,uint256,uint256,uint256,uint256)":"f674a9de","adminDeleteDebate(uint256)":"28392554","adminResolveDebate(uint256,uint256)":"9048b53b","adminUpdateDebate(uint256,uint256,uint256,uint256,uint256,uint256,uint256)":"98a18707","betList(uint256,address,uint256)":"fe84d4b6","debateList(uint256)":"39938348","defaultPlatformFeePercentage()":"43674131","getDebateInfo(uint256)":"5b99a012","modList(uint256)":"2071a2d2","owner()":"8da5cb5b","placeBet(uint256,uint256,uint256)":"e71c9697","removeMod(address)":"4637de3c","renounceOwnership()":"715018a6","transferOwnership(address)":"f2fde38b","userClaim(uint256)":"fe43efda","withdrawAll()":"853828b6","withdrawByAmount(uint256)":"5521e9bf","withdrawByID(uint256)":"c42ab704"}}}}}