{
  "_format": "hh-sol-artifact-1",
  "contractName": "AIDebate",
  "sourceName": "contracts/Debate.sol",
  "abi": [
    {
      "inputs": [
        {
          "internalType": "address",
          "name": "initialOwner",
          "type": "address"
        },
        {
          "internalType": "address",
          "name": "initialDeployer",
          "type": "address"
        }
      ],
      "stateMutability": "nonpayable",
      "type": "constructor"
    },
    {
      "inputs": [],
      "name": "InvalidInitialization",
      "type": "error"
    },
    {
      "inputs": [],
      "name": "NotInitializing",
      "type": "error"
    },
    {
      "inputs": [
        {
          "internalType": "address",
          "name": "owner",
          "type": "address"
        }
      ],
      "name": "OwnableInvalidOwner",
      "type": "error"
    },
    {
      "inputs": [
        {
          "internalType": "address",
          "name": "account",
          "type": "address"
        }
      ],
      "name": "OwnableUnauthorizedAccount",
      "type": "error"
    },
    {
      "anonymous": false,
      "inputs": [
        {
          "indexed": true,
          "internalType": "uint256",
          "name": "debateId",
          "type": "uint256"
        },
        {
          "indexed": true,
          "internalType": "address",
          "name": "bettor",
          "type": "address"
        },
        {
          "indexed": false,
          "internalType": "uint256",
          "name": "chosenAgentId",
          "type": "uint256"
        },
        {
          "indexed": false,
          "internalType": "uint256",
          "name": "amount",
          "type": "uint256"
        },
        {
          "indexed": false,
          "internalType": "uint256",
          "name": "platformFeePercentage",
          "type": "uint256"
        }
      ],
      "name": "BetPlaced",
      "type": "event"
    },
    {
      "anonymous": false,
      "inputs": [
        {
          "indexed": true,
          "internalType": "uint256",
          "name": "debateId",
          "type": "uint256"
        },
        {
          "indexed": false,
          "internalType": "uint256",
          "name": "agentAID",
          "type": "uint256"
        },
        {
          "indexed": false,
          "internalType": "uint256",
          "name": "agentBID",
          "type": "uint256"
        },
        {
          "indexed": false,
          "internalType": "uint256",
          "name": "platformFeePercentage",
          "type": "uint256"
        },
        {
          "indexed": false,
          "internalType": "uint256",
          "name": "publicTimeStamp",
          "type": "uint256"
        },
        {
          "indexed": false,
          "internalType": "uint256",
          "name": "startTimeStamp",
          "type": "uint256"
        },
        {
          "indexed": false,
          "internalType": "uint256",
          "name": "sessionDuration",
          "type": "uint256"
        }
      ],
      "name": "DebateCreated",
      "type": "event"
    },
    {
      "anonymous": false,
      "inputs": [
        {
          "indexed": true,
          "internalType": "uint256",
          "name": "debateId",
          "type": "uint256"
        }
      ],
      "name": "DebateDeleted",
      "type": "event"
    },
    {
      "anonymous": false,
      "inputs": [
        {
          "indexed": true,
          "internalType": "uint256",
          "name": "debateId",
          "type": "uint256"
        },
        {
          "indexed": false,
          "internalType": "uint256",
          "name": "winnAgentId",
          "type": "uint256"
        }
      ],
      "name": "DebateResolved",
      "type": "event"
    },
    {
      "anonymous": false,
      "inputs": [
        {
          "indexed": true,
          "internalType": "uint256",
          "name": "debateId",
          "type": "uint256"
        },
        {
          "indexed": false,
          "internalType": "uint256",
          "name": "agentAID",
          "type": "uint256"
        },
        {
          "indexed": false,
          "internalType": "uint256",
          "name": "agentBID",
          "type": "uint256"
        },
        {
          "indexed": false,
          "internalType": "uint256",
          "name": "platformFeePercentage",
          "type": "uint256"
        },
        {
          "indexed": false,
          "internalType": "uint256",
          "name": "publicTimeStamp",
          "type": "uint256"
        },
        {
          "indexed": false,
          "internalType": "uint256",
          "name": "startTimeStamp",
          "type": "uint256"
        },
        {
          "indexed": false,
          "internalType": "uint256",
          "name": "sessionDuration",
          "type": "uint256"
        }
      ],
      "name": "DebateUpdated",
      "type": "event"
    },
    {
      "anonymous": false,
      "inputs": [
        {
          "indexed": false,
          "internalType": "uint64",
          "name": "version",
          "type": "uint64"
        }
      ],
      "name": "Initialized",
      "type": "event"
    },
    {
      "anonymous": false,
      "inputs": [
        {
          "indexed": true,
          "internalType": "address",
          "name": "previousOwner",
          "type": "address"
        },
        {
          "indexed": true,
          "internalType": "address",
          "name": "newOwner",
          "type": "address"
        }
      ],
      "name": "OwnershipTransferred",
      "type": "event"
    },
    {
      "anonymous": false,
      "inputs": [
        {
          "indexed": true,
          "internalType": "uint256",
          "name": "debateId",
          "type": "uint256"
        },
        {
          "indexed": true,
          "internalType": "address",
          "name": "bettor",
          "type": "address"
        },
        {
          "indexed": false,
          "internalType": "uint256",
          "name": "chosenAgentId",
          "type": "uint256"
        },
        {
          "indexed": false,
          "internalType": "uint256",
          "name": "amount",
          "type": "uint256"
        }
      ],
      "name": "UserClaimed",
      "type": "event"
    },
    {
      "inputs": [
        {
          "internalType": "address",
          "name": "_mod",
          "type": "address"
        }
      ],
      "name": "addMod",
      "outputs": [],
      "stateMutability": "nonpayable",
      "type": "function"
    },
    {
      "inputs": [
        {
          "internalType": "uint256",
          "name": "",
          "type": "uint256"
        },
        {
          "internalType": "uint256",
          "name": "",
          "type": "uint256"
        }
      ],
      "name": "addressJoinedList",
      "outputs": [
        {
          "internalType": "address",
          "name": "",
          "type": "address"
        }
      ],
      "stateMutability": "view",
      "type": "function"
    },
    {
      "inputs": [
        {
          "internalType": "uint256",
          "name": "_debateId",
          "type": "uint256"
        },
        {
          "internalType": "uint256",
          "name": "_agentAID",
          "type": "uint256"
        },
        {
          "internalType": "uint256",
          "name": "_agentBID",
          "type": "uint256"
        },
        {
          "internalType": "uint256",
          "name": "_platformFeePercentage",
          "type": "uint256"
        },
        {
          "internalType": "uint256",
          "name": "_publicTimeStamp",
          "type": "uint256"
        },
        {
          "internalType": "uint256",
          "name": "_startTimeStamp",
          "type": "uint256"
        },
        {
          "internalType": "uint256",
          "name": "_sessionDuration",
          "type": "uint256"
        }
      ],
      "name": "adminCreateDebate",
      "outputs": [],
      "stateMutability": "nonpayable",
      "type": "function"
    },
    {
      "inputs": [
        {
          "internalType": "uint256",
          "name": "_debateId",
          "type": "uint256"
        }
      ],
      "name": "adminDeleteDebate",
      "outputs": [],
      "stateMutability": "nonpayable",
      "type": "function"
    },
    {
      "inputs": [
        {
          "internalType": "uint256",
          "name": "_debateId",
          "type": "uint256"
        },
        {
          "internalType": "uint256",
          "name": "_winAgentId",
          "type": "uint256"
        }
      ],
      "name": "adminResolveDebate",
      "outputs": [],
      "stateMutability": "nonpayable",
      "type": "function"
    },
    {
      "inputs": [
        {
          "internalType": "uint256",
          "name": "_debateId",
          "type": "uint256"
        },
        {
          "internalType": "uint256",
          "name": "_agentAID",
          "type": "uint256"
        },
        {
          "internalType": "uint256",
          "name": "_agentBID",
          "type": "uint256"
        },
        {
          "internalType": "uint256",
          "name": "_platformFeePercentage",
          "type": "uint256"
        },
        {
          "internalType": "uint256",
          "name": "_publicTimeStamp",
          "type": "uint256"
        },
        {
          "internalType": "uint256",
          "name": "_startTimeStamp",
          "type": "uint256"
        },
        {
          "internalType": "uint256",
          "name": "_sessionDuration",
          "type": "uint256"
        }
      ],
      "name": "adminUpdateDebate",
      "outputs": [],
      "stateMutability": "nonpayable",
      "type": "function"
    },
    {
      "inputs": [
        {
          "internalType": "uint256",
          "name": "",
          "type": "uint256"
        },
        {
          "internalType": "address",
          "name": "",
          "type": "address"
        },
        {
          "internalType": "uint256",
          "name": "",
          "type": "uint256"
        }
      ],
      "name": "betList",
      "outputs": [
        {
          "internalType": "uint256",
          "name": "debateId",
          "type": "uint256"
        },
        {
          "internalType": "address",
          "name": "bettor",
          "type": "address"
        },
        {
          "internalType": "uint256",
          "name": "amount",
          "type": "uint256"
        },
        {
          "internalType": "uint256",
          "name": "winAmount",
          "type": "uint256"
        },
        {
          "internalType": "uint256",
          "name": "chosenAgentId",
          "type": "uint256"
        },
        {
          "internalType": "bool",
          "name": "isClaimed",
          "type": "bool"
        }
      ],
      "stateMutability": "view",
      "type": "function"
    },
    {
      "inputs": [
        {
          "internalType": "uint256",
          "name": "",
          "type": "uint256"
        }
      ],
      "name": "debateList",
      "outputs": [
        {
          "internalType": "bool",
          "name": "isResolved",
          "type": "bool"
        },
        {
          "internalType": "uint256",
          "name": "winAgentId",
          "type": "uint256"
        },
        {
          "internalType": "uint256",
          "name": "platformFeePercentage",
          "type": "uint256"
        },
        {
          "internalType": "uint256",
          "name": "sessionDuration",
          "type": "uint256"
        },
        {
          "internalType": "uint256",
          "name": "startTimeStamp",
          "type": "uint256"
        },
        {
          "internalType": "uint256",
          "name": "publicTimeStamp",
          "type": "uint256"
        },
        {
          "internalType": "uint256",
          "name": "agentAID",
          "type": "uint256"
        },
        {
          "internalType": "uint256",
          "name": "agentBID",
          "type": "uint256"
        },
        {
          "internalType": "uint256",
          "name": "totalAgentABetAmount",
          "type": "uint256"
        },
        {
          "internalType": "uint256",
          "name": "totalAgentBBetAmount",
          "type": "uint256"
        }
      ],
      "stateMutability": "view",
      "type": "function"
    },
    {
      "inputs": [],
      "name": "defaultPlatformFeePercentage",
      "outputs": [
        {
          "internalType": "uint256",
          "name": "",
          "type": "uint256"
        }
      ],
      "stateMutability": "view",
      "type": "function"
    },
    {
      "inputs": [
        {
          "internalType": "uint256",
          "name": "_debateId",
          "type": "uint256"
        }
      ],
      "name": "getDebateInfo",
      "outputs": [
        {
          "components": [
            {
              "internalType": "bool",
              "name": "isResolved",
              "type": "bool"
            },
            {
              "internalType": "uint256",
              "name": "winAgentId",
              "type": "uint256"
            },
            {
              "internalType": "uint256",
              "name": "platformFeePercentage",
              "type": "uint256"
            },
            {
              "internalType": "uint256",
              "name": "sessionDuration",
              "type": "uint256"
            },
            {
              "internalType": "uint256",
              "name": "startTimeStamp",
              "type": "uint256"
            },
            {
              "internalType": "uint256",
              "name": "publicTimeStamp",
              "type": "uint256"
            },
            {
              "internalType": "uint256",
              "name": "agentAID",
              "type": "uint256"
            },
            {
              "internalType": "uint256",
              "name": "agentBID",
              "type": "uint256"
            },
            {
              "internalType": "uint256",
              "name": "totalAgentABetAmount",
              "type": "uint256"
            },
            {
              "internalType": "uint256",
              "name": "totalAgentBBetAmount",
              "type": "uint256"
            }
          ],
          "internalType": "struct AIDebate.Debate",
          "name": "",
          "type": "tuple"
        }
      ],
      "stateMutability": "view",
      "type": "function"
    },
    {
      "inputs": [
        {
          "internalType": "uint256",
          "name": "",
          "type": "uint256"
        }
      ],
      "name": "modList",
      "outputs": [
        {
          "internalType": "address",
          "name": "",
          "type": "address"
        }
      ],
      "stateMutability": "view",
      "type": "function"
    },
    {
      "inputs": [],
      "name": "owner",
      "outputs": [
        {
          "internalType": "address",
          "name": "",
          "type": "address"
        }
      ],
      "stateMutability": "view",
      "type": "function"
    },
    {
      "inputs": [
        {
          "internalType": "uint256",
          "name": "_debateId",
          "type": "uint256"
        },
        {
          "internalType": "uint256",
          "name": "_amount",
          "type": "uint256"
        },
        {
          "internalType": "uint256",
          "name": "_chosenAgent",
          "type": "uint256"
        }
      ],
      "name": "placeBet",
      "outputs": [],
      "stateMutability": "payable",
      "type": "function"
    },
    {
      "inputs": [
        {
          "internalType": "address",
          "name": "_mod",
          "type": "address"
        }
      ],
      "name": "removeMod",
      "outputs": [],
      "stateMutability": "nonpayable",
      "type": "function"
    },
    {
      "inputs": [],
      "name": "renounceOwnership",
      "outputs": [],
      "stateMutability": "nonpayable",
      "type": "function"
    },
    {
      "inputs": [
        {
          "internalType": "address",
          "name": "newOwner",
          "type": "address"
        }
      ],
      "name": "transferOwnership",
      "outputs": [],
      "stateMutability": "nonpayable",
      "type": "function"
    },
    {
      "inputs": [
        {
          "internalType": "uint256",
          "name": "_debateId",
          "type": "uint256"
        }
      ],
      "name": "userClaim",
      "outputs": [],
      "stateMutability": "nonpayable",
      "type": "function"
    },
    {
      "inputs": [],
      "name": "withdrawAll",
      "outputs": [],
      "stateMutability": "nonpayable",
      "type": "function"
    },
    {
      "inputs": [
        {
          "internalType": "uint256",
          "name": "_amount",
          "type": "uint256"
        }
      ],
      "name": "withdrawByAmount",
      "outputs": [],
      "stateMutability": "nonpayable",
      "type": "function"
    },
    {
      "inputs": [
        {
          "internalType": "uint256",
          "name": "_debateId",
          "type": "uint256"
        }
      ],
      "name": "withdrawByID",
      "outputs": [],
      "stateMutability": "nonpayable",
      "type": "function"
    }
  ],
  "bytecode": "0x6080604052600560015561012c60025561070860035534801561002157600080fd5b506040516136ee3803806136ee833981810160405281019061004391906102ba565b81600073ffffffffffffffffffffffffffffffffffffffff168173ffffffffffffffffffffffffffffffffffffffff16036100b65760006040517f1e4fbdf70000000000000000000000000000000000000000000000000000000081526004016100ad9190610309565b60405180910390fd5b6100c58161019360201b60201c565b506004829080600181540180825580915050600190039060005260206000200160009091909190916101000a81548173ffffffffffffffffffffffffffffffffffffffff021916908373ffffffffffffffffffffffffffffffffffffffff1602179055506004819080600181540180825580915050600190039060005260206000200160009091909190916101000a81548173ffffffffffffffffffffffffffffffffffffffff021916908373ffffffffffffffffffffffffffffffffffffffff1602179055505050610324565b60008060009054906101000a900473ffffffffffffffffffffffffffffffffffffffff169050816000806101000a81548173ffffffffffffffffffffffffffffffffffffffff021916908373ffffffffffffffffffffffffffffffffffffffff1602179055508173ffffffffffffffffffffffffffffffffffffffff168173ffffffffffffffffffffffffffffffffffffffff167f8be0079c531659141344cd1fd0a4f28419497f9722a3daafe3b4186f6b6457e060405160405180910390a35050565b600080fd5b600073ffffffffffffffffffffffffffffffffffffffff82169050919050565b60006102878261025c565b9050919050565b6102978161027c565b81146102a257600080fd5b50565b6000815190506102b48161028e565b92915050565b600080604083850312156102d1576102d0610257565b5b60006102df858286016102a5565b92505060206102f0858286016102a5565b9150509250929050565b6103038161027c565b82525050565b600060208201905061031e60008301846102fa565b92915050565b6133bb806103336000396000f3fe60806040526004361061011f5760003560e01c8063853828b6116100a0578063e71c969711610064578063e71c9697146103c4578063f2fde38b146103e0578063f674a9de14610409578063fe43efda14610432578063fe84d4b61461045b5761011f565b8063853828b6146103075780638da5cb5b1461031e5780639048b53b1461034957806398a1870714610372578063c42ab7041461039b5761011f565b80634637de3c116100e75780634637de3c146102245780635521e9bf1461024d5780635b99a01214610276578063715018a6146102b35780637a27fbb2146102ca5761011f565b806301a00216146101245780632071a2d21461014d578063283925541461018a57806339938348146101b357806343674131146101f9575b600080fd5b34801561013057600080fd5b5061014b600480360381019061014691906122f8565b61049d565b005b34801561015957600080fd5b50610174600480360381019061016f919061235b565b61050b565b6040516101819190612397565b60405180910390f35b34801561019657600080fd5b506101b160048036038101906101ac919061235b565b61054a565b005b3480156101bf57600080fd5b506101da60048036038101906101d5919061235b565b610736565b6040516101f09a999897969594939291906123dc565b60405180910390f35b34801561020557600080fd5b5061020e610797565b60405161021b9190612478565b60405180910390f35b34801561023057600080fd5b5061024b600480360381019061024691906122f8565b61079d565b005b34801561025957600080fd5b50610274600480360381019061026f919061235b565b61092f565b005b34801561028257600080fd5b5061029d6004803603810190610298919061235b565b6109d2565b6040516102aa919061257d565b60405180910390f35b3480156102bf57600080fd5b506102c8610a7b565b005b3480156102d657600080fd5b506102f160048036038101906102ec9190612599565b610a8f565b6040516102fe9190612397565b60405180910390f35b34801561031357600080fd5b5061031c610add565b005b34801561032a57600080fd5b50610333610b3c565b6040516103409190612397565b60405180910390f35b34801561035557600080fd5b50610370600480360381019061036b9190612599565b610b65565b005b34801561037e57600080fd5b50610399600480360381019061039491906125d9565b610fcf565b005b3480156103a757600080fd5b506103c260048036038101906103bd919061235b565b611207565b005b6103de60048036038101906103d9919061267b565b611395565b005b3480156103ec57600080fd5b50610407600480360381019061040291906122f8565b611a23565b005b34801561041557600080fd5b50610430600480360381019061042b91906125d9565b611aa9565b005b34801561043e57600080fd5b506104596004803603810190610454919061235b565b611cd9565b005b34801561046757600080fd5b50610482600480360381019061047d91906126ce565b612060565b60405161049496959493929190612721565b60405180910390f35b6104a56120e3565b6004819080600181540180825580915050600190039060005260206000200160009091909190916101000a81548173ffffffffffffffffffffffffffffffffffffffff021916908373ffffffffffffffffffffffffffffffffffffffff16021790555050565b6004818154811061051b57600080fd5b906000526020600020016000915054906101000a900473ffffffffffffffffffffffffffffffffffffffff1681565b6000805b6004805490508110156105e2573373ffffffffffffffffffffffffffffffffffffffff166004828154811061058657610585612782565b5b9060005260206000200160009054906101000a900473ffffffffffffffffffffffffffffffffffffffff1673ffffffffffffffffffffffffffffffffffffffff16036105d557600191506105e2565b808060010191505061054e565b5080610623576040517f08c379a000000000000000000000000000000000000000000000000000000000815260040161061a9061280e565b60405180910390fd5b6000600560008481526020019081526020016000209050600354816005015461064c919061285d565b421061068d576040517f08c379a0000000000000000000000000000000000000000000000000000000008152600401610684906128dd565b60405180910390fd5b60008160060154141580156106a757506000816007015414155b6106e6576040517f08c379a00000000000000000000000000000000000000000000000000000000081526004016106dd90612949565b60405180910390fd5b600081600501819055506000816004018190555060008160030181905550827f80bed4ceeb2dfbd88f61cca1c30bc6dede3047d1862345ef30f1cbc44c2016d760405160405180910390a2505050565b60056020528060005260406000206000915090508060000160009054906101000a900460ff1690806001015490806002015490806003015490806004015490806005015490806006015490806007015490806008015490806009015490508a565b60015481565b6107a56120e3565b60005b60048054905081101561092b578173ffffffffffffffffffffffffffffffffffffffff16600482815481106107e0576107df612782565b5b9060005260206000200160009054906101000a900473ffffffffffffffffffffffffffffffffffffffff1673ffffffffffffffffffffffffffffffffffffffff160361091e576004600160048054905061083a919061285d565b8154811061084b5761084a612782565b5b9060005260206000200160009054906101000a900473ffffffffffffffffffffffffffffffffffffffff166004828154811061088a57610889612782565b5b9060005260206000200160006101000a81548173ffffffffffffffffffffffffffffffffffffffff021916908373ffffffffffffffffffffffffffffffffffffffff16021790555060048054806108e4576108e3612969565b5b6001900381819060005260206000200160006101000a81549073ffffffffffffffffffffffffffffffffffffffff0219169055905561092b565b80806001019150506107a8565b5050565b6109376120e3565b60006109423361216a565b905081471015610987576040517f08c379a000000000000000000000000000000000000000000000000000000000815260040161097e906129e4565b60405180910390fd5b8073ffffffffffffffffffffffffffffffffffffffff166108fc839081150290604051600060405180830381858888f193505050501580156109cd573d6000803e3d6000fd5b505050565b6109da612240565b600060056000848152602001908152602001600020905080604051806101400160405290816000820160009054906101000a900460ff161515151581526020016001820154815260200160028201548152602001600382015481526020016004820154815260200160058201548152602001600682015481526020016007820154815260200160088201548152602001600982015481525050915050919050565b610a836120e3565b610a8d6000612174565b565b60076020528160005260406000208181548110610aab57600080fd5b906000526020600020016000915091509054906101000a900473ffffffffffffffffffffffffffffffffffffffff1681565b610ae56120e3565b6000610af03361216a565b90508073ffffffffffffffffffffffffffffffffffffffff166108fc479081150290604051600060405180830381858888f19350505050158015610b38573d6000803e3d6000fd5b5050565b60008060009054906101000a900473ffffffffffffffffffffffffffffffffffffffff16905090565b6000805b600480549050811015610bfd573373ffffffffffffffffffffffffffffffffffffffff1660048281548110610ba157610ba0612782565b5b9060005260206000200160009054906101000a900473ffffffffffffffffffffffffffffffffffffffff1673ffffffffffffffffffffffffffffffffffffffff1603610bf05760019150610bfd565b8080600101915050610b69565b5080610c3e576040517f08c379a0000000000000000000000000000000000000000000000000000000008152600401610c359061280e565b60405180910390fd5b60006005600085815260200190815260200160002090508060000160009054906101000a900460ff1615610ca7576040517f08c379a0000000000000000000000000000000000000000000000000000000008152600401610c9e90612a50565b60405180910390fd5b8060060154831480610cbc5750806007015483145b610cfb576040517f08c379a0000000000000000000000000000000000000000000000000000000008152600401610cf290612abc565b60405180910390fd5b60018160000160006101000a81548160ff021916908315150217905550828160010181905550600081600901548260080154610d379190612adc565b905060008260020154612710610d4d919061285d565b905060005b6007600088815260200190815260200160002080549050811015610f8e576000600760008981526020019081526020016000208281548110610d9757610d96612782565b5b9060005260206000200160009054906101000a900473ffffffffffffffffffffffffffffffffffffffff1690506000600660008a815260200190815260200160002060008373ffffffffffffffffffffffffffffffffffffffff1673ffffffffffffffffffffffffffffffffffffffff1681526020019081526020016000206000898152602001908152602001600020905087816004015403610f7f57600086600601548260040154148015610e51575060008760080154145b15610e7a57612710858360020154610e699190612b10565b610e739190612b81565b9050610ebb565b86600701548260040154148015610e95575060008760090154145b15610eba57612710858360020154610ead9190612b10565b610eb79190612b81565b90505b5b86600601548260040154148015610ed6575060008760080154115b15610f19576127108760080154610eed9190612b10565b85878460020154610efe9190612b10565b610f089190612b10565b610f129190612b81565b9050610f74565b86600701548260040154148015610f34575060008760090154115b15610f73576127108760090154610f4b9190612b10565b85878460020154610f5c9190612b10565b610f669190612b10565b610f709190612b81565b90505b5b808260030181905550505b50508080600101915050610d52565b50857fb6284c12d8a21c06155f14e4b5a2c21bdd2a90abcd3b5d0ada8275279cb0ca6f86604051610fbf9190612478565b60405180910390a2505050505050565b6000805b600480549050811015611067573373ffffffffffffffffffffffffffffffffffffffff166004828154811061100b5761100a612782565b5b9060005260206000200160009054906101000a900473ffffffffffffffffffffffffffffffffffffffff1673ffffffffffffffffffffffffffffffffffffffff160361105a5760019150611067565b8080600101915050610fd3565b50806110a8576040517f08c379a000000000000000000000000000000000000000000000000000000000815260040161109f9061280e565b60405180910390fd5b6000600560008a8152602001908152602001600020905060008160060154141580156110d957506000816007015414155b611118576040517f08c379a000000000000000000000000000000000000000000000000000000000815260040161110f90612949565b60405180910390fd5b600354816005015461112a919061285d565b421061116b576040517f08c379a000000000000000000000000000000000000000000000000000000000815260040161116290612bfe565b60405180910390fd5b8781600601819055508681600701819055506000860361119557600154816002018190555061119f565b8581600201819055505b848160050181905550838160040181905550828160030181905550887f5ad787ff0ab90867aa98c2a81caff732533e80b06f4c6910994cf0c8918d17fc8989898989896040516111f496959493929190612c1e565b60405180910390a2505050505050505050565b61120f6120e3565b60006005600083815260200190815260200160002090508060000160009054906101000a900460ff16611277576040517f08c379a000000000000000000000000000000000000000000000000000000000815260040161126e90612ccb565b60405180910390fd5b60008160010154036112be576040517f08c379a00000000000000000000000000000000000000000000000000000000081526004016112b590612ccb565b60405180910390fd5b6000816009015482600801546112d49190612adc565b905060006127108360020154836112eb9190612b10565b6112f59190612b81565b905060006113023361216a565b905081471015611347576040517f08c379a000000000000000000000000000000000000000000000000000000000815260040161133e906129e4565b60405180910390fd5b8073ffffffffffffffffffffffffffffffffffffffff166108fc839081150290604051600060405180830381858888f1935050505015801561138d573d6000803e3d6000fd5b505050505050565b600082116113d8576040517f08c379a00000000000000000000000000000000000000000000000000000000081526004016113cf90612d37565b60405180910390fd5b60006005600085815260200190815260200160002090506000816005015411611436576040517f08c379a000000000000000000000000000000000000000000000000000000000815260040161142d90612da3565b60405180910390fd5b600081600401540361147d576040517f08c379a000000000000000000000000000000000000000000000000000000000815260040161147490612e0f565b60405180910390fd5b8060000160009054906101000a900460ff16156114cf576040517f08c379a00000000000000000000000000000000000000000000000000000000081526004016114c690612ea1565b60405180910390fd5b80600501544211611515576040517f08c379a000000000000000000000000000000000000000000000000000000000815260040161150c90612f33565b60405180910390fd5b6002548160030154826004015461152c9190612adc565b611536919061285d565b4210611577576040517f08c379a000000000000000000000000000000000000000000000000000000000815260040161156e90612f9f565b60405180910390fd5b823410156115ba576040517f08c379a00000000000000000000000000000000000000000000000000000000081526004016115b19061300b565b60405180910390fd5b806006015482036115e557828160080160008282546115d99190612adc565b925050819055506116c2565b8060070154820361161057828160090160008282546116049190612adc565b925050819055506116c1565b600081600601541480611627575060008160070154145b611666576040517f08c379a000000000000000000000000000000000000000000000000000000000815260040161165d90613077565b60405180910390fd5b600081600601540361169b578181600601819055508281600801600082825461168f9190612adc565b925050819055506116c0565b818160070181905550828160090160008282546116b89190612adc565b925050819055505b5b5b60006006600086815260200190815260200160002060003373ffffffffffffffffffffffffffffffffffffffff1673ffffffffffffffffffffffffffffffffffffffff1681526020019081526020016000206000848152602001908152602001600020905060008160020154111561175457838160020160008282546117489190612adc565b9250508190555061188f565b6040518060c001604052808681526020013373ffffffffffffffffffffffffffffffffffffffff16815260200185815260200160008152602001848152602001600015158152506006600087815260200190815260200160002060003373ffffffffffffffffffffffffffffffffffffffff1673ffffffffffffffffffffffffffffffffffffffff16815260200190815260200160002060008581526020019081526020016000206000820151816000015560208201518160010160006101000a81548173ffffffffffffffffffffffffffffffffffffffff021916908373ffffffffffffffffffffffffffffffffffffffff16021790555060408201518160020155606082015181600301556080820151816004015560a08201518160050160006101000a81548160ff0219169083151502179055509050505b6000805b6007600088815260200190815260200160002080549050811015611949573373ffffffffffffffffffffffffffffffffffffffff166007600089815260200190815260200160002082815481106118ed576118ec612782565b5b9060005260206000200160009054906101000a900473ffffffffffffffffffffffffffffffffffffffff1673ffffffffffffffffffffffffffffffffffffffff160361193c5760019150611949565b8080600101915050611893565b50806119c45760076000878152602001908152602001600020339080600181540180825580915050600190039060005260206000200160009091909190916101000a81548173ffffffffffffffffffffffffffffffffffffffff021916908373ffffffffffffffffffffffffffffffffffffffff1602179055505b3373ffffffffffffffffffffffffffffffffffffffff16867fab2115bac1de808eb7fe2be0309085b11f1f42b1eb980de8352efefdbfc098e286888760020154604051611a1393929190613097565b60405180910390a3505050505050565b611a2b6120e3565b600073ffffffffffffffffffffffffffffffffffffffff168173ffffffffffffffffffffffffffffffffffffffff1603611a9d5760006040517f1e4fbdf7000000000000000000000000000000000000000000000000000000008152600401611a949190612397565b60405180910390fd5b611aa681612174565b50565b6000805b600480549050811015611b41573373ffffffffffffffffffffffffffffffffffffffff1660048281548110611ae557611ae4612782565b5b9060005260206000200160009054906101000a900473ffffffffffffffffffffffffffffffffffffffff1673ffffffffffffffffffffffffffffffffffffffff1603611b345760019150611b41565b8080600101915050611aad565b5080611b82576040517f08c379a0000000000000000000000000000000000000000000000000000000008152600401611b799061280e565b60405180910390fd5b6000600560008a8152602001908152602001600020905060008160060154148015611bb1575060008160070154145b611bf0576040517f08c379a0000000000000000000000000000000000000000000000000000000008152600401611be79061311a565b60405180910390fd5b848385611bfd9190612adc565b11611c3d576040517f08c379a0000000000000000000000000000000000000000000000000000000008152600401611c34906131ac565b60405180910390fd5b87816006018190555086816007018190555060008603611c67576001548160020181905550611c71565b8581600201819055505b848160050181905550838160040181905550828160030181905550887f74245c13fa29018d2e3827a29b9f092a79b7d948264385dca981d1d6ba38a76f898989898989604051611cc696959493929190612c1e565b60405180910390a2505050505050505050565b60006005600083815260200190815260200160002090508060000160009054906101000a900460ff16611d41576040517f08c379a0000000000000000000000000000000000000000000000000000000008152600401611d3890612ccb565b60405180910390fd5b6000805b6007600085815260200190815260200160002080549050811015611dfb573373ffffffffffffffffffffffffffffffffffffffff16600760008681526020019081526020016000208281548110611d9f57611d9e612782565b5b9060005260206000200160009054906101000a900473ffffffffffffffffffffffffffffffffffffffff1673ffffffffffffffffffffffffffffffffffffffff1603611dee5760019150611dfb565b8080600101915050611d45565b5080611e3c576040517f08c379a0000000000000000000000000000000000000000000000000000000008152600401611e339061323e565b60405180910390fd5b60008260010154905060006006600086815260200190815260200160002060003373ffffffffffffffffffffffffffffffffffffffff1673ffffffffffffffffffffffffffffffffffffffff168152602001908152602001600020600083815260200190815260200160002090508060050160009054906101000a900460ff1615611efc576040517f08c379a0000000000000000000000000000000000000000000000000000000008152600401611ef3906132d0565b60405180910390fd5b6000816003015411611f43576040517f08c379a0000000000000000000000000000000000000000000000000000000008152600401611f3a9061333c565b60405180910390fd5b6000611f4e3361216a565b90508160030154471015611f97576040517f08c379a0000000000000000000000000000000000000000000000000000000008152600401611f8e906129e4565b60405180910390fd5b8073ffffffffffffffffffffffffffffffffffffffff166108fc83600301549081150290604051600060405180830381858888f19350505050158015611fe1573d6000803e3d6000fd5b5060018260050160006101000a81548160ff0219169083151502179055503373ffffffffffffffffffffffffffffffffffffffff16867f4eed845a8c2dab6b8f3276326563ae95a67314d068314298838cc3246bb3e3e08460040154856003015460405161205092919061335c565b60405180910390a3505050505050565b600660205282600052604060002060205281600052604060002060205280600052604060002060009250925050508060000154908060010160009054906101000a900473ffffffffffffffffffffffffffffffffffffffff16908060020154908060030154908060040154908060050160009054906101000a900460ff16905086565b6120eb612238565b73ffffffffffffffffffffffffffffffffffffffff16612109610b3c565b73ffffffffffffffffffffffffffffffffffffffff16146121685761212c612238565b6040517f118cdaa700000000000000000000000000000000000000000000000000000000815260040161215f9190612397565b60405180910390fd5b565b6000819050919050565b60008060009054906101000a900473ffffffffffffffffffffffffffffffffffffffff169050816000806101000a81548173ffffffffffffffffffffffffffffffffffffffff021916908373ffffffffffffffffffffffffffffffffffffffff1602179055508173ffffffffffffffffffffffffffffffffffffffff168173ffffffffffffffffffffffffffffffffffffffff167f8be0079c531659141344cd1fd0a4f28419497f9722a3daafe3b4186f6b6457e060405160405180910390a35050565b600033905090565b6040518061014001604052806000151581526020016000815260200160008152602001600081526020016000815260200160008152602001600081526020016000815260200160008152602001600081525090565b600080fd5b600073ffffffffffffffffffffffffffffffffffffffff82169050919050565b60006122c58261229a565b9050919050565b6122d5816122ba565b81146122e057600080fd5b50565b6000813590506122f2816122cc565b92915050565b60006020828403121561230e5761230d612295565b5b600061231c848285016122e3565b91505092915050565b6000819050919050565b61233881612325565b811461234357600080fd5b50565b6000813590506123558161232f565b92915050565b60006020828403121561237157612370612295565b5b600061237f84828501612346565b91505092915050565b612391816122ba565b82525050565b60006020820190506123ac6000830184612388565b92915050565b60008115159050919050565b6123c7816123b2565b82525050565b6123d681612325565b82525050565b6000610140820190506123f2600083018d6123be565b6123ff602083018c6123cd565b61240c604083018b6123cd565b612419606083018a6123cd565b61242660808301896123cd565b61243360a08301886123cd565b61244060c08301876123cd565b61244d60e08301866123cd565b61245b6101008301856123cd565b6124696101208301846123cd565b9b9a5050505050505050505050565b600060208201905061248d60008301846123cd565b92915050565b61249c816123b2565b82525050565b6124ab81612325565b82525050565b610140820160008201516124c86000850182612493565b5060208201516124db60208501826124a2565b5060408201516124ee60408501826124a2565b50606082015161250160608501826124a2565b50608082015161251460808501826124a2565b5060a082015161252760a08501826124a2565b5060c082015161253a60c08501826124a2565b5060e082015161254d60e08501826124a2565b506101008201516125626101008501826124a2565b506101208201516125776101208501826124a2565b50505050565b60006101408201905061259360008301846124b1565b92915050565b600080604083850312156125b0576125af612295565b5b60006125be85828601612346565b92505060206125cf85828601612346565b9150509250929050565b600080600080600080600060e0888a0312156125f8576125f7612295565b5b60006126068a828b01612346565b97505060206126178a828b01612346565b96505060406126288a828b01612346565b95505060606126398a828b01612346565b945050608061264a8a828b01612346565b93505060a061265b8a828b01612346565b92505060c061266c8a828b01612346565b91505092959891949750929550565b60008060006060848603121561269457612693612295565b5b60006126a286828701612346565b93505060206126b386828701612346565b92505060406126c486828701612346565b9150509250925092565b6000806000606084860312156126e7576126e6612295565b5b60006126f586828701612346565b9350506020612706868287016122e3565b925050604061271786828701612346565b9150509250925092565b600060c08201905061273660008301896123cd565b6127436020830188612388565b61275060408301876123cd565b61275d60608301866123cd565b61276a60808301856123cd565b61277760a08301846123be565b979650505050505050565b7f4e487b7100000000000000000000000000000000000000000000000000000000600052603260045260246000fd5b600082825260208201905092915050565b7f4e6f7420616c6c6f776564000000000000000000000000000000000000000000600082015250565b60006127f8600b836127b1565b9150612803826127c2565b602082019050919050565b60006020820190508181036000830152612827816127eb565b9050919050565b7f4e487b7100000000000000000000000000000000000000000000000000000000600052601160045260246000fd5b600061286882612325565b915061287383612325565b925082820390508181111561288b5761288a61282e565b5b92915050565b7f43616e206e6f742072656d6f76652064656261746520616e796d6f7265000000600082015250565b60006128c7601d836127b1565b91506128d282612891565b602082019050919050565b600060208201905081810360008301526128f6816128ba565b9050919050565b7f446562617465206973206e6f7420637265617465642079657400000000000000600082015250565b60006129336019836127b1565b915061293e826128fd565b602082019050919050565b6000602082019050818103600083015261296281612926565b9050919050565b7f4e487b7100000000000000000000000000000000000000000000000000000000600052603160045260246000fd5b7f496e73756666696369656e742062616c616e636520696e20636f6e7472616374600082015250565b60006129ce6020836127b1565b91506129d982612998565b602082019050919050565b600060208201905081810360008301526129fd816129c1565b9050919050565b7f44656261746520697320616c7265616479207265736f6c766564000000000000600082015250565b6000612a3a601a836127b1565b9150612a4582612a04565b602082019050919050565b60006020820190508181036000830152612a6981612a2d565b9050919050565b7f496e76616c6964206167656e7400000000000000000000000000000000000000600082015250565b6000612aa6600d836127b1565b9150612ab182612a70565b602082019050919050565b60006020820190508181036000830152612ad581612a99565b9050919050565b6000612ae782612325565b9150612af283612325565b9250828201905080821115612b0a57612b0961282e565b5b92915050565b6000612b1b82612325565b9150612b2683612325565b9250828202612b3481612325565b91508282048414831517612b4b57612b4a61282e565b5b5092915050565b7f4e487b7100000000000000000000000000000000000000000000000000000000600052601260045260246000fd5b6000612b8c82612325565b9150612b9783612325565b925082612ba757612ba6612b52565b5b828204905092915050565b7f43616e206e6f74206d6f646966792064656261746520616e796d6f7265000000600082015250565b6000612be8601d836127b1565b9150612bf382612bb2565b602082019050919050565b60006020820190508181036000830152612c1781612bdb565b9050919050565b600060c082019050612c3360008301896123cd565b612c4060208301886123cd565b612c4d60408301876123cd565b612c5a60608301866123cd565b612c6760808301856123cd565b612c7460a08301846123cd565b979650505050505050565b7f446562617465206973206e6f74207265736f6c76656420796574000000000000600082015250565b6000612cb5601a836127b1565b9150612cc082612c7f565b602082019050919050565b60006020820190508181036000830152612ce481612ca8565b9050919050565b7f416d6f756e74206d7573742062652067726561746572207468616e2030000000600082015250565b6000612d21601d836127b1565b9150612d2c82612ceb565b602082019050919050565b60006020820190508181036000830152612d5081612d14565b9050919050565b7f446562617465206973206e6f74207075626c6973686564207965740000000000600082015250565b6000612d8d601b836127b1565b9150612d9882612d57565b602082019050919050565b60006020820190508181036000830152612dbc81612d80565b9050919050565b7f4465626174652069732064656c65746564000000000000000000000000000000600082015250565b6000612df96011836127b1565b9150612e0482612dc3565b602082019050919050565b60006020820190508181036000830152612e2881612dec565b9050919050565b7f4465626174652073657373696f6e20697320616c7265616479207265736f6c7660008201527f6564000000000000000000000000000000000000000000000000000000000000602082015250565b6000612e8b6022836127b1565b9150612e9682612e2f565b604082019050919050565b60006020820190508181036000830152612eba81612e7e565b9050919050565b7f4465626174652073657373696f6e206973206e6f74207374617274656420796560008201527f7400000000000000000000000000000000000000000000000000000000000000602082015250565b6000612f1d6021836127b1565b9150612f2882612ec1565b604082019050919050565b60006020820190508181036000830152612f4c81612f10565b9050919050565b7f43616e206e6f7420706c6163652062657420616e796d6f726500000000000000600082015250565b6000612f896019836127b1565b9150612f9482612f53565b602082019050919050565b60006020820190508181036000830152612fb881612f7c565b9050919050565b7f46656520616d6f756e74206973206e6f7420636f727265637400000000000000600082015250565b6000612ff56019836127b1565b915061300082612fbf565b602082019050919050565b6000602082019050818103600083015261302481612fe8565b9050919050565b7f426f7468206167656e74732061726520616c72656164792061737369676e6564600082015250565b60006130616020836127b1565b915061306c8261302b565b602082019050919050565b6000602082019050818103600083015261309081613054565b9050919050565b60006060820190506130ac60008301866123cd565b6130b960208301856123cd565b6130c660408301846123cd565b949350505050565b7f44656261746520697320616c7265616479206372656174656400000000000000600082015250565b60006131046019836127b1565b915061310f826130ce565b602082019050919050565b60006020820190508181036000830152613133816130f7565b9050919050565b7f456e642074696d65206d7573742062652067726561746572207468616e20707560008201527f626c69632074696d650000000000000000000000000000000000000000000000602082015250565b60006131966029836127b1565b91506131a18261313a565b604082019050919050565b600060208201905081810360008301526131c581613189565b9050919050565b7f596f7520646964206e6f7420706c61636520616e7920626574206f6e2074686960008201527f7320646562617465000000000000000000000000000000000000000000000000602082015250565b60006132286028836127b1565b9150613233826131cc565b604082019050919050565b600060208201905081810360008301526132578161321b565b9050919050565b7f596f75206861766520616c726561647920636c61696d6564207468652072657760008201527f6172640000000000000000000000000000000000000000000000000000000000602082015250565b60006132ba6023836127b1565b91506132c58261325e565b604082019050919050565b600060208201905081810360008301526132e9816132ad565b9050919050565b7f596f7520646964206e6f742077696e2074686520626574000000000000000000600082015250565b60006133266017836127b1565b9150613331826132f0565b602082019050919050565b6000602082019050818103600083015261335581613319565b9050919050565b600060408201905061337160008301856123cd565b61337e60208301846123cd565b939250505056fea2646970667358221220c02b2c2fe4bd36efe317ff45cc3534e22af167e281303ea9e2b920bcdb4911ac64736f6c634300081c0033",
  "linkReferences": {},
  "deployedLinkReferences": {}
}