{
  "_format": "hh-sol-artifact-1",
  "contractName": "AIDebate",
  "sourceName": "contracts/Debate.sol",
  "abi": [
    {
      "inputs": [
        {
          "internalType": "address",
          "name": "initialOwner",
          "type": "address"
        }
      ],
      "stateMutability": "nonpayable",
      "type": "constructor"
    },
    {
      "inputs": [],
      "name": "InvalidInitialization",
      "type": "error"
    },
    {
      "inputs": [],
      "name": "NotInitializing",
      "type": "error"
    },
    {
      "inputs": [
        {
          "internalType": "address",
          "name": "owner",
          "type": "address"
        }
      ],
      "name": "OwnableInvalidOwner",
      "type": "error"
    },
    {
      "inputs": [
        {
          "internalType": "address",
          "name": "account",
          "type": "address"
        }
      ],
      "name": "OwnableUnauthorizedAccount",
      "type": "error"
    },
    {
      "anonymous": false,
      "inputs": [
        {
          "indexed": true,
          "internalType": "uint256",
          "name": "debateId",
          "type": "uint256"
        },
        {
          "indexed": true,
          "internalType": "address",
          "name": "bettor",
          "type": "address"
        },
        {
          "indexed": false,
          "internalType": "uint8",
          "name": "chosenAgentId",
          "type": "uint8"
        },
        {
          "indexed": false,
          "internalType": "uint256",
          "name": "amount",
          "type": "uint256"
        },
        {
          "indexed": false,
          "internalType": "uint256",
          "name": "platformFeePercentage",
          "type": "uint256"
        }
      ],
      "name": "BetPlaced",
      "type": "event"
    },
    {
      "anonymous": false,
      "inputs": [
        {
          "indexed": true,
          "internalType": "uint256",
          "name": "debateId",
          "type": "uint256"
        },
        {
          "indexed": false,
          "internalType": "uint8",
          "name": "agentAID",
          "type": "uint8"
        },
        {
          "indexed": false,
          "internalType": "uint8",
          "name": "agentBID",
          "type": "uint8"
        },
        {
          "indexed": false,
          "internalType": "uint256",
          "name": "platformFeePercentage",
          "type": "uint256"
        },
        {
          "indexed": false,
          "internalType": "uint256",
          "name": "publicTimeStamp",
          "type": "uint256"
        },
        {
          "indexed": false,
          "internalType": "uint256",
          "name": "startTimeStamp",
          "type": "uint256"
        },
        {
          "indexed": false,
          "internalType": "uint256",
          "name": "sessionDuration",
          "type": "uint256"
        }
      ],
      "name": "DebateCreated",
      "type": "event"
    },
    {
      "anonymous": false,
      "inputs": [
        {
          "indexed": true,
          "internalType": "uint256",
          "name": "debateId",
          "type": "uint256"
        }
      ],
      "name": "DebateDeleted",
      "type": "event"
    },
    {
      "anonymous": false,
      "inputs": [
        {
          "indexed": true,
          "internalType": "uint256",
          "name": "debateId",
          "type": "uint256"
        },
        {
          "indexed": false,
          "internalType": "uint8",
          "name": "winnAgentId",
          "type": "uint8"
        }
      ],
      "name": "DebateResolved",
      "type": "event"
    },
    {
      "anonymous": false,
      "inputs": [
        {
          "indexed": true,
          "internalType": "uint256",
          "name": "debateId",
          "type": "uint256"
        },
        {
          "indexed": false,
          "internalType": "uint8",
          "name": "agentAID",
          "type": "uint8"
        },
        {
          "indexed": false,
          "internalType": "uint8",
          "name": "agentBID",
          "type": "uint8"
        },
        {
          "indexed": false,
          "internalType": "uint256",
          "name": "platformFeePercentage",
          "type": "uint256"
        },
        {
          "indexed": false,
          "internalType": "uint256",
          "name": "publicTimeStamp",
          "type": "uint256"
        },
        {
          "indexed": false,
          "internalType": "uint256",
          "name": "startTimeStamp",
          "type": "uint256"
        },
        {
          "indexed": false,
          "internalType": "uint256",
          "name": "sessionDuration",
          "type": "uint256"
        }
      ],
      "name": "DebateUpdated",
      "type": "event"
    },
    {
      "anonymous": false,
      "inputs": [
        {
          "indexed": false,
          "internalType": "uint64",
          "name": "version",
          "type": "uint64"
        }
      ],
      "name": "Initialized",
      "type": "event"
    },
    {
      "anonymous": false,
      "inputs": [
        {
          "indexed": true,
          "internalType": "address",
          "name": "previousOwner",
          "type": "address"
        },
        {
          "indexed": true,
          "internalType": "address",
          "name": "newOwner",
          "type": "address"
        }
      ],
      "name": "OwnershipTransferred",
      "type": "event"
    },
    {
      "anonymous": false,
      "inputs": [
        {
          "indexed": true,
          "internalType": "uint256",
          "name": "debateId",
          "type": "uint256"
        },
        {
          "indexed": true,
          "internalType": "address",
          "name": "bettor",
          "type": "address"
        },
        {
          "indexed": false,
          "internalType": "uint8",
          "name": "chosenAgentId",
          "type": "uint8"
        },
        {
          "indexed": false,
          "internalType": "uint256",
          "name": "amount",
          "type": "uint256"
        }
      ],
      "name": "UserClaimed",
      "type": "event"
    },
    {
      "inputs": [
        {
          "internalType": "address",
          "name": "_address",
          "type": "address"
        }
      ],
      "name": "addWhitelist",
      "outputs": [],
      "stateMutability": "nonpayable",
      "type": "function"
    },
    {
      "inputs": [
        {
          "internalType": "uint256",
          "name": "",
          "type": "uint256"
        },
        {
          "internalType": "uint256",
          "name": "",
          "type": "uint256"
        }
      ],
      "name": "addressJoinedList",
      "outputs": [
        {
          "internalType": "address",
          "name": "",
          "type": "address"
        }
      ],
      "stateMutability": "view",
      "type": "function"
    },
    {
      "inputs": [
        {
          "internalType": "uint256",
          "name": "_debateId",
          "type": "uint256"
        },
        {
          "internalType": "uint8",
          "name": "_agentAID",
          "type": "uint8"
        },
        {
          "internalType": "uint8",
          "name": "_agentBID",
          "type": "uint8"
        },
        {
          "internalType": "uint256",
          "name": "_platformFeePercentage",
          "type": "uint256"
        },
        {
          "internalType": "uint256",
          "name": "_publicTimeStamp",
          "type": "uint256"
        },
        {
          "internalType": "uint256",
          "name": "_startTimeStamp",
          "type": "uint256"
        },
        {
          "internalType": "uint256",
          "name": "_sessionDuration",
          "type": "uint256"
        }
      ],
      "name": "adminCreateDebate",
      "outputs": [],
      "stateMutability": "nonpayable",
      "type": "function"
    },
    {
      "inputs": [
        {
          "internalType": "uint256",
          "name": "_debateId",
          "type": "uint256"
        }
      ],
      "name": "adminDeleteDebate",
      "outputs": [],
      "stateMutability": "nonpayable",
      "type": "function"
    },
    {
      "inputs": [
        {
          "internalType": "uint256",
          "name": "_debateId",
          "type": "uint256"
        },
        {
          "internalType": "uint8",
          "name": "_winAgentId",
          "type": "uint8"
        }
      ],
      "name": "adminResolveDebate",
      "outputs": [],
      "stateMutability": "nonpayable",
      "type": "function"
    },
    {
      "inputs": [
        {
          "internalType": "uint256",
          "name": "_debateId",
          "type": "uint256"
        },
        {
          "internalType": "uint8",
          "name": "_agentAID",
          "type": "uint8"
        },
        {
          "internalType": "uint8",
          "name": "_agentBID",
          "type": "uint8"
        },
        {
          "internalType": "uint256",
          "name": "_platformFeePercentage",
          "type": "uint256"
        },
        {
          "internalType": "uint256",
          "name": "_publicTimeStamp",
          "type": "uint256"
        },
        {
          "internalType": "uint256",
          "name": "_startTimeStamp",
          "type": "uint256"
        },
        {
          "internalType": "uint256",
          "name": "_sessionDuration",
          "type": "uint256"
        }
      ],
      "name": "adminUpdateDebate",
      "outputs": [],
      "stateMutability": "nonpayable",
      "type": "function"
    },
    {
      "inputs": [
        {
          "internalType": "uint256",
          "name": "",
          "type": "uint256"
        },
        {
          "internalType": "address",
          "name": "",
          "type": "address"
        },
        {
          "internalType": "uint256",
          "name": "",
          "type": "uint256"
        }
      ],
      "name": "betList",
      "outputs": [
        {
          "internalType": "uint256",
          "name": "debateId",
          "type": "uint256"
        },
        {
          "internalType": "address",
          "name": "bettor",
          "type": "address"
        },
        {
          "internalType": "uint256",
          "name": "amount",
          "type": "uint256"
        },
        {
          "internalType": "uint256",
          "name": "winAmount",
          "type": "uint256"
        },
        {
          "internalType": "uint8",
          "name": "chosenAgentId",
          "type": "uint8"
        },
        {
          "internalType": "bool",
          "name": "isClaimed",
          "type": "bool"
        }
      ],
      "stateMutability": "view",
      "type": "function"
    },
    {
      "inputs": [
        {
          "internalType": "uint256",
          "name": "",
          "type": "uint256"
        }
      ],
      "name": "debateList",
      "outputs": [
        {
          "internalType": "bool",
          "name": "isResolved",
          "type": "bool"
        },
        {
          "internalType": "uint8",
          "name": "winAgentId",
          "type": "uint8"
        },
        {
          "internalType": "uint256",
          "name": "platformFeePercentage",
          "type": "uint256"
        },
        {
          "internalType": "uint256",
          "name": "sessionDuration",
          "type": "uint256"
        },
        {
          "internalType": "uint256",
          "name": "startTimeStamp",
          "type": "uint256"
        },
        {
          "internalType": "uint256",
          "name": "publicTimeStamp",
          "type": "uint256"
        },
        {
          "internalType": "uint8",
          "name": "agentAID",
          "type": "uint8"
        },
        {
          "internalType": "uint8",
          "name": "agentBID",
          "type": "uint8"
        },
        {
          "internalType": "uint256",
          "name": "totalAgentABetAmount",
          "type": "uint256"
        },
        {
          "internalType": "uint256",
          "name": "totalAgentBBetAmount",
          "type": "uint256"
        }
      ],
      "stateMutability": "view",
      "type": "function"
    },
    {
      "inputs": [],
      "name": "defaultPlatformFeePercentage",
      "outputs": [
        {
          "internalType": "uint256",
          "name": "",
          "type": "uint256"
        }
      ],
      "stateMutability": "view",
      "type": "function"
    },
    {
      "inputs": [
        {
          "internalType": "uint256",
          "name": "_debateId",
          "type": "uint256"
        }
      ],
      "name": "getDebateInfo",
      "outputs": [
        {
          "components": [
            {
              "internalType": "bool",
              "name": "isResolved",
              "type": "bool"
            },
            {
              "internalType": "uint8",
              "name": "winAgentId",
              "type": "uint8"
            },
            {
              "internalType": "uint256",
              "name": "platformFeePercentage",
              "type": "uint256"
            },
            {
              "internalType": "uint256",
              "name": "sessionDuration",
              "type": "uint256"
            },
            {
              "internalType": "uint256",
              "name": "startTimeStamp",
              "type": "uint256"
            },
            {
              "internalType": "uint256",
              "name": "publicTimeStamp",
              "type": "uint256"
            },
            {
              "internalType": "uint8",
              "name": "agentAID",
              "type": "uint8"
            },
            {
              "internalType": "uint8",
              "name": "agentBID",
              "type": "uint8"
            },
            {
              "internalType": "uint256",
              "name": "totalAgentABetAmount",
              "type": "uint256"
            },
            {
              "internalType": "uint256",
              "name": "totalAgentBBetAmount",
              "type": "uint256"
            }
          ],
          "internalType": "struct AIDebate.Debate",
          "name": "",
          "type": "tuple"
        }
      ],
      "stateMutability": "view",
      "type": "function"
    },
    {
      "inputs": [],
      "name": "owner",
      "outputs": [
        {
          "internalType": "address",
          "name": "",
          "type": "address"
        }
      ],
      "stateMutability": "view",
      "type": "function"
    },
    {
      "inputs": [
        {
          "internalType": "uint256",
          "name": "_debateId",
          "type": "uint256"
        },
        {
          "internalType": "uint256",
          "name": "_amount",
          "type": "uint256"
        },
        {
          "internalType": "uint8",
          "name": "_chosenAgent",
          "type": "uint8"
        }
      ],
      "name": "placeBet",
      "outputs": [],
      "stateMutability": "payable",
      "type": "function"
    },
    {
      "inputs": [
        {
          "internalType": "address",
          "name": "_address",
          "type": "address"
        }
      ],
      "name": "removeWhitelist",
      "outputs": [],
      "stateMutability": "nonpayable",
      "type": "function"
    },
    {
      "inputs": [],
      "name": "renounceOwnership",
      "outputs": [],
      "stateMutability": "nonpayable",
      "type": "function"
    },
    {
      "inputs": [
        {
          "internalType": "address",
          "name": "newOwner",
          "type": "address"
        }
      ],
      "name": "transferOwnership",
      "outputs": [],
      "stateMutability": "nonpayable",
      "type": "function"
    },
    {
      "inputs": [
        {
          "internalType": "uint256",
          "name": "_debateId",
          "type": "uint256"
        }
      ],
      "name": "userClaim",
      "outputs": [],
      "stateMutability": "nonpayable",
      "type": "function"
    }
  ],
  "bytecode": "0x6080604052600560015561012c60025561070860035534801561002157600080fd5b50604051612ee3380380612ee3833981810160405281019061004391906101f3565b80600073ffffffffffffffffffffffffffffffffffffffff168173ffffffffffffffffffffffffffffffffffffffff16036100b65760006040517f1e4fbdf70000000000000000000000000000000000000000000000000000000081526004016100ad919061022f565b60405180910390fd5b6100c5816100cc60201b60201c565b505061024a565b60008060009054906101000a900473ffffffffffffffffffffffffffffffffffffffff169050816000806101000a81548173ffffffffffffffffffffffffffffffffffffffff021916908373ffffffffffffffffffffffffffffffffffffffff1602179055508173ffffffffffffffffffffffffffffffffffffffff168173ffffffffffffffffffffffffffffffffffffffff167f8be0079c531659141344cd1fd0a4f28419497f9722a3daafe3b4186f6b6457e060405160405180910390a35050565b600080fd5b600073ffffffffffffffffffffffffffffffffffffffff82169050919050565b60006101c082610195565b9050919050565b6101d0816101b5565b81146101db57600080fd5b50565b6000815190506101ed816101c7565b92915050565b60006020828403121561020957610208610190565b5b6000610217848285016101de565b91505092915050565b610229816101b5565b82525050565b60006020820190506102446000830184610220565b92915050565b612c8a806102596000396000f3fe6080604052600436106100f35760003560e01c80637a27fbb21161008a578063f2fde38b11610059578063f2fde38b1461030e578063f80f5dd514610337578063fe43efda14610360578063fe84d4b614610389576100f3565b80637a27fbb2146102615780638da5cb5b1461029e5780639e14427e146102c9578063c681b98f146102e5576100f3565b806343674131116100c657806343674131146101b95780635b99a012146101e4578063715018a61461022157806378c8cda714610238576100f3565b806321dc2a9d146100f85780632839255414610121578063310026df1461014a5780633993834814610173575b600080fd5b34801561010457600080fd5b5061011f600480360381019061011a9190611bc1565b6103cb565b005b34801561012d57600080fd5b5061014860048036038101906101439190611c63565b610579565b005b34801561015657600080fd5b50610171600480360381019061016c9190611c90565b6106b3565b005b34801561017f57600080fd5b5061019a60048036038101906101959190611c63565b610a0b565b6040516101b09a99989796959493929190611d09565b60405180910390f35b3480156101c557600080fd5b506101ce610a93565b6040516101db9190611da5565b60405180910390f35b3480156101f057600080fd5b5061020b60048036038101906102069190611c63565b610a99565b6040516102189190611eb9565b60405180910390f35b34801561022d57600080fd5b50610236610b7b565b005b34801561024457600080fd5b5061025f600480360381019061025a9190611f33565b610b8f565b005b34801561026d57600080fd5b5061028860048036038101906102839190611f60565b610bf2565b6040516102959190611faf565b60405180910390f35b3480156102aa57600080fd5b506102b3610c40565b6040516102c09190611faf565b60405180910390f35b6102e360048036038101906102de9190611fca565b610c69565b005b3480156102f157600080fd5b5061030c60048036038101906103079190611bc1565b6112d3565b005b34801561031a57600080fd5b5061033560048036038101906103309190611f33565b611479565b005b34801561034357600080fd5b5061035e60048036038101906103599190611f33565b6114ff565b005b34801561036c57600080fd5b5061038760048036038101906103829190611c63565b611562565b005b34801561039557600080fd5b506103b060048036038101906103ab919061201d565b611902565b6040516103c296959493929190612070565b60405180910390f35b6103d3611992565b600060046000898152602001908152602001600020905060008160050160009054906101000a900460ff1660ff1614158015610424575060008160050160019054906101000a900460ff1660ff1614155b610463576040517f08c379a000000000000000000000000000000000000000000000000000000000815260040161045a9061212e565b60405180910390fd5b6003548160040154610475919061217d565b42106104b6576040517f08c379a00000000000000000000000000000000000000000000000000000000081526004016104ad906121fd565b60405180910390fd5b868160050160006101000a81548160ff021916908360ff160217905550858160050160016101000a81548160ff021916908360ff16021790555060008503610508576001548160010181905550610512565b8481600101819055505b838160040181905550828160030181905550818160020181905550877f64d54b9f1762fee59e9954486e380b4a0085df6054d4d589ae9b6ad805319d838888888888886040516105679695949392919061221d565b60405180910390a25050505050505050565b610581611992565b600060046000838152602001908152602001600020905060035481600401546105aa919061217d565b42106105eb576040517f08c379a00000000000000000000000000000000000000000000000000000000081526004016105e2906122ca565b60405180910390fd5b60008160050160009054906101000a900460ff1660ff1614158015610625575060008160050160019054906101000a900460ff1660ff1614155b610664576040517f08c379a000000000000000000000000000000000000000000000000000000000815260040161065b9061212e565b60405180910390fd5b600081600401819055506000816003018190555060008160020181905550817f80bed4ceeb2dfbd88f61cca1c30bc6dede3047d1862345ef30f1cbc44c2016d760405160405180910390a25050565b6106bb611992565b60006004600084815260200190815260200160002090508060000160009054906101000a900460ff1615610724576040517f08c379a000000000000000000000000000000000000000000000000000000000815260040161071b90612336565b60405180910390fd5b8060050160009054906101000a900460ff1660ff168260ff16148061075f57508060050160019054906101000a900460ff1660ff168260ff16145b61079e576040517f08c379a0000000000000000000000000000000000000000000000000000000008152600401610795906123a2565b60405180910390fd5b60018160000160006101000a81548160ff021916908315150217905550818160000160016101000a81548160ff021916908360ff1602179055506000816007015482600601546107ee91906123c2565b905060005b60066000868152602001908152602001600020805490508110156109cc576000600660008781526020019081526020016000208281548110610838576108376123f6565b5b9060005260206000200160009054906101000a900473ffffffffffffffffffffffffffffffffffffffff16905060006005600088815260200190815260200160002060008373ffffffffffffffffffffffffffffffffffffffff1673ffffffffffffffffffffffffffffffffffffffff16815260200190815260200160002060008760ff16815260200190815260200160002090508560ff168160040160009054906101000a900460ff1660ff16036109bd5760008560050160009054906101000a900460ff1660ff168260040160009054906101000a900460ff1660ff16036109695760648660010154606461092f919061217d565b86886006015485600201546109449190612454565b61094e9190612485565b6109589190612485565b6109629190612454565b90506109b2565b60648660010154606461097c919061217d565b86886007015485600201546109919190612454565b61099b9190612485565b6109a59190612485565b6109af9190612454565b90505b808260030181905550505b505080806001019150506107f3565b50837fce9132b398f004c2439d9df899fbaab5d9bb01c6dd02a720728f73eac95e578f846040516109fd91906124c7565b60405180910390a250505050565b60046020528060005260406000206000915090508060000160009054906101000a900460ff16908060000160019054906101000a900460ff16908060010154908060020154908060030154908060040154908060050160009054906101000a900460ff16908060050160019054906101000a900460ff1690806006015490806007015490508a565b60015481565b610aa1611aef565b600060046000848152602001908152602001600020905080604051806101400160405290816000820160009054906101000a900460ff161515151581526020016000820160019054906101000a900460ff1660ff1660ff168152602001600182015481526020016002820154815260200160038201548152602001600482015481526020016005820160009054906101000a900460ff1660ff1660ff1681526020016005820160019054906101000a900460ff1660ff1660ff16815260200160068201548152602001600782015481525050915050919050565b610b83611992565b610b8d6000611a19565b565b610b97611992565b6000600760008373ffffffffffffffffffffffffffffffffffffffff1673ffffffffffffffffffffffffffffffffffffffff16815260200190815260200160002060006101000a81548160ff02191690831515021790555050565b60066020528160005260406000208181548110610c0e57600080fd5b906000526020600020016000915091509054906101000a900473ffffffffffffffffffffffffffffffffffffffff1681565b60008060009054906101000a900473ffffffffffffffffffffffffffffffffffffffff16905090565b60008211610cac576040517f08c379a0000000000000000000000000000000000000000000000000000000008152600401610ca39061252e565b60405180910390fd5b60006004600085815260200190815260200160002090506000816004015411610d0a576040517f08c379a0000000000000000000000000000000000000000000000000000000008152600401610d019061259a565b60405180910390fd5b6000816003015403610d51576040517f08c379a0000000000000000000000000000000000000000000000000000000008152600401610d4890612606565b60405180910390fd5b8060000160009054906101000a900460ff1615610da3576040517f08c379a0000000000000000000000000000000000000000000000000000000008152600401610d9a90612698565b60405180910390fd5b80600401544211610de9576040517f08c379a0000000000000000000000000000000000000000000000000000000008152600401610de09061272a565b60405180910390fd5b60025481600201548260030154610e0091906123c2565b610e0a919061217d565b4210610e4b576040517f08c379a0000000000000000000000000000000000000000000000000000000008152600401610e4290612796565b60405180910390fd5b82341015610e8e576040517f08c379a0000000000000000000000000000000000000000000000000000000008152600401610e8590612802565b60405180910390fd5b8060050160009054906101000a900460ff1660ff168260ff1603610ecc5782816006016000828254610ec091906123c2565b92505081905550611014565b8060050160019054906101000a900460ff1660ff168260ff1603610f0a5782816007016000828254610efe91906123c2565b92505081905550611013565b60008160050160009054906101000a900460ff1660ff161480610f41575060008160050160019054906101000a900460ff1660ff16145b610f80576040517f08c379a0000000000000000000000000000000000000000000000000000000008152600401610f779061286e565b60405180910390fd5b60008160050160009054906101000a900460ff1660ff1603610fd957818160050160006101000a81548160ff021916908360ff16021790555082816006016000828254610fcd91906123c2565b92505081905550611012565b818160050160016101000a81548160ff021916908360ff1602179055508281600701600082825461100a91906123c2565b925050819055505b5b5b60006005600086815260200190815260200160002060003373ffffffffffffffffffffffffffffffffffffffff1673ffffffffffffffffffffffffffffffffffffffff16815260200190815260200160002060008460ff16815260200190815260200160002090506000816002015411156110a9578381600201600082825461109d91906123c2565b92505081905550611201565b6040518060c001604052808681526020013373ffffffffffffffffffffffffffffffffffffffff168152602001858152602001600081526020018460ff168152602001600015158152506005600087815260200190815260200160002060003373ffffffffffffffffffffffffffffffffffffffff1673ffffffffffffffffffffffffffffffffffffffff16815260200190815260200160002060008560ff1681526020019081526020016000206000820151816000015560208201518160010160006101000a81548173ffffffffffffffffffffffffffffffffffffffff021916908373ffffffffffffffffffffffffffffffffffffffff160217905550604082015181600201556060820151816003015560808201518160040160006101000a81548160ff021916908360ff16021790555060a08201518160040160016101000a81548160ff0219169083151502179055509050505b60066000868152602001908152602001600020339080600181540180825580915050600190039060005260206000200160009091909190916101000a81548173ffffffffffffffffffffffffffffffffffffffff021916908373ffffffffffffffffffffffffffffffffffffffff1602179055503373ffffffffffffffffffffffffffffffffffffffff16857fbfcd8f4e47cc529f86cdc7eab8fb80e015a298e021fcaee72df1f76dd57cf487858786600101546040516112c49392919061288e565b60405180910390a35050505050565b6112db611992565b600060046000898152602001908152602001600020905060008160050160009054906101000a900460ff1660ff1614801561132a575060008160050160019054906101000a900460ff1660ff16145b611369576040517f08c379a000000000000000000000000000000000000000000000000000000000815260040161136090612911565b60405180910390fd5b83828461137691906123c2565b116113b6576040517f08c379a00000000000000000000000000000000000000000000000000000000081526004016113ad906129a3565b60405180910390fd5b868160050160006101000a81548160ff021916908360ff160217905550858160050160016101000a81548160ff021916908360ff16021790555060008503611408576001548160010181905550611412565b8481600101819055505b838160040181905550828160030181905550818160020181905550877ff20ac1968341f42b49114b784ae775809f5eda9345a4620ecc2766d0b14ed4c48888888888886040516114679695949392919061221d565b60405180910390a25050505050505050565b611481611992565b600073ffffffffffffffffffffffffffffffffffffffff168173ffffffffffffffffffffffffffffffffffffffff16036114f35760006040517f1e4fbdf70000000000000000000000000000000000000000000000000000000081526004016114ea9190611faf565b60405180910390fd5b6114fc81611a19565b50565b611507611992565b6001600760008373ffffffffffffffffffffffffffffffffffffffff1673ffffffffffffffffffffffffffffffffffffffff16815260200190815260200160002060006101000a81548160ff02191690831515021790555050565b60006004600083815260200190815260200160002090508060000160009054906101000a900460ff166115ca576040517f08c379a00000000000000000000000000000000000000000000000000000000081526004016115c190612a0f565b60405180910390fd5b6000805b6006600085815260200190815260200160002080549050811015611680573373ffffffffffffffffffffffffffffffffffffffff16600660008681526020019081526020016000208281548110611628576116276123f6565b5b9060005260206000200160009054906101000a900473ffffffffffffffffffffffffffffffffffffffff1673ffffffffffffffffffffffffffffffffffffffff160361167357600191505b80806001019150506115ce565b50806116c1576040517f08c379a00000000000000000000000000000000000000000000000000000000081526004016116b890612aa1565b60405180910390fd5b60008260000160019054906101000a900460ff1660ff16905060006005600086815260200190815260200160002060003373ffffffffffffffffffffffffffffffffffffffff1673ffffffffffffffffffffffffffffffffffffffff168152602001908152602001600020600083815260200190815260200160002090508060040160019054906101000a900460ff1615611791576040517f08c379a000000000000000000000000000000000000000000000000000000000815260040161178890612b33565b60405180910390fd5b60008160030154116117d8576040517f08c379a00000000000000000000000000000000000000000000000000000000081526004016117cf90612b9f565b60405180910390fd5b60006117e333611add565b9050816003015447101561182c576040517f08c379a000000000000000000000000000000000000000000000000000000000815260040161182390612c0b565b60405180910390fd5b8073ffffffffffffffffffffffffffffffffffffffff166108fc83600301549081150290604051600060405180830381858888f19350505050158015611876573d6000803e3d6000fd5b5060018260040160016101000a81548160ff0219169083151502179055503373ffffffffffffffffffffffffffffffffffffffff16867f117469dc6e53cc28b431071a5558d9ba93ba1fa0a223492d196a9fa9e541c0d78460040160009054906101000a900460ff1685600301546040516118f2929190612c2b565b60405180910390a3505050505050565b600560205282600052604060002060205281600052604060002060205280600052604060002060009250925050508060000154908060010160009054906101000a900473ffffffffffffffffffffffffffffffffffffffff16908060020154908060030154908060040160009054906101000a900460ff16908060040160019054906101000a900460ff16905086565b61199a611ae7565b73ffffffffffffffffffffffffffffffffffffffff166119b8610c40565b73ffffffffffffffffffffffffffffffffffffffff1614611a17576119db611ae7565b6040517f118cdaa7000000000000000000000000000000000000000000000000000000008152600401611a0e9190611faf565b60405180910390fd5b565b60008060009054906101000a900473ffffffffffffffffffffffffffffffffffffffff169050816000806101000a81548173ffffffffffffffffffffffffffffffffffffffff021916908373ffffffffffffffffffffffffffffffffffffffff1602179055508173ffffffffffffffffffffffffffffffffffffffff168173ffffffffffffffffffffffffffffffffffffffff167f8be0079c531659141344cd1fd0a4f28419497f9722a3daafe3b4186f6b6457e060405160405180910390a35050565b6000819050919050565b600033905090565b604051806101400160405280600015158152602001600060ff16815260200160008152602001600081526020016000815260200160008152602001600060ff168152602001600060ff16815260200160008152602001600081525090565b600080fd5b6000819050919050565b611b6581611b52565b8114611b7057600080fd5b50565b600081359050611b8281611b5c565b92915050565b600060ff82169050919050565b611b9e81611b88565b8114611ba957600080fd5b50565b600081359050611bbb81611b95565b92915050565b600080600080600080600060e0888a031215611be057611bdf611b4d565b5b6000611bee8a828b01611b73565b9750506020611bff8a828b01611bac565b9650506040611c108a828b01611bac565b9550506060611c218a828b01611b73565b9450506080611c328a828b01611b73565b93505060a0611c438a828b01611b73565b92505060c0611c548a828b01611b73565b91505092959891949750929550565b600060208284031215611c7957611c78611b4d565b5b6000611c8784828501611b73565b91505092915050565b60008060408385031215611ca757611ca6611b4d565b5b6000611cb585828601611b73565b9250506020611cc685828601611bac565b9150509250929050565b60008115159050919050565b611ce581611cd0565b82525050565b611cf481611b88565b82525050565b611d0381611b52565b82525050565b600061014082019050611d1f600083018d611cdc565b611d2c602083018c611ceb565b611d39604083018b611cfa565b611d46606083018a611cfa565b611d536080830189611cfa565b611d6060a0830188611cfa565b611d6d60c0830187611ceb565b611d7a60e0830186611ceb565b611d88610100830185611cfa565b611d96610120830184611cfa565b9b9a5050505050505050505050565b6000602082019050611dba6000830184611cfa565b92915050565b611dc981611cd0565b82525050565b611dd881611b88565b82525050565b611de781611b52565b82525050565b61014082016000820151611e046000850182611dc0565b506020820151611e176020850182611dcf565b506040820151611e2a6040850182611dde565b506060820151611e3d6060850182611dde565b506080820151611e506080850182611dde565b5060a0820151611e6360a0850182611dde565b5060c0820151611e7660c0850182611dcf565b5060e0820151611e8960e0850182611dcf565b50610100820151611e9e610100850182611dde565b50610120820151611eb3610120850182611dde565b50505050565b600061014082019050611ecf6000830184611ded565b92915050565b600073ffffffffffffffffffffffffffffffffffffffff82169050919050565b6000611f0082611ed5565b9050919050565b611f1081611ef5565b8114611f1b57600080fd5b50565b600081359050611f2d81611f07565b92915050565b600060208284031215611f4957611f48611b4d565b5b6000611f5784828501611f1e565b91505092915050565b60008060408385031215611f7757611f76611b4d565b5b6000611f8585828601611b73565b9250506020611f9685828601611b73565b9150509250929050565b611fa981611ef5565b82525050565b6000602082019050611fc46000830184611fa0565b92915050565b600080600060608486031215611fe357611fe2611b4d565b5b6000611ff186828701611b73565b935050602061200286828701611b73565b925050604061201386828701611bac565b9150509250925092565b60008060006060848603121561203657612035611b4d565b5b600061204486828701611b73565b935050602061205586828701611f1e565b925050604061206686828701611b73565b9150509250925092565b600060c0820190506120856000830189611cfa565b6120926020830188611fa0565b61209f6040830187611cfa565b6120ac6060830186611cfa565b6120b96080830185611ceb565b6120c660a0830184611cdc565b979650505050505050565b600082825260208201905092915050565b7f446562617465206973206e6f7420637265617465642079657400000000000000600082015250565b60006121186019836120d1565b9150612123826120e2565b602082019050919050565b600060208201905081810360008301526121478161210b565b9050919050565b7f4e487b7100000000000000000000000000000000000000000000000000000000600052601160045260246000fd5b600061218882611b52565b915061219383611b52565b92508282039050818111156121ab576121aa61214e565b5b92915050565b7f43616e206e6f74206d6f646966792064656261746520616e796d6f7265000000600082015250565b60006121e7601d836120d1565b91506121f2826121b1565b602082019050919050565b60006020820190508181036000830152612216816121da565b9050919050565b600060c0820190506122326000830189611ceb565b61223f6020830188611ceb565b61224c6040830187611cfa565b6122596060830186611cfa565b6122666080830185611cfa565b61227360a0830184611cfa565b979650505050505050565b7f43616e206e6f742072656d6f76652064656261746520616e796d6f7265000000600082015250565b60006122b4601d836120d1565b91506122bf8261227e565b602082019050919050565b600060208201905081810360008301526122e3816122a7565b9050919050565b7f44656261746520697320616c7265616479207265736f6c766564000000000000600082015250565b6000612320601a836120d1565b915061232b826122ea565b602082019050919050565b6000602082019050818103600083015261234f81612313565b9050919050565b7f496e76616c6964206167656e7400000000000000000000000000000000000000600082015250565b600061238c600d836120d1565b915061239782612356565b602082019050919050565b600060208201905081810360008301526123bb8161237f565b9050919050565b60006123cd82611b52565b91506123d883611b52565b92508282019050808211156123f0576123ef61214e565b5b92915050565b7f4e487b7100000000000000000000000000000000000000000000000000000000600052603260045260246000fd5b7f4e487b7100000000000000000000000000000000000000000000000000000000600052601260045260246000fd5b600061245f82611b52565b915061246a83611b52565b92508261247a57612479612425565b5b828204905092915050565b600061249082611b52565b915061249b83611b52565b92508282026124a981611b52565b915082820484148315176124c0576124bf61214e565b5b5092915050565b60006020820190506124dc6000830184611ceb565b92915050565b7f416d6f756e74206d7573742062652067726561746572207468616e2030000000600082015250565b6000612518601d836120d1565b9150612523826124e2565b602082019050919050565b600060208201905081810360008301526125478161250b565b9050919050565b7f446562617465206973206e6f74207075626c6973686564207965740000000000600082015250565b6000612584601b836120d1565b915061258f8261254e565b602082019050919050565b600060208201905081810360008301526125b381612577565b9050919050565b7f4465626174652069732064656c65746564000000000000000000000000000000600082015250565b60006125f06011836120d1565b91506125fb826125ba565b602082019050919050565b6000602082019050818103600083015261261f816125e3565b9050919050565b7f4465626174652073657373696f6e20697320616c7265616479207265736f6c7660008201527f6564000000000000000000000000000000000000000000000000000000000000602082015250565b60006126826022836120d1565b915061268d82612626565b604082019050919050565b600060208201905081810360008301526126b181612675565b9050919050565b7f4465626174652073657373696f6e206973206e6f74207374617274656420796560008201527f7400000000000000000000000000000000000000000000000000000000000000602082015250565b60006127146021836120d1565b915061271f826126b8565b604082019050919050565b6000602082019050818103600083015261274381612707565b9050919050565b7f43616e206e6f7420706c6163652062657420616e796d6f726500000000000000600082015250565b60006127806019836120d1565b915061278b8261274a565b602082019050919050565b600060208201905081810360008301526127af81612773565b9050919050565b7f46656520616d6f756e74206973206e6f7420636f727265637400000000000000600082015250565b60006127ec6019836120d1565b91506127f7826127b6565b602082019050919050565b6000602082019050818103600083015261281b816127df565b9050919050565b7f426f7468206167656e74732061726520616c72656164792061737369676e6564600082015250565b60006128586020836120d1565b915061286382612822565b602082019050919050565b600060208201905081810360008301526128878161284b565b9050919050565b60006060820190506128a36000830186611ceb565b6128b06020830185611cfa565b6128bd6040830184611cfa565b949350505050565b7f44656261746520697320616c7265616479206372656174656400000000000000600082015250565b60006128fb6019836120d1565b9150612906826128c5565b602082019050919050565b6000602082019050818103600083015261292a816128ee565b9050919050565b7f456e642074696d65206d7573742062652067726561746572207468616e20707560008201527f626c69632074696d650000000000000000000000000000000000000000000000602082015250565b600061298d6029836120d1565b915061299882612931565b604082019050919050565b600060208201905081810360008301526129bc81612980565b9050919050565b7f446562617465206973206e6f74207265736f6c76656420796574000000000000600082015250565b60006129f9601a836120d1565b9150612a04826129c3565b602082019050919050565b60006020820190508181036000830152612a28816129ec565b9050919050565b7f596f7520646964206e6f7420706c61636520616e7920626574206f6e2074686960008201527f7320646562617465000000000000000000000000000000000000000000000000602082015250565b6000612a8b6028836120d1565b9150612a9682612a2f565b604082019050919050565b60006020820190508181036000830152612aba81612a7e565b9050919050565b7f596f75206861766520616c726561647920636c61696d6564207468652072657760008201527f6172640000000000000000000000000000000000000000000000000000000000602082015250565b6000612b1d6023836120d1565b9150612b2882612ac1565b604082019050919050565b60006020820190508181036000830152612b4c81612b10565b9050919050565b7f596f7520646964206e6f742077696e2074686520626574000000000000000000600082015250565b6000612b896017836120d1565b9150612b9482612b53565b602082019050919050565b60006020820190508181036000830152612bb881612b7c565b9050919050565b7f496e73756666696369656e742062616c616e636520696e20636f6e7472616374600082015250565b6000612bf56020836120d1565b9150612c0082612bbf565b602082019050919050565b60006020820190508181036000830152612c2481612be8565b9050919050565b6000604082019050612c406000830185611ceb565b612c4d6020830184611cfa565b939250505056fea2646970667358221220b54464d24e53cc26401ff0c8b97737696ff4421d576aac2f8409a73bca4d065464736f6c634300081c0033",
  "linkReferences": {},
  "deployedLinkReferences": {}
}