{
  "_format": "hh-sol-artifact-1",
  "contractName": "AIDebate",
  "sourceName": "contracts/Debate.sol",
  "abi": [
    {
      "inputs": [
        {
          "internalType": "address",
          "name": "initialOwner",
          "type": "address"
        }
      ],
      "stateMutability": "nonpayable",
      "type": "constructor"
    },
    {
      "inputs": [],
      "name": "InvalidInitialization",
      "type": "error"
    },
    {
      "inputs": [],
      "name": "NotInitializing",
      "type": "error"
    },
    {
      "inputs": [
        {
          "internalType": "address",
          "name": "owner",
          "type": "address"
        }
      ],
      "name": "OwnableInvalidOwner",
      "type": "error"
    },
    {
      "inputs": [
        {
          "internalType": "address",
          "name": "account",
          "type": "address"
        }
      ],
      "name": "OwnableUnauthorizedAccount",
      "type": "error"
    },
    {
      "anonymous": false,
      "inputs": [
        {
          "indexed": true,
          "internalType": "uint256",
          "name": "debateId",
          "type": "uint256"
        },
        {
          "indexed": true,
          "internalType": "address",
          "name": "bettor",
          "type": "address"
        },
        {
          "indexed": false,
          "internalType": "uint256",
          "name": "chosenAgentId",
          "type": "uint256"
        },
        {
          "indexed": false,
          "internalType": "uint256",
          "name": "amount",
          "type": "uint256"
        },
        {
          "indexed": false,
          "internalType": "uint256",
          "name": "platformFeePercentage",
          "type": "uint256"
        }
      ],
      "name": "BetPlaced",
      "type": "event"
    },
    {
      "anonymous": false,
      "inputs": [
        {
          "indexed": true,
          "internalType": "uint256",
          "name": "debateId",
          "type": "uint256"
        },
        {
          "indexed": false,
          "internalType": "uint256",
          "name": "agentAID",
          "type": "uint256"
        },
        {
          "indexed": false,
          "internalType": "uint256",
          "name": "agentBID",
          "type": "uint256"
        },
        {
          "indexed": false,
          "internalType": "uint256",
          "name": "platformFeePercentage",
          "type": "uint256"
        },
        {
          "indexed": false,
          "internalType": "uint256",
          "name": "publicTimeStamp",
          "type": "uint256"
        },
        {
          "indexed": false,
          "internalType": "uint256",
          "name": "startTimeStamp",
          "type": "uint256"
        },
        {
          "indexed": false,
          "internalType": "uint256",
          "name": "sessionDuration",
          "type": "uint256"
        }
      ],
      "name": "DebateCreated",
      "type": "event"
    },
    {
      "anonymous": false,
      "inputs": [
        {
          "indexed": true,
          "internalType": "uint256",
          "name": "debateId",
          "type": "uint256"
        }
      ],
      "name": "DebateDeleted",
      "type": "event"
    },
    {
      "anonymous": false,
      "inputs": [
        {
          "indexed": true,
          "internalType": "uint256",
          "name": "debateId",
          "type": "uint256"
        },
        {
          "indexed": false,
          "internalType": "uint256",
          "name": "winnAgentId",
          "type": "uint256"
        }
      ],
      "name": "DebateResolved",
      "type": "event"
    },
    {
      "anonymous": false,
      "inputs": [
        {
          "indexed": true,
          "internalType": "uint256",
          "name": "debateId",
          "type": "uint256"
        },
        {
          "indexed": false,
          "internalType": "uint256",
          "name": "agentAID",
          "type": "uint256"
        },
        {
          "indexed": false,
          "internalType": "uint256",
          "name": "agentBID",
          "type": "uint256"
        },
        {
          "indexed": false,
          "internalType": "uint256",
          "name": "platformFeePercentage",
          "type": "uint256"
        },
        {
          "indexed": false,
          "internalType": "uint256",
          "name": "publicTimeStamp",
          "type": "uint256"
        },
        {
          "indexed": false,
          "internalType": "uint256",
          "name": "startTimeStamp",
          "type": "uint256"
        },
        {
          "indexed": false,
          "internalType": "uint256",
          "name": "sessionDuration",
          "type": "uint256"
        }
      ],
      "name": "DebateUpdated",
      "type": "event"
    },
    {
      "anonymous": false,
      "inputs": [
        {
          "indexed": false,
          "internalType": "uint64",
          "name": "version",
          "type": "uint64"
        }
      ],
      "name": "Initialized",
      "type": "event"
    },
    {
      "anonymous": false,
      "inputs": [
        {
          "indexed": true,
          "internalType": "address",
          "name": "previousOwner",
          "type": "address"
        },
        {
          "indexed": true,
          "internalType": "address",
          "name": "newOwner",
          "type": "address"
        }
      ],
      "name": "OwnershipTransferred",
      "type": "event"
    },
    {
      "anonymous": false,
      "inputs": [
        {
          "indexed": true,
          "internalType": "uint256",
          "name": "debateId",
          "type": "uint256"
        },
        {
          "indexed": true,
          "internalType": "address",
          "name": "bettor",
          "type": "address"
        },
        {
          "indexed": false,
          "internalType": "uint256",
          "name": "chosenAgentId",
          "type": "uint256"
        },
        {
          "indexed": false,
          "internalType": "uint256",
          "name": "amount",
          "type": "uint256"
        }
      ],
      "name": "UserClaimed",
      "type": "event"
    },
    {
      "inputs": [
        {
          "internalType": "address",
          "name": "_address",
          "type": "address"
        }
      ],
      "name": "addWhitelist",
      "outputs": [],
      "stateMutability": "nonpayable",
      "type": "function"
    },
    {
      "inputs": [
        {
          "internalType": "uint256",
          "name": "",
          "type": "uint256"
        },
        {
          "internalType": "uint256",
          "name": "",
          "type": "uint256"
        }
      ],
      "name": "addressJoinedList",
      "outputs": [
        {
          "internalType": "address",
          "name": "",
          "type": "address"
        }
      ],
      "stateMutability": "view",
      "type": "function"
    },
    {
      "inputs": [
        {
          "internalType": "uint256",
          "name": "_debateId",
          "type": "uint256"
        },
        {
          "internalType": "uint256",
          "name": "_agentAID",
          "type": "uint256"
        },
        {
          "internalType": "uint256",
          "name": "_agentBID",
          "type": "uint256"
        },
        {
          "internalType": "uint256",
          "name": "_platformFeePercentage",
          "type": "uint256"
        },
        {
          "internalType": "uint256",
          "name": "_publicTimeStamp",
          "type": "uint256"
        },
        {
          "internalType": "uint256",
          "name": "_startTimeStamp",
          "type": "uint256"
        },
        {
          "internalType": "uint256",
          "name": "_sessionDuration",
          "type": "uint256"
        }
      ],
      "name": "adminCreateDebate",
      "outputs": [],
      "stateMutability": "nonpayable",
      "type": "function"
    },
    {
      "inputs": [
        {
          "internalType": "uint256",
          "name": "_debateId",
          "type": "uint256"
        }
      ],
      "name": "adminDeleteDebate",
      "outputs": [],
      "stateMutability": "nonpayable",
      "type": "function"
    },
    {
      "inputs": [
        {
          "internalType": "uint256",
          "name": "_debateId",
          "type": "uint256"
        },
        {
          "internalType": "uint256",
          "name": "_winAgentId",
          "type": "uint256"
        }
      ],
      "name": "adminResolveDebate",
      "outputs": [],
      "stateMutability": "nonpayable",
      "type": "function"
    },
    {
      "inputs": [
        {
          "internalType": "uint256",
          "name": "_debateId",
          "type": "uint256"
        },
        {
          "internalType": "uint256",
          "name": "_agentAID",
          "type": "uint256"
        },
        {
          "internalType": "uint256",
          "name": "_agentBID",
          "type": "uint256"
        },
        {
          "internalType": "uint256",
          "name": "_platformFeePercentage",
          "type": "uint256"
        },
        {
          "internalType": "uint256",
          "name": "_publicTimeStamp",
          "type": "uint256"
        },
        {
          "internalType": "uint256",
          "name": "_startTimeStamp",
          "type": "uint256"
        },
        {
          "internalType": "uint256",
          "name": "_sessionDuration",
          "type": "uint256"
        }
      ],
      "name": "adminUpdateDebate",
      "outputs": [],
      "stateMutability": "nonpayable",
      "type": "function"
    },
    {
      "inputs": [
        {
          "internalType": "uint256",
          "name": "",
          "type": "uint256"
        },
        {
          "internalType": "address",
          "name": "",
          "type": "address"
        },
        {
          "internalType": "uint256",
          "name": "",
          "type": "uint256"
        }
      ],
      "name": "betList",
      "outputs": [
        {
          "internalType": "uint256",
          "name": "debateId",
          "type": "uint256"
        },
        {
          "internalType": "address",
          "name": "bettor",
          "type": "address"
        },
        {
          "internalType": "uint256",
          "name": "amount",
          "type": "uint256"
        },
        {
          "internalType": "uint256",
          "name": "winAmount",
          "type": "uint256"
        },
        {
          "internalType": "uint256",
          "name": "chosenAgentId",
          "type": "uint256"
        },
        {
          "internalType": "bool",
          "name": "isClaimed",
          "type": "bool"
        }
      ],
      "stateMutability": "view",
      "type": "function"
    },
    {
      "inputs": [
        {
          "internalType": "uint256",
          "name": "",
          "type": "uint256"
        }
      ],
      "name": "debateList",
      "outputs": [
        {
          "internalType": "bool",
          "name": "isResolved",
          "type": "bool"
        },
        {
          "internalType": "uint256",
          "name": "winAgentId",
          "type": "uint256"
        },
        {
          "internalType": "uint256",
          "name": "platformFeePercentage",
          "type": "uint256"
        },
        {
          "internalType": "uint256",
          "name": "sessionDuration",
          "type": "uint256"
        },
        {
          "internalType": "uint256",
          "name": "startTimeStamp",
          "type": "uint256"
        },
        {
          "internalType": "uint256",
          "name": "publicTimeStamp",
          "type": "uint256"
        },
        {
          "internalType": "uint256",
          "name": "agentAID",
          "type": "uint256"
        },
        {
          "internalType": "uint256",
          "name": "agentBID",
          "type": "uint256"
        },
        {
          "internalType": "uint256",
          "name": "totalAgentABetAmount",
          "type": "uint256"
        },
        {
          "internalType": "uint256",
          "name": "totalAgentBBetAmount",
          "type": "uint256"
        }
      ],
      "stateMutability": "view",
      "type": "function"
    },
    {
      "inputs": [],
      "name": "defaultPlatformFeePercentage",
      "outputs": [
        {
          "internalType": "uint256",
          "name": "",
          "type": "uint256"
        }
      ],
      "stateMutability": "view",
      "type": "function"
    },
    {
      "inputs": [
        {
          "internalType": "uint256",
          "name": "_debateId",
          "type": "uint256"
        }
      ],
      "name": "getDebateInfo",
      "outputs": [
        {
          "components": [
            {
              "internalType": "bool",
              "name": "isResolved",
              "type": "bool"
            },
            {
              "internalType": "uint256",
              "name": "winAgentId",
              "type": "uint256"
            },
            {
              "internalType": "uint256",
              "name": "platformFeePercentage",
              "type": "uint256"
            },
            {
              "internalType": "uint256",
              "name": "sessionDuration",
              "type": "uint256"
            },
            {
              "internalType": "uint256",
              "name": "startTimeStamp",
              "type": "uint256"
            },
            {
              "internalType": "uint256",
              "name": "publicTimeStamp",
              "type": "uint256"
            },
            {
              "internalType": "uint256",
              "name": "agentAID",
              "type": "uint256"
            },
            {
              "internalType": "uint256",
              "name": "agentBID",
              "type": "uint256"
            },
            {
              "internalType": "uint256",
              "name": "totalAgentABetAmount",
              "type": "uint256"
            },
            {
              "internalType": "uint256",
              "name": "totalAgentBBetAmount",
              "type": "uint256"
            }
          ],
          "internalType": "struct AIDebate.Debate",
          "name": "",
          "type": "tuple"
        }
      ],
      "stateMutability": "view",
      "type": "function"
    },
    {
      "inputs": [],
      "name": "owner",
      "outputs": [
        {
          "internalType": "address",
          "name": "",
          "type": "address"
        }
      ],
      "stateMutability": "view",
      "type": "function"
    },
    {
      "inputs": [
        {
          "internalType": "uint256",
          "name": "_debateId",
          "type": "uint256"
        },
        {
          "internalType": "uint256",
          "name": "_amount",
          "type": "uint256"
        },
        {
          "internalType": "uint256",
          "name": "_chosenAgent",
          "type": "uint256"
        }
      ],
      "name": "placeBet",
      "outputs": [],
      "stateMutability": "payable",
      "type": "function"
    },
    {
      "inputs": [
        {
          "internalType": "address",
          "name": "_address",
          "type": "address"
        }
      ],
      "name": "removeWhitelist",
      "outputs": [],
      "stateMutability": "nonpayable",
      "type": "function"
    },
    {
      "inputs": [],
      "name": "renounceOwnership",
      "outputs": [],
      "stateMutability": "nonpayable",
      "type": "function"
    },
    {
      "inputs": [
        {
          "internalType": "address",
          "name": "newOwner",
          "type": "address"
        }
      ],
      "name": "transferOwnership",
      "outputs": [],
      "stateMutability": "nonpayable",
      "type": "function"
    },
    {
      "inputs": [
        {
          "internalType": "uint256",
          "name": "_debateId",
          "type": "uint256"
        }
      ],
      "name": "userClaim",
      "outputs": [],
      "stateMutability": "nonpayable",
      "type": "function"
    }
  ],
  "bytecode": "0x6080604052600560015561012c60025561070860035534801561002157600080fd5b50604051612beb380380612beb833981810160405281019061004391906101f3565b80600073ffffffffffffffffffffffffffffffffffffffff168173ffffffffffffffffffffffffffffffffffffffff16036100b65760006040517f1e4fbdf70000000000000000000000000000000000000000000000000000000081526004016100ad919061022f565b60405180910390fd5b6100c5816100cc60201b60201c565b505061024a565b60008060009054906101000a900473ffffffffffffffffffffffffffffffffffffffff169050816000806101000a81548173ffffffffffffffffffffffffffffffffffffffff021916908373ffffffffffffffffffffffffffffffffffffffff1602179055508173ffffffffffffffffffffffffffffffffffffffff168173ffffffffffffffffffffffffffffffffffffffff167f8be0079c531659141344cd1fd0a4f28419497f9722a3daafe3b4186f6b6457e060405160405180910390a35050565b600080fd5b600073ffffffffffffffffffffffffffffffffffffffff82169050919050565b60006101c082610195565b9050919050565b6101d0816101b5565b81146101db57600080fd5b50565b6000815190506101ed816101c7565b92915050565b60006020828403121561020957610208610190565b5b6000610217848285016101de565b91505092915050565b610229816101b5565b82525050565b60006020820190506102446000830184610220565b92915050565b612992806102596000396000f3fe6080604052600436106100f35760003560e01c80639048b53b1161008a578063f674a9de11610059578063f674a9de1461030e578063f80f5dd514610337578063fe43efda14610360578063fe84d4b614610389576100f3565b80639048b53b1461027757806398a18707146102a0578063e71c9697146102c9578063f2fde38b146102e5576100f3565b8063715018a6116100c6578063715018a6146101cf57806378c8cda7146101e65780637a27fbb21461020f5780638da5cb5b1461024c576100f3565b806328392554146100f8578063399383481461012157806343674131146101675780635b99a01214610192575b600080fd5b34801561010457600080fd5b5061011f600480360381019061011a9190611942565b6103cb565b005b34801561012d57600080fd5b5061014860048036038101906101439190611942565b6104e5565b60405161015e9a99989796959493929190611999565b60405180910390f35b34801561017357600080fd5b5061017c610546565b6040516101899190611a35565b60405180910390f35b34801561019e57600080fd5b506101b960048036038101906101b49190611942565b61054c565b6040516101c69190611b3a565b60405180910390f35b3480156101db57600080fd5b506101e46105f5565b005b3480156101f257600080fd5b5061020d60048036038101906102089190611bb4565b610609565b005b34801561021b57600080fd5b5061023660048036038101906102319190611be1565b61066c565b6040516102439190611c30565b60405180910390f35b34801561025857600080fd5b506102616106ba565b60405161026e9190611c30565b60405180910390f35b34801561028357600080fd5b5061029e60048036038101906102999190611be1565b6106e3565b005b3480156102ac57600080fd5b506102c760048036038101906102c29190611c4b565b6109d6565b005b6102e360048036038101906102de9190611ced565b610b3c565b005b3480156102f157600080fd5b5061030c60048036038101906103079190611bb4565b611108565b005b34801561031a57600080fd5b5061033560048036038101906103309190611c4b565b61118e565b005b34801561034357600080fd5b5061035e60048036038101906103599190611bb4565b6112ec565b005b34801561036c57600080fd5b5061038760048036038101906103829190611942565b61134f565b005b34801561039557600080fd5b506103b060048036038101906103ab9190611d40565b6116d2565b6040516103c296959493929190611d93565b60405180910390f35b6103d3611755565b600060046000838152602001908152602001600020905060035481600501546103fc9190611e23565b421061043d576040517f08c379a000000000000000000000000000000000000000000000000000000000815260040161043490611eb4565b60405180910390fd5b600081600601541415801561045757506000816007015414155b610496576040517f08c379a000000000000000000000000000000000000000000000000000000000815260040161048d90611f20565b60405180910390fd5b600081600501819055506000816004018190555060008160030181905550817f80bed4ceeb2dfbd88f61cca1c30bc6dede3047d1862345ef30f1cbc44c2016d760405160405180910390a25050565b60046020528060005260406000206000915090508060000160009054906101000a900460ff1690806001015490806002015490806003015490806004015490806005015490806006015490806007015490806008015490806009015490508a565b60015481565b6105546118b2565b600060046000848152602001908152602001600020905080604051806101400160405290816000820160009054906101000a900460ff161515151581526020016001820154815260200160028201548152602001600382015481526020016004820154815260200160058201548152602001600682015481526020016007820154815260200160088201548152602001600982015481525050915050919050565b6105fd611755565b61060760006117dc565b565b610611611755565b6000600760008373ffffffffffffffffffffffffffffffffffffffff1673ffffffffffffffffffffffffffffffffffffffff16815260200190815260200160002060006101000a81548160ff02191690831515021790555050565b6006602052816000526040600020818154811061068857600080fd5b906000526020600020016000915091509054906101000a900473ffffffffffffffffffffffffffffffffffffffff1681565b60008060009054906101000a900473ffffffffffffffffffffffffffffffffffffffff16905090565b6106eb611755565b60006004600084815260200190815260200160002090508060000160009054906101000a900460ff1615610754576040517f08c379a000000000000000000000000000000000000000000000000000000000815260040161074b90611f8c565b60405180910390fd5b80600601548214806107695750806007015482145b6107a8576040517f08c379a000000000000000000000000000000000000000000000000000000000815260040161079f90611ff8565b60405180910390fd5b60018160000160006101000a81548160ff0219169083151502179055508181600101819055506000816009015482600801546107e49190612018565b905060005b600660008681526020019081526020016000208054905081101561099757600060066000878152602001908152602001600020828154811061082e5761082d61204c565b5b9060005260206000200160009054906101000a900473ffffffffffffffffffffffffffffffffffffffff16905060006005600088815260200190815260200160002060008373ffffffffffffffffffffffffffffffffffffffff1673ffffffffffffffffffffffffffffffffffffffff16815260200190815260200160002060008781526020019081526020016000209050858160040154036109885760008560060154826004015403610925576064866002015460646108ef9190611e23565b868860080154856002015461090491906120aa565b61090e91906120db565b61091891906120db565b61092291906120aa565b90505b856007015482600401540361097d576064866002015460646109479190611e23565b868860090154856002015461095c91906120aa565b61096691906120db565b61097091906120db565b61097a91906120aa565b90505b808260030181905550505b505080806001019150506107e9565b50837fb6284c12d8a21c06155f14e4b5a2c21bdd2a90abcd3b5d0ada8275279cb0ca6f846040516109c89190611a35565b60405180910390a250505050565b6109de611755565b60006004600089815260200190815260200160002090506000816006015414158015610a0f57506000816007015414155b610a4e576040517f08c379a0000000000000000000000000000000000000000000000000000000008152600401610a4590611f20565b60405180910390fd5b6003548160050154610a609190611e23565b4210610aa1576040517f08c379a0000000000000000000000000000000000000000000000000000000008152600401610a9890612169565b60405180910390fd5b86816006018190555085816007018190555060008503610acb576001548160020181905550610ad5565b8481600201819055505b838160050181905550828160040181905550818160030181905550877f5ad787ff0ab90867aa98c2a81caff732533e80b06f4c6910994cf0c8918d17fc888888888888604051610b2a96959493929190612189565b60405180910390a25050505050505050565b60008211610b7f576040517f08c379a0000000000000000000000000000000000000000000000000000000008152600401610b7690612236565b60405180910390fd5b60006004600085815260200190815260200160002090506000816005015411610bdd576040517f08c379a0000000000000000000000000000000000000000000000000000000008152600401610bd4906122a2565b60405180910390fd5b6000816004015403610c24576040517f08c379a0000000000000000000000000000000000000000000000000000000008152600401610c1b9061230e565b60405180910390fd5b8060000160009054906101000a900460ff1615610c76576040517f08c379a0000000000000000000000000000000000000000000000000000000008152600401610c6d906123a0565b60405180910390fd5b80600501544211610cbc576040517f08c379a0000000000000000000000000000000000000000000000000000000008152600401610cb390612432565b60405180910390fd5b60025481600301548260040154610cd39190612018565b610cdd9190611e23565b4210610d1e576040517f08c379a0000000000000000000000000000000000000000000000000000000008152600401610d159061249e565b60405180910390fd5b82341015610d61576040517f08c379a0000000000000000000000000000000000000000000000000000000008152600401610d589061250a565b60405180910390fd5b80600601548203610d8c5782816008016000828254610d809190612018565b92505081905550610e69565b80600701548203610db75782816009016000828254610dab9190612018565b92505081905550610e68565b600081600601541480610dce575060008160070154145b610e0d576040517f08c379a0000000000000000000000000000000000000000000000000000000008152600401610e0490612576565b60405180910390fd5b6000816006015403610e425781816006018190555082816008016000828254610e369190612018565b92505081905550610e67565b81816007018190555082816009016000828254610e5f9190612018565b925050819055505b5b5b60006005600086815260200190815260200160002060003373ffffffffffffffffffffffffffffffffffffffff1673ffffffffffffffffffffffffffffffffffffffff16815260200190815260200160002060008481526020019081526020016000209050600081600201541115610efb5783816002016000828254610eef9190612018565b92505081905550611036565b6040518060c001604052808681526020013373ffffffffffffffffffffffffffffffffffffffff16815260200185815260200160008152602001848152602001600015158152506005600087815260200190815260200160002060003373ffffffffffffffffffffffffffffffffffffffff1673ffffffffffffffffffffffffffffffffffffffff16815260200190815260200160002060008581526020019081526020016000206000820151816000015560208201518160010160006101000a81548173ffffffffffffffffffffffffffffffffffffffff021916908373ffffffffffffffffffffffffffffffffffffffff16021790555060408201518160020155606082015181600301556080820151816004015560a08201518160050160006101000a81548160ff0219169083151502179055509050505b60066000868152602001908152602001600020339080600181540180825580915050600190039060005260206000200160009091909190916101000a81548173ffffffffffffffffffffffffffffffffffffffff021916908373ffffffffffffffffffffffffffffffffffffffff1602179055503373ffffffffffffffffffffffffffffffffffffffff16857fab2115bac1de808eb7fe2be0309085b11f1f42b1eb980de8352efefdbfc098e2858786600201546040516110f993929190612596565b60405180910390a35050505050565b611110611755565b600073ffffffffffffffffffffffffffffffffffffffff168173ffffffffffffffffffffffffffffffffffffffff16036111825760006040517f1e4fbdf70000000000000000000000000000000000000000000000000000000081526004016111799190611c30565b60405180910390fd5b61118b816117dc565b50565b611196611755565b6000600460008981526020019081526020016000209050600081600601541480156111c5575060008160070154145b611204576040517f08c379a00000000000000000000000000000000000000000000000000000000081526004016111fb90612619565b60405180910390fd5b8382846112119190612018565b11611251576040517f08c379a0000000000000000000000000000000000000000000000000000000008152600401611248906126ab565b60405180910390fd5b8681600601819055508581600701819055506000850361127b576001548160020181905550611285565b8481600201819055505b838160050181905550828160040181905550818160030181905550877f74245c13fa29018d2e3827a29b9f092a79b7d948264385dca981d1d6ba38a76f8888888888886040516112da96959493929190612189565b60405180910390a25050505050505050565b6112f4611755565b6001600760008373ffffffffffffffffffffffffffffffffffffffff1673ffffffffffffffffffffffffffffffffffffffff16815260200190815260200160002060006101000a81548160ff02191690831515021790555050565b60006004600083815260200190815260200160002090508060000160009054906101000a900460ff166113b7576040517f08c379a00000000000000000000000000000000000000000000000000000000081526004016113ae90612717565b60405180910390fd5b6000805b600660008581526020019081526020016000208054905081101561146d573373ffffffffffffffffffffffffffffffffffffffff166006600086815260200190815260200160002082815481106114155761141461204c565b5b9060005260206000200160009054906101000a900473ffffffffffffffffffffffffffffffffffffffff1673ffffffffffffffffffffffffffffffffffffffff160361146057600191505b80806001019150506113bb565b50806114ae576040517f08c379a00000000000000000000000000000000000000000000000000000000081526004016114a5906127a9565b60405180910390fd5b60008260010154905060006005600086815260200190815260200160002060003373ffffffffffffffffffffffffffffffffffffffff1673ffffffffffffffffffffffffffffffffffffffff168152602001908152602001600020600083815260200190815260200160002090508060050160009054906101000a900460ff161561156e576040517f08c379a00000000000000000000000000000000000000000000000000000000081526004016115659061283b565b60405180910390fd5b60008160030154116115b5576040517f08c379a00000000000000000000000000000000000000000000000000000000081526004016115ac906128a7565b60405180910390fd5b60006115c0336118a0565b90508160030154471015611609576040517f08c379a000000000000000000000000000000000000000000000000000000000815260040161160090612913565b60405180910390fd5b8073ffffffffffffffffffffffffffffffffffffffff166108fc83600301549081150290604051600060405180830381858888f19350505050158015611653573d6000803e3d6000fd5b5060018260050160006101000a81548160ff0219169083151502179055503373ffffffffffffffffffffffffffffffffffffffff16867f4eed845a8c2dab6b8f3276326563ae95a67314d068314298838cc3246bb3e3e0846004015485600301546040516116c2929190612933565b60405180910390a3505050505050565b600560205282600052604060002060205281600052604060002060205280600052604060002060009250925050508060000154908060010160009054906101000a900473ffffffffffffffffffffffffffffffffffffffff16908060020154908060030154908060040154908060050160009054906101000a900460ff16905086565b61175d6118aa565b73ffffffffffffffffffffffffffffffffffffffff1661177b6106ba565b73ffffffffffffffffffffffffffffffffffffffff16146117da5761179e6118aa565b6040517f118cdaa70000000000000000000000000000000000000000000000000000000081526004016117d19190611c30565b60405180910390fd5b565b60008060009054906101000a900473ffffffffffffffffffffffffffffffffffffffff169050816000806101000a81548173ffffffffffffffffffffffffffffffffffffffff021916908373ffffffffffffffffffffffffffffffffffffffff1602179055508173ffffffffffffffffffffffffffffffffffffffff168173ffffffffffffffffffffffffffffffffffffffff167f8be0079c531659141344cd1fd0a4f28419497f9722a3daafe3b4186f6b6457e060405160405180910390a35050565b6000819050919050565b600033905090565b6040518061014001604052806000151581526020016000815260200160008152602001600081526020016000815260200160008152602001600081526020016000815260200160008152602001600081525090565b600080fd5b6000819050919050565b61191f8161190c565b811461192a57600080fd5b50565b60008135905061193c81611916565b92915050565b60006020828403121561195857611957611907565b5b60006119668482850161192d565b91505092915050565b60008115159050919050565b6119848161196f565b82525050565b6119938161190c565b82525050565b6000610140820190506119af600083018d61197b565b6119bc602083018c61198a565b6119c9604083018b61198a565b6119d6606083018a61198a565b6119e3608083018961198a565b6119f060a083018861198a565b6119fd60c083018761198a565b611a0a60e083018661198a565b611a1861010083018561198a565b611a2661012083018461198a565b9b9a5050505050505050505050565b6000602082019050611a4a600083018461198a565b92915050565b611a598161196f565b82525050565b611a688161190c565b82525050565b61014082016000820151611a856000850182611a50565b506020820151611a986020850182611a5f565b506040820151611aab6040850182611a5f565b506060820151611abe6060850182611a5f565b506080820151611ad16080850182611a5f565b5060a0820151611ae460a0850182611a5f565b5060c0820151611af760c0850182611a5f565b5060e0820151611b0a60e0850182611a5f565b50610100820151611b1f610100850182611a5f565b50610120820151611b34610120850182611a5f565b50505050565b600061014082019050611b506000830184611a6e565b92915050565b600073ffffffffffffffffffffffffffffffffffffffff82169050919050565b6000611b8182611b56565b9050919050565b611b9181611b76565b8114611b9c57600080fd5b50565b600081359050611bae81611b88565b92915050565b600060208284031215611bca57611bc9611907565b5b6000611bd884828501611b9f565b91505092915050565b60008060408385031215611bf857611bf7611907565b5b6000611c068582860161192d565b9250506020611c178582860161192d565b9150509250929050565b611c2a81611b76565b82525050565b6000602082019050611c456000830184611c21565b92915050565b600080600080600080600060e0888a031215611c6a57611c69611907565b5b6000611c788a828b0161192d565b9750506020611c898a828b0161192d565b9650506040611c9a8a828b0161192d565b9550506060611cab8a828b0161192d565b9450506080611cbc8a828b0161192d565b93505060a0611ccd8a828b0161192d565b92505060c0611cde8a828b0161192d565b91505092959891949750929550565b600080600060608486031215611d0657611d05611907565b5b6000611d148682870161192d565b9350506020611d258682870161192d565b9250506040611d368682870161192d565b9150509250925092565b600080600060608486031215611d5957611d58611907565b5b6000611d678682870161192d565b9350506020611d7886828701611b9f565b9250506040611d898682870161192d565b9150509250925092565b600060c082019050611da8600083018961198a565b611db56020830188611c21565b611dc2604083018761198a565b611dcf606083018661198a565b611ddc608083018561198a565b611de960a083018461197b565b979650505050505050565b7f4e487b7100000000000000000000000000000000000000000000000000000000600052601160045260246000fd5b6000611e2e8261190c565b9150611e398361190c565b9250828203905081811115611e5157611e50611df4565b5b92915050565b600082825260208201905092915050565b7f43616e206e6f742072656d6f76652064656261746520616e796d6f7265000000600082015250565b6000611e9e601d83611e57565b9150611ea982611e68565b602082019050919050565b60006020820190508181036000830152611ecd81611e91565b9050919050565b7f446562617465206973206e6f7420637265617465642079657400000000000000600082015250565b6000611f0a601983611e57565b9150611f1582611ed4565b602082019050919050565b60006020820190508181036000830152611f3981611efd565b9050919050565b7f44656261746520697320616c7265616479207265736f6c766564000000000000600082015250565b6000611f76601a83611e57565b9150611f8182611f40565b602082019050919050565b60006020820190508181036000830152611fa581611f69565b9050919050565b7f496e76616c6964206167656e7400000000000000000000000000000000000000600082015250565b6000611fe2600d83611e57565b9150611fed82611fac565b602082019050919050565b6000602082019050818103600083015261201181611fd5565b9050919050565b60006120238261190c565b915061202e8361190c565b925082820190508082111561204657612045611df4565b5b92915050565b7f4e487b7100000000000000000000000000000000000000000000000000000000600052603260045260246000fd5b7f4e487b7100000000000000000000000000000000000000000000000000000000600052601260045260246000fd5b60006120b58261190c565b91506120c08361190c565b9250826120d0576120cf61207b565b5b828204905092915050565b60006120e68261190c565b91506120f18361190c565b92508282026120ff8161190c565b9150828204841483151761211657612115611df4565b5b5092915050565b7f43616e206e6f74206d6f646966792064656261746520616e796d6f7265000000600082015250565b6000612153601d83611e57565b915061215e8261211d565b602082019050919050565b6000602082019050818103600083015261218281612146565b9050919050565b600060c08201905061219e600083018961198a565b6121ab602083018861198a565b6121b8604083018761198a565b6121c5606083018661198a565b6121d2608083018561198a565b6121df60a083018461198a565b979650505050505050565b7f416d6f756e74206d7573742062652067726561746572207468616e2030000000600082015250565b6000612220601d83611e57565b915061222b826121ea565b602082019050919050565b6000602082019050818103600083015261224f81612213565b9050919050565b7f446562617465206973206e6f74207075626c6973686564207965740000000000600082015250565b600061228c601b83611e57565b915061229782612256565b602082019050919050565b600060208201905081810360008301526122bb8161227f565b9050919050565b7f4465626174652069732064656c65746564000000000000000000000000000000600082015250565b60006122f8601183611e57565b9150612303826122c2565b602082019050919050565b60006020820190508181036000830152612327816122eb565b9050919050565b7f4465626174652073657373696f6e20697320616c7265616479207265736f6c7660008201527f6564000000000000000000000000000000000000000000000000000000000000602082015250565b600061238a602283611e57565b91506123958261232e565b604082019050919050565b600060208201905081810360008301526123b98161237d565b9050919050565b7f4465626174652073657373696f6e206973206e6f74207374617274656420796560008201527f7400000000000000000000000000000000000000000000000000000000000000602082015250565b600061241c602183611e57565b9150612427826123c0565b604082019050919050565b6000602082019050818103600083015261244b8161240f565b9050919050565b7f43616e206e6f7420706c6163652062657420616e796d6f726500000000000000600082015250565b6000612488601983611e57565b915061249382612452565b602082019050919050565b600060208201905081810360008301526124b78161247b565b9050919050565b7f46656520616d6f756e74206973206e6f7420636f727265637400000000000000600082015250565b60006124f4601983611e57565b91506124ff826124be565b602082019050919050565b60006020820190508181036000830152612523816124e7565b9050919050565b7f426f7468206167656e74732061726520616c72656164792061737369676e6564600082015250565b6000612560602083611e57565b915061256b8261252a565b602082019050919050565b6000602082019050818103600083015261258f81612553565b9050919050565b60006060820190506125ab600083018661198a565b6125b8602083018561198a565b6125c5604083018461198a565b949350505050565b7f44656261746520697320616c7265616479206372656174656400000000000000600082015250565b6000612603601983611e57565b915061260e826125cd565b602082019050919050565b60006020820190508181036000830152612632816125f6565b9050919050565b7f456e642074696d65206d7573742062652067726561746572207468616e20707560008201527f626c69632074696d650000000000000000000000000000000000000000000000602082015250565b6000612695602983611e57565b91506126a082612639565b604082019050919050565b600060208201905081810360008301526126c481612688565b9050919050565b7f446562617465206973206e6f74207265736f6c76656420796574000000000000600082015250565b6000612701601a83611e57565b915061270c826126cb565b602082019050919050565b60006020820190508181036000830152612730816126f4565b9050919050565b7f596f7520646964206e6f7420706c61636520616e7920626574206f6e2074686960008201527f7320646562617465000000000000000000000000000000000000000000000000602082015250565b6000612793602883611e57565b915061279e82612737565b604082019050919050565b600060208201905081810360008301526127c281612786565b9050919050565b7f596f75206861766520616c726561647920636c61696d6564207468652072657760008201527f6172640000000000000000000000000000000000000000000000000000000000602082015250565b6000612825602383611e57565b9150612830826127c9565b604082019050919050565b6000602082019050818103600083015261285481612818565b9050919050565b7f596f7520646964206e6f742077696e2074686520626574000000000000000000600082015250565b6000612891601783611e57565b915061289c8261285b565b602082019050919050565b600060208201905081810360008301526128c081612884565b9050919050565b7f496e73756666696369656e742062616c616e636520696e20636f6e7472616374600082015250565b60006128fd602083611e57565b9150612908826128c7565b602082019050919050565b6000602082019050818103600083015261292c816128f0565b9050919050565b6000604082019050612948600083018561198a565b612955602083018461198a565b939250505056fea2646970667358221220a4c61aee28ee69d542bede333bf68b3b793a14b476258a6c3247183c51fc49a564736f6c634300081c0033",
  "linkReferences": {},
  "deployedLinkReferences": {}
}