{
  "_format": "hh-sol-artifact-1",
  "contractName": "AIDebate",
  "sourceName": "contracts/Debate.sol",
  "abi": [
    {
      "inputs": [
        {
          "internalType": "address",
          "name": "initialOwner",
          "type": "address"
        },
        {
          "internalType": "address",
          "name": "initialDeployer",
          "type": "address"
        }
      ],
      "stateMutability": "nonpayable",
      "type": "constructor"
    },
    {
      "inputs": [],
      "name": "InvalidInitialization",
      "type": "error"
    },
    {
      "inputs": [],
      "name": "NotInitializing",
      "type": "error"
    },
    {
      "inputs": [
        {
          "internalType": "address",
          "name": "owner",
          "type": "address"
        }
      ],
      "name": "OwnableInvalidOwner",
      "type": "error"
    },
    {
      "inputs": [
        {
          "internalType": "address",
          "name": "account",
          "type": "address"
        }
      ],
      "name": "OwnableUnauthorizedAccount",
      "type": "error"
    },
    {
      "anonymous": false,
      "inputs": [
        {
          "indexed": true,
          "internalType": "uint256",
          "name": "debateId",
          "type": "uint256"
        },
        {
          "indexed": true,
          "internalType": "address",
          "name": "bettor",
          "type": "address"
        },
        {
          "indexed": false,
          "internalType": "uint256",
          "name": "chosenAgentId",
          "type": "uint256"
        },
        {
          "indexed": false,
          "internalType": "uint256",
          "name": "amount",
          "type": "uint256"
        },
        {
          "indexed": false,
          "internalType": "uint256",
          "name": "platformFeePercentage",
          "type": "uint256"
        }
      ],
      "name": "BetPlaced",
      "type": "event"
    },
    {
      "anonymous": false,
      "inputs": [
        {
          "indexed": true,
          "internalType": "uint256",
          "name": "debateId",
          "type": "uint256"
        },
        {
          "indexed": false,
          "internalType": "uint256",
          "name": "agentAID",
          "type": "uint256"
        },
        {
          "indexed": false,
          "internalType": "uint256",
          "name": "agentBID",
          "type": "uint256"
        },
        {
          "indexed": false,
          "internalType": "uint256",
          "name": "platformFeePercentage",
          "type": "uint256"
        },
        {
          "indexed": false,
          "internalType": "uint256",
          "name": "publicTimeStamp",
          "type": "uint256"
        },
        {
          "indexed": false,
          "internalType": "uint256",
          "name": "startTimeStamp",
          "type": "uint256"
        },
        {
          "indexed": false,
          "internalType": "uint256",
          "name": "sessionDuration",
          "type": "uint256"
        }
      ],
      "name": "DebateCreated",
      "type": "event"
    },
    {
      "anonymous": false,
      "inputs": [
        {
          "indexed": true,
          "internalType": "uint256",
          "name": "debateId",
          "type": "uint256"
        }
      ],
      "name": "DebateDeleted",
      "type": "event"
    },
    {
      "anonymous": false,
      "inputs": [
        {
          "indexed": true,
          "internalType": "uint256",
          "name": "debateId",
          "type": "uint256"
        }
      ],
      "name": "DebateMarkedRefundable",
      "type": "event"
    },
    {
      "anonymous": false,
      "inputs": [
        {
          "indexed": true,
          "internalType": "uint256",
          "name": "debateId",
          "type": "uint256"
        },
        {
          "indexed": false,
          "internalType": "uint256",
          "name": "winnAgentId",
          "type": "uint256"
        }
      ],
      "name": "DebateResolved",
      "type": "event"
    },
    {
      "anonymous": false,
      "inputs": [
        {
          "indexed": true,
          "internalType": "uint256",
          "name": "debateId",
          "type": "uint256"
        },
        {
          "indexed": false,
          "internalType": "uint256",
          "name": "agentAID",
          "type": "uint256"
        },
        {
          "indexed": false,
          "internalType": "uint256",
          "name": "agentBID",
          "type": "uint256"
        },
        {
          "indexed": false,
          "internalType": "uint256",
          "name": "platformFeePercentage",
          "type": "uint256"
        },
        {
          "indexed": false,
          "internalType": "uint256",
          "name": "publicTimeStamp",
          "type": "uint256"
        },
        {
          "indexed": false,
          "internalType": "uint256",
          "name": "startTimeStamp",
          "type": "uint256"
        },
        {
          "indexed": false,
          "internalType": "uint256",
          "name": "sessionDuration",
          "type": "uint256"
        }
      ],
      "name": "DebateUpdated",
      "type": "event"
    },
    {
      "anonymous": false,
      "inputs": [
        {
          "indexed": false,
          "internalType": "uint64",
          "name": "version",
          "type": "uint64"
        }
      ],
      "name": "Initialized",
      "type": "event"
    },
    {
      "anonymous": false,
      "inputs": [
        {
          "indexed": true,
          "internalType": "address",
          "name": "previousOwner",
          "type": "address"
        },
        {
          "indexed": true,
          "internalType": "address",
          "name": "newOwner",
          "type": "address"
        }
      ],
      "name": "OwnershipTransferred",
      "type": "event"
    },
    {
      "anonymous": false,
      "inputs": [
        {
          "indexed": true,
          "internalType": "uint256",
          "name": "debateId",
          "type": "uint256"
        },
        {
          "indexed": true,
          "internalType": "address",
          "name": "bettor",
          "type": "address"
        },
        {
          "indexed": false,
          "internalType": "uint256",
          "name": "chosenAgentId",
          "type": "uint256"
        },
        {
          "indexed": false,
          "internalType": "uint256",
          "name": "amount",
          "type": "uint256"
        }
      ],
      "name": "UserClaimed",
      "type": "event"
    },
    {
      "anonymous": false,
      "inputs": [
        {
          "indexed": true,
          "internalType": "uint256",
          "name": "debateId",
          "type": "uint256"
        },
        {
          "indexed": true,
          "internalType": "address",
          "name": "bettor",
          "type": "address"
        },
        {
          "indexed": false,
          "internalType": "uint256",
          "name": "amount",
          "type": "uint256"
        }
      ],
      "name": "UserRefunded",
      "type": "event"
    },
    {
      "anonymous": false,
      "inputs": [
        {
          "indexed": true,
          "internalType": "uint256",
          "name": "debateId",
          "type": "uint256"
        },
        {
          "indexed": false,
          "internalType": "uint256",
          "name": "amountOfUsers",
          "type": "uint256"
        }
      ],
      "name": "refundSuccessful",
      "type": "event"
    },
    {
      "inputs": [
        {
          "internalType": "address",
          "name": "_mod",
          "type": "address"
        }
      ],
      "name": "addMod",
      "outputs": [],
      "stateMutability": "nonpayable",
      "type": "function"
    },
    {
      "inputs": [
        {
          "internalType": "uint256",
          "name": "",
          "type": "uint256"
        },
        {
          "internalType": "uint256",
          "name": "",
          "type": "uint256"
        }
      ],
      "name": "addressJoinedList",
      "outputs": [
        {
          "internalType": "address",
          "name": "",
          "type": "address"
        }
      ],
      "stateMutability": "view",
      "type": "function"
    },
    {
      "inputs": [
        {
          "internalType": "uint256",
          "name": "_debateId",
          "type": "uint256"
        },
        {
          "internalType": "uint256",
          "name": "_agentAID",
          "type": "uint256"
        },
        {
          "internalType": "uint256",
          "name": "_agentBID",
          "type": "uint256"
        },
        {
          "internalType": "uint256",
          "name": "_platformFeePercentage",
          "type": "uint256"
        },
        {
          "internalType": "uint256",
          "name": "_publicTimeStamp",
          "type": "uint256"
        },
        {
          "internalType": "uint256",
          "name": "_startTimeStamp",
          "type": "uint256"
        },
        {
          "internalType": "uint256",
          "name": "_sessionDuration",
          "type": "uint256"
        }
      ],
      "name": "adminCreateDebate",
      "outputs": [],
      "stateMutability": "nonpayable",
      "type": "function"
    },
    {
      "inputs": [
        {
          "internalType": "uint256",
          "name": "_debateId",
          "type": "uint256"
        }
      ],
      "name": "adminDeleteDebate",
      "outputs": [],
      "stateMutability": "nonpayable",
      "type": "function"
    },
    {
      "inputs": [
        {
          "internalType": "uint256",
          "name": "_debateId",
          "type": "uint256"
        }
      ],
      "name": "adminMarkDebateRefundable",
      "outputs": [],
      "stateMutability": "nonpayable",
      "type": "function"
    },
    {
      "inputs": [
        {
          "internalType": "uint256",
          "name": "_debateId",
          "type": "uint256"
        }
      ],
      "name": "adminProcessRefunds",
      "outputs": [],
      "stateMutability": "nonpayable",
      "type": "function"
    },
    {
      "inputs": [
        {
          "internalType": "uint256",
          "name": "_debateId",
          "type": "uint256"
        },
        {
          "internalType": "uint256",
          "name": "_winAgentId",
          "type": "uint256"
        }
      ],
      "name": "adminResolveDebate",
      "outputs": [],
      "stateMutability": "nonpayable",
      "type": "function"
    },
    {
      "inputs": [
        {
          "internalType": "uint256",
          "name": "_debateId",
          "type": "uint256"
        },
        {
          "internalType": "uint256",
          "name": "_agentAID",
          "type": "uint256"
        },
        {
          "internalType": "uint256",
          "name": "_agentBID",
          "type": "uint256"
        },
        {
          "internalType": "uint256",
          "name": "_platformFeePercentage",
          "type": "uint256"
        },
        {
          "internalType": "uint256",
          "name": "_publicTimeStamp",
          "type": "uint256"
        },
        {
          "internalType": "uint256",
          "name": "_startTimeStamp",
          "type": "uint256"
        },
        {
          "internalType": "uint256",
          "name": "_sessionDuration",
          "type": "uint256"
        }
      ],
      "name": "adminUpdateDebate",
      "outputs": [],
      "stateMutability": "nonpayable",
      "type": "function"
    },
    {
      "inputs": [
        {
          "internalType": "uint256",
          "name": "",
          "type": "uint256"
        },
        {
          "internalType": "address",
          "name": "",
          "type": "address"
        },
        {
          "internalType": "uint256",
          "name": "",
          "type": "uint256"
        }
      ],
      "name": "betList",
      "outputs": [
        {
          "internalType": "uint256",
          "name": "debateId",
          "type": "uint256"
        },
        {
          "internalType": "address",
          "name": "bettor",
          "type": "address"
        },
        {
          "internalType": "uint256",
          "name": "amount",
          "type": "uint256"
        },
        {
          "internalType": "uint256",
          "name": "winAmount",
          "type": "uint256"
        },
        {
          "internalType": "uint256",
          "name": "chosenAgentId",
          "type": "uint256"
        },
        {
          "internalType": "bool",
          "name": "isClaimed",
          "type": "bool"
        },
        {
          "internalType": "bool",
          "name": "isRefunded",
          "type": "bool"
        }
      ],
      "stateMutability": "view",
      "type": "function"
    },
    {
      "inputs": [
        {
          "internalType": "uint256",
          "name": "",
          "type": "uint256"
        }
      ],
      "name": "debateList",
      "outputs": [
        {
          "internalType": "bool",
          "name": "isResolved",
          "type": "bool"
        },
        {
          "internalType": "bool",
          "name": "isRefundable",
          "type": "bool"
        },
        {
          "internalType": "uint256",
          "name": "winAgentId",
          "type": "uint256"
        },
        {
          "internalType": "uint256",
          "name": "platformFeePercentage",
          "type": "uint256"
        },
        {
          "internalType": "uint256",
          "name": "sessionDuration",
          "type": "uint256"
        },
        {
          "internalType": "uint256",
          "name": "startTimeStamp",
          "type": "uint256"
        },
        {
          "internalType": "uint256",
          "name": "publicTimeStamp",
          "type": "uint256"
        },
        {
          "internalType": "uint256",
          "name": "agentAID",
          "type": "uint256"
        },
        {
          "internalType": "uint256",
          "name": "agentBID",
          "type": "uint256"
        },
        {
          "internalType": "uint256",
          "name": "totalAgentABetAmount",
          "type": "uint256"
        },
        {
          "internalType": "uint256",
          "name": "totalAgentBBetAmount",
          "type": "uint256"
        }
      ],
      "stateMutability": "view",
      "type": "function"
    },
    {
      "inputs": [],
      "name": "defaultPlatformFeePercentage",
      "outputs": [
        {
          "internalType": "uint256",
          "name": "",
          "type": "uint256"
        }
      ],
      "stateMutability": "view",
      "type": "function"
    },
    {
      "inputs": [
        {
          "internalType": "uint256",
          "name": "_debateId",
          "type": "uint256"
        }
      ],
      "name": "getDebateInfo",
      "outputs": [
        {
          "components": [
            {
              "internalType": "bool",
              "name": "isResolved",
              "type": "bool"
            },
            {
              "internalType": "bool",
              "name": "isRefundable",
              "type": "bool"
            },
            {
              "internalType": "uint256",
              "name": "winAgentId",
              "type": "uint256"
            },
            {
              "internalType": "uint256",
              "name": "platformFeePercentage",
              "type": "uint256"
            },
            {
              "internalType": "uint256",
              "name": "sessionDuration",
              "type": "uint256"
            },
            {
              "internalType": "uint256",
              "name": "startTimeStamp",
              "type": "uint256"
            },
            {
              "internalType": "uint256",
              "name": "publicTimeStamp",
              "type": "uint256"
            },
            {
              "internalType": "uint256",
              "name": "agentAID",
              "type": "uint256"
            },
            {
              "internalType": "uint256",
              "name": "agentBID",
              "type": "uint256"
            },
            {
              "internalType": "uint256",
              "name": "totalAgentABetAmount",
              "type": "uint256"
            },
            {
              "internalType": "uint256",
              "name": "totalAgentBBetAmount",
              "type": "uint256"
            }
          ],
          "internalType": "struct AIDebate.Debate",
          "name": "",
          "type": "tuple"
        }
      ],
      "stateMutability": "view",
      "type": "function"
    },
    {
      "inputs": [
        {
          "internalType": "uint256",
          "name": "_debateId",
          "type": "uint256"
        },
        {
          "internalType": "address",
          "name": "_user",
          "type": "address"
        },
        {
          "internalType": "uint256",
          "name": "_agentId",
          "type": "uint256"
        }
      ],
      "name": "getUserRefundStatus",
      "outputs": [
        {
          "internalType": "bool",
          "name": "isRefunded",
          "type": "bool"
        },
        {
          "internalType": "uint256",
          "name": "amount",
          "type": "uint256"
        }
      ],
      "stateMutability": "view",
      "type": "function"
    },
    {
      "inputs": [
        {
          "internalType": "uint256",
          "name": "_debateId",
          "type": "uint256"
        },
        {
          "internalType": "address",
          "name": "_user",
          "type": "address"
        }
      ],
      "name": "getUserRefundableAmount",
      "outputs": [
        {
          "internalType": "uint256",
          "name": "",
          "type": "uint256"
        }
      ],
      "stateMutability": "view",
      "type": "function"
    },
    {
      "inputs": [
        {
          "internalType": "uint256",
          "name": "_debateId",
          "type": "uint256"
        }
      ],
      "name": "getUsersRefundInfo",
      "outputs": [
        {
          "components": [
            {
              "internalType": "address",
              "name": "user",
              "type": "address"
            },
            {
              "internalType": "uint256",
              "name": "amountOfRefund",
              "type": "uint256"
            },
            {
              "internalType": "bool",
              "name": "refunded",
              "type": "bool"
            }
          ],
          "internalType": "struct AIDebate.UserRefundInfo[]",
          "name": "",
          "type": "tuple[]"
        }
      ],
      "stateMutability": "view",
      "type": "function"
    },
    {
      "inputs": [
        {
          "internalType": "uint256",
          "name": "_debateId",
          "type": "uint256"
        }
      ],
      "name": "isDebateRefundable",
      "outputs": [
        {
          "internalType": "bool",
          "name": "",
          "type": "bool"
        }
      ],
      "stateMutability": "view",
      "type": "function"
    },
    {
      "inputs": [
        {
          "internalType": "uint256",
          "name": "",
          "type": "uint256"
        }
      ],
      "name": "modList",
      "outputs": [
        {
          "internalType": "address",
          "name": "",
          "type": "address"
        }
      ],
      "stateMutability": "view",
      "type": "function"
    },
    {
      "inputs": [],
      "name": "owner",
      "outputs": [
        {
          "internalType": "address",
          "name": "",
          "type": "address"
        }
      ],
      "stateMutability": "view",
      "type": "function"
    },
    {
      "inputs": [
        {
          "internalType": "uint256",
          "name": "_debateId",
          "type": "uint256"
        },
        {
          "internalType": "uint256",
          "name": "_amount",
          "type": "uint256"
        },
        {
          "internalType": "uint256",
          "name": "_chosenAgent",
          "type": "uint256"
        }
      ],
      "name": "placeBet",
      "outputs": [],
      "stateMutability": "payable",
      "type": "function"
    },
    {
      "inputs": [
        {
          "internalType": "address",
          "name": "_mod",
          "type": "address"
        }
      ],
      "name": "removeMod",
      "outputs": [],
      "stateMutability": "nonpayable",
      "type": "function"
    },
    {
      "inputs": [],
      "name": "renounceOwnership",
      "outputs": [],
      "stateMutability": "nonpayable",
      "type": "function"
    },
    {
      "inputs": [
        {
          "internalType": "address",
          "name": "newOwner",
          "type": "address"
        }
      ],
      "name": "transferOwnership",
      "outputs": [],
      "stateMutability": "nonpayable",
      "type": "function"
    },
    {
      "inputs": [
        {
          "internalType": "uint256",
          "name": "_debateId",
          "type": "uint256"
        }
      ],
      "name": "userClaim",
      "outputs": [],
      "stateMutability": "nonpayable",
      "type": "function"
    },
    {
      "inputs": [
        {
          "internalType": "uint256",
          "name": "_debateId",
          "type": "uint256"
        }
      ],
      "name": "userRefund",
      "outputs": [],
      "stateMutability": "nonpayable",
      "type": "function"
    },
    {
      "inputs": [],
      "name": "withdrawAll",
      "outputs": [],
      "stateMutability": "nonpayable",
      "type": "function"
    },
    {
      "inputs": [
        {
          "internalType": "uint256",
          "name": "_amount",
          "type": "uint256"
        }
      ],
      "name": "withdrawByAmount",
      "outputs": [],
      "stateMutability": "nonpayable",
      "type": "function"
    },
    {
      "inputs": [
        {
          "internalType": "uint256",
          "name": "_debateId",
          "type": "uint256"
        }
      ],
      "name": "withdrawByID",
      "outputs": [],
      "stateMutability": "nonpayable",
      "type": "function"
    }
  ],
  "bytecode": "0x6080604052600560015561012c60025561070860035534801561002157600080fd5b5060405161300c38038061300c8339810160408190526100409161014f565b816001600160a01b03811661006f57604051631e4fbdf760e01b81526000600482015260240160405180910390fd5b610078816100e3565b50600480546001818101835560008390527f8a35acfbc15ff81a39ae7d344fd709f28e8600b4aa8c65c6b64bfe7fe36bd19b91820180546001600160a01b039687166001600160a01b0319918216179091558354918201909355018054929093169116179055610182565b600080546001600160a01b038381166001600160a01b0319831681178455604051919092169283917f8be0079c531659141344cd1fd0a4f28419497f9722a3daafe3b4186f6b6457e09190a35050565b80516001600160a01b038116811461014a57600080fd5b919050565b6000806040838503121561016257600080fd5b61016b83610133565b915061017960208401610133565b90509250929050565b612e7b806101916000396000f3fe60806040526004361061019c5760003560e01c806398a18707116100ec578063e386ee561161008a578063f674a9de11610064578063f674a9de146105bb578063fe43efda146105db578063fe695133146105fb578063fe84d4b61461061b57600080fd5b8063e386ee5614610568578063e71c969714610588578063f2fde38b1461059b57600080fd5b8063c1f639bd116100c6578063c1f639bd146104b6578063c42ab704146104d6578063c7f61c70146104f6578063c9c57ac41461052357600080fd5b806398a1870714610402578063a272fef414610422578063bfea80b21461044257600080fd5b80635521e9bf116101595780637a27fbb2116101335780637a27fbb21461038f578063853828b6146103af5780638da5cb5b146103c45780639048b53b146103e257600080fd5b80635521e9bf1461032d5780635b99a0121461034d578063715018a61461037a57600080fd5b806301a00216146101a15780632071a2d2146101c35780632839255414610200578063399383481461022057806343674131146102e95780634637de3c1461030d575b600080fd5b3480156101ad57600080fd5b506101c16101bc3660046129e2565b6106d3565b005b3480156101cf57600080fd5b506101e36101de366004612a04565b61072d565b6040516001600160a01b0390911681526020015b60405180910390f35b34801561020c57600080fd5b506101c161021b366004612a04565b610757565b34801561022c57600080fd5b5061029461023b366004612a04565b6005602081905260009182526040909120805460018201546002830154600384015460048501549585015460068601546007870154600888015460099098015460ff8089169a610100909904169896979596949594908b565b604080519b15158c5299151560208c0152988a01979097526060890195909552608088019390935260a087019190915260c086015260e0850152610100840152610120830152610140820152610160016101f7565b3480156102f557600080fd5b506102ff60015481565b6040519081526020016101f7565b34801561031957600080fd5b506101c16103283660046129e2565b6108bb565b34801561033957600080fd5b506101c1610348366004612a04565b6109c4565b34801561035957600080fd5b5061036d610368366004612a04565b610a28565b6040516101f79190612a1d565b34801561038657600080fd5b506101c1610b1f565b34801561039b57600080fd5b506101e36103aa366004612aa2565b610b33565b3480156103bb57600080fd5b506101c1610b6b565b3480156103d057600080fd5b506000546001600160a01b03166101e3565b3480156103ee57600080fd5b506101c16103fd366004612aa2565b610ba1565b34801561040e57600080fd5b506101c161041d366004612ac4565b610f10565b34801561042e57600080fd5b506102ff61043d366004612b10565b6110c9565b34801561044e57600080fd5b5061049f61045d366004612b3c565b60009283526006602090815260408085206001600160a01b03949094168552928152828420918452529020600581015460029091015461010090910460ff1691565b6040805192151583526020830191909152016101f7565b3480156104c257600080fd5b506101c16104d1366004612a04565b6111ef565b3480156104e257600080fd5b506101c16104f1366004612a04565b61146f565b34801561050257600080fd5b50610516610511366004612a04565b611562565b6040516101f79190612b72565b34801561052f57600080fd5b5061055861053e366004612a04565b600090815260056020526040902054610100900460ff1690565b60405190151581526020016101f7565b34801561057457600080fd5b506101c1610583366004612a04565b6117ec565b6101c1610596366004612bd9565b611b56565b3480156105a757600080fd5b506101c16105b63660046129e2565b612129565b3480156105c757600080fd5b506101c16105d6366004612ac4565b612167565b3480156105e757600080fd5b506101c16105f6366004612a04565b612349565b34801561060757600080fd5b506101c1610616366004612a04565b612600565b34801561062757600080fd5b50610692610636366004612b3c565b600660209081526000938452604080852082529284528284209052825290208054600182015460028301546003840154600485015460059095015493946001600160a01b03909316939192909160ff8082169161010090041687565b604080519788526001600160a01b0390961660208801529486019390935260608501919091526080840152151560a0830152151560c082015260e0016101f7565b6106db6127a9565b600480546001810182556000919091527f8a35acfbc15ff81a39ae7d344fd709f28e8600b4aa8c65c6b64bfe7fe36bd19b0180546001600160a01b0319166001600160a01b0392909216919091179055565b6004818154811061073d57600080fd5b6000918252602090912001546001600160a01b0316905081565b6000805b6004548110156107ad57336001600160a01b03166004828154811061078257610782612c05565b6000918252602090912001546001600160a01b0316036107a557600191506107ad565b60010161075b565b50806107d45760405162461bcd60e51b81526004016107cb90612c1b565b60405180910390fd5b60008281526005602081905260409091206003549181015490916107f791612c56565b42106108455760405162461bcd60e51b815260206004820152601d60248201527f43616e206e6f742072656d6f76652064656261746520616e796d6f726500000060448201526064016107cb565b60068101541580159061085b5750600781015415155b6108775760405162461bcd60e51b81526004016107cb90612c69565b600060058201819055600482018190556003820181905560405184917f80bed4ceeb2dfbd88f61cca1c30bc6dede3047d1862345ef30f1cbc44c2016d791a2505050565b6108c36127a9565b60005b6004548110156109c057816001600160a01b0316600482815481106108ed576108ed612c05565b6000918252602090912001546001600160a01b0316036109b8576004805461091790600190612c56565b8154811061092757610927612c05565b600091825260209091200154600480546001600160a01b03909216918390811061095357610953612c05565b9060005260206000200160006101000a8154816001600160a01b0302191690836001600160a01b03160217905550600480548061099257610992612ca0565b600082815260209020810160001990810180546001600160a01b03191690550190555050565b6001016108c6565b5050565b6109cc6127a9565b33478211156109ed5760405162461bcd60e51b81526004016107cb90612cb6565b6040516001600160a01b0382169083156108fc029084906000818181858888f19350505050158015610a23573d6000803e3d6000fd5b505050565b610a896040518061016001604052806000151581526020016000151581526020016000815260200160008152602001600081526020016000815260200160008152602001600081526020016000815260200160008152602001600081525090565b50600090815260056020818152604092839020835161016081018552815460ff8082161515835261010091829004161515938201939093526001820154948101949094526002810154606085015260038101546080850152600481015460a08501529182015460c0840152600682015460e084015260078201549083015260088101546101208301526009015461014082015290565b610b276127a9565b610b3160006127d6565b565b60076020528160005260406000208181548110610b4f57600080fd5b6000918252602090912001546001600160a01b03169150829050565b610b736127a9565b604051339081904780156108fc02916000818181858888f193505050501580156109c0573d6000803e3d6000fd5b6000805b600454811015610bf757336001600160a01b031660048281548110610bcc57610bcc612c05565b6000918252602090912001546001600160a01b031603610bef5760019150610bf7565b600101610ba5565b5080610c155760405162461bcd60e51b81526004016107cb90612c1b565b6000838152600560205260409020805460ff1615610c755760405162461bcd60e51b815260206004820152601a60248201527f44656261746520697320616c7265616479207265736f6c76656400000000000060448201526064016107cb565b8060060154831480610c8a5750806007015483145b610cc65760405162461bcd60e51b815260206004820152600d60248201526c125b9d985b1a59081859d95b9d609a1b60448201526064016107cb565b805460ff191660019081178255810183905560098101546008820154600091610cee91612ceb565b905060008260020154612710610d049190612c56565b905060005b600087815260076020526040902054811015610ecd576000878152600760205260408120805483908110610d3f57610d3f612c05565b60009182526020808320909101548a83526006825260408084206001600160a01b039092168085529183528084208b85529092529120600481015491925090889003610ec357600086600601548260040154148015610da057506008870154155b15610dc957612710858360020154610db89190612cfe565b610dc29190612d15565b9050610e07565b86600701548260040154148015610de257506009870154155b15610e0757612710858360020154610dfa9190612cfe565b610e049190612d15565b90505b86600601548260040154148015610e22575060008760080154115b15610e64576008870154610e3890612710612cfe565b85878460020154610e499190612cfe565b610e539190612cfe565b610e5d9190612d15565b9050610ebd565b86600701548260040154148015610e7f575060008760090154115b15610ebd576009870154610e9590612710612cfe565b85878460020154610ea69190612cfe565b610eb09190612cfe565b610eba9190612d15565b90505b60038201555b5050600101610d09565b50857fb6284c12d8a21c06155f14e4b5a2c21bdd2a90abcd3b5d0ada8275279cb0ca6f86604051610f0091815260200190565b60405180910390a2505050505050565b6000805b600454811015610f6657336001600160a01b031660048281548110610f3b57610f3b612c05565b6000918252602090912001546001600160a01b031603610f5e5760019150610f66565b600101610f14565b5080610f845760405162461bcd60e51b81526004016107cb90612c1b565b6000888152600560205260409020600681015415801590610fa85750600781015415155b610fc45760405162461bcd60e51b81526004016107cb90612c69565b6003548160050154610fd69190612c56565b42106110245760405162461bcd60e51b815260206004820152601d60248201527f43616e206e6f74206d6f646966792064656261746520616e796d6f726500000060448201526064016107cb565b60068101889055600781018790556000869003611048576001546002820155611050565b600281018690555b6005810185905560048101849055600381018390556040805189815260208101899052908101879052606081018690526080810185905260a0810184905289907f5ad787ff0ab90867aa98c2a81caff732533e80b06f4c6910994cf0c8918d17fc9060c0015b60405180910390a2505050505050505050565b60008281526005602052604081208054610100900460ff1615806110ee5750805460ff165b156110fd5760009150506111e9565b60008481526006602081815260408084206001600160a01b03881685528252808420928501548452919052812060028101541580159061114757506005810154610100900460ff16155b80156111585750600581015460ff16155b1561116f57600281015461116c9083612ceb565b91505b60008681526006602090815260408083206001600160a01b038916845282528083206007870154845290915290206002810154158015906111ba57506005810154610100900460ff16155b80156111cb5750600581015460ff16155b156111e25760028101546111df9084612ceb565b92505b5090925050505b92915050565b6000805b60045481101561124557336001600160a01b03166004828154811061121a5761121a612c05565b6000918252602090912001546001600160a01b03160361123d5760019150611245565b6001016111f3565b50806112635760405162461bcd60e51b81526004016107cb90612c1b565b60008281526005602052604090208054610100900460ff166112975760405162461bcd60e51b81526004016107cb90612d37565b805460ff16156112e95760405162461bcd60e51b815260206004820152601d60248201527f43616e6e6f7420726566756e64207265736f6c7665642064656261746500000060448201526064016107cb565b60005b60008481526007602052604090205481101561141e57600084815260076020526040812080548390811061132257611322612c05565b6000918252602080832090910154878352600680835260408085206001600160a01b03909316808652928452808520918801548552925291206002810154919250901580159061137c57506005810154610100900460ff16155b801561138d5750600581015460ff16155b156113a2576113a28683866006015484612826565b60008681526006602090815260408083206001600160a01b038616845282528083206007880154845290915290206002810154158015906113ed57506005810154610100900460ff16155b80156113fe5750600581015460ff16155b15611413576114138784876007015484612826565b5050506001016112ec565b506000838152600760205260409081902054905184917f963a0bb4af5881750826d32a622d41dd33def21860378b8f90b1a390ff7aefb49161146291815260200190565b60405180910390a2505050565b6114776127a9565b6000818152600560205260409020805460ff166114a65760405162461bcd60e51b81526004016107cb90612d79565b80600101546000036114ca5760405162461bcd60e51b81526004016107cb90612d79565b6000816009015482600801546114e09190612ceb565b905060006127108360020154836114f79190612cfe565b6115019190612d15565b905033478211156115245760405162461bcd60e51b81526004016107cb90612cb6565b6040516001600160a01b0382169083156108fc029084906000818181858888f1935050505015801561155a573d6000803e3d6000fd5b505050505050565b600081815260056020908152604080832060078352818420805483518186028101860190945280845260609592949293928301828280156115cc57602002820191906000526020600020905b81546001600160a01b031681526001909101906020018083116115ae575b5050505050905060008151905060008167ffffffffffffffff8111156115f4576115f4612db0565b60405190808252806020026020018201604052801561163f57816020015b60408051606081018252600080825260208083018290529282015282526000199092019101816116125790505b50905060005b828110156117e257600084828151811061166157611661612c05565b60209081029190910181015160008a8152600680845260408083206001600160a01b03851684528552808320918b01548352935291822060028101549193508291156116d05760028101546116b69084612ceb565b6005820154909350610100900460ff16156116d057600191505b60008b81526006602090815260408083206001600160a01b0388168452825280832060078d0154845290915290206002810154156117315760028101546117179085612ceb565b6005820154909450610100900460ff161561173157600192505b6000841561178c5760028301546001901580159061175957506005840154610100900460ff16155b15611762575060005b6000836002015411801561178057506005830154610100900460ff16155b15611789575060005b90505b6040518060600160405280876001600160a01b031681526020018681526020018215158152508888815181106117c4576117c4612c05565b60200260200101819052505050505050508080600101915050611645565b5095945050505050565b60008181526005602052604090208054610100900460ff166118205760405162461bcd60e51b81526004016107cb90612d37565b805460ff16156118725760405162461bcd60e51b815260206004820152601d60248201527f43616e6e6f7420726566756e64207265736f6c7665642064656261746500000060448201526064016107cb565b6000805b6000848152600760205260409020548110156118da5760008481526007602052604090208054339190839081106118af576118af612c05565b6000918252602090912001546001600160a01b0316036118d257600191506118da565b600101611876565b50806118f85760405162461bcd60e51b81526004016107cb90612dc6565b60008381526006602081815260408084203385528252808420928601548452919052812060028101541580159061193957506005810154610100900460ff16155b801561194a5750600581015460ff16155b156119fb57600281015460058201805461ff00191661010017905560019250334782111561198a5760405162461bcd60e51b81526004016107cb90612e0e565b6040516001600160a01b0382169083156108fc029084906000818181858888f193505050501580156119c0573d6000803e3d6000fd5b50604051828152339088907fcb528fcde812ac8afd931070257cc24789e622614ede1ffd81c7a38beacf3f7b9060200160405180910390a350505b60008581526006602090815260408083203384528252808320600788015484529091529020600281015415801590611a3d57506005810154610100900460ff16155b8015611a4e5750600581015460ff16155b15611aff57600281015460058201805461ff001916610100179055600193503347821115611a8e5760405162461bcd60e51b81526004016107cb90612e0e565b6040516001600160a01b0382169083156108fc029084906000818181858888f19350505050158015611ac4573d6000803e3d6000fd5b50604051828152339089907fcb528fcde812ac8afd931070257cc24789e622614ede1ffd81c7a38beacf3f7b9060200160405180910390a350505b8261155a5760405162461bcd60e51b815260206004820152602160248201527f4e6f20656c696769626c65206265747320666f756e6420666f7220726566756e6044820152601960fa1b60648201526084016107cb565b60008211611ba65760405162461bcd60e51b815260206004820152601d60248201527f416d6f756e74206d7573742062652067726561746572207468616e203000000060448201526064016107cb565b600083815260056020819052604090912090810154611c075760405162461bcd60e51b815260206004820152601b60248201527f446562617465206973206e6f74207075626c697368656420796574000000000060448201526064016107cb565b8060040154600003611c4f5760405162461bcd60e51b8152602060048201526011602482015270111958985d19481a5cc819195b195d1959607a1b60448201526064016107cb565b805460ff1615611cac5760405162461bcd60e51b815260206004820152602260248201527f4465626174652073657373696f6e20697320616c7265616479207265736f6c76604482015261195960f21b60648201526084016107cb565b8054610100900460ff1615611d1f5760405162461bcd60e51b815260206004820152603360248201527f446562617465206973206d61726b656420617320726566756e6461626c652c206044820152721b9bc81b995dc818995d1cc8185b1b1bddd959606a1b60648201526084016107cb565b80600501544211611d7c5760405162461bcd60e51b815260206004820152602160248201527f4465626174652073657373696f6e206973206e6f7420737461727465642079656044820152601d60fa1b60648201526084016107cb565b60025481600301548260040154611d939190612ceb565b611d9d9190612c56565b4210611deb5760405162461bcd60e51b815260206004820152601960248201527f43616e206e6f7420706c6163652062657420616e796d6f72650000000000000060448201526064016107cb565b82341015611e3b5760405162461bcd60e51b815260206004820152601960248201527f46656520616d6f756e74206973206e6f7420636f72726563740000000000000060448201526064016107cb565b80600601548203611e655782816008016000828254611e5a9190612ceb565b90915550611f2f9050565b80600701548203611e845782816009016000828254611e5a9190612ceb565b60068101541580611e9757506007810154155b611ee35760405162461bcd60e51b815260206004820181905260248201527f426f7468206167656e74732061726520616c72656164792061737369676e656460448201526064016107cb565b8060060154600003611f0c5781816006018190555082816008016000828254611e5a9190612ceb565b81816007018190555082816009016000828254611f299190612ceb565b90915550505b600084815260066020908152604080832033845282528083208584529091529020600281015415611f795783816002016000828254611f6e9190612ceb565b909155506120389050565b6040805160e081018252868152336020808301828152838501898152600060608601818152608087018b815260a0880183815260c089018481528f8552600688528a85209885529787528984208d8552909652979091209551865591516001860180546001600160a01b03929092166001600160a01b031990921691909117905551600285015551600384015592516004830155915160059091018054925115156101000261ff00199215159290921661ffff19909316929092171790555b6000805b6000878152600760205260409020548110156120a057600087815260076020526040902080543391908390811061207557612075612c05565b6000918252602090912001546001600160a01b03160361209857600191506120a0565b60010161203c565b50806120d55760008681526007602090815260408220805460018101825590835291200180546001600160a01b031916331790555b6002830154604080518681526020810188905290810191909152339087907fab2115bac1de808eb7fe2be0309085b11f1f42b1eb980de8352efefdbfc098e2906060015b60405180910390a3505050505050565b6121316127a9565b6001600160a01b03811661215b57604051631e4fbdf760e01b8152600060048201526024016107cb565b612164816127d6565b50565b6000805b6004548110156121bd57336001600160a01b03166004828154811061219257612192612c05565b6000918252602090912001546001600160a01b0316036121b557600191506121bd565b60010161216b565b50806121db5760405162461bcd60e51b81526004016107cb90612c1b565b600088815260056020526040902060068101541580156121fd57506007810154155b6122495760405162461bcd60e51b815260206004820152601960248201527f44656261746520697320616c726561647920637265617465640000000000000060448201526064016107cb565b846122548486612ceb565b116122b35760405162461bcd60e51b815260206004820152602960248201527f456e642074696d65206d7573742062652067726561746572207468616e207075604482015268626c69632074696d6560b81b60648201526084016107cb565b600681018890556007810187905560008690036122d75760015460028201556122df565b600281018690555b6005810185905560048101849055600381018390556040805189815260208101899052908101879052606081018690526080810185905260a0810184905289907f74245c13fa29018d2e3827a29b9f092a79b7d948264385dca981d1d6ba38a76f9060c0016110b6565b6000818152600560205260409020805460ff166123785760405162461bcd60e51b81526004016107cb90612d79565b8054610100900460ff16156123e95760405162461bcd60e51b815260206004820152603160248201527f44656261746520697320726566756e6461626c652c2075736520726566756e6460448201527020696e7374656164206f6620636c61696d60781b60648201526084016107cb565b6000805b60008481526007602052604090205481101561245157600084815260076020526040902080543391908390811061242657612426612c05565b6000918252602090912001546001600160a01b0316036124495760019150612451565b6001016123ed565b508061246f5760405162461bcd60e51b81526004016107cb90612dc6565b6001820154600084815260066020908152604080832033845282528083208484529091529020600581015460ff16156124f65760405162461bcd60e51b815260206004820152602360248201527f596f75206861766520616c726561647920636c61696d65642074686520726577604482015262185c9960ea1b60648201526084016107cb565b600081600301541161254a5760405162461bcd60e51b815260206004820152601760248201527f596f7520646964206e6f742077696e207468652062657400000000000000000060448201526064016107cb565b600381015433904710156125705760405162461bcd60e51b81526004016107cb90612cb6565b60038201546040516001600160a01b0383169180156108fc02916000818181858888f193505050501580156125a9573d6000803e3d6000fd5b5060058201805460ff1916600117905560048201546003830154604051339289927f4eed845a8c2dab6b8f3276326563ae95a67314d068314298838cc3246bb3e3e092612119929190918252602082015260400190565b6000805b60045481101561265657336001600160a01b03166004828154811061262b5761262b612c05565b6000918252602090912001546001600160a01b03160361264e5760019150612656565b600101612604565b50806126745760405162461bcd60e51b81526004016107cb90612c1b565b60008281526005602052604090206006810154158015906126985750600781015415155b6126b45760405162461bcd60e51b81526004016107cb90612c69565b805460ff16156127065760405162461bcd60e51b815260206004820152601a60248201527f44656261746520697320616c7265616479207265736f6c76656400000000000060448201526064016107cb565b8054610100900460ff161561276c5760405162461bcd60e51b815260206004820152602660248201527f44656261746520697320616c7265616479206d61726b656420617320726566756044820152656e6461626c6560d01b60648201526084016107cb565b805461ff00191661010017815560405183907fda718c7fab5de6540a4afcf73416cff740ce2de5286111f87c86d8cc68c99fff90600090a2505050565b6000546001600160a01b03163314610b315760405163118cdaa760e01b81523360048201526024016107cb565b600080546001600160a01b038381166001600160a01b0319831681178455604051919092169283917f8be0079c531659141344cd1fd0a4f28419497f9722a3daafe3b4186f6b6457e09190a35050565b600081600201541161287a5760405162461bcd60e51b815260206004820152601760248201527f4e6f2062657420616d6f756e7420746f20726566756e6400000000000000000060448201526064016107cb565b6005810154610100900460ff16156128c75760405162461bcd60e51b815260206004820152601060248201526f105b1c9958591e481c99599d5b99195960821b60448201526064016107cb565b600581015460ff161561291c5760405162461bcd60e51b815260206004820152601960248201527f43616e6e6f7420726566756e6420636c61696d6564206265740000000000000060448201526064016107cb565b600281015460058201805461ff00191661010017905583478211156129535760405162461bcd60e51b81526004016107cb90612e0e565b6040516001600160a01b0382169083156108fc029084906000818181858888f19350505050158015612989573d6000803e3d6000fd5b50846001600160a01b0316867fcb528fcde812ac8afd931070257cc24789e622614ede1ffd81c7a38beacf3f7b8460405161211991815260200190565b80356001600160a01b03811681146129dd57600080fd5b919050565b6000602082840312156129f457600080fd5b6129fd826129c6565b9392505050565b600060208284031215612a1657600080fd5b5035919050565b81511515815261016081016020830151612a3b602084018215159052565b5060408301516040830152606083015160608301526080830151608083015260a083015160a083015260c083015160c083015260e083015160e083015261010083015161010083015261012083015161012083015261014083015161014083015292915050565b60008060408385031215612ab557600080fd5b50508035926020909101359150565b600080600080600080600060e0888a031215612adf57600080fd5b505085359760208701359750604087013596606081013596506080810135955060a0810135945060c0013592509050565b60008060408385031215612b2357600080fd5b82359150612b33602084016129c6565b90509250929050565b600080600060608486031215612b5157600080fd5b83359250612b61602085016129c6565b929592945050506040919091013590565b602080825282518282018190526000918401906040840190835b81811015612bce57835180516001600160a01b031684526020808201518186015260409182015115159185019190915290930192606090920191600101612b8c565b509095945050505050565b600080600060608486031215612bee57600080fd5b505081359360208301359350604090920135919050565b634e487b7160e01b600052603260045260246000fd5b6020808252600b908201526a139bdd08185b1b1bddd95960aa1b604082015260600190565b634e487b7160e01b600052601160045260246000fd5b818103818111156111e9576111e9612c40565b60208082526019908201527f446562617465206973206e6f7420637265617465642079657400000000000000604082015260600190565b634e487b7160e01b600052603160045260246000fd5b6020808252818101527f496e73756666696369656e742062616c616e636520696e20636f6e7472616374604082015260600190565b808201808211156111e9576111e9612c40565b80820281158282048414176111e9576111e9612c40565b600082612d3257634e487b7160e01b600052601260045260246000fd5b500490565b60208082526022908201527f446562617465206973206e6f74206d61726b656420617320726566756e6461626040820152616c6560f01b606082015260800190565b6020808252601a908201527f446562617465206973206e6f74207265736f6c76656420796574000000000000604082015260600190565b634e487b7160e01b600052604160045260246000fd5b60208082526028908201527f596f7520646964206e6f7420706c61636520616e7920626574206f6e20746869604082015267732064656261746560c01b606082015260800190565b6020808252601d908201527f496e73756666696369656e7420636f6e74726163742062616c616e636500000060408201526060019056fea26469706673582212208988f2b030cba462a330e4cc7241c2386c3e59aa4e31a2cb4d5ea9074286832164736f6c634300081c0033",
  "linkReferences": {},
  "deployedLinkReferences": {}
}