{
  "_format": "hh-sol-artifact-1",
  "contractName": "AIDebate",
  "sourceName": "contracts/Debate.sol",
  "abi": [
    {
      "inputs": [
        {
          "internalType": "address",
          "name": "initialOwner",
          "type": "address"
        }
      ],
      "stateMutability": "nonpayable",
      "type": "constructor"
    },
    {
      "inputs": [],
      "name": "InvalidInitialization",
      "type": "error"
    },
    {
      "inputs": [],
      "name": "NotInitializing",
      "type": "error"
    },
    {
      "inputs": [
        {
          "internalType": "address",
          "name": "owner",
          "type": "address"
        }
      ],
      "name": "OwnableInvalidOwner",
      "type": "error"
    },
    {
      "inputs": [
        {
          "internalType": "address",
          "name": "account",
          "type": "address"
        }
      ],
      "name": "OwnableUnauthorizedAccount",
      "type": "error"
    },
    {
      "anonymous": false,
      "inputs": [
        {
          "indexed": true,
          "internalType": "uint256",
          "name": "debateId",
          "type": "uint256"
        },
        {
          "indexed": true,
          "internalType": "address",
          "name": "bettor",
          "type": "address"
        },
        {
          "indexed": false,
          "internalType": "uint8",
          "name": "chosenAgentId",
          "type": "uint8"
        },
        {
          "indexed": false,
          "internalType": "uint256",
          "name": "amount",
          "type": "uint256"
        },
        {
          "indexed": false,
          "internalType": "uint256",
          "name": "platformFeePercentage",
          "type": "uint256"
        }
      ],
      "name": "BetPlaced",
      "type": "event"
    },
    {
      "anonymous": false,
      "inputs": [
        {
          "indexed": true,
          "internalType": "uint256",
          "name": "debateId",
          "type": "uint256"
        },
        {
          "indexed": false,
          "internalType": "uint8",
          "name": "agentAID",
          "type": "uint8"
        },
        {
          "indexed": false,
          "internalType": "uint8",
          "name": "agentBID",
          "type": "uint8"
        },
        {
          "indexed": false,
          "internalType": "uint256",
          "name": "platformFeePercentage",
          "type": "uint256"
        },
        {
          "indexed": false,
          "internalType": "uint256",
          "name": "publicTimeStamp",
          "type": "uint256"
        },
        {
          "indexed": false,
          "internalType": "uint256",
          "name": "endTimeStamp",
          "type": "uint256"
        }
      ],
      "name": "DebateCreated",
      "type": "event"
    },
    {
      "anonymous": false,
      "inputs": [
        {
          "indexed": true,
          "internalType": "uint256",
          "name": "debateId",
          "type": "uint256"
        },
        {
          "indexed": false,
          "internalType": "uint8",
          "name": "winnAgentId",
          "type": "uint8"
        }
      ],
      "name": "DebateResolved",
      "type": "event"
    },
    {
      "anonymous": false,
      "inputs": [
        {
          "indexed": true,
          "internalType": "uint256",
          "name": "debateId",
          "type": "uint256"
        },
        {
          "indexed": false,
          "internalType": "uint8",
          "name": "winnAgentId",
          "type": "uint8"
        }
      ],
      "name": "DebateUpdated",
      "type": "event"
    },
    {
      "anonymous": false,
      "inputs": [
        {
          "indexed": false,
          "internalType": "uint64",
          "name": "version",
          "type": "uint64"
        }
      ],
      "name": "Initialized",
      "type": "event"
    },
    {
      "anonymous": false,
      "inputs": [
        {
          "indexed": true,
          "internalType": "address",
          "name": "previousOwner",
          "type": "address"
        },
        {
          "indexed": true,
          "internalType": "address",
          "name": "newOwner",
          "type": "address"
        }
      ],
      "name": "OwnershipTransferred",
      "type": "event"
    },
    {
      "anonymous": false,
      "inputs": [
        {
          "indexed": true,
          "internalType": "uint256",
          "name": "debateId",
          "type": "uint256"
        },
        {
          "indexed": true,
          "internalType": "address",
          "name": "bettor",
          "type": "address"
        },
        {
          "indexed": false,
          "internalType": "uint8",
          "name": "chosenAgentId",
          "type": "uint8"
        },
        {
          "indexed": false,
          "internalType": "uint256",
          "name": "amount",
          "type": "uint256"
        }
      ],
      "name": "UserClaimed",
      "type": "event"
    },
    {
      "inputs": [
        {
          "internalType": "address",
          "name": "_address",
          "type": "address"
        }
      ],
      "name": "addWhitelist",
      "outputs": [],
      "stateMutability": "nonpayable",
      "type": "function"
    },
    {
      "inputs": [
        {
          "internalType": "uint256",
          "name": "",
          "type": "uint256"
        },
        {
          "internalType": "uint256",
          "name": "",
          "type": "uint256"
        }
      ],
      "name": "addressJoinedList",
      "outputs": [
        {
          "internalType": "address",
          "name": "",
          "type": "address"
        }
      ],
      "stateMutability": "view",
      "type": "function"
    },
    {
      "inputs": [
        {
          "internalType": "uint256",
          "name": "_debateId",
          "type": "uint256"
        },
        {
          "internalType": "uint8",
          "name": "_agentAID",
          "type": "uint8"
        },
        {
          "internalType": "uint8",
          "name": "_agentBID",
          "type": "uint8"
        },
        {
          "internalType": "uint256",
          "name": "_platformFeePercentage",
          "type": "uint256"
        },
        {
          "internalType": "uint256",
          "name": "_publicTimeStamp",
          "type": "uint256"
        },
        {
          "internalType": "uint256",
          "name": "_endSessionTimeStamp",
          "type": "uint256"
        }
      ],
      "name": "adminCreateDebate",
      "outputs": [],
      "stateMutability": "nonpayable",
      "type": "function"
    },
    {
      "inputs": [
        {
          "internalType": "uint256",
          "name": "_debateId",
          "type": "uint256"
        },
        {
          "internalType": "uint8",
          "name": "_winAgentId",
          "type": "uint8"
        }
      ],
      "name": "adminResolveDebate",
      "outputs": [],
      "stateMutability": "nonpayable",
      "type": "function"
    },
    {
      "inputs": [
        {
          "internalType": "uint256",
          "name": "_debateId",
          "type": "uint256"
        },
        {
          "internalType": "uint8",
          "name": "_agentAID",
          "type": "uint8"
        },
        {
          "internalType": "uint8",
          "name": "_agentBID",
          "type": "uint8"
        },
        {
          "internalType": "uint256",
          "name": "_platformFeePercentage",
          "type": "uint256"
        },
        {
          "internalType": "uint256",
          "name": "_publicTimeStamp",
          "type": "uint256"
        },
        {
          "internalType": "uint256",
          "name": "_endSessionTimeStamp",
          "type": "uint256"
        }
      ],
      "name": "adminUpdateDebate",
      "outputs": [],
      "stateMutability": "nonpayable",
      "type": "function"
    },
    {
      "inputs": [
        {
          "internalType": "uint256",
          "name": "_debateId",
          "type": "uint256"
        }
      ],
      "name": "admindDeleteDebate",
      "outputs": [],
      "stateMutability": "nonpayable",
      "type": "function"
    },
    {
      "inputs": [
        {
          "internalType": "uint256",
          "name": "",
          "type": "uint256"
        },
        {
          "internalType": "address",
          "name": "",
          "type": "address"
        },
        {
          "internalType": "uint256",
          "name": "",
          "type": "uint256"
        }
      ],
      "name": "betList",
      "outputs": [
        {
          "internalType": "uint256",
          "name": "debateId",
          "type": "uint256"
        },
        {
          "internalType": "address",
          "name": "bettor",
          "type": "address"
        },
        {
          "internalType": "uint256",
          "name": "amount",
          "type": "uint256"
        },
        {
          "internalType": "uint256",
          "name": "winAmount",
          "type": "uint256"
        },
        {
          "internalType": "uint8",
          "name": "chosenAgentId",
          "type": "uint8"
        },
        {
          "internalType": "bool",
          "name": "isClaimed",
          "type": "bool"
        }
      ],
      "stateMutability": "view",
      "type": "function"
    },
    {
      "inputs": [
        {
          "internalType": "uint256",
          "name": "",
          "type": "uint256"
        }
      ],
      "name": "debateList",
      "outputs": [
        {
          "internalType": "bool",
          "name": "isResolved",
          "type": "bool"
        },
        {
          "internalType": "uint8",
          "name": "winAgentId",
          "type": "uint8"
        },
        {
          "internalType": "uint256",
          "name": "platformFeePercentage",
          "type": "uint256"
        },
        {
          "internalType": "uint256",
          "name": "endTimeStamp",
          "type": "uint256"
        },
        {
          "internalType": "uint256",
          "name": "publicTimeStamp",
          "type": "uint256"
        },
        {
          "internalType": "uint8",
          "name": "agentAID",
          "type": "uint8"
        },
        {
          "internalType": "uint8",
          "name": "agentBID",
          "type": "uint8"
        },
        {
          "internalType": "uint256",
          "name": "totalAgentABetAmount",
          "type": "uint256"
        },
        {
          "internalType": "uint256",
          "name": "totalAgentBBetAmount",
          "type": "uint256"
        }
      ],
      "stateMutability": "view",
      "type": "function"
    },
    {
      "inputs": [],
      "name": "defaultPlatformFeePercentage",
      "outputs": [
        {
          "internalType": "uint256",
          "name": "",
          "type": "uint256"
        }
      ],
      "stateMutability": "view",
      "type": "function"
    },
    {
      "inputs": [
        {
          "internalType": "uint256",
          "name": "_debateId",
          "type": "uint256"
        }
      ],
      "name": "getDebateInfo",
      "outputs": [
        {
          "components": [
            {
              "internalType": "bool",
              "name": "isResolved",
              "type": "bool"
            },
            {
              "internalType": "uint8",
              "name": "winAgentId",
              "type": "uint8"
            },
            {
              "internalType": "uint256",
              "name": "platformFeePercentage",
              "type": "uint256"
            },
            {
              "internalType": "uint256",
              "name": "endTimeStamp",
              "type": "uint256"
            },
            {
              "internalType": "uint256",
              "name": "publicTimeStamp",
              "type": "uint256"
            },
            {
              "internalType": "uint8",
              "name": "agentAID",
              "type": "uint8"
            },
            {
              "internalType": "uint8",
              "name": "agentBID",
              "type": "uint8"
            },
            {
              "internalType": "uint256",
              "name": "totalAgentABetAmount",
              "type": "uint256"
            },
            {
              "internalType": "uint256",
              "name": "totalAgentBBetAmount",
              "type": "uint256"
            }
          ],
          "internalType": "struct AIDebate.Debate",
          "name": "",
          "type": "tuple"
        }
      ],
      "stateMutability": "view",
      "type": "function"
    },
    {
      "inputs": [],
      "name": "owner",
      "outputs": [
        {
          "internalType": "address",
          "name": "",
          "type": "address"
        }
      ],
      "stateMutability": "view",
      "type": "function"
    },
    {
      "inputs": [
        {
          "internalType": "uint256",
          "name": "_debateId",
          "type": "uint256"
        },
        {
          "internalType": "uint256",
          "name": "_amount",
          "type": "uint256"
        },
        {
          "internalType": "uint8",
          "name": "_chosenAgent",
          "type": "uint8"
        }
      ],
      "name": "placeBet",
      "outputs": [],
      "stateMutability": "payable",
      "type": "function"
    },
    {
      "inputs": [
        {
          "internalType": "address",
          "name": "_address",
          "type": "address"
        }
      ],
      "name": "removeWhitelist",
      "outputs": [],
      "stateMutability": "nonpayable",
      "type": "function"
    },
    {
      "inputs": [],
      "name": "renounceOwnership",
      "outputs": [],
      "stateMutability": "nonpayable",
      "type": "function"
    },
    {
      "inputs": [
        {
          "internalType": "address",
          "name": "newOwner",
          "type": "address"
        }
      ],
      "name": "transferOwnership",
      "outputs": [],
      "stateMutability": "nonpayable",
      "type": "function"
    },
    {
      "inputs": [
        {
          "internalType": "uint256",
          "name": "_debateId",
          "type": "uint256"
        }
      ],
      "name": "userClaim",
      "outputs": [],
      "stateMutability": "nonpayable",
      "type": "function"
    }
  ],
  "bytecode": "0x60806040526005600155620493e060025534801561001c57600080fd5b50604051612e49380380612e49833981810160405281019061003e91906101ee565b80600073ffffffffffffffffffffffffffffffffffffffff168173ffffffffffffffffffffffffffffffffffffffff16036100b15760006040517f1e4fbdf70000000000000000000000000000000000000000000000000000000081526004016100a8919061022a565b60405180910390fd5b6100c0816100c760201b60201c565b5050610245565b60008060009054906101000a900473ffffffffffffffffffffffffffffffffffffffff169050816000806101000a81548173ffffffffffffffffffffffffffffffffffffffff021916908373ffffffffffffffffffffffffffffffffffffffff1602179055508173ffffffffffffffffffffffffffffffffffffffff168173ffffffffffffffffffffffffffffffffffffffff167f8be0079c531659141344cd1fd0a4f28419497f9722a3daafe3b4186f6b6457e060405160405180910390a35050565b600080fd5b600073ffffffffffffffffffffffffffffffffffffffff82169050919050565b60006101bb82610190565b9050919050565b6101cb816101b0565b81146101d657600080fd5b50565b6000815190506101e8816101c2565b92915050565b6000602082840312156102045761020361018b565b5b6000610212848285016101d9565b91505092915050565b610224816101b0565b82525050565b600060208201905061023f600083018461021b565b92915050565b612bf5806102546000396000f3fe6080604052600436106100f35760003560e01c80638da5cb5b1161008a578063f2fde38b11610059578063f2fde38b1461030d578063f80f5dd514610336578063fe43efda1461035f578063fe84d4b614610388576100f3565b80638da5cb5b146102745780639e14427e1461029f578063be8f2ffb146102bb578063d1d9f6ac146102e4576100f3565b80635b99a012116100c65780635b99a012146101ba578063715018a6146101f757806378c8cda71461020e5780637a27fbb214610237576100f3565b80631b84f210146100f8578063310026df14610121578063399383481461014a578063436741311461018f575b600080fd5b34801561010457600080fd5b5061011f600480360381019061011a9190611b5f565b6103ca565b005b34801561012d57600080fd5b5061014860048036038101906101439190611bec565b610559565b005b34801561015657600080fd5b50610171600480360381019061016c9190611c2c565b6108b7565b60405161018699989796959493929190611c92565b60405180910390f35b34801561019b57600080fd5b506101a4610939565b6040516101b19190611d1f565b60405180910390f35b3480156101c657600080fd5b506101e160048036038101906101dc9190611c2c565b61093f565b6040516101ee9190611e1e565b60405180910390f35b34801561020357600080fd5b5061020c610a17565b005b34801561021a57600080fd5b5061023560048036038101906102309190611e98565b610a2b565b005b34801561024357600080fd5b5061025e60048036038101906102599190611ec5565b610a8e565b60405161026b9190611f14565b60405180910390f35b34801561028057600080fd5b50610289610adc565b6040516102969190611f14565b60405180910390f35b6102b960048036038101906102b49190611f2f565b610b05565b005b3480156102c757600080fd5b506102e260048036038101906102dd9190611b5f565b611160565b005b3480156102f057600080fd5b5061030b60048036038101906103069190611c2c565b6112a7565b005b34801561031957600080fd5b50610334600480360381019061032f9190611e98565b611390565b005b34801561034257600080fd5b5061035d60048036038101906103589190611e98565b611416565b005b34801561036b57600080fd5b5061038660048036038101906103819190611c2c565b611479565b005b34801561039457600080fd5b506103af60048036038101906103aa9190611f82565b6117b3565b6040516103c196959493929190611fd5565b60405180910390f35b6103d2611843565b600060036000888152602001908152602001600020905060008160040160009054906101000a900460ff1660ff16148015610421575060008160040160019054906101000a900460ff1660ff16145b610460576040517f08c379a000000000000000000000000000000000000000000000000000000000815260040161045790612093565b60405180910390fd5b8282116104a2576040517f08c379a000000000000000000000000000000000000000000000000000000000815260040161049990612125565b60405180910390fd5b858160040160006101000a81548160ff021916908360ff160217905550848160040160016101000a81548160ff021916908360ff160217905550600084036104f45760015481600101819055506104fe565b8381600101819055505b828160030181905550818160020181905550867f4d9876e18138e94b574a905e63021c936600ab7e940d5ef88bcb7e06c4de34638787878787604051610548959493929190612145565b60405180910390a250505050505050565b610561611843565b60006003600084815260200190815260200160002090508060000160009054906101000a900460ff16156105ca576040517f08c379a00000000000000000000000000000000000000000000000000000000081526004016105c1906121e4565b60405180910390fd5b8060040160009054906101000a900460ff1660ff168260ff16148061060557508060040160019054906101000a900460ff1660ff168260ff16145b610644576040517f08c379a000000000000000000000000000000000000000000000000000000000815260040161063b90612250565b60405180910390fd5b60018160000160006101000a81548160ff021916908315150217905550818160000160016101000a81548160ff021916908360ff160217905550600081600601548260050154610694919061229f565b905060005b60056000868152602001908152602001600020805490508110156108785760006005600087815260200190815260200160002082815481106106de576106dd6122d3565b5b9060005260206000200160009054906101000a900473ffffffffffffffffffffffffffffffffffffffff16905060006004600088815260200190815260200160002060008373ffffffffffffffffffffffffffffffffffffffff1673ffffffffffffffffffffffffffffffffffffffff16815260200190815260200160002060008760ff16815260200190815260200160002090508560ff168160040160009054906101000a900460ff1660ff1614610798575050610878565b60008560040160009054906101000a900460ff1660ff168260040160009054906101000a900460ff1660ff1603610816576064866001015460646107dc9190612302565b86886005015485600201546107f19190612365565b6107fb9190612396565b6108059190612396565b61080f9190612365565b905061085f565b6064866001015460646108299190612302565b868860060154856002015461083e9190612365565b6108489190612396565b6108529190612396565b61085c9190612365565b90505b8082600301819055505050508080600101915050610699565b50837fce9132b398f004c2439d9df899fbaab5d9bb01c6dd02a720728f73eac95e578f846040516108a991906123d8565b60405180910390a250505050565b60036020528060005260406000206000915090508060000160009054906101000a900460ff16908060000160019054906101000a900460ff16908060010154908060020154908060030154908060040160009054906101000a900460ff16908060040160019054906101000a900460ff16908060050154908060060154905089565b60015481565b610947611a94565b600060036000848152602001908152602001600020905080604051806101200160405290816000820160009054906101000a900460ff161515151581526020016000820160019054906101000a900460ff1660ff1660ff1681526020016001820154815260200160028201548152602001600382015481526020016004820160009054906101000a900460ff1660ff1660ff1681526020016004820160019054906101000a900460ff1660ff1660ff16815260200160058201548152602001600682015481525050915050919050565b610a1f611843565b610a2960006118ca565b565b610a33611843565b6000600660008373ffffffffffffffffffffffffffffffffffffffff1673ffffffffffffffffffffffffffffffffffffffff16815260200190815260200160002060006101000a81548160ff02191690831515021790555050565b60056020528160005260406000208181548110610aaa57600080fd5b906000526020600020016000915091509054906101000a900473ffffffffffffffffffffffffffffffffffffffff1681565b60008060009054906101000a900473ffffffffffffffffffffffffffffffffffffffff16905090565b60008211610b48576040517f08c379a0000000000000000000000000000000000000000000000000000000008152600401610b3f9061243f565b60405180910390fd5b60006003600085815260200190815260200160002090506000816003015411610ba6576040517f08c379a0000000000000000000000000000000000000000000000000000000008152600401610b9d906124ab565b60405180910390fd5b6000816002015403610bed576040517f08c379a0000000000000000000000000000000000000000000000000000000008152600401610be490612517565b60405180910390fd5b8060000160009054906101000a900460ff1615610c3f576040517f08c379a0000000000000000000000000000000000000000000000000000000008152600401610c36906125a9565b60405180910390fd5b80600301544211610c85576040517f08c379a0000000000000000000000000000000000000000000000000000000008152600401610c7c9061263b565b60405180910390fd5b6002548160020154610c979190612302565b4210610cd8576040517f08c379a0000000000000000000000000000000000000000000000000000000008152600401610ccf906126a7565b60405180910390fd5b82341015610d1b576040517f08c379a0000000000000000000000000000000000000000000000000000000008152600401610d1290612713565b60405180910390fd5b8060040160009054906101000a900460ff1660ff168260ff1603610d595782816005016000828254610d4d919061229f565b92505081905550610ea1565b8060040160019054906101000a900460ff1660ff168260ff1603610d975782816006016000828254610d8b919061229f565b92505081905550610ea0565b60008160040160009054906101000a900460ff1660ff161480610dce575060008160040160019054906101000a900460ff1660ff16145b610e0d576040517f08c379a0000000000000000000000000000000000000000000000000000000008152600401610e049061277f565b60405180910390fd5b60008160040160009054906101000a900460ff1660ff1603610e6657818160040160006101000a81548160ff021916908360ff16021790555082816005016000828254610e5a919061229f565b92505081905550610e9f565b818160040160016101000a81548160ff021916908360ff16021790555082816006016000828254610e97919061229f565b925050819055505b5b5b60006004600086815260200190815260200160002060003373ffffffffffffffffffffffffffffffffffffffff1673ffffffffffffffffffffffffffffffffffffffff16815260200190815260200160002060008460ff1681526020019081526020016000209050600081600201541115610f365783816002016000828254610f2a919061229f565b9250508190555061108e565b6040518060c001604052808681526020013373ffffffffffffffffffffffffffffffffffffffff168152602001858152602001600081526020018460ff168152602001600015158152506004600087815260200190815260200160002060003373ffffffffffffffffffffffffffffffffffffffff1673ffffffffffffffffffffffffffffffffffffffff16815260200190815260200160002060008560ff1681526020019081526020016000206000820151816000015560208201518160010160006101000a81548173ffffffffffffffffffffffffffffffffffffffff021916908373ffffffffffffffffffffffffffffffffffffffff160217905550604082015181600201556060820151816003015560808201518160040160006101000a81548160ff021916908360ff16021790555060a08201518160040160016101000a81548160ff0219169083151502179055509050505b60056000868152602001908152602001600020339080600181540180825580915050600190039060005260206000200160009091909190916101000a81548173ffffffffffffffffffffffffffffffffffffffff021916908373ffffffffffffffffffffffffffffffffffffffff1602179055503373ffffffffffffffffffffffffffffffffffffffff16857fbfcd8f4e47cc529f86cdc7eab8fb80e015a298e021fcaee72df1f76dd57cf487858786600101546040516111519392919061279f565b60405180910390a35050505050565b611168611843565b600060036000888152602001908152602001600020905060008160040160009054906101000a900460ff1660ff16141580156111b9575060008160040160019054906101000a900460ff1660ff1614155b6111f8576040517f08c379a00000000000000000000000000000000000000000000000000000000081526004016111ef90612822565b60405180910390fd5b858160040160006101000a81548160ff021916908360ff160217905550848160040160016101000a81548160ff021916908360ff1602179055506000840361124a576001548160010181905550611254565b8381600101819055505b828160030181905550818160020181905550867f76b3babd8e9b3b47276e520b38eaa8b5d092ae5a8b256c348f16b2a9eacc46b88760405161129691906123d8565b60405180910390a250505050505050565b6112af611843565b600060036000838152602001908152602001600020905060008160040160009054906101000a900460ff1660ff1614158015611300575060008160040160019054906101000a900460ff1660ff1614155b61133f576040517f08c379a000000000000000000000000000000000000000000000000000000000815260040161133690612822565b60405180910390fd5b6000816003018190555060008160020181905550817f76b3babd8e9b3b47276e520b38eaa8b5d092ae5a8b256c348f16b2a9eacc46b860006040516113849190612887565b60405180910390a25050565b611398611843565b600073ffffffffffffffffffffffffffffffffffffffff168173ffffffffffffffffffffffffffffffffffffffff160361140a5760006040517f1e4fbdf70000000000000000000000000000000000000000000000000000000081526004016114019190611f14565b60405180910390fd5b611413816118ca565b50565b61141e611843565b6001600660008373ffffffffffffffffffffffffffffffffffffffff1673ffffffffffffffffffffffffffffffffffffffff16815260200190815260200160002060006101000a81548160ff02191690831515021790555050565b60006003600083815260200190815260200160002090508060000160009054906101000a900460ff166114e1576040517f08c379a00000000000000000000000000000000000000000000000000000000081526004016114d8906128ee565b60405180910390fd5b60005b60056000848152602001908152602001600020805490508110156115f6573373ffffffffffffffffffffffffffffffffffffffff1660056000858152602001908152602001600020828154811061153e5761153d6122d3565b5b9060005260206000200160009054906101000a900473ffffffffffffffffffffffffffffffffffffffff1673ffffffffffffffffffffffffffffffffffffffff1603156115f657600160056000858152602001908152602001600020805490506115a89190612302565b81036115e9576040517f08c379a00000000000000000000000000000000000000000000000000000000081526004016115e09061295a565b60405180910390fd5b80806001019150506114e4565b5060008160000160019054906101000a900460ff1660ff16905060006004600085815260200190815260200160002060003373ffffffffffffffffffffffffffffffffffffffff1673ffffffffffffffffffffffffffffffffffffffff168152602001908152602001600020600083815260200190815260200160002090508060040160019054906101000a900460ff16156116c7576040517f08c379a00000000000000000000000000000000000000000000000000000000081526004016116be906129ec565b60405180910390fd5b600081600301541161170e576040517f08c379a000000000000000000000000000000000000000000000000000000000815260040161170590612a58565b60405180910390fd5b60006117193361198e565b9050611729818360030154611998565b60018260040160016101000a81548160ff0219169083151502179055503373ffffffffffffffffffffffffffffffffffffffff16857f117469dc6e53cc28b431071a5558d9ba93ba1fa0a223492d196a9fa9e541c0d78460040160009054906101000a900460ff1685600301546040516117a4929190612a78565b60405180910390a35050505050565b600460205282600052604060002060205281600052604060002060205280600052604060002060009250925050508060000154908060010160009054906101000a900473ffffffffffffffffffffffffffffffffffffffff16908060020154908060030154908060040160009054906101000a900460ff16908060040160019054906101000a900460ff16905086565b61184b611a8c565b73ffffffffffffffffffffffffffffffffffffffff16611869610adc565b73ffffffffffffffffffffffffffffffffffffffff16146118c85761188c611a8c565b6040517f118cdaa70000000000000000000000000000000000000000000000000000000081526004016118bf9190611f14565b60405180910390fd5b565b60008060009054906101000a900473ffffffffffffffffffffffffffffffffffffffff169050816000806101000a81548173ffffffffffffffffffffffffffffffffffffffff021916908373ffffffffffffffffffffffffffffffffffffffff1602179055508173ffffffffffffffffffffffffffffffffffffffff168173ffffffffffffffffffffffffffffffffffffffff167f8be0079c531659141344cd1fd0a4f28419497f9722a3daafe3b4186f6b6457e060405160405180910390a35050565b6000819050919050565b804710156119db576040517f08c379a00000000000000000000000000000000000000000000000000000000081526004016119d290612aed565b60405180910390fd5b60008273ffffffffffffffffffffffffffffffffffffffff1682604051611a0190612b3e565b60006040518083038185875af1925050503d8060008114611a3e576040519150601f19603f3d011682016040523d82523d6000602084013e611a43565b606091505b5050905080611a87576040517f08c379a0000000000000000000000000000000000000000000000000000000008152600401611a7e90612b9f565b60405180910390fd5b505050565b600033905090565b604051806101200160405280600015158152602001600060ff168152602001600081526020016000815260200160008152602001600060ff168152602001600060ff16815260200160008152602001600081525090565b600080fd5b6000819050919050565b611b0381611af0565b8114611b0e57600080fd5b50565b600081359050611b2081611afa565b92915050565b600060ff82169050919050565b611b3c81611b26565b8114611b4757600080fd5b50565b600081359050611b5981611b33565b92915050565b60008060008060008060c08789031215611b7c57611b7b611aeb565b5b6000611b8a89828a01611b11565b9650506020611b9b89828a01611b4a565b9550506040611bac89828a01611b4a565b9450506060611bbd89828a01611b11565b9350506080611bce89828a01611b11565b92505060a0611bdf89828a01611b11565b9150509295509295509295565b60008060408385031215611c0357611c02611aeb565b5b6000611c1185828601611b11565b9250506020611c2285828601611b4a565b9150509250929050565b600060208284031215611c4257611c41611aeb565b5b6000611c5084828501611b11565b91505092915050565b60008115159050919050565b611c6e81611c59565b82525050565b611c7d81611b26565b82525050565b611c8c81611af0565b82525050565b600061012082019050611ca8600083018c611c65565b611cb5602083018b611c74565b611cc2604083018a611c83565b611ccf6060830189611c83565b611cdc6080830188611c83565b611ce960a0830187611c74565b611cf660c0830186611c74565b611d0360e0830185611c83565b611d11610100830184611c83565b9a9950505050505050505050565b6000602082019050611d346000830184611c83565b92915050565b611d4381611c59565b82525050565b611d5281611b26565b82525050565b611d6181611af0565b82525050565b61012082016000820151611d7e6000850182611d3a565b506020820151611d916020850182611d49565b506040820151611da46040850182611d58565b506060820151611db76060850182611d58565b506080820151611dca6080850182611d58565b5060a0820151611ddd60a0850182611d49565b5060c0820151611df060c0850182611d49565b5060e0820151611e0360e0850182611d58565b50610100820151611e18610100850182611d58565b50505050565b600061012082019050611e346000830184611d67565b92915050565b600073ffffffffffffffffffffffffffffffffffffffff82169050919050565b6000611e6582611e3a565b9050919050565b611e7581611e5a565b8114611e8057600080fd5b50565b600081359050611e9281611e6c565b92915050565b600060208284031215611eae57611ead611aeb565b5b6000611ebc84828501611e83565b91505092915050565b60008060408385031215611edc57611edb611aeb565b5b6000611eea85828601611b11565b9250506020611efb85828601611b11565b9150509250929050565b611f0e81611e5a565b82525050565b6000602082019050611f296000830184611f05565b92915050565b600080600060608486031215611f4857611f47611aeb565b5b6000611f5686828701611b11565b9350506020611f6786828701611b11565b9250506040611f7886828701611b4a565b9150509250925092565b600080600060608486031215611f9b57611f9a611aeb565b5b6000611fa986828701611b11565b9350506020611fba86828701611e83565b9250506040611fcb86828701611b11565b9150509250925092565b600060c082019050611fea6000830189611c83565b611ff76020830188611f05565b6120046040830187611c83565b6120116060830186611c83565b61201e6080830185611c74565b61202b60a0830184611c65565b979650505050505050565b600082825260208201905092915050565b7f44656261746520697320616c7265616479206372656174656400000000000000600082015250565b600061207d601983612036565b915061208882612047565b602082019050919050565b600060208201905081810360008301526120ac81612070565b9050919050565b7f456e642074696d65206d7573742062652067726561746572207468616e20707560008201527f626c69632074696d650000000000000000000000000000000000000000000000602082015250565b600061210f602983612036565b915061211a826120b3565b604082019050919050565b6000602082019050818103600083015261213e81612102565b9050919050565b600060a08201905061215a6000830188611c74565b6121676020830187611c74565b6121746040830186611c83565b6121816060830185611c83565b61218e6080830184611c83565b9695505050505050565b7f44656261746520697320616c7265616479207265736f6c766564000000000000600082015250565b60006121ce601a83612036565b91506121d982612198565b602082019050919050565b600060208201905081810360008301526121fd816121c1565b9050919050565b7f496e76616c6964206167656e7400000000000000000000000000000000000000600082015250565b600061223a600d83612036565b915061224582612204565b602082019050919050565b600060208201905081810360008301526122698161222d565b9050919050565b7f4e487b7100000000000000000000000000000000000000000000000000000000600052601160045260246000fd5b60006122aa82611af0565b91506122b583611af0565b92508282019050808211156122cd576122cc612270565b5b92915050565b7f4e487b7100000000000000000000000000000000000000000000000000000000600052603260045260246000fd5b600061230d82611af0565b915061231883611af0565b92508282039050818111156123305761232f612270565b5b92915050565b7f4e487b7100000000000000000000000000000000000000000000000000000000600052601260045260246000fd5b600061237082611af0565b915061237b83611af0565b92508261238b5761238a612336565b5b828204905092915050565b60006123a182611af0565b91506123ac83611af0565b92508282026123ba81611af0565b915082820484148315176123d1576123d0612270565b5b5092915050565b60006020820190506123ed6000830184611c74565b92915050565b7f416d6f756e74206d7573742062652067726561746572207468616e2030000000600082015250565b6000612429601d83612036565b9150612434826123f3565b602082019050919050565b600060208201905081810360008301526124588161241c565b9050919050565b7f446562617465206973206e6f74207075626c6973686564207965740000000000600082015250565b6000612495601b83612036565b91506124a08261245f565b602082019050919050565b600060208201905081810360008301526124c481612488565b9050919050565b7f4465626174652069732064656c65746564000000000000000000000000000000600082015250565b6000612501601183612036565b915061250c826124cb565b602082019050919050565b60006020820190508181036000830152612530816124f4565b9050919050565b7f4465626174652073657373696f6e20697320616c7265616479207265736f6c7660008201527f6564000000000000000000000000000000000000000000000000000000000000602082015250565b6000612593602283612036565b915061259e82612537565b604082019050919050565b600060208201905081810360008301526125c281612586565b9050919050565b7f4465626174652073657373696f6e206973206e6f74207374617274656420796560008201527f7400000000000000000000000000000000000000000000000000000000000000602082015250565b6000612625602183612036565b9150612630826125c9565b604082019050919050565b6000602082019050818103600083015261265481612618565b9050919050565b7f4465626174652073657373696f6e20697320616c726561647920656e64656400600082015250565b6000612691601f83612036565b915061269c8261265b565b602082019050919050565b600060208201905081810360008301526126c081612684565b9050919050565b7f46656520616d6f756e74206973206e6f7420636f727265637400000000000000600082015250565b60006126fd601983612036565b9150612708826126c7565b602082019050919050565b6000602082019050818103600083015261272c816126f0565b9050919050565b7f426f7468206167656e74732061726520616c72656164792061737369676e6564600082015250565b6000612769602083612036565b915061277482612733565b602082019050919050565b600060208201905081810360008301526127988161275c565b9050919050565b60006060820190506127b46000830186611c74565b6127c16020830185611c83565b6127ce6040830184611c83565b949350505050565b7f446562617465206973206e6f7420637265617465642079657400000000000000600082015250565b600061280c601983612036565b9150612817826127d6565b602082019050919050565b6000602082019050818103600083015261283b816127ff565b9050919050565b6000819050919050565b6000819050919050565b600061287161286c61286784612842565b61284c565b611b26565b9050919050565b61288181612856565b82525050565b600060208201905061289c6000830184612878565b92915050565b7f446562617465206973206e6f74207265736f6c76656420796574000000000000600082015250565b60006128d8601a83612036565b91506128e3826128a2565b602082019050919050565b60006020820190508181036000830152612907816128cb565b9050919050565b7f596f7520646964206e6f74206a6f696e656420696e2074686520626174746c65600082015250565b6000612944602083612036565b915061294f8261290e565b602082019050919050565b6000602082019050818103600083015261297381612937565b9050919050565b7f596f75206861766520616c726561647920636c61696d6564207468652072657760008201527f6172640000000000000000000000000000000000000000000000000000000000602082015250565b60006129d6602383612036565b91506129e18261297a565b604082019050919050565b60006020820190508181036000830152612a05816129c9565b9050919050565b7f596f7520646964206e6f742077696e2074686520626574000000000000000000600082015250565b6000612a42601783612036565b9150612a4d82612a0c565b602082019050919050565b60006020820190508181036000830152612a7181612a35565b9050919050565b6000604082019050612a8d6000830185611c74565b612a9a6020830184611c83565b9392505050565b7f496e73756666696369656e742062616c616e636520696e20636f6e7472616374600082015250565b6000612ad7602083612036565b9150612ae282612aa1565b602082019050919050565b60006020820190508181036000830152612b0681612aca565b9050919050565b600081905092915050565b50565b6000612b28600083612b0d565b9150612b3382612b18565b600082019050919050565b6000612b4982612b1b565b9150819050919050565b7f5472616e7366657220746f6b656e206661696c65640000000000000000000000600082015250565b6000612b89601583612036565b9150612b9482612b53565b602082019050919050565b60006020820190508181036000830152612bb881612b7c565b905091905056fea2646970667358221220e6474596924ac1df276a612b95cc0387e1a7b6e32ca0d0231554e5322831f4b764736f6c634300081c0033",
  "linkReferences": {},
  "deployedLinkReferences": {}
}