{
  "_format": "hh-sol-artifact-1",
  "contractName": "AIDebate",
  "sourceName": "contracts/Debate.sol",
  "abi": [
    {
      "inputs": [
        {
          "internalType": "address",
          "name": "initialOwner",
          "type": "address"
        }
      ],
      "stateMutability": "nonpayable",
      "type": "constructor"
    },
    {
      "inputs": [],
      "name": "InvalidInitialization",
      "type": "error"
    },
    {
      "inputs": [],
      "name": "NotInitializing",
      "type": "error"
    },
    {
      "inputs": [
        {
          "internalType": "address",
          "name": "owner",
          "type": "address"
        }
      ],
      "name": "OwnableInvalidOwner",
      "type": "error"
    },
    {
      "inputs": [
        {
          "internalType": "address",
          "name": "account",
          "type": "address"
        }
      ],
      "name": "OwnableUnauthorizedAccount",
      "type": "error"
    },
    {
      "anonymous": false,
      "inputs": [
        {
          "indexed": true,
          "internalType": "uint256",
          "name": "debateId",
          "type": "uint256"
        },
        {
          "indexed": true,
          "internalType": "address",
          "name": "bettor",
          "type": "address"
        },
        {
          "indexed": false,
          "internalType": "uint256",
          "name": "chosenAgentId",
          "type": "uint256"
        },
        {
          "indexed": false,
          "internalType": "uint256",
          "name": "amount",
          "type": "uint256"
        },
        {
          "indexed": false,
          "internalType": "uint256",
          "name": "platformFeePercentage",
          "type": "uint256"
        }
      ],
      "name": "BetPlaced",
      "type": "event"
    },
    {
      "anonymous": false,
      "inputs": [
        {
          "indexed": true,
          "internalType": "uint256",
          "name": "debateId",
          "type": "uint256"
        },
        {
          "indexed": false,
          "internalType": "uint256",
          "name": "agentAID",
          "type": "uint256"
        },
        {
          "indexed": false,
          "internalType": "uint256",
          "name": "agentBID",
          "type": "uint256"
        },
        {
          "indexed": false,
          "internalType": "uint256",
          "name": "platformFeePercentage",
          "type": "uint256"
        },
        {
          "indexed": false,
          "internalType": "uint256",
          "name": "publicTimeStamp",
          "type": "uint256"
        },
        {
          "indexed": false,
          "internalType": "uint256",
          "name": "startTimeStamp",
          "type": "uint256"
        },
        {
          "indexed": false,
          "internalType": "uint256",
          "name": "sessionDuration",
          "type": "uint256"
        }
      ],
      "name": "DebateCreated",
      "type": "event"
    },
    {
      "anonymous": false,
      "inputs": [
        {
          "indexed": true,
          "internalType": "uint256",
          "name": "debateId",
          "type": "uint256"
        }
      ],
      "name": "DebateDeleted",
      "type": "event"
    },
    {
      "anonymous": false,
      "inputs": [
        {
          "indexed": true,
          "internalType": "uint256",
          "name": "debateId",
          "type": "uint256"
        },
        {
          "indexed": false,
          "internalType": "uint256",
          "name": "winnAgentId",
          "type": "uint256"
        }
      ],
      "name": "DebateResolved",
      "type": "event"
    },
    {
      "anonymous": false,
      "inputs": [
        {
          "indexed": true,
          "internalType": "uint256",
          "name": "debateId",
          "type": "uint256"
        },
        {
          "indexed": false,
          "internalType": "uint256",
          "name": "agentAID",
          "type": "uint256"
        },
        {
          "indexed": false,
          "internalType": "uint256",
          "name": "agentBID",
          "type": "uint256"
        },
        {
          "indexed": false,
          "internalType": "uint256",
          "name": "platformFeePercentage",
          "type": "uint256"
        },
        {
          "indexed": false,
          "internalType": "uint256",
          "name": "publicTimeStamp",
          "type": "uint256"
        },
        {
          "indexed": false,
          "internalType": "uint256",
          "name": "startTimeStamp",
          "type": "uint256"
        },
        {
          "indexed": false,
          "internalType": "uint256",
          "name": "sessionDuration",
          "type": "uint256"
        }
      ],
      "name": "DebateUpdated",
      "type": "event"
    },
    {
      "anonymous": false,
      "inputs": [
        {
          "indexed": false,
          "internalType": "uint64",
          "name": "version",
          "type": "uint64"
        }
      ],
      "name": "Initialized",
      "type": "event"
    },
    {
      "anonymous": false,
      "inputs": [
        {
          "indexed": true,
          "internalType": "address",
          "name": "previousOwner",
          "type": "address"
        },
        {
          "indexed": true,
          "internalType": "address",
          "name": "newOwner",
          "type": "address"
        }
      ],
      "name": "OwnershipTransferred",
      "type": "event"
    },
    {
      "anonymous": false,
      "inputs": [
        {
          "indexed": true,
          "internalType": "uint256",
          "name": "debateId",
          "type": "uint256"
        },
        {
          "indexed": true,
          "internalType": "address",
          "name": "bettor",
          "type": "address"
        },
        {
          "indexed": false,
          "internalType": "uint256",
          "name": "chosenAgentId",
          "type": "uint256"
        },
        {
          "indexed": false,
          "internalType": "uint256",
          "name": "amount",
          "type": "uint256"
        }
      ],
      "name": "UserClaimed",
      "type": "event"
    },
    {
      "inputs": [
        {
          "internalType": "address",
          "name": "_address",
          "type": "address"
        }
      ],
      "name": "addWhitelist",
      "outputs": [],
      "stateMutability": "nonpayable",
      "type": "function"
    },
    {
      "inputs": [
        {
          "internalType": "uint256",
          "name": "",
          "type": "uint256"
        },
        {
          "internalType": "uint256",
          "name": "",
          "type": "uint256"
        }
      ],
      "name": "addressJoinedList",
      "outputs": [
        {
          "internalType": "address",
          "name": "",
          "type": "address"
        }
      ],
      "stateMutability": "view",
      "type": "function"
    },
    {
      "inputs": [
        {
          "internalType": "uint256",
          "name": "_debateId",
          "type": "uint256"
        },
        {
          "internalType": "uint256",
          "name": "_agentAID",
          "type": "uint256"
        },
        {
          "internalType": "uint256",
          "name": "_agentBID",
          "type": "uint256"
        },
        {
          "internalType": "uint256",
          "name": "_platformFeePercentage",
          "type": "uint256"
        },
        {
          "internalType": "uint256",
          "name": "_publicTimeStamp",
          "type": "uint256"
        },
        {
          "internalType": "uint256",
          "name": "_startTimeStamp",
          "type": "uint256"
        },
        {
          "internalType": "uint256",
          "name": "_sessionDuration",
          "type": "uint256"
        }
      ],
      "name": "adminCreateDebate",
      "outputs": [],
      "stateMutability": "nonpayable",
      "type": "function"
    },
    {
      "inputs": [
        {
          "internalType": "uint256",
          "name": "_debateId",
          "type": "uint256"
        }
      ],
      "name": "adminDeleteDebate",
      "outputs": [],
      "stateMutability": "nonpayable",
      "type": "function"
    },
    {
      "inputs": [
        {
          "internalType": "uint256",
          "name": "_debateId",
          "type": "uint256"
        },
        {
          "internalType": "uint256",
          "name": "_winAgentId",
          "type": "uint256"
        }
      ],
      "name": "adminResolveDebate",
      "outputs": [],
      "stateMutability": "nonpayable",
      "type": "function"
    },
    {
      "inputs": [
        {
          "internalType": "uint256",
          "name": "_debateId",
          "type": "uint256"
        },
        {
          "internalType": "uint256",
          "name": "_agentAID",
          "type": "uint256"
        },
        {
          "internalType": "uint256",
          "name": "_agentBID",
          "type": "uint256"
        },
        {
          "internalType": "uint256",
          "name": "_platformFeePercentage",
          "type": "uint256"
        },
        {
          "internalType": "uint256",
          "name": "_publicTimeStamp",
          "type": "uint256"
        },
        {
          "internalType": "uint256",
          "name": "_startTimeStamp",
          "type": "uint256"
        },
        {
          "internalType": "uint256",
          "name": "_sessionDuration",
          "type": "uint256"
        }
      ],
      "name": "adminUpdateDebate",
      "outputs": [],
      "stateMutability": "nonpayable",
      "type": "function"
    },
    {
      "inputs": [
        {
          "internalType": "uint256",
          "name": "",
          "type": "uint256"
        },
        {
          "internalType": "address",
          "name": "",
          "type": "address"
        },
        {
          "internalType": "uint256",
          "name": "",
          "type": "uint256"
        }
      ],
      "name": "betList",
      "outputs": [
        {
          "internalType": "uint256",
          "name": "debateId",
          "type": "uint256"
        },
        {
          "internalType": "address",
          "name": "bettor",
          "type": "address"
        },
        {
          "internalType": "uint256",
          "name": "amount",
          "type": "uint256"
        },
        {
          "internalType": "uint256",
          "name": "winAmount",
          "type": "uint256"
        },
        {
          "internalType": "uint256",
          "name": "chosenAgentId",
          "type": "uint256"
        },
        {
          "internalType": "bool",
          "name": "isClaimed",
          "type": "bool"
        }
      ],
      "stateMutability": "view",
      "type": "function"
    },
    {
      "inputs": [
        {
          "internalType": "uint256",
          "name": "",
          "type": "uint256"
        }
      ],
      "name": "debateList",
      "outputs": [
        {
          "internalType": "bool",
          "name": "isResolved",
          "type": "bool"
        },
        {
          "internalType": "uint256",
          "name": "winAgentId",
          "type": "uint256"
        },
        {
          "internalType": "uint256",
          "name": "platformFeePercentage",
          "type": "uint256"
        },
        {
          "internalType": "uint256",
          "name": "sessionDuration",
          "type": "uint256"
        },
        {
          "internalType": "uint256",
          "name": "startTimeStamp",
          "type": "uint256"
        },
        {
          "internalType": "uint256",
          "name": "publicTimeStamp",
          "type": "uint256"
        },
        {
          "internalType": "uint256",
          "name": "agentAID",
          "type": "uint256"
        },
        {
          "internalType": "uint256",
          "name": "agentBID",
          "type": "uint256"
        },
        {
          "internalType": "uint256",
          "name": "totalAgentABetAmount",
          "type": "uint256"
        },
        {
          "internalType": "uint256",
          "name": "totalAgentBBetAmount",
          "type": "uint256"
        }
      ],
      "stateMutability": "view",
      "type": "function"
    },
    {
      "inputs": [],
      "name": "defaultPlatformFeePercentage",
      "outputs": [
        {
          "internalType": "uint256",
          "name": "",
          "type": "uint256"
        }
      ],
      "stateMutability": "view",
      "type": "function"
    },
    {
      "inputs": [
        {
          "internalType": "uint256",
          "name": "_debateId",
          "type": "uint256"
        }
      ],
      "name": "getDebateInfo",
      "outputs": [
        {
          "components": [
            {
              "internalType": "bool",
              "name": "isResolved",
              "type": "bool"
            },
            {
              "internalType": "uint256",
              "name": "winAgentId",
              "type": "uint256"
            },
            {
              "internalType": "uint256",
              "name": "platformFeePercentage",
              "type": "uint256"
            },
            {
              "internalType": "uint256",
              "name": "sessionDuration",
              "type": "uint256"
            },
            {
              "internalType": "uint256",
              "name": "startTimeStamp",
              "type": "uint256"
            },
            {
              "internalType": "uint256",
              "name": "publicTimeStamp",
              "type": "uint256"
            },
            {
              "internalType": "uint256",
              "name": "agentAID",
              "type": "uint256"
            },
            {
              "internalType": "uint256",
              "name": "agentBID",
              "type": "uint256"
            },
            {
              "internalType": "uint256",
              "name": "totalAgentABetAmount",
              "type": "uint256"
            },
            {
              "internalType": "uint256",
              "name": "totalAgentBBetAmount",
              "type": "uint256"
            }
          ],
          "internalType": "struct AIDebate.Debate",
          "name": "",
          "type": "tuple"
        }
      ],
      "stateMutability": "view",
      "type": "function"
    },
    {
      "inputs": [],
      "name": "owner",
      "outputs": [
        {
          "internalType": "address",
          "name": "",
          "type": "address"
        }
      ],
      "stateMutability": "view",
      "type": "function"
    },
    {
      "inputs": [
        {
          "internalType": "uint256",
          "name": "_debateId",
          "type": "uint256"
        },
        {
          "internalType": "uint256",
          "name": "_amount",
          "type": "uint256"
        },
        {
          "internalType": "uint256",
          "name": "_chosenAgent",
          "type": "uint256"
        }
      ],
      "name": "placeBet",
      "outputs": [],
      "stateMutability": "payable",
      "type": "function"
    },
    {
      "inputs": [
        {
          "internalType": "address",
          "name": "_address",
          "type": "address"
        }
      ],
      "name": "removeWhitelist",
      "outputs": [],
      "stateMutability": "nonpayable",
      "type": "function"
    },
    {
      "inputs": [],
      "name": "renounceOwnership",
      "outputs": [],
      "stateMutability": "nonpayable",
      "type": "function"
    },
    {
      "inputs": [
        {
          "internalType": "address",
          "name": "newOwner",
          "type": "address"
        }
      ],
      "name": "transferOwnership",
      "outputs": [],
      "stateMutability": "nonpayable",
      "type": "function"
    },
    {
      "inputs": [
        {
          "internalType": "uint256",
          "name": "_debateId",
          "type": "uint256"
        }
      ],
      "name": "userClaim",
      "outputs": [],
      "stateMutability": "nonpayable",
      "type": "function"
    }
  ],
  "bytecode": "0x6080604052600560015561012c60025561070860035534801561002157600080fd5b50604051612be9380380612be9833981810160405281019061004391906101f3565b80600073ffffffffffffffffffffffffffffffffffffffff168173ffffffffffffffffffffffffffffffffffffffff16036100b65760006040517f1e4fbdf70000000000000000000000000000000000000000000000000000000081526004016100ad919061022f565b60405180910390fd5b6100c5816100cc60201b60201c565b505061024a565b60008060009054906101000a900473ffffffffffffffffffffffffffffffffffffffff169050816000806101000a81548173ffffffffffffffffffffffffffffffffffffffff021916908373ffffffffffffffffffffffffffffffffffffffff1602179055508173ffffffffffffffffffffffffffffffffffffffff168173ffffffffffffffffffffffffffffffffffffffff167f8be0079c531659141344cd1fd0a4f28419497f9722a3daafe3b4186f6b6457e060405160405180910390a35050565b600080fd5b600073ffffffffffffffffffffffffffffffffffffffff82169050919050565b60006101c082610195565b9050919050565b6101d0816101b5565b81146101db57600080fd5b50565b6000815190506101ed816101c7565b92915050565b60006020828403121561020957610208610190565b5b6000610217848285016101de565b91505092915050565b610229816101b5565b82525050565b60006020820190506102446000830184610220565b92915050565b612990806102596000396000f3fe6080604052600436106100f35760003560e01c80639048b53b1161008a578063f674a9de11610059578063f674a9de1461030e578063f80f5dd514610337578063fe43efda14610360578063fe84d4b614610389576100f3565b80639048b53b1461027757806398a18707146102a0578063e71c9697146102c9578063f2fde38b146102e5576100f3565b8063715018a6116100c6578063715018a6146101cf57806378c8cda7146101e65780637a27fbb21461020f5780638da5cb5b1461024c576100f3565b806328392554146100f8578063399383481461012157806343674131146101675780635b99a01214610192575b600080fd5b34801561010457600080fd5b5061011f600480360381019061011a9190611940565b6103cb565b005b34801561012d57600080fd5b5061014860048036038101906101439190611940565b6104e5565b60405161015e9a99989796959493929190611997565b60405180910390f35b34801561017357600080fd5b5061017c610546565b6040516101899190611a33565b60405180910390f35b34801561019e57600080fd5b506101b960048036038101906101b49190611940565b61054c565b6040516101c69190611b38565b60405180910390f35b3480156101db57600080fd5b506101e46105f5565b005b3480156101f257600080fd5b5061020d60048036038101906102089190611bb2565b610609565b005b34801561021b57600080fd5b5061023660048036038101906102319190611bdf565b61066c565b6040516102439190611c2e565b60405180910390f35b34801561025857600080fd5b506102616106ba565b60405161026e9190611c2e565b60405180910390f35b34801561028357600080fd5b5061029e60048036038101906102999190611bdf565b6106e3565b005b3480156102ac57600080fd5b506102c760048036038101906102c29190611c49565b6109cb565b005b6102e360048036038101906102de9190611ceb565b610b31565b005b3480156102f157600080fd5b5061030c60048036038101906103079190611bb2565b6110fd565b005b34801561031a57600080fd5b5061033560048036038101906103309190611c49565b611183565b005b34801561034357600080fd5b5061035e60048036038101906103599190611bb2565b6112e1565b005b34801561036c57600080fd5b5061038760048036038101906103829190611940565b611344565b005b34801561039557600080fd5b506103b060048036038101906103ab9190611d3e565b6116d0565b6040516103c296959493929190611d91565b60405180910390f35b6103d3611753565b600060046000838152602001908152602001600020905060035481600501546103fc9190611e21565b421061043d576040517f08c379a000000000000000000000000000000000000000000000000000000000815260040161043490611eb2565b60405180910390fd5b600081600601541415801561045757506000816007015414155b610496576040517f08c379a000000000000000000000000000000000000000000000000000000000815260040161048d90611f1e565b60405180910390fd5b600081600501819055506000816004018190555060008160030181905550817f80bed4ceeb2dfbd88f61cca1c30bc6dede3047d1862345ef30f1cbc44c2016d760405160405180910390a25050565b60046020528060005260406000206000915090508060000160009054906101000a900460ff1690806001015490806002015490806003015490806004015490806005015490806006015490806007015490806008015490806009015490508a565b60015481565b6105546118b0565b600060046000848152602001908152602001600020905080604051806101400160405290816000820160009054906101000a900460ff161515151581526020016001820154815260200160028201548152602001600382015481526020016004820154815260200160058201548152602001600682015481526020016007820154815260200160088201548152602001600982015481525050915050919050565b6105fd611753565b61060760006117da565b565b610611611753565b6000600760008373ffffffffffffffffffffffffffffffffffffffff1673ffffffffffffffffffffffffffffffffffffffff16815260200190815260200160002060006101000a81548160ff02191690831515021790555050565b6006602052816000526040600020818154811061068857600080fd5b906000526020600020016000915091509054906101000a900473ffffffffffffffffffffffffffffffffffffffff1681565b60008060009054906101000a900473ffffffffffffffffffffffffffffffffffffffff16905090565b6106eb611753565b60006004600084815260200190815260200160002090508060000160009054906101000a900460ff1615610754576040517f08c379a000000000000000000000000000000000000000000000000000000000815260040161074b90611f8a565b60405180910390fd5b80600601548214806107695750806007015482145b6107a8576040517f08c379a000000000000000000000000000000000000000000000000000000000815260040161079f90611ff6565b60405180910390fd5b60018160000160006101000a81548160ff0219169083151502179055508181600101819055506000816009015482600801546107e49190612016565b905060005b600660008681526020019081526020016000208054905081101561098c57600060066000878152602001908152602001600020828154811061082e5761082d61204a565b5b9060005260206000200160009054906101000a900473ffffffffffffffffffffffffffffffffffffffff16905060006005600088815260200190815260200160002060008373ffffffffffffffffffffffffffffffffffffffff1673ffffffffffffffffffffffffffffffffffffffff168152602001908152602001600020600087815260200190815260200160002090508581600401540361097d57600080866002015460646108df9190611e21565b9050866006015483600401540361092957606481878960080154866002015461090891906120a8565b61091291906120d9565b61091c91906120d9565b61092691906120a8565b91505b866007015483600401540361097157606481878960090154866002015461095091906120a8565b61095a91906120d9565b61096491906120d9565b61096e91906120a8565b91505b81836003018190555050505b505080806001019150506107e9565b50837fb6284c12d8a21c06155f14e4b5a2c21bdd2a90abcd3b5d0ada8275279cb0ca6f846040516109bd9190611a33565b60405180910390a250505050565b6109d3611753565b60006004600089815260200190815260200160002090506000816006015414158015610a0457506000816007015414155b610a43576040517f08c379a0000000000000000000000000000000000000000000000000000000008152600401610a3a90611f1e565b60405180910390fd5b6003548160050154610a559190611e21565b4210610a96576040517f08c379a0000000000000000000000000000000000000000000000000000000008152600401610a8d90612167565b60405180910390fd5b86816006018190555085816007018190555060008503610ac0576001548160020181905550610aca565b8481600201819055505b838160050181905550828160040181905550818160030181905550877f5ad787ff0ab90867aa98c2a81caff732533e80b06f4c6910994cf0c8918d17fc888888888888604051610b1f96959493929190612187565b60405180910390a25050505050505050565b60008211610b74576040517f08c379a0000000000000000000000000000000000000000000000000000000008152600401610b6b90612234565b60405180910390fd5b60006004600085815260200190815260200160002090506000816005015411610bd2576040517f08c379a0000000000000000000000000000000000000000000000000000000008152600401610bc9906122a0565b60405180910390fd5b6000816004015403610c19576040517f08c379a0000000000000000000000000000000000000000000000000000000008152600401610c109061230c565b60405180910390fd5b8060000160009054906101000a900460ff1615610c6b576040517f08c379a0000000000000000000000000000000000000000000000000000000008152600401610c629061239e565b60405180910390fd5b80600501544211610cb1576040517f08c379a0000000000000000000000000000000000000000000000000000000008152600401610ca890612430565b60405180910390fd5b60025481600301548260040154610cc89190612016565b610cd29190611e21565b4210610d13576040517f08c379a0000000000000000000000000000000000000000000000000000000008152600401610d0a9061249c565b60405180910390fd5b82341015610d56576040517f08c379a0000000000000000000000000000000000000000000000000000000008152600401610d4d90612508565b60405180910390fd5b80600601548203610d815782816008016000828254610d759190612016565b92505081905550610e5e565b80600701548203610dac5782816009016000828254610da09190612016565b92505081905550610e5d565b600081600601541480610dc3575060008160070154145b610e02576040517f08c379a0000000000000000000000000000000000000000000000000000000008152600401610df990612574565b60405180910390fd5b6000816006015403610e375781816006018190555082816008016000828254610e2b9190612016565b92505081905550610e5c565b81816007018190555082816009016000828254610e549190612016565b925050819055505b5b5b60006005600086815260200190815260200160002060003373ffffffffffffffffffffffffffffffffffffffff1673ffffffffffffffffffffffffffffffffffffffff16815260200190815260200160002060008481526020019081526020016000209050600081600201541115610ef05783816002016000828254610ee49190612016565b9250508190555061102b565b6040518060c001604052808681526020013373ffffffffffffffffffffffffffffffffffffffff16815260200185815260200160008152602001848152602001600015158152506005600087815260200190815260200160002060003373ffffffffffffffffffffffffffffffffffffffff1673ffffffffffffffffffffffffffffffffffffffff16815260200190815260200160002060008581526020019081526020016000206000820151816000015560208201518160010160006101000a81548173ffffffffffffffffffffffffffffffffffffffff021916908373ffffffffffffffffffffffffffffffffffffffff16021790555060408201518160020155606082015181600301556080820151816004015560a08201518160050160006101000a81548160ff0219169083151502179055509050505b60066000868152602001908152602001600020339080600181540180825580915050600190039060005260206000200160009091909190916101000a81548173ffffffffffffffffffffffffffffffffffffffff021916908373ffffffffffffffffffffffffffffffffffffffff1602179055503373ffffffffffffffffffffffffffffffffffffffff16857fab2115bac1de808eb7fe2be0309085b11f1f42b1eb980de8352efefdbfc098e2858786600201546040516110ee93929190612594565b60405180910390a35050505050565b611105611753565b600073ffffffffffffffffffffffffffffffffffffffff168173ffffffffffffffffffffffffffffffffffffffff16036111775760006040517f1e4fbdf700000000000000000000000000000000000000000000000000000000815260040161116e9190611c2e565b60405180910390fd5b611180816117da565b50565b61118b611753565b6000600460008981526020019081526020016000209050600081600601541480156111ba575060008160070154145b6111f9576040517f08c379a00000000000000000000000000000000000000000000000000000000081526004016111f090612617565b60405180910390fd5b8382846112069190612016565b11611246576040517f08c379a000000000000000000000000000000000000000000000000000000000815260040161123d906126a9565b60405180910390fd5b8681600601819055508581600701819055506000850361127057600154816002018190555061127a565b8481600201819055505b838160050181905550828160040181905550818160030181905550877f74245c13fa29018d2e3827a29b9f092a79b7d948264385dca981d1d6ba38a76f8888888888886040516112cf96959493929190612187565b60405180910390a25050505050505050565b6112e9611753565b6001600760008373ffffffffffffffffffffffffffffffffffffffff1673ffffffffffffffffffffffffffffffffffffffff16815260200190815260200160002060006101000a81548160ff02191690831515021790555050565b60006004600083815260200190815260200160002090508060000160009054906101000a900460ff166113ac576040517f08c379a00000000000000000000000000000000000000000000000000000000081526004016113a390612715565b60405180910390fd5b6000805b600660008581526020019081526020016000208054905081101561146b573373ffffffffffffffffffffffffffffffffffffffff1660066000868152602001908152602001600020828154811061140a5761140961204a565b5b9060005260206000200160009054906101000a900473ffffffffffffffffffffffffffffffffffffffff1673ffffffffffffffffffffffffffffffffffffffff1603611459576001915061145e565b600091505b80806001019150506113b0565b50806114ac576040517f08c379a00000000000000000000000000000000000000000000000000000000081526004016114a3906127a7565b60405180910390fd5b60008260010154905060006005600086815260200190815260200160002060003373ffffffffffffffffffffffffffffffffffffffff1673ffffffffffffffffffffffffffffffffffffffff168152602001908152602001600020600083815260200190815260200160002090508060050160009054906101000a900460ff161561156c576040517f08c379a000000000000000000000000000000000000000000000000000000000815260040161156390612839565b60405180910390fd5b60008160030154116115b3576040517f08c379a00000000000000000000000000000000000000000000000000000000081526004016115aa906128a5565b60405180910390fd5b60006115be3361189e565b90508160030154471015611607576040517f08c379a00000000000000000000000000000000000000000000000000000000081526004016115fe90612911565b60405180910390fd5b8073ffffffffffffffffffffffffffffffffffffffff166108fc83600301549081150290604051600060405180830381858888f19350505050158015611651573d6000803e3d6000fd5b5060018260050160006101000a81548160ff0219169083151502179055503373ffffffffffffffffffffffffffffffffffffffff16867f4eed845a8c2dab6b8f3276326563ae95a67314d068314298838cc3246bb3e3e0846004015485600301546040516116c0929190612931565b60405180910390a3505050505050565b600560205282600052604060002060205281600052604060002060205280600052604060002060009250925050508060000154908060010160009054906101000a900473ffffffffffffffffffffffffffffffffffffffff16908060020154908060030154908060040154908060050160009054906101000a900460ff16905086565b61175b6118a8565b73ffffffffffffffffffffffffffffffffffffffff166117796106ba565b73ffffffffffffffffffffffffffffffffffffffff16146117d85761179c6118a8565b6040517f118cdaa70000000000000000000000000000000000000000000000000000000081526004016117cf9190611c2e565b60405180910390fd5b565b60008060009054906101000a900473ffffffffffffffffffffffffffffffffffffffff169050816000806101000a81548173ffffffffffffffffffffffffffffffffffffffff021916908373ffffffffffffffffffffffffffffffffffffffff1602179055508173ffffffffffffffffffffffffffffffffffffffff168173ffffffffffffffffffffffffffffffffffffffff167f8be0079c531659141344cd1fd0a4f28419497f9722a3daafe3b4186f6b6457e060405160405180910390a35050565b6000819050919050565b600033905090565b6040518061014001604052806000151581526020016000815260200160008152602001600081526020016000815260200160008152602001600081526020016000815260200160008152602001600081525090565b600080fd5b6000819050919050565b61191d8161190a565b811461192857600080fd5b50565b60008135905061193a81611914565b92915050565b60006020828403121561195657611955611905565b5b60006119648482850161192b565b91505092915050565b60008115159050919050565b6119828161196d565b82525050565b6119918161190a565b82525050565b6000610140820190506119ad600083018d611979565b6119ba602083018c611988565b6119c7604083018b611988565b6119d4606083018a611988565b6119e16080830189611988565b6119ee60a0830188611988565b6119fb60c0830187611988565b611a0860e0830186611988565b611a16610100830185611988565b611a24610120830184611988565b9b9a5050505050505050505050565b6000602082019050611a486000830184611988565b92915050565b611a578161196d565b82525050565b611a668161190a565b82525050565b61014082016000820151611a836000850182611a4e565b506020820151611a966020850182611a5d565b506040820151611aa96040850182611a5d565b506060820151611abc6060850182611a5d565b506080820151611acf6080850182611a5d565b5060a0820151611ae260a0850182611a5d565b5060c0820151611af560c0850182611a5d565b5060e0820151611b0860e0850182611a5d565b50610100820151611b1d610100850182611a5d565b50610120820151611b32610120850182611a5d565b50505050565b600061014082019050611b4e6000830184611a6c565b92915050565b600073ffffffffffffffffffffffffffffffffffffffff82169050919050565b6000611b7f82611b54565b9050919050565b611b8f81611b74565b8114611b9a57600080fd5b50565b600081359050611bac81611b86565b92915050565b600060208284031215611bc857611bc7611905565b5b6000611bd684828501611b9d565b91505092915050565b60008060408385031215611bf657611bf5611905565b5b6000611c048582860161192b565b9250506020611c158582860161192b565b9150509250929050565b611c2881611b74565b82525050565b6000602082019050611c436000830184611c1f565b92915050565b600080600080600080600060e0888a031215611c6857611c67611905565b5b6000611c768a828b0161192b565b9750506020611c878a828b0161192b565b9650506040611c988a828b0161192b565b9550506060611ca98a828b0161192b565b9450506080611cba8a828b0161192b565b93505060a0611ccb8a828b0161192b565b92505060c0611cdc8a828b0161192b565b91505092959891949750929550565b600080600060608486031215611d0457611d03611905565b5b6000611d128682870161192b565b9350506020611d238682870161192b565b9250506040611d348682870161192b565b9150509250925092565b600080600060608486031215611d5757611d56611905565b5b6000611d658682870161192b565b9350506020611d7686828701611b9d565b9250506040611d878682870161192b565b9150509250925092565b600060c082019050611da66000830189611988565b611db36020830188611c1f565b611dc06040830187611988565b611dcd6060830186611988565b611dda6080830185611988565b611de760a0830184611979565b979650505050505050565b7f4e487b7100000000000000000000000000000000000000000000000000000000600052601160045260246000fd5b6000611e2c8261190a565b9150611e378361190a565b9250828203905081811115611e4f57611e4e611df2565b5b92915050565b600082825260208201905092915050565b7f43616e206e6f742072656d6f76652064656261746520616e796d6f7265000000600082015250565b6000611e9c601d83611e55565b9150611ea782611e66565b602082019050919050565b60006020820190508181036000830152611ecb81611e8f565b9050919050565b7f446562617465206973206e6f7420637265617465642079657400000000000000600082015250565b6000611f08601983611e55565b9150611f1382611ed2565b602082019050919050565b60006020820190508181036000830152611f3781611efb565b9050919050565b7f44656261746520697320616c7265616479207265736f6c766564000000000000600082015250565b6000611f74601a83611e55565b9150611f7f82611f3e565b602082019050919050565b60006020820190508181036000830152611fa381611f67565b9050919050565b7f496e76616c6964206167656e7400000000000000000000000000000000000000600082015250565b6000611fe0600d83611e55565b9150611feb82611faa565b602082019050919050565b6000602082019050818103600083015261200f81611fd3565b9050919050565b60006120218261190a565b915061202c8361190a565b925082820190508082111561204457612043611df2565b5b92915050565b7f4e487b7100000000000000000000000000000000000000000000000000000000600052603260045260246000fd5b7f4e487b7100000000000000000000000000000000000000000000000000000000600052601260045260246000fd5b60006120b38261190a565b91506120be8361190a565b9250826120ce576120cd612079565b5b828204905092915050565b60006120e48261190a565b91506120ef8361190a565b92508282026120fd8161190a565b9150828204841483151761211457612113611df2565b5b5092915050565b7f43616e206e6f74206d6f646966792064656261746520616e796d6f7265000000600082015250565b6000612151601d83611e55565b915061215c8261211b565b602082019050919050565b6000602082019050818103600083015261218081612144565b9050919050565b600060c08201905061219c6000830189611988565b6121a96020830188611988565b6121b66040830187611988565b6121c36060830186611988565b6121d06080830185611988565b6121dd60a0830184611988565b979650505050505050565b7f416d6f756e74206d7573742062652067726561746572207468616e2030000000600082015250565b600061221e601d83611e55565b9150612229826121e8565b602082019050919050565b6000602082019050818103600083015261224d81612211565b9050919050565b7f446562617465206973206e6f74207075626c6973686564207965740000000000600082015250565b600061228a601b83611e55565b915061229582612254565b602082019050919050565b600060208201905081810360008301526122b98161227d565b9050919050565b7f4465626174652069732064656c65746564000000000000000000000000000000600082015250565b60006122f6601183611e55565b9150612301826122c0565b602082019050919050565b60006020820190508181036000830152612325816122e9565b9050919050565b7f4465626174652073657373696f6e20697320616c7265616479207265736f6c7660008201527f6564000000000000000000000000000000000000000000000000000000000000602082015250565b6000612388602283611e55565b91506123938261232c565b604082019050919050565b600060208201905081810360008301526123b78161237b565b9050919050565b7f4465626174652073657373696f6e206973206e6f74207374617274656420796560008201527f7400000000000000000000000000000000000000000000000000000000000000602082015250565b600061241a602183611e55565b9150612425826123be565b604082019050919050565b600060208201905081810360008301526124498161240d565b9050919050565b7f43616e206e6f7420706c6163652062657420616e796d6f726500000000000000600082015250565b6000612486601983611e55565b915061249182612450565b602082019050919050565b600060208201905081810360008301526124b581612479565b9050919050565b7f46656520616d6f756e74206973206e6f7420636f727265637400000000000000600082015250565b60006124f2601983611e55565b91506124fd826124bc565b602082019050919050565b60006020820190508181036000830152612521816124e5565b9050919050565b7f426f7468206167656e74732061726520616c72656164792061737369676e6564600082015250565b600061255e602083611e55565b915061256982612528565b602082019050919050565b6000602082019050818103600083015261258d81612551565b9050919050565b60006060820190506125a96000830186611988565b6125b66020830185611988565b6125c36040830184611988565b949350505050565b7f44656261746520697320616c7265616479206372656174656400000000000000600082015250565b6000612601601983611e55565b915061260c826125cb565b602082019050919050565b60006020820190508181036000830152612630816125f4565b9050919050565b7f456e642074696d65206d7573742062652067726561746572207468616e20707560008201527f626c69632074696d650000000000000000000000000000000000000000000000602082015250565b6000612693602983611e55565b915061269e82612637565b604082019050919050565b600060208201905081810360008301526126c281612686565b9050919050565b7f446562617465206973206e6f74207265736f6c76656420796574000000000000600082015250565b60006126ff601a83611e55565b915061270a826126c9565b602082019050919050565b6000602082019050818103600083015261272e816126f2565b9050919050565b7f596f7520646964206e6f7420706c61636520616e7920626574206f6e2074686960008201527f7320646562617465000000000000000000000000000000000000000000000000602082015250565b6000612791602883611e55565b915061279c82612735565b604082019050919050565b600060208201905081810360008301526127c081612784565b9050919050565b7f596f75206861766520616c726561647920636c61696d6564207468652072657760008201527f6172640000000000000000000000000000000000000000000000000000000000602082015250565b6000612823602383611e55565b915061282e826127c7565b604082019050919050565b6000602082019050818103600083015261285281612816565b9050919050565b7f596f7520646964206e6f742077696e2074686520626574000000000000000000600082015250565b600061288f601783611e55565b915061289a82612859565b602082019050919050565b600060208201905081810360008301526128be81612882565b9050919050565b7f496e73756666696369656e742062616c616e636520696e20636f6e7472616374600082015250565b60006128fb602083611e55565b9150612906826128c5565b602082019050919050565b6000602082019050818103600083015261292a816128ee565b9050919050565b60006040820190506129466000830185611988565b6129536020830184611988565b939250505056fea2646970667358221220169bbe8b0792758c2555b5d616d0df4c2237945eca1ad6e6518149dc2332e01e64736f6c634300081c0033",
  "linkReferences": {},
  "deployedLinkReferences": {}
}