{
  "_format": "hh-sol-artifact-1",
  "contractName": "AIDebate",
  "sourceName": "contracts/Debate.sol",
  "abi": [
    {
      "inputs": [
        {
          "internalType": "address",
          "name": "initialOwner",
          "type": "address"
        },
        {
          "internalType": "address",
          "name": "initialDeployer",
          "type": "address"
        }
      ],
      "stateMutability": "nonpayable",
      "type": "constructor"
    },
    {
      "inputs": [],
      "name": "InvalidInitialization",
      "type": "error"
    },
    {
      "inputs": [],
      "name": "NotInitializing",
      "type": "error"
    },
    {
      "inputs": [
        {
          "internalType": "address",
          "name": "owner",
          "type": "address"
        }
      ],
      "name": "OwnableInvalidOwner",
      "type": "error"
    },
    {
      "inputs": [
        {
          "internalType": "address",
          "name": "account",
          "type": "address"
        }
      ],
      "name": "OwnableUnauthorizedAccount",
      "type": "error"
    },
    {
      "anonymous": false,
      "inputs": [
        {
          "indexed": true,
          "internalType": "uint256",
          "name": "debateId",
          "type": "uint256"
        },
        {
          "indexed": true,
          "internalType": "address",
          "name": "bettor",
          "type": "address"
        },
        {
          "indexed": false,
          "internalType": "uint256",
          "name": "chosenAgentId",
          "type": "uint256"
        },
        {
          "indexed": false,
          "internalType": "uint256",
          "name": "amount",
          "type": "uint256"
        },
        {
          "indexed": false,
          "internalType": "uint256",
          "name": "platformFeePercentage",
          "type": "uint256"
        }
      ],
      "name": "BetPlaced",
      "type": "event"
    },
    {
      "anonymous": false,
      "inputs": [
        {
          "indexed": true,
          "internalType": "uint256",
          "name": "debateId",
          "type": "uint256"
        },
        {
          "indexed": false,
          "internalType": "uint256",
          "name": "agentAID",
          "type": "uint256"
        },
        {
          "indexed": false,
          "internalType": "uint256",
          "name": "agentBID",
          "type": "uint256"
        },
        {
          "indexed": false,
          "internalType": "uint256",
          "name": "platformFeePercentage",
          "type": "uint256"
        },
        {
          "indexed": false,
          "internalType": "uint256",
          "name": "publicTimeStamp",
          "type": "uint256"
        },
        {
          "indexed": false,
          "internalType": "uint256",
          "name": "startTimeStamp",
          "type": "uint256"
        },
        {
          "indexed": false,
          "internalType": "uint256",
          "name": "sessionDuration",
          "type": "uint256"
        }
      ],
      "name": "DebateCreated",
      "type": "event"
    },
    {
      "anonymous": false,
      "inputs": [
        {
          "indexed": true,
          "internalType": "uint256",
          "name": "debateId",
          "type": "uint256"
        }
      ],
      "name": "DebateDeleted",
      "type": "event"
    },
    {
      "anonymous": false,
      "inputs": [
        {
          "indexed": true,
          "internalType": "uint256",
          "name": "debateId",
          "type": "uint256"
        }
      ],
      "name": "DebateMarkedRefundable",
      "type": "event"
    },
    {
      "anonymous": false,
      "inputs": [
        {
          "indexed": true,
          "internalType": "uint256",
          "name": "debateId",
          "type": "uint256"
        },
        {
          "indexed": false,
          "internalType": "uint256",
          "name": "winnAgentId",
          "type": "uint256"
        }
      ],
      "name": "DebateResolved",
      "type": "event"
    },
    {
      "anonymous": false,
      "inputs": [
        {
          "indexed": true,
          "internalType": "uint256",
          "name": "debateId",
          "type": "uint256"
        },
        {
          "indexed": false,
          "internalType": "uint256",
          "name": "agentAID",
          "type": "uint256"
        },
        {
          "indexed": false,
          "internalType": "uint256",
          "name": "agentBID",
          "type": "uint256"
        },
        {
          "indexed": false,
          "internalType": "uint256",
          "name": "platformFeePercentage",
          "type": "uint256"
        },
        {
          "indexed": false,
          "internalType": "uint256",
          "name": "publicTimeStamp",
          "type": "uint256"
        },
        {
          "indexed": false,
          "internalType": "uint256",
          "name": "startTimeStamp",
          "type": "uint256"
        },
        {
          "indexed": false,
          "internalType": "uint256",
          "name": "sessionDuration",
          "type": "uint256"
        }
      ],
      "name": "DebateUpdated",
      "type": "event"
    },
    {
      "anonymous": false,
      "inputs": [
        {
          "indexed": false,
          "internalType": "uint64",
          "name": "version",
          "type": "uint64"
        }
      ],
      "name": "Initialized",
      "type": "event"
    },
    {
      "anonymous": false,
      "inputs": [
        {
          "indexed": true,
          "internalType": "address",
          "name": "previousOwner",
          "type": "address"
        },
        {
          "indexed": true,
          "internalType": "address",
          "name": "newOwner",
          "type": "address"
        }
      ],
      "name": "OwnershipTransferred",
      "type": "event"
    },
    {
      "anonymous": false,
      "inputs": [
        {
          "indexed": true,
          "internalType": "uint256",
          "name": "debateId",
          "type": "uint256"
        },
        {
          "indexed": true,
          "internalType": "address",
          "name": "bettor",
          "type": "address"
        },
        {
          "indexed": false,
          "internalType": "uint256",
          "name": "chosenAgentId",
          "type": "uint256"
        },
        {
          "indexed": false,
          "internalType": "uint256",
          "name": "amount",
          "type": "uint256"
        }
      ],
      "name": "UserClaimed",
      "type": "event"
    },
    {
      "anonymous": false,
      "inputs": [
        {
          "indexed": true,
          "internalType": "uint256",
          "name": "debateId",
          "type": "uint256"
        },
        {
          "indexed": true,
          "internalType": "address",
          "name": "bettor",
          "type": "address"
        },
        {
          "indexed": false,
          "internalType": "uint256",
          "name": "amount",
          "type": "uint256"
        }
      ],
      "name": "UserRefunded",
      "type": "event"
    },
    {
      "inputs": [
        {
          "internalType": "address",
          "name": "_mod",
          "type": "address"
        }
      ],
      "name": "addMod",
      "outputs": [],
      "stateMutability": "nonpayable",
      "type": "function"
    },
    {
      "inputs": [
        {
          "internalType": "uint256",
          "name": "",
          "type": "uint256"
        },
        {
          "internalType": "uint256",
          "name": "",
          "type": "uint256"
        }
      ],
      "name": "addressJoinedList",
      "outputs": [
        {
          "internalType": "address",
          "name": "",
          "type": "address"
        }
      ],
      "stateMutability": "view",
      "type": "function"
    },
    {
      "inputs": [
        {
          "internalType": "uint256",
          "name": "_debateId",
          "type": "uint256"
        },
        {
          "internalType": "uint256",
          "name": "_agentAID",
          "type": "uint256"
        },
        {
          "internalType": "uint256",
          "name": "_agentBID",
          "type": "uint256"
        },
        {
          "internalType": "uint256",
          "name": "_platformFeePercentage",
          "type": "uint256"
        },
        {
          "internalType": "uint256",
          "name": "_publicTimeStamp",
          "type": "uint256"
        },
        {
          "internalType": "uint256",
          "name": "_startTimeStamp",
          "type": "uint256"
        },
        {
          "internalType": "uint256",
          "name": "_sessionDuration",
          "type": "uint256"
        }
      ],
      "name": "adminCreateDebate",
      "outputs": [],
      "stateMutability": "nonpayable",
      "type": "function"
    },
    {
      "inputs": [
        {
          "internalType": "uint256",
          "name": "_debateId",
          "type": "uint256"
        }
      ],
      "name": "adminDeleteDebate",
      "outputs": [],
      "stateMutability": "nonpayable",
      "type": "function"
    },
    {
      "inputs": [
        {
          "internalType": "uint256",
          "name": "_debateId",
          "type": "uint256"
        }
      ],
      "name": "adminMarkDebateRefundable",
      "outputs": [],
      "stateMutability": "nonpayable",
      "type": "function"
    },
    {
      "inputs": [
        {
          "internalType": "uint256",
          "name": "_debateId",
          "type": "uint256"
        }
      ],
      "name": "adminProcessRefunds",
      "outputs": [],
      "stateMutability": "nonpayable",
      "type": "function"
    },
    {
      "inputs": [
        {
          "internalType": "uint256",
          "name": "_debateId",
          "type": "uint256"
        },
        {
          "internalType": "uint256",
          "name": "_winAgentId",
          "type": "uint256"
        }
      ],
      "name": "adminResolveDebate",
      "outputs": [],
      "stateMutability": "nonpayable",
      "type": "function"
    },
    {
      "inputs": [
        {
          "internalType": "uint256",
          "name": "_debateId",
          "type": "uint256"
        },
        {
          "internalType": "uint256",
          "name": "_agentAID",
          "type": "uint256"
        },
        {
          "internalType": "uint256",
          "name": "_agentBID",
          "type": "uint256"
        },
        {
          "internalType": "uint256",
          "name": "_platformFeePercentage",
          "type": "uint256"
        },
        {
          "internalType": "uint256",
          "name": "_publicTimeStamp",
          "type": "uint256"
        },
        {
          "internalType": "uint256",
          "name": "_startTimeStamp",
          "type": "uint256"
        },
        {
          "internalType": "uint256",
          "name": "_sessionDuration",
          "type": "uint256"
        }
      ],
      "name": "adminUpdateDebate",
      "outputs": [],
      "stateMutability": "nonpayable",
      "type": "function"
    },
    {
      "inputs": [
        {
          "internalType": "uint256",
          "name": "",
          "type": "uint256"
        },
        {
          "internalType": "address",
          "name": "",
          "type": "address"
        },
        {
          "internalType": "uint256",
          "name": "",
          "type": "uint256"
        }
      ],
      "name": "betList",
      "outputs": [
        {
          "internalType": "uint256",
          "name": "debateId",
          "type": "uint256"
        },
        {
          "internalType": "address",
          "name": "bettor",
          "type": "address"
        },
        {
          "internalType": "uint256",
          "name": "amount",
          "type": "uint256"
        },
        {
          "internalType": "uint256",
          "name": "winAmount",
          "type": "uint256"
        },
        {
          "internalType": "uint256",
          "name": "chosenAgentId",
          "type": "uint256"
        },
        {
          "internalType": "bool",
          "name": "isClaimed",
          "type": "bool"
        },
        {
          "internalType": "bool",
          "name": "isRefunded",
          "type": "bool"
        }
      ],
      "stateMutability": "view",
      "type": "function"
    },
    {
      "inputs": [
        {
          "internalType": "uint256",
          "name": "",
          "type": "uint256"
        }
      ],
      "name": "debateList",
      "outputs": [
        {
          "internalType": "bool",
          "name": "isResolved",
          "type": "bool"
        },
        {
          "internalType": "bool",
          "name": "isRefundable",
          "type": "bool"
        },
        {
          "internalType": "uint256",
          "name": "winAgentId",
          "type": "uint256"
        },
        {
          "internalType": "uint256",
          "name": "platformFeePercentage",
          "type": "uint256"
        },
        {
          "internalType": "uint256",
          "name": "sessionDuration",
          "type": "uint256"
        },
        {
          "internalType": "uint256",
          "name": "startTimeStamp",
          "type": "uint256"
        },
        {
          "internalType": "uint256",
          "name": "publicTimeStamp",
          "type": "uint256"
        },
        {
          "internalType": "uint256",
          "name": "agentAID",
          "type": "uint256"
        },
        {
          "internalType": "uint256",
          "name": "agentBID",
          "type": "uint256"
        },
        {
          "internalType": "uint256",
          "name": "totalAgentABetAmount",
          "type": "uint256"
        },
        {
          "internalType": "uint256",
          "name": "totalAgentBBetAmount",
          "type": "uint256"
        }
      ],
      "stateMutability": "view",
      "type": "function"
    },
    {
      "inputs": [],
      "name": "defaultPlatformFeePercentage",
      "outputs": [
        {
          "internalType": "uint256",
          "name": "",
          "type": "uint256"
        }
      ],
      "stateMutability": "view",
      "type": "function"
    },
    {
      "inputs": [
        {
          "internalType": "uint256",
          "name": "_debateId",
          "type": "uint256"
        }
      ],
      "name": "getDebateInfo",
      "outputs": [
        {
          "components": [
            {
              "internalType": "bool",
              "name": "isResolved",
              "type": "bool"
            },
            {
              "internalType": "bool",
              "name": "isRefundable",
              "type": "bool"
            },
            {
              "internalType": "uint256",
              "name": "winAgentId",
              "type": "uint256"
            },
            {
              "internalType": "uint256",
              "name": "platformFeePercentage",
              "type": "uint256"
            },
            {
              "internalType": "uint256",
              "name": "sessionDuration",
              "type": "uint256"
            },
            {
              "internalType": "uint256",
              "name": "startTimeStamp",
              "type": "uint256"
            },
            {
              "internalType": "uint256",
              "name": "publicTimeStamp",
              "type": "uint256"
            },
            {
              "internalType": "uint256",
              "name": "agentAID",
              "type": "uint256"
            },
            {
              "internalType": "uint256",
              "name": "agentBID",
              "type": "uint256"
            },
            {
              "internalType": "uint256",
              "name": "totalAgentABetAmount",
              "type": "uint256"
            },
            {
              "internalType": "uint256",
              "name": "totalAgentBBetAmount",
              "type": "uint256"
            }
          ],
          "internalType": "struct AIDebate.Debate",
          "name": "",
          "type": "tuple"
        }
      ],
      "stateMutability": "view",
      "type": "function"
    },
    {
      "inputs": [
        {
          "internalType": "uint256",
          "name": "_debateId",
          "type": "uint256"
        },
        {
          "internalType": "address",
          "name": "_user",
          "type": "address"
        },
        {
          "internalType": "uint256",
          "name": "_agentId",
          "type": "uint256"
        }
      ],
      "name": "getUserRefundStatus",
      "outputs": [
        {
          "internalType": "bool",
          "name": "isRefunded",
          "type": "bool"
        },
        {
          "internalType": "uint256",
          "name": "amount",
          "type": "uint256"
        }
      ],
      "stateMutability": "view",
      "type": "function"
    },
    {
      "inputs": [
        {
          "internalType": "uint256",
          "name": "_debateId",
          "type": "uint256"
        },
        {
          "internalType": "address",
          "name": "_user",
          "type": "address"
        }
      ],
      "name": "getUserRefundableAmount",
      "outputs": [
        {
          "internalType": "uint256",
          "name": "",
          "type": "uint256"
        }
      ],
      "stateMutability": "view",
      "type": "function"
    },
    {
      "inputs": [
        {
          "internalType": "uint256",
          "name": "_debateId",
          "type": "uint256"
        }
      ],
      "name": "getUsersRefundInfo",
      "outputs": [
        {
          "components": [
            {
              "internalType": "address",
              "name": "user",
              "type": "address"
            },
            {
              "internalType": "uint256",
              "name": "amountOfRefund",
              "type": "uint256"
            },
            {
              "internalType": "bool",
              "name": "refunded",
              "type": "bool"
            }
          ],
          "internalType": "struct AIDebate.UserRefundInfo[]",
          "name": "",
          "type": "tuple[]"
        }
      ],
      "stateMutability": "view",
      "type": "function"
    },
    {
      "inputs": [
        {
          "internalType": "uint256",
          "name": "_debateId",
          "type": "uint256"
        }
      ],
      "name": "isDebateRefundable",
      "outputs": [
        {
          "internalType": "bool",
          "name": "",
          "type": "bool"
        }
      ],
      "stateMutability": "view",
      "type": "function"
    },
    {
      "inputs": [
        {
          "internalType": "uint256",
          "name": "",
          "type": "uint256"
        }
      ],
      "name": "modList",
      "outputs": [
        {
          "internalType": "address",
          "name": "",
          "type": "address"
        }
      ],
      "stateMutability": "view",
      "type": "function"
    },
    {
      "inputs": [],
      "name": "owner",
      "outputs": [
        {
          "internalType": "address",
          "name": "",
          "type": "address"
        }
      ],
      "stateMutability": "view",
      "type": "function"
    },
    {
      "inputs": [
        {
          "internalType": "uint256",
          "name": "_debateId",
          "type": "uint256"
        },
        {
          "internalType": "uint256",
          "name": "_amount",
          "type": "uint256"
        },
        {
          "internalType": "uint256",
          "name": "_chosenAgent",
          "type": "uint256"
        }
      ],
      "name": "placeBet",
      "outputs": [],
      "stateMutability": "payable",
      "type": "function"
    },
    {
      "inputs": [
        {
          "internalType": "address",
          "name": "_mod",
          "type": "address"
        }
      ],
      "name": "removeMod",
      "outputs": [],
      "stateMutability": "nonpayable",
      "type": "function"
    },
    {
      "inputs": [],
      "name": "renounceOwnership",
      "outputs": [],
      "stateMutability": "nonpayable",
      "type": "function"
    },
    {
      "inputs": [
        {
          "internalType": "address",
          "name": "newOwner",
          "type": "address"
        }
      ],
      "name": "transferOwnership",
      "outputs": [],
      "stateMutability": "nonpayable",
      "type": "function"
    },
    {
      "inputs": [
        {
          "internalType": "uint256",
          "name": "_debateId",
          "type": "uint256"
        }
      ],
      "name": "userClaim",
      "outputs": [],
      "stateMutability": "nonpayable",
      "type": "function"
    },
    {
      "inputs": [
        {
          "internalType": "uint256",
          "name": "_debateId",
          "type": "uint256"
        }
      ],
      "name": "userRefund",
      "outputs": [],
      "stateMutability": "nonpayable",
      "type": "function"
    },
    {
      "inputs": [],
      "name": "withdrawAll",
      "outputs": [],
      "stateMutability": "nonpayable",
      "type": "function"
    },
    {
      "inputs": [
        {
          "internalType": "uint256",
          "name": "_amount",
          "type": "uint256"
        }
      ],
      "name": "withdrawByAmount",
      "outputs": [],
      "stateMutability": "nonpayable",
      "type": "function"
    },
    {
      "inputs": [
        {
          "internalType": "uint256",
          "name": "_debateId",
          "type": "uint256"
        }
      ],
      "name": "withdrawByID",
      "outputs": [],
      "stateMutability": "nonpayable",
      "type": "function"
    }
  ],
  "bytecode": "0x6080604052600560015561012c60025561070860035534801561002157600080fd5b50604051612fc1380380612fc18339810160408190526100409161014f565b816001600160a01b03811661006f57604051631e4fbdf760e01b81526000600482015260240160405180910390fd5b610078816100e3565b50600480546001818101835560008390527f8a35acfbc15ff81a39ae7d344fd709f28e8600b4aa8c65c6b64bfe7fe36bd19b91820180546001600160a01b039687166001600160a01b0319918216179091558354918201909355018054929093169116179055610182565b600080546001600160a01b038381166001600160a01b0319831681178455604051919092169283917f8be0079c531659141344cd1fd0a4f28419497f9722a3daafe3b4186f6b6457e09190a35050565b80516001600160a01b038116811461014a57600080fd5b919050565b6000806040838503121561016257600080fd5b61016b83610133565b915061017960208401610133565b90509250929050565b612e30806101916000396000f3fe60806040526004361061019c5760003560e01c806398a18707116100ec578063e386ee561161008a578063f674a9de11610064578063f674a9de146105bb578063fe43efda146105db578063fe695133146105fb578063fe84d4b61461061b57600080fd5b8063e386ee5614610568578063e71c969714610588578063f2fde38b1461059b57600080fd5b8063c1f639bd116100c6578063c1f639bd146104b6578063c42ab704146104d6578063c7f61c70146104f6578063c9c57ac41461052357600080fd5b806398a1870714610402578063a272fef414610422578063bfea80b21461044257600080fd5b80635521e9bf116101595780637a27fbb2116101335780637a27fbb21461038f578063853828b6146103af5780638da5cb5b146103c45780639048b53b146103e257600080fd5b80635521e9bf1461032d5780635b99a0121461034d578063715018a61461037a57600080fd5b806301a00216146101a15780632071a2d2146101c35780632839255414610200578063399383481461022057806343674131146102e95780634637de3c1461030d575b600080fd5b3480156101ad57600080fd5b506101c16101bc366004612997565b6106d3565b005b3480156101cf57600080fd5b506101e36101de3660046129b9565b61072d565b6040516001600160a01b0390911681526020015b60405180910390f35b34801561020c57600080fd5b506101c161021b3660046129b9565b610757565b34801561022c57600080fd5b5061029461023b3660046129b9565b6005602081905260009182526040909120805460018201546002830154600384015460048501549585015460068601546007870154600888015460099098015460ff8089169a610100909904169896979596949594908b565b604080519b15158c5299151560208c0152988a01979097526060890195909552608088019390935260a087019190915260c086015260e0850152610100840152610120830152610140820152610160016101f7565b3480156102f557600080fd5b506102ff60015481565b6040519081526020016101f7565b34801561031957600080fd5b506101c1610328366004612997565b6108bb565b34801561033957600080fd5b506101c16103483660046129b9565b6109c4565b34801561035957600080fd5b5061036d6103683660046129b9565b610a28565b6040516101f791906129d2565b34801561038657600080fd5b506101c1610b1f565b34801561039b57600080fd5b506101e36103aa366004612a57565b610b33565b3480156103bb57600080fd5b506101c1610b6b565b3480156103d057600080fd5b506000546001600160a01b03166101e3565b3480156103ee57600080fd5b506101c16103fd366004612a57565b610ba1565b34801561040e57600080fd5b506101c161041d366004612a79565b610f10565b34801561042e57600080fd5b506102ff61043d366004612ac5565b6110c9565b34801561044e57600080fd5b5061049f61045d366004612af1565b60009283526006602090815260408085206001600160a01b03949094168552928152828420918452529020600581015460029091015461010090910460ff1691565b6040805192151583526020830191909152016101f7565b3480156104c257600080fd5b506101c16104d13660046129b9565b6111ef565b3480156104e257600080fd5b506101c16104f13660046129b9565b611424565b34801561050257600080fd5b506105166105113660046129b9565b611517565b6040516101f79190612b27565b34801561052f57600080fd5b5061055861053e3660046129b9565b600090815260056020526040902054610100900460ff1690565b60405190151581526020016101f7565b34801561057457600080fd5b506101c16105833660046129b9565b6117a1565b6101c1610596366004612b8e565b611b0b565b3480156105a757600080fd5b506101c16105b6366004612997565b6120de565b3480156105c757600080fd5b506101c16105d6366004612a79565b61211c565b3480156105e757600080fd5b506101c16105f63660046129b9565b6122fe565b34801561060757600080fd5b506101c16106163660046129b9565b6125b5565b34801561062757600080fd5b50610692610636366004612af1565b600660209081526000938452604080852082529284528284209052825290208054600182015460028301546003840154600485015460059095015493946001600160a01b03909316939192909160ff8082169161010090041687565b604080519788526001600160a01b0390961660208801529486019390935260608501919091526080840152151560a0830152151560c082015260e0016101f7565b6106db61275e565b600480546001810182556000919091527f8a35acfbc15ff81a39ae7d344fd709f28e8600b4aa8c65c6b64bfe7fe36bd19b0180546001600160a01b0319166001600160a01b0392909216919091179055565b6004818154811061073d57600080fd5b6000918252602090912001546001600160a01b0316905081565b6000805b6004548110156107ad57336001600160a01b03166004828154811061078257610782612bba565b6000918252602090912001546001600160a01b0316036107a557600191506107ad565b60010161075b565b50806107d45760405162461bcd60e51b81526004016107cb90612bd0565b60405180910390fd5b60008281526005602081905260409091206003549181015490916107f791612c0b565b42106108455760405162461bcd60e51b815260206004820152601d60248201527f43616e206e6f742072656d6f76652064656261746520616e796d6f726500000060448201526064016107cb565b60068101541580159061085b5750600781015415155b6108775760405162461bcd60e51b81526004016107cb90612c1e565b600060058201819055600482018190556003820181905560405184917f80bed4ceeb2dfbd88f61cca1c30bc6dede3047d1862345ef30f1cbc44c2016d791a2505050565b6108c361275e565b60005b6004548110156109c057816001600160a01b0316600482815481106108ed576108ed612bba565b6000918252602090912001546001600160a01b0316036109b8576004805461091790600190612c0b565b8154811061092757610927612bba565b600091825260209091200154600480546001600160a01b03909216918390811061095357610953612bba565b9060005260206000200160006101000a8154816001600160a01b0302191690836001600160a01b03160217905550600480548061099257610992612c55565b600082815260209020810160001990810180546001600160a01b03191690550190555050565b6001016108c6565b5050565b6109cc61275e565b33478211156109ed5760405162461bcd60e51b81526004016107cb90612c6b565b6040516001600160a01b0382169083156108fc029084906000818181858888f19350505050158015610a23573d6000803e3d6000fd5b505050565b610a896040518061016001604052806000151581526020016000151581526020016000815260200160008152602001600081526020016000815260200160008152602001600081526020016000815260200160008152602001600081525090565b50600090815260056020818152604092839020835161016081018552815460ff8082161515835261010091829004161515938201939093526001820154948101949094526002810154606085015260038101546080850152600481015460a08501529182015460c0840152600682015460e084015260078201549083015260088101546101208301526009015461014082015290565b610b2761275e565b610b31600061278b565b565b60076020528160005260406000208181548110610b4f57600080fd5b6000918252602090912001546001600160a01b03169150829050565b610b7361275e565b604051339081904780156108fc02916000818181858888f193505050501580156109c0573d6000803e3d6000fd5b6000805b600454811015610bf757336001600160a01b031660048281548110610bcc57610bcc612bba565b6000918252602090912001546001600160a01b031603610bef5760019150610bf7565b600101610ba5565b5080610c155760405162461bcd60e51b81526004016107cb90612bd0565b6000838152600560205260409020805460ff1615610c755760405162461bcd60e51b815260206004820152601a60248201527f44656261746520697320616c7265616479207265736f6c76656400000000000060448201526064016107cb565b8060060154831480610c8a5750806007015483145b610cc65760405162461bcd60e51b815260206004820152600d60248201526c125b9d985b1a59081859d95b9d609a1b60448201526064016107cb565b805460ff191660019081178255810183905560098101546008820154600091610cee91612ca0565b905060008260020154612710610d049190612c0b565b905060005b600087815260076020526040902054811015610ecd576000878152600760205260408120805483908110610d3f57610d3f612bba565b60009182526020808320909101548a83526006825260408084206001600160a01b039092168085529183528084208b85529092529120600481015491925090889003610ec357600086600601548260040154148015610da057506008870154155b15610dc957612710858360020154610db89190612cb3565b610dc29190612cca565b9050610e07565b86600701548260040154148015610de257506009870154155b15610e0757612710858360020154610dfa9190612cb3565b610e049190612cca565b90505b86600601548260040154148015610e22575060008760080154115b15610e64576008870154610e3890612710612cb3565b85878460020154610e499190612cb3565b610e539190612cb3565b610e5d9190612cca565b9050610ebd565b86600701548260040154148015610e7f575060008760090154115b15610ebd576009870154610e9590612710612cb3565b85878460020154610ea69190612cb3565b610eb09190612cb3565b610eba9190612cca565b90505b60038201555b5050600101610d09565b50857fb6284c12d8a21c06155f14e4b5a2c21bdd2a90abcd3b5d0ada8275279cb0ca6f86604051610f0091815260200190565b60405180910390a2505050505050565b6000805b600454811015610f6657336001600160a01b031660048281548110610f3b57610f3b612bba565b6000918252602090912001546001600160a01b031603610f5e5760019150610f66565b600101610f14565b5080610f845760405162461bcd60e51b81526004016107cb90612bd0565b6000888152600560205260409020600681015415801590610fa85750600781015415155b610fc45760405162461bcd60e51b81526004016107cb90612c1e565b6003548160050154610fd69190612c0b565b42106110245760405162461bcd60e51b815260206004820152601d60248201527f43616e206e6f74206d6f646966792064656261746520616e796d6f726500000060448201526064016107cb565b60068101889055600781018790556000869003611048576001546002820155611050565b600281018690555b6005810185905560048101849055600381018390556040805189815260208101899052908101879052606081018690526080810185905260a0810184905289907f5ad787ff0ab90867aa98c2a81caff732533e80b06f4c6910994cf0c8918d17fc9060c0015b60405180910390a2505050505050505050565b60008281526005602052604081208054610100900460ff1615806110ee5750805460ff165b156110fd5760009150506111e9565b60008481526006602081815260408084206001600160a01b03881685528252808420928501548452919052812060028101541580159061114757506005810154610100900460ff16155b80156111585750600581015460ff16155b1561116f57600281015461116c9083612ca0565b91505b60008681526006602090815260408083206001600160a01b038916845282528083206007870154845290915290206002810154158015906111ba57506005810154610100900460ff16155b80156111cb5750600581015460ff16155b156111e25760028101546111df9084612ca0565b92505b5090925050505b92915050565b6000805b60045481101561124557336001600160a01b03166004828154811061121a5761121a612bba565b6000918252602090912001546001600160a01b03160361123d5760019150611245565b6001016111f3565b50806112635760405162461bcd60e51b81526004016107cb90612bd0565b60008281526005602052604090208054610100900460ff166112975760405162461bcd60e51b81526004016107cb90612cec565b805460ff16156112e95760405162461bcd60e51b815260206004820152601d60248201527f43616e6e6f7420726566756e64207265736f6c7665642064656261746500000060448201526064016107cb565b60005b60008481526007602052604090205481101561141e57600084815260076020526040812080548390811061132257611322612bba565b6000918252602080832090910154878352600680835260408085206001600160a01b03909316808652928452808520918801548552925291206002810154919250901580159061137c57506005810154610100900460ff16155b801561138d5750600581015460ff16155b156113a2576113a286838660060154846127db565b60008681526006602090815260408083206001600160a01b038616845282528083206007880154845290915290206002810154158015906113ed57506005810154610100900460ff16155b80156113fe5750600581015460ff16155b156114135761141387848760070154846127db565b5050506001016112ec565b50505050565b61142c61275e565b6000818152600560205260409020805460ff1661145b5760405162461bcd60e51b81526004016107cb90612d2e565b806001015460000361147f5760405162461bcd60e51b81526004016107cb90612d2e565b6000816009015482600801546114959190612ca0565b905060006127108360020154836114ac9190612cb3565b6114b69190612cca565b905033478211156114d95760405162461bcd60e51b81526004016107cb90612c6b565b6040516001600160a01b0382169083156108fc029084906000818181858888f1935050505015801561150f573d6000803e3d6000fd5b505050505050565b6000818152600560209081526040808320600783528184208054835181860281018601909452808452606095929492939283018282801561158157602002820191906000526020600020905b81546001600160a01b03168152600190910190602001808311611563575b5050505050905060008151905060008167ffffffffffffffff8111156115a9576115a9612d65565b6040519080825280602002602001820160405280156115f457816020015b60408051606081018252600080825260208083018290529282015282526000199092019101816115c75790505b50905060005b8281101561179757600084828151811061161657611616612bba565b60209081029190910181015160008a8152600680845260408083206001600160a01b03851684528552808320918b015483529352918220600281015491935082911561168557600281015461166b9084612ca0565b6005820154909350610100900460ff161561168557600191505b60008b81526006602090815260408083206001600160a01b0388168452825280832060078d0154845290915290206002810154156116e65760028101546116cc9085612ca0565b6005820154909450610100900460ff16156116e657600192505b600084156117415760028301546001901580159061170e57506005840154610100900460ff16155b15611717575060005b6000836002015411801561173557506005830154610100900460ff16155b1561173e575060005b90505b6040518060600160405280876001600160a01b0316815260200186815260200182151581525088888151811061177957611779612bba565b602002602001018190525050505050505080806001019150506115fa565b5095945050505050565b60008181526005602052604090208054610100900460ff166117d55760405162461bcd60e51b81526004016107cb90612cec565b805460ff16156118275760405162461bcd60e51b815260206004820152601d60248201527f43616e6e6f7420726566756e64207265736f6c7665642064656261746500000060448201526064016107cb565b6000805b60008481526007602052604090205481101561188f57600084815260076020526040902080543391908390811061186457611864612bba565b6000918252602090912001546001600160a01b031603611887576001915061188f565b60010161182b565b50806118ad5760405162461bcd60e51b81526004016107cb90612d7b565b6000838152600660208181526040808420338552825280842092860154845291905281206002810154158015906118ee57506005810154610100900460ff16155b80156118ff5750600581015460ff16155b156119b057600281015460058201805461ff00191661010017905560019250334782111561193f5760405162461bcd60e51b81526004016107cb90612dc3565b6040516001600160a01b0382169083156108fc029084906000818181858888f19350505050158015611975573d6000803e3d6000fd5b50604051828152339088907fcb528fcde812ac8afd931070257cc24789e622614ede1ffd81c7a38beacf3f7b9060200160405180910390a350505b600085815260066020908152604080832033845282528083206007880154845290915290206002810154158015906119f257506005810154610100900460ff16155b8015611a035750600581015460ff16155b15611ab457600281015460058201805461ff001916610100179055600193503347821115611a435760405162461bcd60e51b81526004016107cb90612dc3565b6040516001600160a01b0382169083156108fc029084906000818181858888f19350505050158015611a79573d6000803e3d6000fd5b50604051828152339089907fcb528fcde812ac8afd931070257cc24789e622614ede1ffd81c7a38beacf3f7b9060200160405180910390a350505b8261150f5760405162461bcd60e51b815260206004820152602160248201527f4e6f20656c696769626c65206265747320666f756e6420666f7220726566756e6044820152601960fa1b60648201526084016107cb565b60008211611b5b5760405162461bcd60e51b815260206004820152601d60248201527f416d6f756e74206d7573742062652067726561746572207468616e203000000060448201526064016107cb565b600083815260056020819052604090912090810154611bbc5760405162461bcd60e51b815260206004820152601b60248201527f446562617465206973206e6f74207075626c697368656420796574000000000060448201526064016107cb565b8060040154600003611c045760405162461bcd60e51b8152602060048201526011602482015270111958985d19481a5cc819195b195d1959607a1b60448201526064016107cb565b805460ff1615611c615760405162461bcd60e51b815260206004820152602260248201527f4465626174652073657373696f6e20697320616c7265616479207265736f6c76604482015261195960f21b60648201526084016107cb565b8054610100900460ff1615611cd45760405162461bcd60e51b815260206004820152603360248201527f446562617465206973206d61726b656420617320726566756e6461626c652c206044820152721b9bc81b995dc818995d1cc8185b1b1bddd959606a1b60648201526084016107cb565b80600501544211611d315760405162461bcd60e51b815260206004820152602160248201527f4465626174652073657373696f6e206973206e6f7420737461727465642079656044820152601d60fa1b60648201526084016107cb565b60025481600301548260040154611d489190612ca0565b611d529190612c0b565b4210611da05760405162461bcd60e51b815260206004820152601960248201527f43616e206e6f7420706c6163652062657420616e796d6f72650000000000000060448201526064016107cb565b82341015611df05760405162461bcd60e51b815260206004820152601960248201527f46656520616d6f756e74206973206e6f7420636f72726563740000000000000060448201526064016107cb565b80600601548203611e1a5782816008016000828254611e0f9190612ca0565b90915550611ee49050565b80600701548203611e395782816009016000828254611e0f9190612ca0565b60068101541580611e4c57506007810154155b611e985760405162461bcd60e51b815260206004820181905260248201527f426f7468206167656e74732061726520616c72656164792061737369676e656460448201526064016107cb565b8060060154600003611ec15781816006018190555082816008016000828254611e0f9190612ca0565b81816007018190555082816009016000828254611ede9190612ca0565b90915550505b600084815260066020908152604080832033845282528083208584529091529020600281015415611f2e5783816002016000828254611f239190612ca0565b90915550611fed9050565b6040805160e081018252868152336020808301828152838501898152600060608601818152608087018b815260a0880183815260c089018481528f8552600688528a85209885529787528984208d8552909652979091209551865591516001860180546001600160a01b03929092166001600160a01b031990921691909117905551600285015551600384015592516004830155915160059091018054925115156101000261ff00199215159290921661ffff19909316929092171790555b6000805b60008781526007602052604090205481101561205557600087815260076020526040902080543391908390811061202a5761202a612bba565b6000918252602090912001546001600160a01b03160361204d5760019150612055565b600101611ff1565b508061208a5760008681526007602090815260408220805460018101825590835291200180546001600160a01b031916331790555b6002830154604080518681526020810188905290810191909152339087907fab2115bac1de808eb7fe2be0309085b11f1f42b1eb980de8352efefdbfc098e2906060015b60405180910390a3505050505050565b6120e661275e565b6001600160a01b03811661211057604051631e4fbdf760e01b8152600060048201526024016107cb565b6121198161278b565b50565b6000805b60045481101561217257336001600160a01b03166004828154811061214757612147612bba565b6000918252602090912001546001600160a01b03160361216a5760019150612172565b600101612120565b50806121905760405162461bcd60e51b81526004016107cb90612bd0565b600088815260056020526040902060068101541580156121b257506007810154155b6121fe5760405162461bcd60e51b815260206004820152601960248201527f44656261746520697320616c726561647920637265617465640000000000000060448201526064016107cb565b846122098486612ca0565b116122685760405162461bcd60e51b815260206004820152602960248201527f456e642074696d65206d7573742062652067726561746572207468616e207075604482015268626c69632074696d6560b81b60648201526084016107cb565b6006810188905560078101879055600086900361228c576001546002820155612294565b600281018690555b6005810185905560048101849055600381018390556040805189815260208101899052908101879052606081018690526080810185905260a0810184905289907f74245c13fa29018d2e3827a29b9f092a79b7d948264385dca981d1d6ba38a76f9060c0016110b6565b6000818152600560205260409020805460ff1661232d5760405162461bcd60e51b81526004016107cb90612d2e565b8054610100900460ff161561239e5760405162461bcd60e51b815260206004820152603160248201527f44656261746520697320726566756e6461626c652c2075736520726566756e6460448201527020696e7374656164206f6620636c61696d60781b60648201526084016107cb565b6000805b6000848152600760205260409020548110156124065760008481526007602052604090208054339190839081106123db576123db612bba565b6000918252602090912001546001600160a01b0316036123fe5760019150612406565b6001016123a2565b50806124245760405162461bcd60e51b81526004016107cb90612d7b565b6001820154600084815260066020908152604080832033845282528083208484529091529020600581015460ff16156124ab5760405162461bcd60e51b815260206004820152602360248201527f596f75206861766520616c726561647920636c61696d65642074686520726577604482015262185c9960ea1b60648201526084016107cb565b60008160030154116124ff5760405162461bcd60e51b815260206004820152601760248201527f596f7520646964206e6f742077696e207468652062657400000000000000000060448201526064016107cb565b600381015433904710156125255760405162461bcd60e51b81526004016107cb90612c6b565b60038201546040516001600160a01b0383169180156108fc02916000818181858888f1935050505015801561255e573d6000803e3d6000fd5b5060058201805460ff1916600117905560048201546003830154604051339289927f4eed845a8c2dab6b8f3276326563ae95a67314d068314298838cc3246bb3e3e0926120ce929190918252602082015260400190565b6000805b60045481101561260b57336001600160a01b0316600482815481106125e0576125e0612bba565b6000918252602090912001546001600160a01b031603612603576001915061260b565b6001016125b9565b50806126295760405162461bcd60e51b81526004016107cb90612bd0565b600082815260056020526040902060068101541580159061264d5750600781015415155b6126695760405162461bcd60e51b81526004016107cb90612c1e565b805460ff16156126bb5760405162461bcd60e51b815260206004820152601a60248201527f44656261746520697320616c7265616479207265736f6c76656400000000000060448201526064016107cb565b8054610100900460ff16156127215760405162461bcd60e51b815260206004820152602660248201527f44656261746520697320616c7265616479206d61726b656420617320726566756044820152656e6461626c6560d01b60648201526084016107cb565b805461ff00191661010017815560405183907fda718c7fab5de6540a4afcf73416cff740ce2de5286111f87c86d8cc68c99fff90600090a2505050565b6000546001600160a01b03163314610b315760405163118cdaa760e01b81523360048201526024016107cb565b600080546001600160a01b038381166001600160a01b0319831681178455604051919092169283917f8be0079c531659141344cd1fd0a4f28419497f9722a3daafe3b4186f6b6457e09190a35050565b600081600201541161282f5760405162461bcd60e51b815260206004820152601760248201527f4e6f2062657420616d6f756e7420746f20726566756e6400000000000000000060448201526064016107cb565b6005810154610100900460ff161561287c5760405162461bcd60e51b815260206004820152601060248201526f105b1c9958591e481c99599d5b99195960821b60448201526064016107cb565b600581015460ff16156128d15760405162461bcd60e51b815260206004820152601960248201527f43616e6e6f7420726566756e6420636c61696d6564206265740000000000000060448201526064016107cb565b600281015460058201805461ff00191661010017905583478211156129085760405162461bcd60e51b81526004016107cb90612dc3565b6040516001600160a01b0382169083156108fc029084906000818181858888f1935050505015801561293e573d6000803e3d6000fd5b50846001600160a01b0316867fcb528fcde812ac8afd931070257cc24789e622614ede1ffd81c7a38beacf3f7b846040516120ce91815260200190565b80356001600160a01b038116811461299257600080fd5b919050565b6000602082840312156129a957600080fd5b6129b28261297b565b9392505050565b6000602082840312156129cb57600080fd5b5035919050565b815115158152610160810160208301516129f0602084018215159052565b5060408301516040830152606083015160608301526080830151608083015260a083015160a083015260c083015160c083015260e083015160e083015261010083015161010083015261012083015161012083015261014083015161014083015292915050565b60008060408385031215612a6a57600080fd5b50508035926020909101359150565b600080600080600080600060e0888a031215612a9457600080fd5b505085359760208701359750604087013596606081013596506080810135955060a0810135945060c0013592509050565b60008060408385031215612ad857600080fd5b82359150612ae86020840161297b565b90509250929050565b600080600060608486031215612b0657600080fd5b83359250612b166020850161297b565b929592945050506040919091013590565b602080825282518282018190526000918401906040840190835b81811015612b8357835180516001600160a01b031684526020808201518186015260409182015115159185019190915290930192606090920191600101612b41565b509095945050505050565b600080600060608486031215612ba357600080fd5b505081359360208301359350604090920135919050565b634e487b7160e01b600052603260045260246000fd5b6020808252600b908201526a139bdd08185b1b1bddd95960aa1b604082015260600190565b634e487b7160e01b600052601160045260246000fd5b818103818111156111e9576111e9612bf5565b60208082526019908201527f446562617465206973206e6f7420637265617465642079657400000000000000604082015260600190565b634e487b7160e01b600052603160045260246000fd5b6020808252818101527f496e73756666696369656e742062616c616e636520696e20636f6e7472616374604082015260600190565b808201808211156111e9576111e9612bf5565b80820281158282048414176111e9576111e9612bf5565b600082612ce757634e487b7160e01b600052601260045260246000fd5b500490565b60208082526022908201527f446562617465206973206e6f74206d61726b656420617320726566756e6461626040820152616c6560f01b606082015260800190565b6020808252601a908201527f446562617465206973206e6f74207265736f6c76656420796574000000000000604082015260600190565b634e487b7160e01b600052604160045260246000fd5b60208082526028908201527f596f7520646964206e6f7420706c61636520616e7920626574206f6e20746869604082015267732064656261746560c01b606082015260800190565b6020808252601d908201527f496e73756666696369656e7420636f6e74726163742062616c616e636500000060408201526060019056fea2646970667358221220ca1f025caab4401406874fce6f222ff7e14aa2745614ee5e762241c2caac25c364736f6c634300081c0033",
  "linkReferences": {},
  "deployedLinkReferences": {}
}