{
  "_format": "hh-sol-artifact-1",
  "contractName": "AIDebate",
  "sourceName": "contracts/Debate.sol",
  "abi": [
    {
      "inputs": [
        {
          "internalType": "address",
          "name": "initialOwner",
          "type": "address"
        }
      ],
      "stateMutability": "nonpayable",
      "type": "constructor"
    },
    {
      "inputs": [],
      "name": "InvalidInitialization",
      "type": "error"
    },
    {
      "inputs": [],
      "name": "NotInitializing",
      "type": "error"
    },
    {
      "inputs": [
        {
          "internalType": "address",
          "name": "owner",
          "type": "address"
        }
      ],
      "name": "OwnableInvalidOwner",
      "type": "error"
    },
    {
      "inputs": [
        {
          "internalType": "address",
          "name": "account",
          "type": "address"
        }
      ],
      "name": "OwnableUnauthorizedAccount",
      "type": "error"
    },
    {
      "anonymous": false,
      "inputs": [
        {
          "indexed": true,
          "internalType": "uint256",
          "name": "debateId",
          "type": "uint256"
        },
        {
          "indexed": true,
          "internalType": "address",
          "name": "bettor",
          "type": "address"
        },
        {
          "indexed": false,
          "internalType": "uint8",
          "name": "chosenAgentId",
          "type": "uint8"
        },
        {
          "indexed": false,
          "internalType": "uint256",
          "name": "amount",
          "type": "uint256"
        },
        {
          "indexed": false,
          "internalType": "uint256",
          "name": "platformFeePercentage",
          "type": "uint256"
        }
      ],
      "name": "BetPlaced",
      "type": "event"
    },
    {
      "anonymous": false,
      "inputs": [
        {
          "indexed": true,
          "internalType": "uint256",
          "name": "debateId",
          "type": "uint256"
        },
        {
          "indexed": false,
          "internalType": "uint8",
          "name": "agentAID",
          "type": "uint8"
        },
        {
          "indexed": false,
          "internalType": "uint8",
          "name": "agentBID",
          "type": "uint8"
        },
        {
          "indexed": false,
          "internalType": "uint256",
          "name": "platformFeePercentage",
          "type": "uint256"
        },
        {
          "indexed": false,
          "internalType": "uint256",
          "name": "publicTimeStamp",
          "type": "uint256"
        },
        {
          "indexed": false,
          "internalType": "uint256",
          "name": "startTimeStamp",
          "type": "uint256"
        },
        {
          "indexed": false,
          "internalType": "uint256",
          "name": "sessionDuration",
          "type": "uint256"
        }
      ],
      "name": "DebateCreated",
      "type": "event"
    },
    {
      "anonymous": false,
      "inputs": [
        {
          "indexed": true,
          "internalType": "uint256",
          "name": "debateId",
          "type": "uint256"
        }
      ],
      "name": "DebateDeleted",
      "type": "event"
    },
    {
      "anonymous": false,
      "inputs": [
        {
          "indexed": true,
          "internalType": "uint256",
          "name": "debateId",
          "type": "uint256"
        },
        {
          "indexed": false,
          "internalType": "uint8",
          "name": "winnAgentId",
          "type": "uint8"
        }
      ],
      "name": "DebateResolved",
      "type": "event"
    },
    {
      "anonymous": false,
      "inputs": [
        {
          "indexed": true,
          "internalType": "uint256",
          "name": "debateId",
          "type": "uint256"
        },
        {
          "indexed": false,
          "internalType": "uint8",
          "name": "agentAID",
          "type": "uint8"
        },
        {
          "indexed": false,
          "internalType": "uint8",
          "name": "agentBID",
          "type": "uint8"
        },
        {
          "indexed": false,
          "internalType": "uint256",
          "name": "platformFeePercentage",
          "type": "uint256"
        },
        {
          "indexed": false,
          "internalType": "uint256",
          "name": "publicTimeStamp",
          "type": "uint256"
        },
        {
          "indexed": false,
          "internalType": "uint256",
          "name": "startTimeStamp",
          "type": "uint256"
        },
        {
          "indexed": false,
          "internalType": "uint256",
          "name": "sessionDuration",
          "type": "uint256"
        }
      ],
      "name": "DebateUpdated",
      "type": "event"
    },
    {
      "anonymous": false,
      "inputs": [
        {
          "indexed": false,
          "internalType": "uint64",
          "name": "version",
          "type": "uint64"
        }
      ],
      "name": "Initialized",
      "type": "event"
    },
    {
      "anonymous": false,
      "inputs": [
        {
          "indexed": true,
          "internalType": "address",
          "name": "previousOwner",
          "type": "address"
        },
        {
          "indexed": true,
          "internalType": "address",
          "name": "newOwner",
          "type": "address"
        }
      ],
      "name": "OwnershipTransferred",
      "type": "event"
    },
    {
      "anonymous": false,
      "inputs": [
        {
          "indexed": true,
          "internalType": "uint256",
          "name": "debateId",
          "type": "uint256"
        },
        {
          "indexed": true,
          "internalType": "address",
          "name": "bettor",
          "type": "address"
        },
        {
          "indexed": false,
          "internalType": "uint8",
          "name": "chosenAgentId",
          "type": "uint8"
        },
        {
          "indexed": false,
          "internalType": "uint256",
          "name": "amount",
          "type": "uint256"
        }
      ],
      "name": "UserClaimed",
      "type": "event"
    },
    {
      "inputs": [
        {
          "internalType": "address",
          "name": "_address",
          "type": "address"
        }
      ],
      "name": "addWhitelist",
      "outputs": [],
      "stateMutability": "nonpayable",
      "type": "function"
    },
    {
      "inputs": [
        {
          "internalType": "uint256",
          "name": "",
          "type": "uint256"
        },
        {
          "internalType": "uint256",
          "name": "",
          "type": "uint256"
        }
      ],
      "name": "addressJoinedList",
      "outputs": [
        {
          "internalType": "address",
          "name": "",
          "type": "address"
        }
      ],
      "stateMutability": "view",
      "type": "function"
    },
    {
      "inputs": [
        {
          "internalType": "uint256",
          "name": "_debateId",
          "type": "uint256"
        },
        {
          "internalType": "uint8",
          "name": "_agentAID",
          "type": "uint8"
        },
        {
          "internalType": "uint8",
          "name": "_agentBID",
          "type": "uint8"
        },
        {
          "internalType": "uint256",
          "name": "_platformFeePercentage",
          "type": "uint256"
        },
        {
          "internalType": "uint256",
          "name": "_publicTimeStamp",
          "type": "uint256"
        },
        {
          "internalType": "uint256",
          "name": "_startTimeStamp",
          "type": "uint256"
        },
        {
          "internalType": "uint256",
          "name": "_sessionDuration",
          "type": "uint256"
        }
      ],
      "name": "adminCreateDebate",
      "outputs": [],
      "stateMutability": "nonpayable",
      "type": "function"
    },
    {
      "inputs": [
        {
          "internalType": "uint256",
          "name": "_debateId",
          "type": "uint256"
        }
      ],
      "name": "adminDeleteDebate",
      "outputs": [],
      "stateMutability": "nonpayable",
      "type": "function"
    },
    {
      "inputs": [
        {
          "internalType": "uint256",
          "name": "_debateId",
          "type": "uint256"
        },
        {
          "internalType": "uint8",
          "name": "_winAgentId",
          "type": "uint8"
        }
      ],
      "name": "adminResolveDebate",
      "outputs": [],
      "stateMutability": "nonpayable",
      "type": "function"
    },
    {
      "inputs": [
        {
          "internalType": "uint256",
          "name": "_debateId",
          "type": "uint256"
        },
        {
          "internalType": "uint8",
          "name": "_agentAID",
          "type": "uint8"
        },
        {
          "internalType": "uint8",
          "name": "_agentBID",
          "type": "uint8"
        },
        {
          "internalType": "uint256",
          "name": "_platformFeePercentage",
          "type": "uint256"
        },
        {
          "internalType": "uint256",
          "name": "_publicTimeStamp",
          "type": "uint256"
        },
        {
          "internalType": "uint256",
          "name": "_startTimeStamp",
          "type": "uint256"
        },
        {
          "internalType": "uint256",
          "name": "_sessionDuration",
          "type": "uint256"
        }
      ],
      "name": "adminUpdateDebate",
      "outputs": [],
      "stateMutability": "nonpayable",
      "type": "function"
    },
    {
      "inputs": [
        {
          "internalType": "uint256",
          "name": "",
          "type": "uint256"
        },
        {
          "internalType": "address",
          "name": "",
          "type": "address"
        },
        {
          "internalType": "uint256",
          "name": "",
          "type": "uint256"
        }
      ],
      "name": "betList",
      "outputs": [
        {
          "internalType": "uint256",
          "name": "debateId",
          "type": "uint256"
        },
        {
          "internalType": "address",
          "name": "bettor",
          "type": "address"
        },
        {
          "internalType": "uint256",
          "name": "amount",
          "type": "uint256"
        },
        {
          "internalType": "uint256",
          "name": "winAmount",
          "type": "uint256"
        },
        {
          "internalType": "uint8",
          "name": "chosenAgentId",
          "type": "uint8"
        },
        {
          "internalType": "bool",
          "name": "isClaimed",
          "type": "bool"
        }
      ],
      "stateMutability": "view",
      "type": "function"
    },
    {
      "inputs": [
        {
          "internalType": "uint256",
          "name": "",
          "type": "uint256"
        }
      ],
      "name": "debateList",
      "outputs": [
        {
          "internalType": "bool",
          "name": "isResolved",
          "type": "bool"
        },
        {
          "internalType": "uint8",
          "name": "winAgentId",
          "type": "uint8"
        },
        {
          "internalType": "uint256",
          "name": "platformFeePercentage",
          "type": "uint256"
        },
        {
          "internalType": "uint256",
          "name": "sessionDuration",
          "type": "uint256"
        },
        {
          "internalType": "uint256",
          "name": "startTimeStamp",
          "type": "uint256"
        },
        {
          "internalType": "uint256",
          "name": "publicTimeStamp",
          "type": "uint256"
        },
        {
          "internalType": "uint8",
          "name": "agentAID",
          "type": "uint8"
        },
        {
          "internalType": "uint8",
          "name": "agentBID",
          "type": "uint8"
        },
        {
          "internalType": "uint256",
          "name": "totalAgentABetAmount",
          "type": "uint256"
        },
        {
          "internalType": "uint256",
          "name": "totalAgentBBetAmount",
          "type": "uint256"
        }
      ],
      "stateMutability": "view",
      "type": "function"
    },
    {
      "inputs": [],
      "name": "defaultPlatformFeePercentage",
      "outputs": [
        {
          "internalType": "uint256",
          "name": "",
          "type": "uint256"
        }
      ],
      "stateMutability": "view",
      "type": "function"
    },
    {
      "inputs": [
        {
          "internalType": "uint256",
          "name": "_debateId",
          "type": "uint256"
        }
      ],
      "name": "getDebateInfo",
      "outputs": [
        {
          "components": [
            {
              "internalType": "bool",
              "name": "isResolved",
              "type": "bool"
            },
            {
              "internalType": "uint8",
              "name": "winAgentId",
              "type": "uint8"
            },
            {
              "internalType": "uint256",
              "name": "platformFeePercentage",
              "type": "uint256"
            },
            {
              "internalType": "uint256",
              "name": "sessionDuration",
              "type": "uint256"
            },
            {
              "internalType": "uint256",
              "name": "startTimeStamp",
              "type": "uint256"
            },
            {
              "internalType": "uint256",
              "name": "publicTimeStamp",
              "type": "uint256"
            },
            {
              "internalType": "uint8",
              "name": "agentAID",
              "type": "uint8"
            },
            {
              "internalType": "uint8",
              "name": "agentBID",
              "type": "uint8"
            },
            {
              "internalType": "uint256",
              "name": "totalAgentABetAmount",
              "type": "uint256"
            },
            {
              "internalType": "uint256",
              "name": "totalAgentBBetAmount",
              "type": "uint256"
            }
          ],
          "internalType": "struct AIDebate.Debate",
          "name": "",
          "type": "tuple"
        }
      ],
      "stateMutability": "view",
      "type": "function"
    },
    {
      "inputs": [],
      "name": "owner",
      "outputs": [
        {
          "internalType": "address",
          "name": "",
          "type": "address"
        }
      ],
      "stateMutability": "view",
      "type": "function"
    },
    {
      "inputs": [
        {
          "internalType": "uint256",
          "name": "_debateId",
          "type": "uint256"
        },
        {
          "internalType": "uint256",
          "name": "_amount",
          "type": "uint256"
        },
        {
          "internalType": "uint8",
          "name": "_chosenAgent",
          "type": "uint8"
        }
      ],
      "name": "placeBet",
      "outputs": [],
      "stateMutability": "payable",
      "type": "function"
    },
    {
      "inputs": [
        {
          "internalType": "address",
          "name": "_address",
          "type": "address"
        }
      ],
      "name": "removeWhitelist",
      "outputs": [],
      "stateMutability": "nonpayable",
      "type": "function"
    },
    {
      "inputs": [],
      "name": "renounceOwnership",
      "outputs": [],
      "stateMutability": "nonpayable",
      "type": "function"
    },
    {
      "inputs": [
        {
          "internalType": "address",
          "name": "newOwner",
          "type": "address"
        }
      ],
      "name": "transferOwnership",
      "outputs": [],
      "stateMutability": "nonpayable",
      "type": "function"
    },
    {
      "inputs": [
        {
          "internalType": "uint256",
          "name": "_debateId",
          "type": "uint256"
        }
      ],
      "name": "userClaim",
      "outputs": [],
      "stateMutability": "nonpayable",
      "type": "function"
    }
  ],
  "bytecode": "0x60806040526005600155620493e060025534801561001c57600080fd5b50604051612e80380380612e80833981810160405281019061003e91906101ee565b80600073ffffffffffffffffffffffffffffffffffffffff168173ffffffffffffffffffffffffffffffffffffffff16036100b15760006040517f1e4fbdf70000000000000000000000000000000000000000000000000000000081526004016100a8919061022a565b60405180910390fd5b6100c0816100c760201b60201c565b5050610245565b60008060009054906101000a900473ffffffffffffffffffffffffffffffffffffffff169050816000806101000a81548173ffffffffffffffffffffffffffffffffffffffff021916908373ffffffffffffffffffffffffffffffffffffffff1602179055508173ffffffffffffffffffffffffffffffffffffffff168173ffffffffffffffffffffffffffffffffffffffff167f8be0079c531659141344cd1fd0a4f28419497f9722a3daafe3b4186f6b6457e060405160405180910390a35050565b600080fd5b600073ffffffffffffffffffffffffffffffffffffffff82169050919050565b60006101bb82610190565b9050919050565b6101cb816101b0565b81146101d657600080fd5b50565b6000815190506101e8816101c2565b92915050565b6000602082840312156102045761020361018b565b5b6000610212848285016101d9565b91505092915050565b610224816101b0565b82525050565b600060208201905061023f600083018461021b565b92915050565b612c2c806102546000396000f3fe6080604052600436106100f35760003560e01c80637a27fbb21161008a578063f2fde38b11610059578063f2fde38b1461030e578063f80f5dd514610337578063fe43efda14610360578063fe84d4b614610389576100f3565b80637a27fbb2146102615780638da5cb5b1461029e5780639e14427e146102c9578063c681b98f146102e5576100f3565b806343674131116100c657806343674131146101b95780635b99a012146101e4578063715018a61461022157806378c8cda714610238576100f3565b806321dc2a9d146100f85780632839255414610121578063310026df1461014a5780633993834814610173575b600080fd5b34801561010457600080fd5b5061011f600480360381019061011a9190611baf565b6103cb565b005b34801561012d57600080fd5b5061014860048036038101906101439190611c51565b610526565b005b34801561015657600080fd5b50610171600480360381019061016c9190611c7e565b61060d565b005b34801561017f57600080fd5b5061019a60048036038101906101959190611c51565b61096b565b6040516101b09a99989796959493929190611cf7565b60405180910390f35b3480156101c557600080fd5b506101ce6109f3565b6040516101db9190611d93565b60405180910390f35b3480156101f057600080fd5b5061020b60048036038101906102069190611c51565b6109f9565b6040516102189190611ea7565b60405180910390f35b34801561022d57600080fd5b50610236610adb565b005b34801561024457600080fd5b5061025f600480360381019061025a9190611f21565b610aef565b005b34801561026d57600080fd5b5061028860048036038101906102839190611f4e565b610b52565b6040516102959190611f9d565b60405180910390f35b3480156102aa57600080fd5b506102b3610ba0565b6040516102c09190611f9d565b60405180910390f35b6102e360048036038101906102de9190611fb8565b610bc9565b005b3480156102f157600080fd5b5061030c60048036038101906103079190611baf565b611233565b005b34801561031a57600080fd5b5061033560048036038101906103309190611f21565b6113d9565b005b34801561034357600080fd5b5061035e60048036038101906103599190611f21565b61145f565b005b34801561036c57600080fd5b5061038760048036038101906103829190611c51565b6114c2565b005b34801561039557600080fd5b506103b060048036038101906103ab919061200b565b6117fc565b6040516103c29695949392919061205e565b60405180910390f35b6103d361188c565b600060036000898152602001908152602001600020905060008160050160009054906101000a900460ff1660ff1614158015610424575060008160050160019054906101000a900460ff1660ff1614155b610463576040517f08c379a000000000000000000000000000000000000000000000000000000000815260040161045a9061211c565b60405180910390fd5b868160050160006101000a81548160ff021916908360ff160217905550858160050160016101000a81548160ff021916908360ff160217905550600085036104b55760015481600101819055506104bf565b8481600101819055505b838160040181905550828160030181905550818160020181905550877f64d54b9f1762fee59e9954486e380b4a0085df6054d4d589ae9b6ad805319d838888888888886040516105149695949392919061213c565b60405180910390a25050505050505050565b61052e61188c565b600060036000838152602001908152602001600020905060008160050160009054906101000a900460ff1660ff161415801561057f575060008160050160019054906101000a900460ff1660ff1614155b6105be576040517f08c379a00000000000000000000000000000000000000000000000000000000081526004016105b59061211c565b60405180910390fd5b600081600401819055506000816003018190555060008160020181905550817f80bed4ceeb2dfbd88f61cca1c30bc6dede3047d1862345ef30f1cbc44c2016d760405160405180910390a25050565b61061561188c565b60006003600084815260200190815260200160002090508060000160009054906101000a900460ff161561067e576040517f08c379a0000000000000000000000000000000000000000000000000000000008152600401610675906121e9565b60405180910390fd5b8060050160009054906101000a900460ff1660ff168260ff1614806106b957508060050160019054906101000a900460ff1660ff168260ff16145b6106f8576040517f08c379a00000000000000000000000000000000000000000000000000000000081526004016106ef90612255565b60405180910390fd5b60018160000160006101000a81548160ff021916908315150217905550818160000160016101000a81548160ff021916908360ff16021790555060008160070154826006015461074891906122a4565b905060005b600560008681526020019081526020016000208054905081101561092c576000600560008781526020019081526020016000208281548110610792576107916122d8565b5b9060005260206000200160009054906101000a900473ffffffffffffffffffffffffffffffffffffffff16905060006004600088815260200190815260200160002060008373ffffffffffffffffffffffffffffffffffffffff1673ffffffffffffffffffffffffffffffffffffffff16815260200190815260200160002060008760ff16815260200190815260200160002090508560ff168160040160009054906101000a900460ff1660ff161461084c57505061092c565b60008560050160009054906101000a900460ff1660ff168260040160009054906101000a900460ff1660ff16036108ca576064866001015460646108909190612307565b86886006015485600201546108a5919061236a565b6108af919061239b565b6108b9919061239b565b6108c3919061236a565b9050610913565b6064866001015460646108dd9190612307565b86886007015485600201546108f2919061236a565b6108fc919061239b565b610906919061239b565b610910919061236a565b90505b808260030181905550505050808060010191505061074d565b50837fce9132b398f004c2439d9df899fbaab5d9bb01c6dd02a720728f73eac95e578f8460405161095d91906123dd565b60405180910390a250505050565b60036020528060005260406000206000915090508060000160009054906101000a900460ff16908060000160019054906101000a900460ff16908060010154908060020154908060030154908060040154908060050160009054906101000a900460ff16908060050160019054906101000a900460ff1690806006015490806007015490508a565b60015481565b610a01611add565b600060036000848152602001908152602001600020905080604051806101400160405290816000820160009054906101000a900460ff161515151581526020016000820160019054906101000a900460ff1660ff1660ff168152602001600182015481526020016002820154815260200160038201548152602001600482015481526020016005820160009054906101000a900460ff1660ff1660ff1681526020016005820160019054906101000a900460ff1660ff1660ff16815260200160068201548152602001600782015481525050915050919050565b610ae361188c565b610aed6000611913565b565b610af761188c565b6000600660008373ffffffffffffffffffffffffffffffffffffffff1673ffffffffffffffffffffffffffffffffffffffff16815260200190815260200160002060006101000a81548160ff02191690831515021790555050565b60056020528160005260406000208181548110610b6e57600080fd5b906000526020600020016000915091509054906101000a900473ffffffffffffffffffffffffffffffffffffffff1681565b60008060009054906101000a900473ffffffffffffffffffffffffffffffffffffffff16905090565b60008211610c0c576040517f08c379a0000000000000000000000000000000000000000000000000000000008152600401610c0390612444565b60405180910390fd5b60006003600085815260200190815260200160002090506000816004015411610c6a576040517f08c379a0000000000000000000000000000000000000000000000000000000008152600401610c61906124b0565b60405180910390fd5b6000816003015403610cb1576040517f08c379a0000000000000000000000000000000000000000000000000000000008152600401610ca89061251c565b60405180910390fd5b8060000160009054906101000a900460ff1615610d03576040517f08c379a0000000000000000000000000000000000000000000000000000000008152600401610cfa906125ae565b60405180910390fd5b80600401544211610d49576040517f08c379a0000000000000000000000000000000000000000000000000000000008152600401610d4090612640565b60405180910390fd5b60025481600201548260030154610d6091906122a4565b610d6a9190612307565b4210610dab576040517f08c379a0000000000000000000000000000000000000000000000000000000008152600401610da2906126ac565b60405180910390fd5b82341015610dee576040517f08c379a0000000000000000000000000000000000000000000000000000000008152600401610de590612718565b60405180910390fd5b8060050160009054906101000a900460ff1660ff168260ff1603610e2c5782816006016000828254610e2091906122a4565b92505081905550610f74565b8060050160019054906101000a900460ff1660ff168260ff1603610e6a5782816007016000828254610e5e91906122a4565b92505081905550610f73565b60008160050160009054906101000a900460ff1660ff161480610ea1575060008160050160019054906101000a900460ff1660ff16145b610ee0576040517f08c379a0000000000000000000000000000000000000000000000000000000008152600401610ed790612784565b60405180910390fd5b60008160050160009054906101000a900460ff1660ff1603610f3957818160050160006101000a81548160ff021916908360ff16021790555082816006016000828254610f2d91906122a4565b92505081905550610f72565b818160050160016101000a81548160ff021916908360ff16021790555082816007016000828254610f6a91906122a4565b925050819055505b5b5b60006004600086815260200190815260200160002060003373ffffffffffffffffffffffffffffffffffffffff1673ffffffffffffffffffffffffffffffffffffffff16815260200190815260200160002060008460ff16815260200190815260200160002090506000816002015411156110095783816002016000828254610ffd91906122a4565b92505081905550611161565b6040518060c001604052808681526020013373ffffffffffffffffffffffffffffffffffffffff168152602001858152602001600081526020018460ff168152602001600015158152506004600087815260200190815260200160002060003373ffffffffffffffffffffffffffffffffffffffff1673ffffffffffffffffffffffffffffffffffffffff16815260200190815260200160002060008560ff1681526020019081526020016000206000820151816000015560208201518160010160006101000a81548173ffffffffffffffffffffffffffffffffffffffff021916908373ffffffffffffffffffffffffffffffffffffffff160217905550604082015181600201556060820151816003015560808201518160040160006101000a81548160ff021916908360ff16021790555060a08201518160040160016101000a81548160ff0219169083151502179055509050505b60056000868152602001908152602001600020339080600181540180825580915050600190039060005260206000200160009091909190916101000a81548173ffffffffffffffffffffffffffffffffffffffff021916908373ffffffffffffffffffffffffffffffffffffffff1602179055503373ffffffffffffffffffffffffffffffffffffffff16857fbfcd8f4e47cc529f86cdc7eab8fb80e015a298e021fcaee72df1f76dd57cf48785878660010154604051611224939291906127a4565b60405180910390a35050505050565b61123b61188c565b600060036000898152602001908152602001600020905060008160050160009054906101000a900460ff1660ff1614801561128a575060008160050160019054906101000a900460ff1660ff16145b6112c9576040517f08c379a00000000000000000000000000000000000000000000000000000000081526004016112c090612827565b60405180910390fd5b8382846112d691906122a4565b11611316576040517f08c379a000000000000000000000000000000000000000000000000000000000815260040161130d906128b9565b60405180910390fd5b868160050160006101000a81548160ff021916908360ff160217905550858160050160016101000a81548160ff021916908360ff16021790555060008503611368576001548160010181905550611372565b8481600101819055505b838160040181905550828160030181905550818160020181905550877ff20ac1968341f42b49114b784ae775809f5eda9345a4620ecc2766d0b14ed4c48888888888886040516113c79695949392919061213c565b60405180910390a25050505050505050565b6113e161188c565b600073ffffffffffffffffffffffffffffffffffffffff168173ffffffffffffffffffffffffffffffffffffffff16036114535760006040517f1e4fbdf700000000000000000000000000000000000000000000000000000000815260040161144a9190611f9d565b60405180910390fd5b61145c81611913565b50565b61146761188c565b6001600660008373ffffffffffffffffffffffffffffffffffffffff1673ffffffffffffffffffffffffffffffffffffffff16815260200190815260200160002060006101000a81548160ff02191690831515021790555050565b60006003600083815260200190815260200160002090508060000160009054906101000a900460ff1661152a576040517f08c379a000000000000000000000000000000000000000000000000000000000815260040161152190612925565b60405180910390fd5b60005b600560008481526020019081526020016000208054905081101561163f573373ffffffffffffffffffffffffffffffffffffffff16600560008581526020019081526020016000208281548110611587576115866122d8565b5b9060005260206000200160009054906101000a900473ffffffffffffffffffffffffffffffffffffffff1673ffffffffffffffffffffffffffffffffffffffff16031561163f57600160056000858152602001908152602001600020805490506115f19190612307565b8103611632576040517f08c379a000000000000000000000000000000000000000000000000000000000815260040161162990612991565b60405180910390fd5b808060010191505061152d565b5060008160000160019054906101000a900460ff1660ff16905060006004600085815260200190815260200160002060003373ffffffffffffffffffffffffffffffffffffffff1673ffffffffffffffffffffffffffffffffffffffff168152602001908152602001600020600083815260200190815260200160002090508060040160019054906101000a900460ff1615611710576040517f08c379a000000000000000000000000000000000000000000000000000000000815260040161170790612a23565b60405180910390fd5b6000816003015411611757576040517f08c379a000000000000000000000000000000000000000000000000000000000815260040161174e90612a8f565b60405180910390fd5b6000611762336119d7565b90506117728183600301546119e1565b60018260040160016101000a81548160ff0219169083151502179055503373ffffffffffffffffffffffffffffffffffffffff16857f117469dc6e53cc28b431071a5558d9ba93ba1fa0a223492d196a9fa9e541c0d78460040160009054906101000a900460ff1685600301546040516117ed929190612aaf565b60405180910390a35050505050565b600460205282600052604060002060205281600052604060002060205280600052604060002060009250925050508060000154908060010160009054906101000a900473ffffffffffffffffffffffffffffffffffffffff16908060020154908060030154908060040160009054906101000a900460ff16908060040160019054906101000a900460ff16905086565b611894611ad5565b73ffffffffffffffffffffffffffffffffffffffff166118b2610ba0565b73ffffffffffffffffffffffffffffffffffffffff1614611911576118d5611ad5565b6040517f118cdaa70000000000000000000000000000000000000000000000000000000081526004016119089190611f9d565b60405180910390fd5b565b60008060009054906101000a900473ffffffffffffffffffffffffffffffffffffffff169050816000806101000a81548173ffffffffffffffffffffffffffffffffffffffff021916908373ffffffffffffffffffffffffffffffffffffffff1602179055508173ffffffffffffffffffffffffffffffffffffffff168173ffffffffffffffffffffffffffffffffffffffff167f8be0079c531659141344cd1fd0a4f28419497f9722a3daafe3b4186f6b6457e060405160405180910390a35050565b6000819050919050565b80471015611a24576040517f08c379a0000000000000000000000000000000000000000000000000000000008152600401611a1b90612b24565b60405180910390fd5b60008273ffffffffffffffffffffffffffffffffffffffff1682604051611a4a90612b75565b60006040518083038185875af1925050503d8060008114611a87576040519150601f19603f3d011682016040523d82523d6000602084013e611a8c565b606091505b5050905080611ad0576040517f08c379a0000000000000000000000000000000000000000000000000000000008152600401611ac790612bd6565b60405180910390fd5b505050565b600033905090565b604051806101400160405280600015158152602001600060ff16815260200160008152602001600081526020016000815260200160008152602001600060ff168152602001600060ff16815260200160008152602001600081525090565b600080fd5b6000819050919050565b611b5381611b40565b8114611b5e57600080fd5b50565b600081359050611b7081611b4a565b92915050565b600060ff82169050919050565b611b8c81611b76565b8114611b9757600080fd5b50565b600081359050611ba981611b83565b92915050565b600080600080600080600060e0888a031215611bce57611bcd611b3b565b5b6000611bdc8a828b01611b61565b9750506020611bed8a828b01611b9a565b9650506040611bfe8a828b01611b9a565b9550506060611c0f8a828b01611b61565b9450506080611c208a828b01611b61565b93505060a0611c318a828b01611b61565b92505060c0611c428a828b01611b61565b91505092959891949750929550565b600060208284031215611c6757611c66611b3b565b5b6000611c7584828501611b61565b91505092915050565b60008060408385031215611c9557611c94611b3b565b5b6000611ca385828601611b61565b9250506020611cb485828601611b9a565b9150509250929050565b60008115159050919050565b611cd381611cbe565b82525050565b611ce281611b76565b82525050565b611cf181611b40565b82525050565b600061014082019050611d0d600083018d611cca565b611d1a602083018c611cd9565b611d27604083018b611ce8565b611d34606083018a611ce8565b611d416080830189611ce8565b611d4e60a0830188611ce8565b611d5b60c0830187611cd9565b611d6860e0830186611cd9565b611d76610100830185611ce8565b611d84610120830184611ce8565b9b9a5050505050505050505050565b6000602082019050611da86000830184611ce8565b92915050565b611db781611cbe565b82525050565b611dc681611b76565b82525050565b611dd581611b40565b82525050565b61014082016000820151611df26000850182611dae565b506020820151611e056020850182611dbd565b506040820151611e186040850182611dcc565b506060820151611e2b6060850182611dcc565b506080820151611e3e6080850182611dcc565b5060a0820151611e5160a0850182611dcc565b5060c0820151611e6460c0850182611dbd565b5060e0820151611e7760e0850182611dbd565b50610100820151611e8c610100850182611dcc565b50610120820151611ea1610120850182611dcc565b50505050565b600061014082019050611ebd6000830184611ddb565b92915050565b600073ffffffffffffffffffffffffffffffffffffffff82169050919050565b6000611eee82611ec3565b9050919050565b611efe81611ee3565b8114611f0957600080fd5b50565b600081359050611f1b81611ef5565b92915050565b600060208284031215611f3757611f36611b3b565b5b6000611f4584828501611f0c565b91505092915050565b60008060408385031215611f6557611f64611b3b565b5b6000611f7385828601611b61565b9250506020611f8485828601611b61565b9150509250929050565b611f9781611ee3565b82525050565b6000602082019050611fb26000830184611f8e565b92915050565b600080600060608486031215611fd157611fd0611b3b565b5b6000611fdf86828701611b61565b9350506020611ff086828701611b61565b925050604061200186828701611b9a565b9150509250925092565b60008060006060848603121561202457612023611b3b565b5b600061203286828701611b61565b935050602061204386828701611f0c565b925050604061205486828701611b61565b9150509250925092565b600060c0820190506120736000830189611ce8565b6120806020830188611f8e565b61208d6040830187611ce8565b61209a6060830186611ce8565b6120a76080830185611cd9565b6120b460a0830184611cca565b979650505050505050565b600082825260208201905092915050565b7f446562617465206973206e6f7420637265617465642079657400000000000000600082015250565b60006121066019836120bf565b9150612111826120d0565b602082019050919050565b60006020820190508181036000830152612135816120f9565b9050919050565b600060c0820190506121516000830189611cd9565b61215e6020830188611cd9565b61216b6040830187611ce8565b6121786060830186611ce8565b6121856080830185611ce8565b61219260a0830184611ce8565b979650505050505050565b7f44656261746520697320616c7265616479207265736f6c766564000000000000600082015250565b60006121d3601a836120bf565b91506121de8261219d565b602082019050919050565b60006020820190508181036000830152612202816121c6565b9050919050565b7f496e76616c6964206167656e7400000000000000000000000000000000000000600082015250565b600061223f600d836120bf565b915061224a82612209565b602082019050919050565b6000602082019050818103600083015261226e81612232565b9050919050565b7f4e487b7100000000000000000000000000000000000000000000000000000000600052601160045260246000fd5b60006122af82611b40565b91506122ba83611b40565b92508282019050808211156122d2576122d1612275565b5b92915050565b7f4e487b7100000000000000000000000000000000000000000000000000000000600052603260045260246000fd5b600061231282611b40565b915061231d83611b40565b925082820390508181111561233557612334612275565b5b92915050565b7f4e487b7100000000000000000000000000000000000000000000000000000000600052601260045260246000fd5b600061237582611b40565b915061238083611b40565b9250826123905761238f61233b565b5b828204905092915050565b60006123a682611b40565b91506123b183611b40565b92508282026123bf81611b40565b915082820484148315176123d6576123d5612275565b5b5092915050565b60006020820190506123f26000830184611cd9565b92915050565b7f416d6f756e74206d7573742062652067726561746572207468616e2030000000600082015250565b600061242e601d836120bf565b9150612439826123f8565b602082019050919050565b6000602082019050818103600083015261245d81612421565b9050919050565b7f446562617465206973206e6f74207075626c6973686564207965740000000000600082015250565b600061249a601b836120bf565b91506124a582612464565b602082019050919050565b600060208201905081810360008301526124c98161248d565b9050919050565b7f4465626174652069732064656c65746564000000000000000000000000000000600082015250565b60006125066011836120bf565b9150612511826124d0565b602082019050919050565b60006020820190508181036000830152612535816124f9565b9050919050565b7f4465626174652073657373696f6e20697320616c7265616479207265736f6c7660008201527f6564000000000000000000000000000000000000000000000000000000000000602082015250565b60006125986022836120bf565b91506125a38261253c565b604082019050919050565b600060208201905081810360008301526125c78161258b565b9050919050565b7f4465626174652073657373696f6e206973206e6f74207374617274656420796560008201527f7400000000000000000000000000000000000000000000000000000000000000602082015250565b600061262a6021836120bf565b9150612635826125ce565b604082019050919050565b600060208201905081810360008301526126598161261d565b9050919050565b7f43616e206e6f7420706c6163652062657420616e796d6f726500000000000000600082015250565b60006126966019836120bf565b91506126a182612660565b602082019050919050565b600060208201905081810360008301526126c581612689565b9050919050565b7f46656520616d6f756e74206973206e6f7420636f727265637400000000000000600082015250565b60006127026019836120bf565b915061270d826126cc565b602082019050919050565b60006020820190508181036000830152612731816126f5565b9050919050565b7f426f7468206167656e74732061726520616c72656164792061737369676e6564600082015250565b600061276e6020836120bf565b915061277982612738565b602082019050919050565b6000602082019050818103600083015261279d81612761565b9050919050565b60006060820190506127b96000830186611cd9565b6127c66020830185611ce8565b6127d36040830184611ce8565b949350505050565b7f44656261746520697320616c7265616479206372656174656400000000000000600082015250565b60006128116019836120bf565b915061281c826127db565b602082019050919050565b6000602082019050818103600083015261284081612804565b9050919050565b7f456e642074696d65206d7573742062652067726561746572207468616e20707560008201527f626c69632074696d650000000000000000000000000000000000000000000000602082015250565b60006128a36029836120bf565b91506128ae82612847565b604082019050919050565b600060208201905081810360008301526128d281612896565b9050919050565b7f446562617465206973206e6f74207265736f6c76656420796574000000000000600082015250565b600061290f601a836120bf565b915061291a826128d9565b602082019050919050565b6000602082019050818103600083015261293e81612902565b9050919050565b7f596f7520646964206e6f74206a6f696e656420696e2074686520626174746c65600082015250565b600061297b6020836120bf565b915061298682612945565b602082019050919050565b600060208201905081810360008301526129aa8161296e565b9050919050565b7f596f75206861766520616c726561647920636c61696d6564207468652072657760008201527f6172640000000000000000000000000000000000000000000000000000000000602082015250565b6000612a0d6023836120bf565b9150612a18826129b1565b604082019050919050565b60006020820190508181036000830152612a3c81612a00565b9050919050565b7f596f7520646964206e6f742077696e2074686520626574000000000000000000600082015250565b6000612a796017836120bf565b9150612a8482612a43565b602082019050919050565b60006020820190508181036000830152612aa881612a6c565b9050919050565b6000604082019050612ac46000830185611cd9565b612ad16020830184611ce8565b9392505050565b7f496e73756666696369656e742062616c616e636520696e20636f6e7472616374600082015250565b6000612b0e6020836120bf565b9150612b1982612ad8565b602082019050919050565b60006020820190508181036000830152612b3d81612b01565b9050919050565b600081905092915050565b50565b6000612b5f600083612b44565b9150612b6a82612b4f565b600082019050919050565b6000612b8082612b52565b9150819050919050565b7f5472616e7366657220746f6b656e206661696c65640000000000000000000000600082015250565b6000612bc06015836120bf565b9150612bcb82612b8a565b602082019050919050565b60006020820190508181036000830152612bef81612bb3565b905091905056fea26469706673582212207298d3e4bb983646cd6bddf6ab8f4deeea44640f8004d80008ab7fe1a108a03d64736f6c634300081c0033",
  "linkReferences": {},
  "deployedLinkReferences": {}
}