{
  "_format": "hh-sol-artifact-1",
  "contractName": "AIDebate",
  "sourceName": "contracts/Debate.sol",
  "abi": [
    {
      "inputs": [
        {
          "internalType": "address",
          "name": "initialOwner",
          "type": "address"
        }
      ],
      "stateMutability": "nonpayable",
      "type": "constructor"
    },
    {
      "inputs": [],
      "name": "InvalidInitialization",
      "type": "error"
    },
    {
      "inputs": [],
      "name": "NotInitializing",
      "type": "error"
    },
    {
      "inputs": [
        {
          "internalType": "address",
          "name": "owner",
          "type": "address"
        }
      ],
      "name": "OwnableInvalidOwner",
      "type": "error"
    },
    {
      "inputs": [
        {
          "internalType": "address",
          "name": "account",
          "type": "address"
        }
      ],
      "name": "OwnableUnauthorizedAccount",
      "type": "error"
    },
    {
      "anonymous": false,
      "inputs": [
        {
          "indexed": true,
          "internalType": "uint256",
          "name": "debateId",
          "type": "uint256"
        },
        {
          "indexed": true,
          "internalType": "address",
          "name": "bettor",
          "type": "address"
        },
        {
          "indexed": false,
          "internalType": "uint8",
          "name": "chosenAgentId",
          "type": "uint8"
        },
        {
          "indexed": false,
          "internalType": "uint256",
          "name": "amount",
          "type": "uint256"
        },
        {
          "indexed": false,
          "internalType": "uint256",
          "name": "platformFeePercentage",
          "type": "uint256"
        }
      ],
      "name": "BetPlaced",
      "type": "event"
    },
    {
      "anonymous": false,
      "inputs": [
        {
          "indexed": true,
          "internalType": "uint256",
          "name": "debateId",
          "type": "uint256"
        },
        {
          "indexed": false,
          "internalType": "uint8",
          "name": "winnAgentId",
          "type": "uint8"
        }
      ],
      "name": "DebateResolved",
      "type": "event"
    },
    {
      "anonymous": false,
      "inputs": [
        {
          "indexed": true,
          "internalType": "uint256",
          "name": "debateId",
          "type": "uint256"
        },
        {
          "indexed": false,
          "internalType": "uint8",
          "name": "winnAgentId",
          "type": "uint8"
        }
      ],
      "name": "DebateUpdated",
      "type": "event"
    },
    {
      "anonymous": false,
      "inputs": [
        {
          "indexed": false,
          "internalType": "uint64",
          "name": "version",
          "type": "uint64"
        }
      ],
      "name": "Initialized",
      "type": "event"
    },
    {
      "anonymous": false,
      "inputs": [
        {
          "indexed": true,
          "internalType": "address",
          "name": "previousOwner",
          "type": "address"
        },
        {
          "indexed": true,
          "internalType": "address",
          "name": "newOwner",
          "type": "address"
        }
      ],
      "name": "OwnershipTransferred",
      "type": "event"
    },
    {
      "anonymous": false,
      "inputs": [
        {
          "indexed": true,
          "internalType": "uint256",
          "name": "debateId",
          "type": "uint256"
        },
        {
          "indexed": true,
          "internalType": "address",
          "name": "bettor",
          "type": "address"
        },
        {
          "indexed": false,
          "internalType": "uint8",
          "name": "chosenAgentId",
          "type": "uint8"
        },
        {
          "indexed": false,
          "internalType": "uint256",
          "name": "amount",
          "type": "uint256"
        }
      ],
      "name": "UserClaimed",
      "type": "event"
    },
    {
      "inputs": [
        {
          "internalType": "address",
          "name": "_address",
          "type": "address"
        }
      ],
      "name": "addWhitelist",
      "outputs": [],
      "stateMutability": "nonpayable",
      "type": "function"
    },
    {
      "inputs": [
        {
          "internalType": "uint256",
          "name": "",
          "type": "uint256"
        },
        {
          "internalType": "uint256",
          "name": "",
          "type": "uint256"
        }
      ],
      "name": "addressJoinedList",
      "outputs": [
        {
          "internalType": "address",
          "name": "",
          "type": "address"
        }
      ],
      "stateMutability": "view",
      "type": "function"
    },
    {
      "inputs": [
        {
          "internalType": "uint256",
          "name": "",
          "type": "uint256"
        },
        {
          "internalType": "address",
          "name": "",
          "type": "address"
        },
        {
          "internalType": "uint256",
          "name": "",
          "type": "uint256"
        }
      ],
      "name": "betList",
      "outputs": [
        {
          "internalType": "uint256",
          "name": "debateId",
          "type": "uint256"
        },
        {
          "internalType": "address",
          "name": "bettor",
          "type": "address"
        },
        {
          "internalType": "uint256",
          "name": "amount",
          "type": "uint256"
        },
        {
          "internalType": "uint256",
          "name": "winAmount",
          "type": "uint256"
        },
        {
          "internalType": "uint8",
          "name": "chosenAgentId",
          "type": "uint8"
        },
        {
          "internalType": "bool",
          "name": "isClaimed",
          "type": "bool"
        }
      ],
      "stateMutability": "view",
      "type": "function"
    },
    {
      "inputs": [
        {
          "internalType": "uint256",
          "name": "",
          "type": "uint256"
        }
      ],
      "name": "debateList",
      "outputs": [
        {
          "internalType": "bool",
          "name": "isResolved",
          "type": "bool"
        },
        {
          "internalType": "uint8",
          "name": "winAgentId",
          "type": "uint8"
        },
        {
          "internalType": "uint256",
          "name": "platformFeePercentage",
          "type": "uint256"
        },
        {
          "internalType": "uint256",
          "name": "endTimeStamp",
          "type": "uint256"
        },
        {
          "internalType": "uint8",
          "name": "agentAID",
          "type": "uint8"
        },
        {
          "internalType": "uint8",
          "name": "agentBID",
          "type": "uint8"
        },
        {
          "internalType": "uint256",
          "name": "totalAgentABetAmount",
          "type": "uint256"
        },
        {
          "internalType": "uint256",
          "name": "totalAgentBBetAmount",
          "type": "uint256"
        }
      ],
      "stateMutability": "view",
      "type": "function"
    },
    {
      "inputs": [
        {
          "internalType": "uint256",
          "name": "_debateId",
          "type": "uint256"
        }
      ],
      "name": "getDebateInfo",
      "outputs": [
        {
          "components": [
            {
              "internalType": "bool",
              "name": "isResolved",
              "type": "bool"
            },
            {
              "internalType": "uint8",
              "name": "winAgentId",
              "type": "uint8"
            },
            {
              "internalType": "uint256",
              "name": "platformFeePercentage",
              "type": "uint256"
            },
            {
              "internalType": "uint256",
              "name": "endTimeStamp",
              "type": "uint256"
            },
            {
              "internalType": "uint8",
              "name": "agentAID",
              "type": "uint8"
            },
            {
              "internalType": "uint8",
              "name": "agentBID",
              "type": "uint8"
            },
            {
              "internalType": "uint256",
              "name": "totalAgentABetAmount",
              "type": "uint256"
            },
            {
              "internalType": "uint256",
              "name": "totalAgentBBetAmount",
              "type": "uint256"
            }
          ],
          "internalType": "struct AIDebate.Debate",
          "name": "",
          "type": "tuple"
        }
      ],
      "stateMutability": "view",
      "type": "function"
    },
    {
      "inputs": [],
      "name": "owner",
      "outputs": [
        {
          "internalType": "address",
          "name": "",
          "type": "address"
        }
      ],
      "stateMutability": "view",
      "type": "function"
    },
    {
      "inputs": [
        {
          "internalType": "uint256",
          "name": "_debateId",
          "type": "uint256"
        },
        {
          "internalType": "uint256",
          "name": "_amount",
          "type": "uint256"
        },
        {
          "internalType": "uint8",
          "name": "_chosenAgent",
          "type": "uint8"
        },
        {
          "internalType": "uint256",
          "name": "_platformFeePercentage",
          "type": "uint256"
        },
        {
          "internalType": "uint256",
          "name": "_endSessionTimeStamp",
          "type": "uint256"
        }
      ],
      "name": "placeBet",
      "outputs": [],
      "stateMutability": "payable",
      "type": "function"
    },
    {
      "inputs": [
        {
          "internalType": "address",
          "name": "_address",
          "type": "address"
        }
      ],
      "name": "removeWhitelist",
      "outputs": [],
      "stateMutability": "nonpayable",
      "type": "function"
    },
    {
      "inputs": [],
      "name": "renounceOwnership",
      "outputs": [],
      "stateMutability": "nonpayable",
      "type": "function"
    },
    {
      "inputs": [
        {
          "internalType": "uint256",
          "name": "_debateId",
          "type": "uint256"
        },
        {
          "internalType": "uint8",
          "name": "_winAgentId",
          "type": "uint8"
        }
      ],
      "name": "resolveDebate",
      "outputs": [],
      "stateMutability": "nonpayable",
      "type": "function"
    },
    {
      "inputs": [
        {
          "internalType": "address",
          "name": "newOwner",
          "type": "address"
        }
      ],
      "name": "transferOwnership",
      "outputs": [],
      "stateMutability": "nonpayable",
      "type": "function"
    },
    {
      "inputs": [
        {
          "internalType": "uint256",
          "name": "_debateId",
          "type": "uint256"
        }
      ],
      "name": "userClaim",
      "outputs": [],
      "stateMutability": "nonpayable",
      "type": "function"
    },
    {
      "inputs": [
        {
          "internalType": "address",
          "name": "",
          "type": "address"
        }
      ],
      "name": "whitelist",
      "outputs": [
        {
          "internalType": "bool",
          "name": "",
          "type": "bool"
        }
      ],
      "stateMutability": "view",
      "type": "function"
    }
  ],
  "bytecode": "0x608060405234801561001057600080fd5b5060405161244b38038061244b833981810160405281019061003291906101e2565b80600073ffffffffffffffffffffffffffffffffffffffff168173ffffffffffffffffffffffffffffffffffffffff16036100a55760006040517f1e4fbdf700000000000000000000000000000000000000000000000000000000815260040161009c919061021e565b60405180910390fd5b6100b4816100bb60201b60201c565b5050610239565b60008060009054906101000a900473ffffffffffffffffffffffffffffffffffffffff169050816000806101000a81548173ffffffffffffffffffffffffffffffffffffffff021916908373ffffffffffffffffffffffffffffffffffffffff1602179055508173ffffffffffffffffffffffffffffffffffffffff168173ffffffffffffffffffffffffffffffffffffffff167f8be0079c531659141344cd1fd0a4f28419497f9722a3daafe3b4186f6b6457e060405160405180910390a35050565b600080fd5b600073ffffffffffffffffffffffffffffffffffffffff82169050919050565b60006101af82610184565b9050919050565b6101bf816101a4565b81146101ca57600080fd5b50565b6000815190506101dc816101b6565b92915050565b6000602082840312156101f8576101f761017f565b5b6000610206848285016101cd565b91505092915050565b610218816101a4565b82525050565b6000602082019050610233600083018461020f565b92915050565b612203806102486000396000f3fe6080604052600436106100c25760003560e01c80639b19251a1161007f578063f2fde38b11610059578063f2fde38b14610272578063f80f5dd51461029b578063fe43efda146102c4578063fe84d4b6146102ed576100c2565b80639b19251a146101f0578063b947979b1461022d578063ccc6268114610249576100c2565b806339938348146100c75780635b99a0121461010b578063715018a61461014857806378c8cda71461015f5780637a27fbb2146101885780638da5cb5b146101c5575b600080fd5b3480156100d357600080fd5b506100ee60048036038101906100e991906115b0565b61032f565b604051610102989796959493929190611623565b60405180910390f35b34801561011757600080fd5b50610132600480360381019061012d91906115b0565b6103ab565b60405161013f9190611770565b60405180910390f35b34801561015457600080fd5b5061015d610479565b005b34801561016b57600080fd5b50610186600480360381019061018191906117ea565b61048d565b005b34801561019457600080fd5b506101af60048036038101906101aa9190611817565b6104f0565b6040516101bc9190611866565b60405180910390f35b3480156101d157600080fd5b506101da61053e565b6040516101e79190611866565b60405180910390f35b3480156101fc57600080fd5b50610217600480360381019061021291906117ea565b610567565b6040516102249190611881565b60405180910390f35b610247600480360381019061024291906118c8565b610587565b005b34801561025557600080fd5b50610270600480360381019061026b9190611943565b610acb565b005b34801561027e57600080fd5b50610299600480360381019061029491906117ea565b610e21565b005b3480156102a757600080fd5b506102c260048036038101906102bd91906117ea565b610ea7565b005b3480156102d057600080fd5b506102eb60048036038101906102e691906115b0565b610f0a565b005b3480156102f957600080fd5b50610314600480360381019061030f9190611983565b611244565b604051610326969594939291906119d6565b60405180910390f35b60016020528060005260406000206000915090508060000160009054906101000a900460ff16908060000160019054906101000a900460ff16908060010154908060020154908060030160009054906101000a900460ff16908060030160019054906101000a900460ff16908060040154908060050154905088565b6103b3611525565b600060016000848152602001908152602001600020905080604051806101000160405290816000820160009054906101000a900460ff161515151581526020016000820160019054906101000a900460ff1660ff1660ff16815260200160018201548152602001600282015481526020016003820160009054906101000a900460ff1660ff1660ff1681526020016003820160019054906101000a900460ff1660ff1660ff16815260200160048201548152602001600582015481525050915050919050565b6104816112d4565b61048b600061135b565b565b6104956112d4565b6000600460008373ffffffffffffffffffffffffffffffffffffffff1673ffffffffffffffffffffffffffffffffffffffff16815260200190815260200160002060006101000a81548160ff02191690831515021790555050565b6003602052816000526040600020818154811061050c57600080fd5b906000526020600020016000915091509054906101000a900473ffffffffffffffffffffffffffffffffffffffff1681565b60008060009054906101000a900473ffffffffffffffffffffffffffffffffffffffff16905090565b60046020528060005260406000206000915054906101000a900460ff1681565b600084116105ca576040517f08c379a00000000000000000000000000000000000000000000000000000000081526004016105c190611a94565b60405180910390fd5b60006001600087815260200190815260200160002090508060000160009054906101000a900460ff1615610633576040517f08c379a000000000000000000000000000000000000000000000000000000000815260040161062a90611b26565b60405180910390fd5b84341015610676576040517f08c379a000000000000000000000000000000000000000000000000000000000815260040161066d90611b92565b60405180910390fd5b8060030160009054906101000a900460ff1660ff168460ff16036106b457848160040160008282546106a89190611be1565b9250508190555061080e565b8060030160019054906101000a900460ff1660ff168460ff16036106f257848160050160008282546106e69190611be1565b9250508190555061080d565b60008160030160009054906101000a900460ff1660ff161480610729575060008160030160019054906101000a900460ff1660ff16145b610768576040517f08c379a000000000000000000000000000000000000000000000000000000000815260040161075f90611c61565b60405180910390fd5b60008160030160009054906101000a900460ff1660ff16036107c157838160030160006101000a81548160ff021916908360ff160217905550848160040160008282546107b59190611be1565b925050819055506107fa565b838160030160016101000a81548160ff021916908360ff160217905550848160050160008282546107f29190611be1565b925050819055505b8281600101819055508181600201819055505b5b60006002600088815260200190815260200160002060003373ffffffffffffffffffffffffffffffffffffffff1673ffffffffffffffffffffffffffffffffffffffff16815260200190815260200160002060008660ff16815260200190815260200160002090506000816002015411156108a357858160020160008282546108979190611be1565b925050819055506109fb565b6040518060c001604052808881526020013373ffffffffffffffffffffffffffffffffffffffff168152602001878152602001600081526020018660ff168152602001600015158152506002600089815260200190815260200160002060003373ffffffffffffffffffffffffffffffffffffffff1673ffffffffffffffffffffffffffffffffffffffff16815260200190815260200160002060008760ff1681526020019081526020016000206000820151816000015560208201518160010160006101000a81548173ffffffffffffffffffffffffffffffffffffffff021916908373ffffffffffffffffffffffffffffffffffffffff160217905550604082015181600201556060820151816003015560808201518160040160006101000a81548160ff021916908360ff16021790555060a08201518160040160016101000a81548160ff0219169083151502179055509050505b60036000888152602001908152602001600020339080600181540180825580915050600190039060005260206000200160009091909190916101000a81548173ffffffffffffffffffffffffffffffffffffffff021916908373ffffffffffffffffffffffffffffffffffffffff1602179055503373ffffffffffffffffffffffffffffffffffffffff16877fbfcd8f4e47cc529f86cdc7eab8fb80e015a298e021fcaee72df1f76dd57cf487878988604051610aba93929190611c81565b60405180910390a350505050505050565b60006001600084815260200190815260200160002090508060000160009054906101000a900460ff1615610b34576040517f08c379a0000000000000000000000000000000000000000000000000000000008152600401610b2b90611d04565b60405180910390fd5b8060030160009054906101000a900460ff1660ff168260ff161480610b6f57508060030160019054906101000a900460ff1660ff168260ff16145b610bae576040517f08c379a0000000000000000000000000000000000000000000000000000000008152600401610ba590611d70565b60405180910390fd5b60018160000160006101000a81548160ff021916908315150217905550818160000160016101000a81548160ff021916908360ff160217905550600081600501548260040154610bfe9190611be1565b905060005b6003600086815260200190815260200160002080549050811015610de2576000600360008781526020019081526020016000208281548110610c4857610c47611d90565b5b9060005260206000200160009054906101000a900473ffffffffffffffffffffffffffffffffffffffff16905060006002600088815260200190815260200160002060008373ffffffffffffffffffffffffffffffffffffffff1673ffffffffffffffffffffffffffffffffffffffff16815260200190815260200160002060008760ff16815260200190815260200160002090508560ff168160040160009054906101000a900460ff1660ff1614610d02575050610de2565b60008560030160009054906101000a900460ff1660ff168260040160009054906101000a900460ff1660ff1603610d8057606486600101546064610d469190611dbf565b8688600401548560020154610d5b9190611e22565b610d659190611e53565b610d6f9190611e53565b610d799190611e22565b9050610dc9565b606486600101546064610d939190611dbf565b8688600501548560020154610da89190611e22565b610db29190611e53565b610dbc9190611e53565b610dc69190611e22565b90505b8082600301819055505050508080600101915050610c03565b50837fce9132b398f004c2439d9df899fbaab5d9bb01c6dd02a720728f73eac95e578f84604051610e139190611e95565b60405180910390a250505050565b610e296112d4565b600073ffffffffffffffffffffffffffffffffffffffff168173ffffffffffffffffffffffffffffffffffffffff1603610e9b5760006040517f1e4fbdf7000000000000000000000000000000000000000000000000000000008152600401610e929190611866565b60405180910390fd5b610ea48161135b565b50565b610eaf6112d4565b6001600460008373ffffffffffffffffffffffffffffffffffffffff1673ffffffffffffffffffffffffffffffffffffffff16815260200190815260200160002060006101000a81548160ff02191690831515021790555050565b60006001600083815260200190815260200160002090508060000160009054906101000a900460ff16610f72576040517f08c379a0000000000000000000000000000000000000000000000000000000008152600401610f6990611efc565b60405180910390fd5b60005b6003600084815260200190815260200160002080549050811015611087573373ffffffffffffffffffffffffffffffffffffffff16600360008581526020019081526020016000208281548110610fcf57610fce611d90565b5b9060005260206000200160009054906101000a900473ffffffffffffffffffffffffffffffffffffffff1673ffffffffffffffffffffffffffffffffffffffff16031561108757600160036000858152602001908152602001600020805490506110399190611dbf565b810361107a576040517f08c379a000000000000000000000000000000000000000000000000000000000815260040161107190611f68565b60405180910390fd5b8080600101915050610f75565b5060008160000160019054906101000a900460ff1660ff16905060006002600085815260200190815260200160002060003373ffffffffffffffffffffffffffffffffffffffff1673ffffffffffffffffffffffffffffffffffffffff168152602001908152602001600020600083815260200190815260200160002090508060040160019054906101000a900460ff1615611158576040517f08c379a000000000000000000000000000000000000000000000000000000000815260040161114f90611ffa565b60405180910390fd5b600081600301541161119f576040517f08c379a000000000000000000000000000000000000000000000000000000000815260040161119690612066565b60405180910390fd5b60006111aa3361141f565b90506111ba818360030154611429565b60018260040160016101000a81548160ff0219169083151502179055503373ffffffffffffffffffffffffffffffffffffffff16857f117469dc6e53cc28b431071a5558d9ba93ba1fa0a223492d196a9fa9e541c0d78460040160009054906101000a900460ff168560030154604051611235929190612086565b60405180910390a35050505050565b600260205282600052604060002060205281600052604060002060205280600052604060002060009250925050508060000154908060010160009054906101000a900473ffffffffffffffffffffffffffffffffffffffff16908060020154908060030154908060040160009054906101000a900460ff16908060040160019054906101000a900460ff16905086565b6112dc61151d565b73ffffffffffffffffffffffffffffffffffffffff166112fa61053e565b73ffffffffffffffffffffffffffffffffffffffff16146113595761131d61151d565b6040517f118cdaa70000000000000000000000000000000000000000000000000000000081526004016113509190611866565b60405180910390fd5b565b60008060009054906101000a900473ffffffffffffffffffffffffffffffffffffffff169050816000806101000a81548173ffffffffffffffffffffffffffffffffffffffff021916908373ffffffffffffffffffffffffffffffffffffffff1602179055508173ffffffffffffffffffffffffffffffffffffffff168173ffffffffffffffffffffffffffffffffffffffff167f8be0079c531659141344cd1fd0a4f28419497f9722a3daafe3b4186f6b6457e060405160405180910390a35050565b6000819050919050565b8047101561146c576040517f08c379a0000000000000000000000000000000000000000000000000000000008152600401611463906120fb565b60405180910390fd5b60008273ffffffffffffffffffffffffffffffffffffffff16826040516114929061214c565b60006040518083038185875af1925050503d80600081146114cf576040519150601f19603f3d011682016040523d82523d6000602084013e6114d4565b606091505b5050905080611518576040517f08c379a000000000000000000000000000000000000000000000000000000000815260040161150f906121ad565b60405180910390fd5b505050565b600033905090565b604051806101000160405280600015158152602001600060ff1681526020016000815260200160008152602001600060ff168152602001600060ff16815260200160008152602001600081525090565b600080fd5b6000819050919050565b61158d8161157a565b811461159857600080fd5b50565b6000813590506115aa81611584565b92915050565b6000602082840312156115c6576115c5611575565b5b60006115d48482850161159b565b91505092915050565b60008115159050919050565b6115f2816115dd565b82525050565b600060ff82169050919050565b61160e816115f8565b82525050565b61161d8161157a565b82525050565b600061010082019050611639600083018b6115e9565b611646602083018a611605565b6116536040830189611614565b6116606060830188611614565b61166d6080830187611605565b61167a60a0830186611605565b61168760c0830185611614565b61169460e0830184611614565b9998505050505050505050565b6116aa816115dd565b82525050565b6116b9816115f8565b82525050565b6116c88161157a565b82525050565b610100820160008201516116e560008501826116a1565b5060208201516116f860208501826116b0565b50604082015161170b60408501826116bf565b50606082015161171e60608501826116bf565b50608082015161173160808501826116b0565b5060a082015161174460a08501826116b0565b5060c082015161175760c08501826116bf565b5060e082015161176a60e08501826116bf565b50505050565b60006101008201905061178660008301846116ce565b92915050565b600073ffffffffffffffffffffffffffffffffffffffff82169050919050565b60006117b78261178c565b9050919050565b6117c7816117ac565b81146117d257600080fd5b50565b6000813590506117e4816117be565b92915050565b600060208284031215611800576117ff611575565b5b600061180e848285016117d5565b91505092915050565b6000806040838503121561182e5761182d611575565b5b600061183c8582860161159b565b925050602061184d8582860161159b565b9150509250929050565b611860816117ac565b82525050565b600060208201905061187b6000830184611857565b92915050565b600060208201905061189660008301846115e9565b92915050565b6118a5816115f8565b81146118b057600080fd5b50565b6000813590506118c28161189c565b92915050565b600080600080600060a086880312156118e4576118e3611575565b5b60006118f28882890161159b565b95505060206119038882890161159b565b9450506040611914888289016118b3565b93505060606119258882890161159b565b92505060806119368882890161159b565b9150509295509295909350565b6000806040838503121561195a57611959611575565b5b60006119688582860161159b565b9250506020611979858286016118b3565b9150509250929050565b60008060006060848603121561199c5761199b611575565b5b60006119aa8682870161159b565b93505060206119bb868287016117d5565b92505060406119cc8682870161159b565b9150509250925092565b600060c0820190506119eb6000830189611614565b6119f86020830188611857565b611a056040830187611614565b611a126060830186611614565b611a1f6080830185611605565b611a2c60a08301846115e9565b979650505050505050565b600082825260208201905092915050565b7f416d6f756e74206d7573742062652067726561746572207468616e2030000000600082015250565b6000611a7e601d83611a37565b9150611a8982611a48565b602082019050919050565b60006020820190508181036000830152611aad81611a71565b9050919050565b7f4465626174652073657373696f6e20697320616c7265616479207265736f6c7660008201527f6564000000000000000000000000000000000000000000000000000000000000602082015250565b6000611b10602283611a37565b9150611b1b82611ab4565b604082019050919050565b60006020820190508181036000830152611b3f81611b03565b9050919050565b7f46656520616d6f756e74206973206e6f7420636f727265637400000000000000600082015250565b6000611b7c601983611a37565b9150611b8782611b46565b602082019050919050565b60006020820190508181036000830152611bab81611b6f565b9050919050565b7f4e487b7100000000000000000000000000000000000000000000000000000000600052601160045260246000fd5b6000611bec8261157a565b9150611bf78361157a565b9250828201905080821115611c0f57611c0e611bb2565b5b92915050565b7f426f7468206167656e74732061726520616c72656164792061737369676e6564600082015250565b6000611c4b602083611a37565b9150611c5682611c15565b602082019050919050565b60006020820190508181036000830152611c7a81611c3e565b9050919050565b6000606082019050611c966000830186611605565b611ca36020830185611614565b611cb06040830184611614565b949350505050565b7f44656261746520697320616c7265616479207265736f6c766564000000000000600082015250565b6000611cee601a83611a37565b9150611cf982611cb8565b602082019050919050565b60006020820190508181036000830152611d1d81611ce1565b9050919050565b7f496e76616c6964206167656e7400000000000000000000000000000000000000600082015250565b6000611d5a600d83611a37565b9150611d6582611d24565b602082019050919050565b60006020820190508181036000830152611d8981611d4d565b9050919050565b7f4e487b7100000000000000000000000000000000000000000000000000000000600052603260045260246000fd5b6000611dca8261157a565b9150611dd58361157a565b9250828203905081811115611ded57611dec611bb2565b5b92915050565b7f4e487b7100000000000000000000000000000000000000000000000000000000600052601260045260246000fd5b6000611e2d8261157a565b9150611e388361157a565b925082611e4857611e47611df3565b5b828204905092915050565b6000611e5e8261157a565b9150611e698361157a565b9250828202611e778161157a565b91508282048414831517611e8e57611e8d611bb2565b5b5092915050565b6000602082019050611eaa6000830184611605565b92915050565b7f446562617465206973206e6f74207265736f6c76656420796574000000000000600082015250565b6000611ee6601a83611a37565b9150611ef182611eb0565b602082019050919050565b60006020820190508181036000830152611f1581611ed9565b9050919050565b7f596f7520646964206e6f74206a6f696e656420696e2074686520626174746c65600082015250565b6000611f52602083611a37565b9150611f5d82611f1c565b602082019050919050565b60006020820190508181036000830152611f8181611f45565b9050919050565b7f596f75206861766520616c726561647920636c61696d6564207468652072657760008201527f6172640000000000000000000000000000000000000000000000000000000000602082015250565b6000611fe4602383611a37565b9150611fef82611f88565b604082019050919050565b6000602082019050818103600083015261201381611fd7565b9050919050565b7f596f7520646964206e6f742077696e2074686520626574000000000000000000600082015250565b6000612050601783611a37565b915061205b8261201a565b602082019050919050565b6000602082019050818103600083015261207f81612043565b9050919050565b600060408201905061209b6000830185611605565b6120a86020830184611614565b9392505050565b7f496e73756666696369656e742062616c616e636520696e20636f6e7472616374600082015250565b60006120e5602083611a37565b91506120f0826120af565b602082019050919050565b60006020820190508181036000830152612114816120d8565b9050919050565b600081905092915050565b50565b600061213660008361211b565b915061214182612126565b600082019050919050565b600061215782612129565b9150819050919050565b7f5472616e7366657220746f6b656e206661696c65640000000000000000000000600082015250565b6000612197601583611a37565b91506121a282612161565b602082019050919050565b600060208201905081810360008301526121c68161218a565b905091905056fea264697066735822122008ac10a6c1ee5023b082c55d5b268e942118f1c243dece0adffccde157dd602464736f6c634300081c0033",
  "linkReferences": {},
  "deployedLinkReferences": {}
}