{
  "_format": "hh-sol-artifact-1",
  "contractName": "AIDebate",
  "sourceName": "contracts/Debate.sol",
  "abi": [
    {
      "inputs": [
        {
          "internalType": "address",
          "name": "initialOwner",
          "type": "address"
        }
      ],
      "stateMutability": "nonpayable",
      "type": "constructor"
    },
    {
      "inputs": [],
      "name": "InvalidInitialization",
      "type": "error"
    },
    {
      "inputs": [],
      "name": "NotInitializing",
      "type": "error"
    },
    {
      "inputs": [
        {
          "internalType": "address",
          "name": "owner",
          "type": "address"
        }
      ],
      "name": "OwnableInvalidOwner",
      "type": "error"
    },
    {
      "inputs": [
        {
          "internalType": "address",
          "name": "account",
          "type": "address"
        }
      ],
      "name": "OwnableUnauthorizedAccount",
      "type": "error"
    },
    {
      "anonymous": false,
      "inputs": [
        {
          "indexed": true,
          "internalType": "uint256",
          "name": "debateId",
          "type": "uint256"
        },
        {
          "indexed": true,
          "internalType": "address",
          "name": "bettor",
          "type": "address"
        },
        {
          "indexed": false,
          "internalType": "uint8",
          "name": "chosenAgentId",
          "type": "uint8"
        },
        {
          "indexed": false,
          "internalType": "uint256",
          "name": "amount",
          "type": "uint256"
        },
        {
          "indexed": false,
          "internalType": "uint256",
          "name": "platformFeePercentage",
          "type": "uint256"
        }
      ],
      "name": "BetPlaced",
      "type": "event"
    },
    {
      "anonymous": false,
      "inputs": [
        {
          "indexed": true,
          "internalType": "uint256",
          "name": "debateId",
          "type": "uint256"
        },
        {
          "indexed": false,
          "internalType": "uint8",
          "name": "agentAID",
          "type": "uint8"
        },
        {
          "indexed": false,
          "internalType": "uint8",
          "name": "agentBID",
          "type": "uint8"
        },
        {
          "indexed": false,
          "internalType": "uint256",
          "name": "platformFeePercentage",
          "type": "uint256"
        },
        {
          "indexed": false,
          "internalType": "uint256",
          "name": "publicTimeStamp",
          "type": "uint256"
        },
        {
          "indexed": false,
          "internalType": "uint256",
          "name": "startTimeStamp",
          "type": "uint256"
        },
        {
          "indexed": false,
          "internalType": "uint256",
          "name": "sessionDuration",
          "type": "uint256"
        }
      ],
      "name": "DebateCreated",
      "type": "event"
    },
    {
      "anonymous": false,
      "inputs": [
        {
          "indexed": true,
          "internalType": "uint256",
          "name": "debateId",
          "type": "uint256"
        }
      ],
      "name": "DebateDeleted",
      "type": "event"
    },
    {
      "anonymous": false,
      "inputs": [
        {
          "indexed": true,
          "internalType": "uint256",
          "name": "debateId",
          "type": "uint256"
        },
        {
          "indexed": false,
          "internalType": "uint8",
          "name": "winnAgentId",
          "type": "uint8"
        }
      ],
      "name": "DebateResolved",
      "type": "event"
    },
    {
      "anonymous": false,
      "inputs": [
        {
          "indexed": true,
          "internalType": "uint256",
          "name": "debateId",
          "type": "uint256"
        },
        {
          "indexed": false,
          "internalType": "uint8",
          "name": "agentAID",
          "type": "uint8"
        },
        {
          "indexed": false,
          "internalType": "uint8",
          "name": "agentBID",
          "type": "uint8"
        },
        {
          "indexed": false,
          "internalType": "uint256",
          "name": "platformFeePercentage",
          "type": "uint256"
        },
        {
          "indexed": false,
          "internalType": "uint256",
          "name": "publicTimeStamp",
          "type": "uint256"
        },
        {
          "indexed": false,
          "internalType": "uint256",
          "name": "startTimeStamp",
          "type": "uint256"
        },
        {
          "indexed": false,
          "internalType": "uint256",
          "name": "sessionDuration",
          "type": "uint256"
        }
      ],
      "name": "DebateUpdated",
      "type": "event"
    },
    {
      "anonymous": false,
      "inputs": [
        {
          "indexed": false,
          "internalType": "uint64",
          "name": "version",
          "type": "uint64"
        }
      ],
      "name": "Initialized",
      "type": "event"
    },
    {
      "anonymous": false,
      "inputs": [
        {
          "indexed": true,
          "internalType": "address",
          "name": "previousOwner",
          "type": "address"
        },
        {
          "indexed": true,
          "internalType": "address",
          "name": "newOwner",
          "type": "address"
        }
      ],
      "name": "OwnershipTransferred",
      "type": "event"
    },
    {
      "anonymous": false,
      "inputs": [
        {
          "indexed": true,
          "internalType": "uint256",
          "name": "debateId",
          "type": "uint256"
        },
        {
          "indexed": true,
          "internalType": "address",
          "name": "bettor",
          "type": "address"
        },
        {
          "indexed": false,
          "internalType": "uint8",
          "name": "chosenAgentId",
          "type": "uint8"
        },
        {
          "indexed": false,
          "internalType": "uint256",
          "name": "amount",
          "type": "uint256"
        }
      ],
      "name": "UserClaimed",
      "type": "event"
    },
    {
      "inputs": [
        {
          "internalType": "address",
          "name": "_address",
          "type": "address"
        }
      ],
      "name": "addWhitelist",
      "outputs": [],
      "stateMutability": "nonpayable",
      "type": "function"
    },
    {
      "inputs": [
        {
          "internalType": "uint256",
          "name": "",
          "type": "uint256"
        },
        {
          "internalType": "uint256",
          "name": "",
          "type": "uint256"
        }
      ],
      "name": "addressJoinedList",
      "outputs": [
        {
          "internalType": "address",
          "name": "",
          "type": "address"
        }
      ],
      "stateMutability": "view",
      "type": "function"
    },
    {
      "inputs": [
        {
          "internalType": "uint256",
          "name": "_debateId",
          "type": "uint256"
        },
        {
          "internalType": "uint8",
          "name": "_agentAID",
          "type": "uint8"
        },
        {
          "internalType": "uint8",
          "name": "_agentBID",
          "type": "uint8"
        },
        {
          "internalType": "uint256",
          "name": "_platformFeePercentage",
          "type": "uint256"
        },
        {
          "internalType": "uint256",
          "name": "_publicTimeStamp",
          "type": "uint256"
        },
        {
          "internalType": "uint256",
          "name": "_startTimeStamp",
          "type": "uint256"
        },
        {
          "internalType": "uint256",
          "name": "_sessionDuration",
          "type": "uint256"
        }
      ],
      "name": "adminCreateDebate",
      "outputs": [],
      "stateMutability": "nonpayable",
      "type": "function"
    },
    {
      "inputs": [
        {
          "internalType": "uint256",
          "name": "_debateId",
          "type": "uint256"
        },
        {
          "internalType": "uint8",
          "name": "_winAgentId",
          "type": "uint8"
        }
      ],
      "name": "adminResolveDebate",
      "outputs": [],
      "stateMutability": "nonpayable",
      "type": "function"
    },
    {
      "inputs": [
        {
          "internalType": "uint256",
          "name": "_debateId",
          "type": "uint256"
        },
        {
          "internalType": "uint8",
          "name": "_agentAID",
          "type": "uint8"
        },
        {
          "internalType": "uint8",
          "name": "_agentBID",
          "type": "uint8"
        },
        {
          "internalType": "uint256",
          "name": "_platformFeePercentage",
          "type": "uint256"
        },
        {
          "internalType": "uint256",
          "name": "_publicTimeStamp",
          "type": "uint256"
        },
        {
          "internalType": "uint256",
          "name": "_startTimeStamp",
          "type": "uint256"
        },
        {
          "internalType": "uint256",
          "name": "_sessionDuration",
          "type": "uint256"
        }
      ],
      "name": "adminUpdateDebate",
      "outputs": [],
      "stateMutability": "nonpayable",
      "type": "function"
    },
    {
      "inputs": [
        {
          "internalType": "uint256",
          "name": "_debateId",
          "type": "uint256"
        }
      ],
      "name": "admindDeleteDebate",
      "outputs": [],
      "stateMutability": "nonpayable",
      "type": "function"
    },
    {
      "inputs": [
        {
          "internalType": "uint256",
          "name": "",
          "type": "uint256"
        },
        {
          "internalType": "address",
          "name": "",
          "type": "address"
        },
        {
          "internalType": "uint256",
          "name": "",
          "type": "uint256"
        }
      ],
      "name": "betList",
      "outputs": [
        {
          "internalType": "uint256",
          "name": "debateId",
          "type": "uint256"
        },
        {
          "internalType": "address",
          "name": "bettor",
          "type": "address"
        },
        {
          "internalType": "uint256",
          "name": "amount",
          "type": "uint256"
        },
        {
          "internalType": "uint256",
          "name": "winAmount",
          "type": "uint256"
        },
        {
          "internalType": "uint8",
          "name": "chosenAgentId",
          "type": "uint8"
        },
        {
          "internalType": "bool",
          "name": "isClaimed",
          "type": "bool"
        }
      ],
      "stateMutability": "view",
      "type": "function"
    },
    {
      "inputs": [
        {
          "internalType": "uint256",
          "name": "",
          "type": "uint256"
        }
      ],
      "name": "debateList",
      "outputs": [
        {
          "internalType": "bool",
          "name": "isResolved",
          "type": "bool"
        },
        {
          "internalType": "uint8",
          "name": "winAgentId",
          "type": "uint8"
        },
        {
          "internalType": "uint256",
          "name": "platformFeePercentage",
          "type": "uint256"
        },
        {
          "internalType": "uint256",
          "name": "sessionDuration",
          "type": "uint256"
        },
        {
          "internalType": "uint256",
          "name": "startTimeStamp",
          "type": "uint256"
        },
        {
          "internalType": "uint256",
          "name": "publicTimeStamp",
          "type": "uint256"
        },
        {
          "internalType": "uint8",
          "name": "agentAID",
          "type": "uint8"
        },
        {
          "internalType": "uint8",
          "name": "agentBID",
          "type": "uint8"
        },
        {
          "internalType": "uint256",
          "name": "totalAgentABetAmount",
          "type": "uint256"
        },
        {
          "internalType": "uint256",
          "name": "totalAgentBBetAmount",
          "type": "uint256"
        }
      ],
      "stateMutability": "view",
      "type": "function"
    },
    {
      "inputs": [],
      "name": "defaultPlatformFeePercentage",
      "outputs": [
        {
          "internalType": "uint256",
          "name": "",
          "type": "uint256"
        }
      ],
      "stateMutability": "view",
      "type": "function"
    },
    {
      "inputs": [
        {
          "internalType": "uint256",
          "name": "_debateId",
          "type": "uint256"
        }
      ],
      "name": "getDebateInfo",
      "outputs": [
        {
          "components": [
            {
              "internalType": "bool",
              "name": "isResolved",
              "type": "bool"
            },
            {
              "internalType": "uint8",
              "name": "winAgentId",
              "type": "uint8"
            },
            {
              "internalType": "uint256",
              "name": "platformFeePercentage",
              "type": "uint256"
            },
            {
              "internalType": "uint256",
              "name": "sessionDuration",
              "type": "uint256"
            },
            {
              "internalType": "uint256",
              "name": "startTimeStamp",
              "type": "uint256"
            },
            {
              "internalType": "uint256",
              "name": "publicTimeStamp",
              "type": "uint256"
            },
            {
              "internalType": "uint8",
              "name": "agentAID",
              "type": "uint8"
            },
            {
              "internalType": "uint8",
              "name": "agentBID",
              "type": "uint8"
            },
            {
              "internalType": "uint256",
              "name": "totalAgentABetAmount",
              "type": "uint256"
            },
            {
              "internalType": "uint256",
              "name": "totalAgentBBetAmount",
              "type": "uint256"
            }
          ],
          "internalType": "struct AIDebate.Debate",
          "name": "",
          "type": "tuple"
        }
      ],
      "stateMutability": "view",
      "type": "function"
    },
    {
      "inputs": [],
      "name": "owner",
      "outputs": [
        {
          "internalType": "address",
          "name": "",
          "type": "address"
        }
      ],
      "stateMutability": "view",
      "type": "function"
    },
    {
      "inputs": [
        {
          "internalType": "uint256",
          "name": "_debateId",
          "type": "uint256"
        },
        {
          "internalType": "uint256",
          "name": "_amount",
          "type": "uint256"
        },
        {
          "internalType": "uint8",
          "name": "_chosenAgent",
          "type": "uint8"
        }
      ],
      "name": "placeBet",
      "outputs": [],
      "stateMutability": "payable",
      "type": "function"
    },
    {
      "inputs": [
        {
          "internalType": "address",
          "name": "_address",
          "type": "address"
        }
      ],
      "name": "removeWhitelist",
      "outputs": [],
      "stateMutability": "nonpayable",
      "type": "function"
    },
    {
      "inputs": [],
      "name": "renounceOwnership",
      "outputs": [],
      "stateMutability": "nonpayable",
      "type": "function"
    },
    {
      "inputs": [
        {
          "internalType": "address",
          "name": "newOwner",
          "type": "address"
        }
      ],
      "name": "transferOwnership",
      "outputs": [],
      "stateMutability": "nonpayable",
      "type": "function"
    },
    {
      "inputs": [
        {
          "internalType": "uint256",
          "name": "_debateId",
          "type": "uint256"
        }
      ],
      "name": "userClaim",
      "outputs": [],
      "stateMutability": "nonpayable",
      "type": "function"
    }
  ],
  "bytecode": "0x60806040526005600155620493e060025534801561001c57600080fd5b50604051612e73380380612e73833981810160405281019061003e91906101ee565b80600073ffffffffffffffffffffffffffffffffffffffff168173ffffffffffffffffffffffffffffffffffffffff16036100b15760006040517f1e4fbdf70000000000000000000000000000000000000000000000000000000081526004016100a8919061022a565b60405180910390fd5b6100c0816100c760201b60201c565b5050610245565b60008060009054906101000a900473ffffffffffffffffffffffffffffffffffffffff169050816000806101000a81548173ffffffffffffffffffffffffffffffffffffffff021916908373ffffffffffffffffffffffffffffffffffffffff1602179055508173ffffffffffffffffffffffffffffffffffffffff168173ffffffffffffffffffffffffffffffffffffffff167f8be0079c531659141344cd1fd0a4f28419497f9722a3daafe3b4186f6b6457e060405160405180910390a35050565b600080fd5b600073ffffffffffffffffffffffffffffffffffffffff82169050919050565b60006101bb82610190565b9050919050565b6101cb816101b0565b81146101d657600080fd5b50565b6000815190506101e8816101c2565b92915050565b6000602082840312156102045761020361018b565b5b6000610212848285016101d9565b91505092915050565b610224816101b0565b82525050565b600060208201905061023f600083018461021b565b92915050565b612c1f806102546000396000f3fe6080604052600436106100f35760003560e01c80638da5cb5b1161008a578063f2fde38b11610059578063f2fde38b1461030e578063f80f5dd514610337578063fe43efda14610360578063fe84d4b614610389576100f3565b80638da5cb5b146102755780639e14427e146102a0578063c681b98f146102bc578063d1d9f6ac146102e5576100f3565b80635b99a012116100c65780635b99a012146101bb578063715018a6146101f857806378c8cda71461020f5780637a27fbb214610238576100f3565b806321dc2a9d146100f8578063310026df14610121578063399383481461014a5780634367413114610190575b600080fd5b34801561010457600080fd5b5061011f600480360381019061011a9190611ba2565b6103cb565b005b34801561012d57600080fd5b5061014860048036038101906101439190611c44565b610526565b005b34801561015657600080fd5b50610171600480360381019061016c9190611c84565b610884565b6040516101879a99989796959493929190611cea565b60405180910390f35b34801561019c57600080fd5b506101a561090c565b6040516101b29190611d86565b60405180910390f35b3480156101c757600080fd5b506101e260048036038101906101dd9190611c84565b610912565b6040516101ef9190611e9a565b60405180910390f35b34801561020457600080fd5b5061020d6109f4565b005b34801561021b57600080fd5b5061023660048036038101906102319190611f14565b610a08565b005b34801561024457600080fd5b5061025f600480360381019061025a9190611f41565b610a6b565b60405161026c9190611f90565b60405180910390f35b34801561028157600080fd5b5061028a610ab9565b6040516102979190611f90565b60405180910390f35b6102ba60048036038101906102b59190611fab565b610ae2565b005b3480156102c857600080fd5b506102e360048036038101906102de9190611ba2565b61113f565b005b3480156102f157600080fd5b5061030c60048036038101906103079190611c84565b6112e5565b005b34801561031a57600080fd5b5061033560048036038101906103309190611f14565b6113cc565b005b34801561034357600080fd5b5061035e60048036038101906103599190611f14565b611452565b005b34801561036c57600080fd5b5061038760048036038101906103829190611c84565b6114b5565b005b34801561039557600080fd5b506103b060048036038101906103ab9190611ffe565b6117ef565b6040516103c296959493929190612051565b60405180910390f35b6103d361187f565b600060036000898152602001908152602001600020905060008160050160009054906101000a900460ff1660ff1614158015610424575060008160050160019054906101000a900460ff1660ff1614155b610463576040517f08c379a000000000000000000000000000000000000000000000000000000000815260040161045a9061210f565b60405180910390fd5b868160050160006101000a81548160ff021916908360ff160217905550858160050160016101000a81548160ff021916908360ff160217905550600085036104b55760015481600101819055506104bf565b8481600101819055505b838160040181905550828160030181905550818160020181905550877f64d54b9f1762fee59e9954486e380b4a0085df6054d4d589ae9b6ad805319d838888888888886040516105149695949392919061212f565b60405180910390a25050505050505050565b61052e61187f565b60006003600084815260200190815260200160002090508060000160009054906101000a900460ff1615610597576040517f08c379a000000000000000000000000000000000000000000000000000000000815260040161058e906121dc565b60405180910390fd5b8060050160009054906101000a900460ff1660ff168260ff1614806105d257508060050160019054906101000a900460ff1660ff168260ff16145b610611576040517f08c379a000000000000000000000000000000000000000000000000000000000815260040161060890612248565b60405180910390fd5b60018160000160006101000a81548160ff021916908315150217905550818160000160016101000a81548160ff021916908360ff1602179055506000816007015482600601546106619190612297565b905060005b60056000868152602001908152602001600020805490508110156108455760006005600087815260200190815260200160002082815481106106ab576106aa6122cb565b5b9060005260206000200160009054906101000a900473ffffffffffffffffffffffffffffffffffffffff16905060006004600088815260200190815260200160002060008373ffffffffffffffffffffffffffffffffffffffff1673ffffffffffffffffffffffffffffffffffffffff16815260200190815260200160002060008760ff16815260200190815260200160002090508560ff168160040160009054906101000a900460ff1660ff1614610765575050610845565b60008560050160009054906101000a900460ff1660ff168260040160009054906101000a900460ff1660ff16036107e3576064866001015460646107a991906122fa565b86886006015485600201546107be919061235d565b6107c8919061238e565b6107d2919061238e565b6107dc919061235d565b905061082c565b6064866001015460646107f691906122fa565b868860070154856002015461080b919061235d565b610815919061238e565b61081f919061238e565b610829919061235d565b90505b8082600301819055505050508080600101915050610666565b50837fce9132b398f004c2439d9df899fbaab5d9bb01c6dd02a720728f73eac95e578f8460405161087691906123d0565b60405180910390a250505050565b60036020528060005260406000206000915090508060000160009054906101000a900460ff16908060000160019054906101000a900460ff16908060010154908060020154908060030154908060040154908060050160009054906101000a900460ff16908060050160019054906101000a900460ff1690806006015490806007015490508a565b60015481565b61091a611ad0565b600060036000848152602001908152602001600020905080604051806101400160405290816000820160009054906101000a900460ff161515151581526020016000820160019054906101000a900460ff1660ff1660ff168152602001600182015481526020016002820154815260200160038201548152602001600482015481526020016005820160009054906101000a900460ff1660ff1660ff1681526020016005820160019054906101000a900460ff1660ff1660ff16815260200160068201548152602001600782015481525050915050919050565b6109fc61187f565b610a066000611906565b565b610a1061187f565b6000600660008373ffffffffffffffffffffffffffffffffffffffff1673ffffffffffffffffffffffffffffffffffffffff16815260200190815260200160002060006101000a81548160ff02191690831515021790555050565b60056020528160005260406000208181548110610a8757600080fd5b906000526020600020016000915091509054906101000a900473ffffffffffffffffffffffffffffffffffffffff1681565b60008060009054906101000a900473ffffffffffffffffffffffffffffffffffffffff16905090565b60008211610b25576040517f08c379a0000000000000000000000000000000000000000000000000000000008152600401610b1c90612437565b60405180910390fd5b60006003600085815260200190815260200160002090506000816004015411610b83576040517f08c379a0000000000000000000000000000000000000000000000000000000008152600401610b7a906124a3565b60405180910390fd5b6000816003015403610bca576040517f08c379a0000000000000000000000000000000000000000000000000000000008152600401610bc19061250f565b60405180910390fd5b8060000160009054906101000a900460ff1615610c1c576040517f08c379a0000000000000000000000000000000000000000000000000000000008152600401610c13906125a1565b60405180910390fd5b80600401544211610c62576040517f08c379a0000000000000000000000000000000000000000000000000000000008152600401610c5990612633565b60405180910390fd5b80600201548160030154610c769190612297565b4210610cb7576040517f08c379a0000000000000000000000000000000000000000000000000000000008152600401610cae9061269f565b60405180910390fd5b82341015610cfa576040517f08c379a0000000000000000000000000000000000000000000000000000000008152600401610cf19061270b565b60405180910390fd5b8060050160009054906101000a900460ff1660ff168260ff1603610d385782816006016000828254610d2c9190612297565b92505081905550610e80565b8060050160019054906101000a900460ff1660ff168260ff1603610d765782816007016000828254610d6a9190612297565b92505081905550610e7f565b60008160050160009054906101000a900460ff1660ff161480610dad575060008160050160019054906101000a900460ff1660ff16145b610dec576040517f08c379a0000000000000000000000000000000000000000000000000000000008152600401610de390612777565b60405180910390fd5b60008160050160009054906101000a900460ff1660ff1603610e4557818160050160006101000a81548160ff021916908360ff16021790555082816006016000828254610e399190612297565b92505081905550610e7e565b818160050160016101000a81548160ff021916908360ff16021790555082816007016000828254610e769190612297565b925050819055505b5b5b60006004600086815260200190815260200160002060003373ffffffffffffffffffffffffffffffffffffffff1673ffffffffffffffffffffffffffffffffffffffff16815260200190815260200160002060008460ff1681526020019081526020016000209050600081600201541115610f155783816002016000828254610f099190612297565b9250508190555061106d565b6040518060c001604052808681526020013373ffffffffffffffffffffffffffffffffffffffff168152602001858152602001600081526020018460ff168152602001600015158152506004600087815260200190815260200160002060003373ffffffffffffffffffffffffffffffffffffffff1673ffffffffffffffffffffffffffffffffffffffff16815260200190815260200160002060008560ff1681526020019081526020016000206000820151816000015560208201518160010160006101000a81548173ffffffffffffffffffffffffffffffffffffffff021916908373ffffffffffffffffffffffffffffffffffffffff160217905550604082015181600201556060820151816003015560808201518160040160006101000a81548160ff021916908360ff16021790555060a08201518160040160016101000a81548160ff0219169083151502179055509050505b60056000868152602001908152602001600020339080600181540180825580915050600190039060005260206000200160009091909190916101000a81548173ffffffffffffffffffffffffffffffffffffffff021916908373ffffffffffffffffffffffffffffffffffffffff1602179055503373ffffffffffffffffffffffffffffffffffffffff16857fbfcd8f4e47cc529f86cdc7eab8fb80e015a298e021fcaee72df1f76dd57cf4878587866001015460405161113093929190612797565b60405180910390a35050505050565b61114761187f565b600060036000898152602001908152602001600020905060008160050160009054906101000a900460ff1660ff16148015611196575060008160050160019054906101000a900460ff1660ff16145b6111d5576040517f08c379a00000000000000000000000000000000000000000000000000000000081526004016111cc9061281a565b60405180910390fd5b8382846111e29190612297565b11611222576040517f08c379a0000000000000000000000000000000000000000000000000000000008152600401611219906128ac565b60405180910390fd5b868160050160006101000a81548160ff021916908360ff160217905550858160050160016101000a81548160ff021916908360ff1602179055506000850361127457600154816001018190555061127e565b8481600101819055505b838160040181905550828160030181905550818160020181905550877ff20ac1968341f42b49114b784ae775809f5eda9345a4620ecc2766d0b14ed4c48888888888886040516112d39695949392919061212f565b60405180910390a25050505050505050565b6112ed61187f565b600060036000838152602001908152602001600020905060008160050160009054906101000a900460ff1660ff161415801561133e575060008160050160019054906101000a900460ff1660ff1614155b61137d576040517f08c379a00000000000000000000000000000000000000000000000000000000081526004016113749061210f565b60405180910390fd5b600081600401819055506000816003018190555060008160020181905550817f80bed4ceeb2dfbd88f61cca1c30bc6dede3047d1862345ef30f1cbc44c2016d760405160405180910390a25050565b6113d461187f565b600073ffffffffffffffffffffffffffffffffffffffff168173ffffffffffffffffffffffffffffffffffffffff16036114465760006040517f1e4fbdf700000000000000000000000000000000000000000000000000000000815260040161143d9190611f90565b60405180910390fd5b61144f81611906565b50565b61145a61187f565b6001600660008373ffffffffffffffffffffffffffffffffffffffff1673ffffffffffffffffffffffffffffffffffffffff16815260200190815260200160002060006101000a81548160ff02191690831515021790555050565b60006003600083815260200190815260200160002090508060000160009054906101000a900460ff1661151d576040517f08c379a000000000000000000000000000000000000000000000000000000000815260040161151490612918565b60405180910390fd5b60005b6005600084815260200190815260200160002080549050811015611632573373ffffffffffffffffffffffffffffffffffffffff1660056000858152602001908152602001600020828154811061157a576115796122cb565b5b9060005260206000200160009054906101000a900473ffffffffffffffffffffffffffffffffffffffff1673ffffffffffffffffffffffffffffffffffffffff16031561163257600160056000858152602001908152602001600020805490506115e491906122fa565b8103611625576040517f08c379a000000000000000000000000000000000000000000000000000000000815260040161161c90612984565b60405180910390fd5b8080600101915050611520565b5060008160000160019054906101000a900460ff1660ff16905060006004600085815260200190815260200160002060003373ffffffffffffffffffffffffffffffffffffffff1673ffffffffffffffffffffffffffffffffffffffff168152602001908152602001600020600083815260200190815260200160002090508060040160019054906101000a900460ff1615611703576040517f08c379a00000000000000000000000000000000000000000000000000000000081526004016116fa90612a16565b60405180910390fd5b600081600301541161174a576040517f08c379a000000000000000000000000000000000000000000000000000000000815260040161174190612a82565b60405180910390fd5b6000611755336119ca565b90506117658183600301546119d4565b60018260040160016101000a81548160ff0219169083151502179055503373ffffffffffffffffffffffffffffffffffffffff16857f117469dc6e53cc28b431071a5558d9ba93ba1fa0a223492d196a9fa9e541c0d78460040160009054906101000a900460ff1685600301546040516117e0929190612aa2565b60405180910390a35050505050565b600460205282600052604060002060205281600052604060002060205280600052604060002060009250925050508060000154908060010160009054906101000a900473ffffffffffffffffffffffffffffffffffffffff16908060020154908060030154908060040160009054906101000a900460ff16908060040160019054906101000a900460ff16905086565b611887611ac8565b73ffffffffffffffffffffffffffffffffffffffff166118a5610ab9565b73ffffffffffffffffffffffffffffffffffffffff1614611904576118c8611ac8565b6040517f118cdaa70000000000000000000000000000000000000000000000000000000081526004016118fb9190611f90565b60405180910390fd5b565b60008060009054906101000a900473ffffffffffffffffffffffffffffffffffffffff169050816000806101000a81548173ffffffffffffffffffffffffffffffffffffffff021916908373ffffffffffffffffffffffffffffffffffffffff1602179055508173ffffffffffffffffffffffffffffffffffffffff168173ffffffffffffffffffffffffffffffffffffffff167f8be0079c531659141344cd1fd0a4f28419497f9722a3daafe3b4186f6b6457e060405160405180910390a35050565b6000819050919050565b80471015611a17576040517f08c379a0000000000000000000000000000000000000000000000000000000008152600401611a0e90612b17565b60405180910390fd5b60008273ffffffffffffffffffffffffffffffffffffffff1682604051611a3d90612b68565b60006040518083038185875af1925050503d8060008114611a7a576040519150601f19603f3d011682016040523d82523d6000602084013e611a7f565b606091505b5050905080611ac3576040517f08c379a0000000000000000000000000000000000000000000000000000000008152600401611aba90612bc9565b60405180910390fd5b505050565b600033905090565b604051806101400160405280600015158152602001600060ff16815260200160008152602001600081526020016000815260200160008152602001600060ff168152602001600060ff16815260200160008152602001600081525090565b600080fd5b6000819050919050565b611b4681611b33565b8114611b5157600080fd5b50565b600081359050611b6381611b3d565b92915050565b600060ff82169050919050565b611b7f81611b69565b8114611b8a57600080fd5b50565b600081359050611b9c81611b76565b92915050565b600080600080600080600060e0888a031215611bc157611bc0611b2e565b5b6000611bcf8a828b01611b54565b9750506020611be08a828b01611b8d565b9650506040611bf18a828b01611b8d565b9550506060611c028a828b01611b54565b9450506080611c138a828b01611b54565b93505060a0611c248a828b01611b54565b92505060c0611c358a828b01611b54565b91505092959891949750929550565b60008060408385031215611c5b57611c5a611b2e565b5b6000611c6985828601611b54565b9250506020611c7a85828601611b8d565b9150509250929050565b600060208284031215611c9a57611c99611b2e565b5b6000611ca884828501611b54565b91505092915050565b60008115159050919050565b611cc681611cb1565b82525050565b611cd581611b69565b82525050565b611ce481611b33565b82525050565b600061014082019050611d00600083018d611cbd565b611d0d602083018c611ccc565b611d1a604083018b611cdb565b611d27606083018a611cdb565b611d346080830189611cdb565b611d4160a0830188611cdb565b611d4e60c0830187611ccc565b611d5b60e0830186611ccc565b611d69610100830185611cdb565b611d77610120830184611cdb565b9b9a5050505050505050505050565b6000602082019050611d9b6000830184611cdb565b92915050565b611daa81611cb1565b82525050565b611db981611b69565b82525050565b611dc881611b33565b82525050565b61014082016000820151611de56000850182611da1565b506020820151611df86020850182611db0565b506040820151611e0b6040850182611dbf565b506060820151611e1e6060850182611dbf565b506080820151611e316080850182611dbf565b5060a0820151611e4460a0850182611dbf565b5060c0820151611e5760c0850182611db0565b5060e0820151611e6a60e0850182611db0565b50610100820151611e7f610100850182611dbf565b50610120820151611e94610120850182611dbf565b50505050565b600061014082019050611eb06000830184611dce565b92915050565b600073ffffffffffffffffffffffffffffffffffffffff82169050919050565b6000611ee182611eb6565b9050919050565b611ef181611ed6565b8114611efc57600080fd5b50565b600081359050611f0e81611ee8565b92915050565b600060208284031215611f2a57611f29611b2e565b5b6000611f3884828501611eff565b91505092915050565b60008060408385031215611f5857611f57611b2e565b5b6000611f6685828601611b54565b9250506020611f7785828601611b54565b9150509250929050565b611f8a81611ed6565b82525050565b6000602082019050611fa56000830184611f81565b92915050565b600080600060608486031215611fc457611fc3611b2e565b5b6000611fd286828701611b54565b9350506020611fe386828701611b54565b9250506040611ff486828701611b8d565b9150509250925092565b60008060006060848603121561201757612016611b2e565b5b600061202586828701611b54565b935050602061203686828701611eff565b925050604061204786828701611b54565b9150509250925092565b600060c0820190506120666000830189611cdb565b6120736020830188611f81565b6120806040830187611cdb565b61208d6060830186611cdb565b61209a6080830185611ccc565b6120a760a0830184611cbd565b979650505050505050565b600082825260208201905092915050565b7f446562617465206973206e6f7420637265617465642079657400000000000000600082015250565b60006120f96019836120b2565b9150612104826120c3565b602082019050919050565b60006020820190508181036000830152612128816120ec565b9050919050565b600060c0820190506121446000830189611ccc565b6121516020830188611ccc565b61215e6040830187611cdb565b61216b6060830186611cdb565b6121786080830185611cdb565b61218560a0830184611cdb565b979650505050505050565b7f44656261746520697320616c7265616479207265736f6c766564000000000000600082015250565b60006121c6601a836120b2565b91506121d182612190565b602082019050919050565b600060208201905081810360008301526121f5816121b9565b9050919050565b7f496e76616c6964206167656e7400000000000000000000000000000000000000600082015250565b6000612232600d836120b2565b915061223d826121fc565b602082019050919050565b6000602082019050818103600083015261226181612225565b9050919050565b7f4e487b7100000000000000000000000000000000000000000000000000000000600052601160045260246000fd5b60006122a282611b33565b91506122ad83611b33565b92508282019050808211156122c5576122c4612268565b5b92915050565b7f4e487b7100000000000000000000000000000000000000000000000000000000600052603260045260246000fd5b600061230582611b33565b915061231083611b33565b925082820390508181111561232857612327612268565b5b92915050565b7f4e487b7100000000000000000000000000000000000000000000000000000000600052601260045260246000fd5b600061236882611b33565b915061237383611b33565b9250826123835761238261232e565b5b828204905092915050565b600061239982611b33565b91506123a483611b33565b92508282026123b281611b33565b915082820484148315176123c9576123c8612268565b5b5092915050565b60006020820190506123e56000830184611ccc565b92915050565b7f416d6f756e74206d7573742062652067726561746572207468616e2030000000600082015250565b6000612421601d836120b2565b915061242c826123eb565b602082019050919050565b6000602082019050818103600083015261245081612414565b9050919050565b7f446562617465206973206e6f74207075626c6973686564207965740000000000600082015250565b600061248d601b836120b2565b915061249882612457565b602082019050919050565b600060208201905081810360008301526124bc81612480565b9050919050565b7f4465626174652069732064656c65746564000000000000000000000000000000600082015250565b60006124f96011836120b2565b9150612504826124c3565b602082019050919050565b60006020820190508181036000830152612528816124ec565b9050919050565b7f4465626174652073657373696f6e20697320616c7265616479207265736f6c7660008201527f6564000000000000000000000000000000000000000000000000000000000000602082015250565b600061258b6022836120b2565b91506125968261252f565b604082019050919050565b600060208201905081810360008301526125ba8161257e565b9050919050565b7f4465626174652073657373696f6e206973206e6f74207374617274656420796560008201527f7400000000000000000000000000000000000000000000000000000000000000602082015250565b600061261d6021836120b2565b9150612628826125c1565b604082019050919050565b6000602082019050818103600083015261264c81612610565b9050919050565b7f43616e206e6f7420706c6163652062657420616e796d6f726500000000000000600082015250565b60006126896019836120b2565b915061269482612653565b602082019050919050565b600060208201905081810360008301526126b88161267c565b9050919050565b7f46656520616d6f756e74206973206e6f7420636f727265637400000000000000600082015250565b60006126f56019836120b2565b9150612700826126bf565b602082019050919050565b60006020820190508181036000830152612724816126e8565b9050919050565b7f426f7468206167656e74732061726520616c72656164792061737369676e6564600082015250565b60006127616020836120b2565b915061276c8261272b565b602082019050919050565b6000602082019050818103600083015261279081612754565b9050919050565b60006060820190506127ac6000830186611ccc565b6127b96020830185611cdb565b6127c66040830184611cdb565b949350505050565b7f44656261746520697320616c7265616479206372656174656400000000000000600082015250565b60006128046019836120b2565b915061280f826127ce565b602082019050919050565b60006020820190508181036000830152612833816127f7565b9050919050565b7f456e642074696d65206d7573742062652067726561746572207468616e20707560008201527f626c69632074696d650000000000000000000000000000000000000000000000602082015250565b60006128966029836120b2565b91506128a18261283a565b604082019050919050565b600060208201905081810360008301526128c581612889565b9050919050565b7f446562617465206973206e6f74207265736f6c76656420796574000000000000600082015250565b6000612902601a836120b2565b915061290d826128cc565b602082019050919050565b60006020820190508181036000830152612931816128f5565b9050919050565b7f596f7520646964206e6f74206a6f696e656420696e2074686520626174746c65600082015250565b600061296e6020836120b2565b915061297982612938565b602082019050919050565b6000602082019050818103600083015261299d81612961565b9050919050565b7f596f75206861766520616c726561647920636c61696d6564207468652072657760008201527f6172640000000000000000000000000000000000000000000000000000000000602082015250565b6000612a006023836120b2565b9150612a0b826129a4565b604082019050919050565b60006020820190508181036000830152612a2f816129f3565b9050919050565b7f596f7520646964206e6f742077696e2074686520626574000000000000000000600082015250565b6000612a6c6017836120b2565b9150612a7782612a36565b602082019050919050565b60006020820190508181036000830152612a9b81612a5f565b9050919050565b6000604082019050612ab76000830185611ccc565b612ac46020830184611cdb565b9392505050565b7f496e73756666696369656e742062616c616e636520696e20636f6e7472616374600082015250565b6000612b016020836120b2565b9150612b0c82612acb565b602082019050919050565b60006020820190508181036000830152612b3081612af4565b9050919050565b600081905092915050565b50565b6000612b52600083612b37565b9150612b5d82612b42565b600082019050919050565b6000612b7382612b45565b9150819050919050565b7f5472616e7366657220746f6b656e206661696c65640000000000000000000000600082015250565b6000612bb36015836120b2565b9150612bbe82612b7d565b602082019050919050565b60006020820190508181036000830152612be281612ba6565b905091905056fea26469706673582212203614235d010e191b9391e170059557f0156a1ff1ca44dc87ec45a2983ef959b464736f6c634300081c0033",
  "linkReferences": {},
  "deployedLinkReferences": {}
}