{
  "_format": "hh-sol-artifact-1",
  "contractName": "AIDebate",
  "sourceName": "contracts/Debate.sol",
  "abi": [
    {
      "inputs": [
        {
          "internalType": "address",
          "name": "initialOwner",
          "type": "address"
        }
      ],
      "stateMutability": "nonpayable",
      "type": "constructor"
    },
    {
      "inputs": [],
      "name": "InvalidInitialization",
      "type": "error"
    },
    {
      "inputs": [],
      "name": "NotInitializing",
      "type": "error"
    },
    {
      "inputs": [
        {
          "internalType": "address",
          "name": "owner",
          "type": "address"
        }
      ],
      "name": "OwnableInvalidOwner",
      "type": "error"
    },
    {
      "inputs": [
        {
          "internalType": "address",
          "name": "account",
          "type": "address"
        }
      ],
      "name": "OwnableUnauthorizedAccount",
      "type": "error"
    },
    {
      "anonymous": false,
      "inputs": [
        {
          "indexed": true,
          "internalType": "uint256",
          "name": "debateId",
          "type": "uint256"
        },
        {
          "indexed": true,
          "internalType": "address",
          "name": "bettor",
          "type": "address"
        },
        {
          "indexed": false,
          "internalType": "uint8",
          "name": "chosenAgentId",
          "type": "uint8"
        },
        {
          "indexed": false,
          "internalType": "uint256",
          "name": "amount",
          "type": "uint256"
        },
        {
          "indexed": false,
          "internalType": "uint256",
          "name": "platformFeePercentage",
          "type": "uint256"
        }
      ],
      "name": "BetPlaced",
      "type": "event"
    },
    {
      "anonymous": false,
      "inputs": [
        {
          "indexed": true,
          "internalType": "uint256",
          "name": "debateId",
          "type": "uint256"
        },
        {
          "indexed": false,
          "internalType": "uint8",
          "name": "winnAgentId",
          "type": "uint8"
        }
      ],
      "name": "DebateResolved",
      "type": "event"
    },
    {
      "anonymous": false,
      "inputs": [
        {
          "indexed": true,
          "internalType": "uint256",
          "name": "debateId",
          "type": "uint256"
        },
        {
          "indexed": false,
          "internalType": "uint8",
          "name": "winnAgentId",
          "type": "uint8"
        }
      ],
      "name": "DebateUpdated",
      "type": "event"
    },
    {
      "anonymous": false,
      "inputs": [
        {
          "indexed": false,
          "internalType": "uint64",
          "name": "version",
          "type": "uint64"
        }
      ],
      "name": "Initialized",
      "type": "event"
    },
    {
      "anonymous": false,
      "inputs": [
        {
          "indexed": true,
          "internalType": "address",
          "name": "previousOwner",
          "type": "address"
        },
        {
          "indexed": true,
          "internalType": "address",
          "name": "newOwner",
          "type": "address"
        }
      ],
      "name": "OwnershipTransferred",
      "type": "event"
    },
    {
      "inputs": [
        {
          "internalType": "address",
          "name": "_address",
          "type": "address"
        }
      ],
      "name": "addWhitelist",
      "outputs": [],
      "stateMutability": "nonpayable",
      "type": "function"
    },
    {
      "inputs": [
        {
          "internalType": "uint256",
          "name": "",
          "type": "uint256"
        },
        {
          "internalType": "uint256",
          "name": "",
          "type": "uint256"
        }
      ],
      "name": "addressJoinedList",
      "outputs": [
        {
          "internalType": "address",
          "name": "",
          "type": "address"
        }
      ],
      "stateMutability": "view",
      "type": "function"
    },
    {
      "inputs": [
        {
          "internalType": "uint256",
          "name": "",
          "type": "uint256"
        },
        {
          "internalType": "address",
          "name": "",
          "type": "address"
        },
        {
          "internalType": "uint256",
          "name": "",
          "type": "uint256"
        }
      ],
      "name": "betList",
      "outputs": [
        {
          "internalType": "uint256",
          "name": "debateId",
          "type": "uint256"
        },
        {
          "internalType": "address",
          "name": "bettor",
          "type": "address"
        },
        {
          "internalType": "uint256",
          "name": "amount",
          "type": "uint256"
        },
        {
          "internalType": "uint256",
          "name": "winAmount",
          "type": "uint256"
        },
        {
          "internalType": "uint8",
          "name": "chosenAgentId",
          "type": "uint8"
        },
        {
          "internalType": "bool",
          "name": "isClaimed",
          "type": "bool"
        }
      ],
      "stateMutability": "view",
      "type": "function"
    },
    {
      "inputs": [
        {
          "internalType": "uint256",
          "name": "",
          "type": "uint256"
        }
      ],
      "name": "debateList",
      "outputs": [
        {
          "internalType": "bool",
          "name": "isResolved",
          "type": "bool"
        },
        {
          "internalType": "uint8",
          "name": "winAgentId",
          "type": "uint8"
        },
        {
          "internalType": "uint256",
          "name": "platformFeePercentage",
          "type": "uint256"
        },
        {
          "internalType": "uint256",
          "name": "endTimeStamp",
          "type": "uint256"
        },
        {
          "internalType": "uint8",
          "name": "agentAID",
          "type": "uint8"
        },
        {
          "internalType": "uint8",
          "name": "agentBID",
          "type": "uint8"
        },
        {
          "internalType": "uint256",
          "name": "totalAgentABetAmount",
          "type": "uint256"
        },
        {
          "internalType": "uint256",
          "name": "totalAgentBBetAmount",
          "type": "uint256"
        }
      ],
      "stateMutability": "view",
      "type": "function"
    },
    {
      "inputs": [
        {
          "internalType": "uint256",
          "name": "_debateId",
          "type": "uint256"
        }
      ],
      "name": "getDebateInfo",
      "outputs": [
        {
          "components": [
            {
              "internalType": "bool",
              "name": "isResolved",
              "type": "bool"
            },
            {
              "internalType": "uint8",
              "name": "winAgentId",
              "type": "uint8"
            },
            {
              "internalType": "uint256",
              "name": "platformFeePercentage",
              "type": "uint256"
            },
            {
              "internalType": "uint256",
              "name": "endTimeStamp",
              "type": "uint256"
            },
            {
              "internalType": "uint8",
              "name": "agentAID",
              "type": "uint8"
            },
            {
              "internalType": "uint8",
              "name": "agentBID",
              "type": "uint8"
            },
            {
              "internalType": "uint256",
              "name": "totalAgentABetAmount",
              "type": "uint256"
            },
            {
              "internalType": "uint256",
              "name": "totalAgentBBetAmount",
              "type": "uint256"
            }
          ],
          "internalType": "struct AIDebate.Debate",
          "name": "",
          "type": "tuple"
        }
      ],
      "stateMutability": "view",
      "type": "function"
    },
    {
      "inputs": [],
      "name": "owner",
      "outputs": [
        {
          "internalType": "address",
          "name": "",
          "type": "address"
        }
      ],
      "stateMutability": "view",
      "type": "function"
    },
    {
      "inputs": [
        {
          "internalType": "uint256",
          "name": "_debateId",
          "type": "uint256"
        },
        {
          "internalType": "uint256",
          "name": "_amount",
          "type": "uint256"
        },
        {
          "internalType": "uint8",
          "name": "_chosenAgent",
          "type": "uint8"
        },
        {
          "internalType": "uint256",
          "name": "_platformFeePercentage",
          "type": "uint256"
        },
        {
          "internalType": "uint256",
          "name": "_endSessionTimeStamp",
          "type": "uint256"
        }
      ],
      "name": "placeBet",
      "outputs": [],
      "stateMutability": "payable",
      "type": "function"
    },
    {
      "inputs": [
        {
          "internalType": "address",
          "name": "_address",
          "type": "address"
        }
      ],
      "name": "removeWhitelist",
      "outputs": [],
      "stateMutability": "nonpayable",
      "type": "function"
    },
    {
      "inputs": [],
      "name": "renounceOwnership",
      "outputs": [],
      "stateMutability": "nonpayable",
      "type": "function"
    },
    {
      "inputs": [
        {
          "internalType": "uint256",
          "name": "_debateId",
          "type": "uint256"
        },
        {
          "internalType": "uint8",
          "name": "_winAgentId",
          "type": "uint8"
        }
      ],
      "name": "resolveDebate",
      "outputs": [],
      "stateMutability": "nonpayable",
      "type": "function"
    },
    {
      "inputs": [
        {
          "internalType": "address",
          "name": "newOwner",
          "type": "address"
        }
      ],
      "name": "transferOwnership",
      "outputs": [],
      "stateMutability": "nonpayable",
      "type": "function"
    },
    {
      "inputs": [
        {
          "internalType": "uint256",
          "name": "_debateId",
          "type": "uint256"
        }
      ],
      "name": "userClaim",
      "outputs": [],
      "stateMutability": "nonpayable",
      "type": "function"
    },
    {
      "inputs": [
        {
          "internalType": "address",
          "name": "",
          "type": "address"
        }
      ],
      "name": "whitelist",
      "outputs": [
        {
          "internalType": "bool",
          "name": "",
          "type": "bool"
        }
      ],
      "stateMutability": "view",
      "type": "function"
    }
  ],
  "bytecode": "0x608060405234801561001057600080fd5b5060405161233a38038061233a833981810160405281019061003291906101e2565b80600073ffffffffffffffffffffffffffffffffffffffff168173ffffffffffffffffffffffffffffffffffffffff16036100a55760006040517f1e4fbdf700000000000000000000000000000000000000000000000000000000815260040161009c919061021e565b60405180910390fd5b6100b4816100bb60201b60201c565b5050610239565b60008060009054906101000a900473ffffffffffffffffffffffffffffffffffffffff169050816000806101000a81548173ffffffffffffffffffffffffffffffffffffffff021916908373ffffffffffffffffffffffffffffffffffffffff1602179055508173ffffffffffffffffffffffffffffffffffffffff168173ffffffffffffffffffffffffffffffffffffffff167f8be0079c531659141344cd1fd0a4f28419497f9722a3daafe3b4186f6b6457e060405160405180910390a35050565b600080fd5b600073ffffffffffffffffffffffffffffffffffffffff82169050919050565b60006101af82610184565b9050919050565b6101bf816101a4565b81146101ca57600080fd5b50565b6000815190506101dc816101b6565b92915050565b6000602082840312156101f8576101f761017f565b5b6000610206848285016101cd565b91505092915050565b610218816101a4565b82525050565b6000602082019050610233600083018461020f565b92915050565b6120f2806102486000396000f3fe6080604052600436106100c25760003560e01c80639b19251a1161007f578063f2fde38b11610059578063f2fde38b14610272578063f80f5dd51461029b578063fe43efda146102c4578063fe84d4b6146102ed576100c2565b80639b19251a146101f0578063b947979b1461022d578063ccc6268114610249576100c2565b806339938348146100c75780635b99a0121461010b578063715018a61461014857806378c8cda71461015f5780637a27fbb2146101885780638da5cb5b146101c5575b600080fd5b3480156100d357600080fd5b506100ee60048036038101906100e991906114c8565b61032f565b60405161010298979695949392919061153b565b60405180910390f35b34801561011757600080fd5b50610132600480360381019061012d91906114c8565b6103ab565b60405161013f9190611688565b60405180910390f35b34801561015457600080fd5b5061015d610479565b005b34801561016b57600080fd5b5061018660048036038101906101819190611702565b61048d565b005b34801561019457600080fd5b506101af60048036038101906101aa919061172f565b6104f0565b6040516101bc919061177e565b60405180910390f35b3480156101d157600080fd5b506101da61053e565b6040516101e7919061177e565b60405180910390f35b3480156101fc57600080fd5b5061021760048036038101906102129190611702565b610567565b6040516102249190611799565b60405180910390f35b610247600480360381019061024291906117e0565b610587565b005b34801561025557600080fd5b50610270600480360381019061026b919061185b565b610acb565b005b34801561027e57600080fd5b5061029960048036038101906102949190611702565b610d9f565b005b3480156102a757600080fd5b506102c260048036038101906102bd9190611702565b610e25565b005b3480156102d057600080fd5b506102eb60048036038101906102e691906114c8565b610e88565b005b3480156102f957600080fd5b50610314600480360381019061030f919061189b565b61115c565b604051610326969594939291906118ee565b60405180910390f35b60016020528060005260406000206000915090508060000160009054906101000a900460ff16908060000160019054906101000a900460ff16908060010154908060020154908060030160009054906101000a900460ff16908060030160019054906101000a900460ff16908060040154908060050154905088565b6103b361143d565b600060016000848152602001908152602001600020905080604051806101000160405290816000820160009054906101000a900460ff161515151581526020016000820160019054906101000a900460ff1660ff1660ff16815260200160018201548152602001600282015481526020016003820160009054906101000a900460ff1660ff1660ff1681526020016003820160019054906101000a900460ff1660ff1660ff16815260200160048201548152602001600582015481525050915050919050565b6104816111ec565b61048b6000611273565b565b6104956111ec565b6000600460008373ffffffffffffffffffffffffffffffffffffffff1673ffffffffffffffffffffffffffffffffffffffff16815260200190815260200160002060006101000a81548160ff02191690831515021790555050565b6003602052816000526040600020818154811061050c57600080fd5b906000526020600020016000915091509054906101000a900473ffffffffffffffffffffffffffffffffffffffff1681565b60008060009054906101000a900473ffffffffffffffffffffffffffffffffffffffff16905090565b60046020528060005260406000206000915054906101000a900460ff1681565b600084116105ca576040517f08c379a00000000000000000000000000000000000000000000000000000000081526004016105c1906119ac565b60405180910390fd5b60006001600087815260200190815260200160002090508060000160009054906101000a900460ff1615610633576040517f08c379a000000000000000000000000000000000000000000000000000000000815260040161062a90611a3e565b60405180910390fd5b84341015610676576040517f08c379a000000000000000000000000000000000000000000000000000000000815260040161066d90611aaa565b60405180910390fd5b8060030160009054906101000a900460ff1660ff168460ff16036106b457848160040160008282546106a89190611af9565b9250508190555061080e565b8060030160019054906101000a900460ff1660ff168460ff16036106f257848160050160008282546106e69190611af9565b9250508190555061080d565b60008160030160009054906101000a900460ff1660ff161480610729575060008160030160019054906101000a900460ff1660ff16145b610768576040517f08c379a000000000000000000000000000000000000000000000000000000000815260040161075f90611b79565b60405180910390fd5b60008160030160009054906101000a900460ff1660ff16036107c157838160030160006101000a81548160ff021916908360ff160217905550848160040160008282546107b59190611af9565b925050819055506107fa565b838160030160016101000a81548160ff021916908360ff160217905550848160050160008282546107f29190611af9565b925050819055505b8281600101819055508181600201819055505b5b60006002600088815260200190815260200160002060003373ffffffffffffffffffffffffffffffffffffffff1673ffffffffffffffffffffffffffffffffffffffff16815260200190815260200160002060008660ff16815260200190815260200160002090506000816002015411156108a357858160020160008282546108979190611af9565b925050819055506109fb565b6040518060c001604052808881526020013373ffffffffffffffffffffffffffffffffffffffff168152602001878152602001600081526020018660ff168152602001600015158152506002600089815260200190815260200160002060003373ffffffffffffffffffffffffffffffffffffffff1673ffffffffffffffffffffffffffffffffffffffff16815260200190815260200160002060008760ff1681526020019081526020016000206000820151816000015560208201518160010160006101000a81548173ffffffffffffffffffffffffffffffffffffffff021916908373ffffffffffffffffffffffffffffffffffffffff160217905550604082015181600201556060820151816003015560808201518160040160006101000a81548160ff021916908360ff16021790555060a08201518160040160016101000a81548160ff0219169083151502179055509050505b60036000888152602001908152602001600020339080600181540180825580915050600190039060005260206000200160009091909190916101000a81548173ffffffffffffffffffffffffffffffffffffffff021916908373ffffffffffffffffffffffffffffffffffffffff1602179055503373ffffffffffffffffffffffffffffffffffffffff16877fbfcd8f4e47cc529f86cdc7eab8fb80e015a298e021fcaee72df1f76dd57cf487878988604051610aba93929190611b99565b60405180910390a350505050505050565b60006001600084815260200190815260200160002090508060000160009054906101000a900460ff1615610b34576040517f08c379a0000000000000000000000000000000000000000000000000000000008152600401610b2b90611c1c565b60405180910390fd5b8060030160009054906101000a900460ff1660ff168260ff161480610b6f57508060030160019054906101000a900460ff1660ff168260ff16145b610bae576040517f08c379a0000000000000000000000000000000000000000000000000000000008152600401610ba590611c88565b60405180910390fd5b60018160000160006101000a81548160ff021916908315150217905550818160000160016101000a81548160ff021916908360ff160217905550600081600501548260040154610bfe9190611af9565b905060005b6003600086815260200190815260200160002080549050811015610d60576000600360008781526020019081526020016000208281548110610c4857610c47611ca8565b5b9060005260206000200160009054906101000a900473ffffffffffffffffffffffffffffffffffffffff16905060006002600088815260200190815260200160002060008373ffffffffffffffffffffffffffffffffffffffff1673ffffffffffffffffffffffffffffffffffffffff16815260200190815260200160002060008760ff168152602001908152602001600020905060008486600101546064610cf19190611cd7565b8360020154610d009190611d0b565b610d0a9190611d7c565b90508660ff168260040160009054906101000a900460ff1660ff1614610d3257505050610d60565b6000826002015482610d449190611af9565b9050808360030181905550505050508080600101915050610c03565b50837fce9132b398f004c2439d9df899fbaab5d9bb01c6dd02a720728f73eac95e578f84604051610d919190611dad565b60405180910390a250505050565b610da76111ec565b600073ffffffffffffffffffffffffffffffffffffffff168173ffffffffffffffffffffffffffffffffffffffff1603610e195760006040517f1e4fbdf7000000000000000000000000000000000000000000000000000000008152600401610e10919061177e565b60405180910390fd5b610e2281611273565b50565b610e2d6111ec565b6001600460008373ffffffffffffffffffffffffffffffffffffffff1673ffffffffffffffffffffffffffffffffffffffff16815260200190815260200160002060006101000a81548160ff02191690831515021790555050565b60006001600083815260200190815260200160002090508060000160009054906101000a900460ff16610ef0576040517f08c379a0000000000000000000000000000000000000000000000000000000008152600401610ee790611e14565b60405180910390fd5b60005b6003600084815260200190815260200160002080549050811015611005573373ffffffffffffffffffffffffffffffffffffffff16600360008581526020019081526020016000208281548110610f4d57610f4c611ca8565b5b9060005260206000200160009054906101000a900473ffffffffffffffffffffffffffffffffffffffff1673ffffffffffffffffffffffffffffffffffffffff1603156110055760016003600085815260200190815260200160002080549050610fb79190611cd7565b8103610ff8576040517f08c379a0000000000000000000000000000000000000000000000000000000008152600401610fef90611e80565b60405180910390fd5b8080600101915050610ef3565b5060008160000160019054906101000a900460ff1660ff16905060006002600085815260200190815260200160002060003373ffffffffffffffffffffffffffffffffffffffff1673ffffffffffffffffffffffffffffffffffffffff168152602001908152602001600020600083815260200190815260200160002090508060040160019054906101000a900460ff16156110d6576040517f08c379a00000000000000000000000000000000000000000000000000000000081526004016110cd90611f12565b60405180910390fd5b600081600301541161111d576040517f08c379a000000000000000000000000000000000000000000000000000000000815260040161111490611f7e565b60405180910390fd5b600061112833611337565b9050611138818360030154611341565b60018260040160016101000a81548160ff0219169083151502179055505050505050565b600260205282600052604060002060205281600052604060002060205280600052604060002060009250925050508060000154908060010160009054906101000a900473ffffffffffffffffffffffffffffffffffffffff16908060020154908060030154908060040160009054906101000a900460ff16908060040160019054906101000a900460ff16905086565b6111f4611435565b73ffffffffffffffffffffffffffffffffffffffff1661121261053e565b73ffffffffffffffffffffffffffffffffffffffff161461127157611235611435565b6040517f118cdaa7000000000000000000000000000000000000000000000000000000008152600401611268919061177e565b60405180910390fd5b565b60008060009054906101000a900473ffffffffffffffffffffffffffffffffffffffff169050816000806101000a81548173ffffffffffffffffffffffffffffffffffffffff021916908373ffffffffffffffffffffffffffffffffffffffff1602179055508173ffffffffffffffffffffffffffffffffffffffff168173ffffffffffffffffffffffffffffffffffffffff167f8be0079c531659141344cd1fd0a4f28419497f9722a3daafe3b4186f6b6457e060405160405180910390a35050565b6000819050919050565b80471015611384576040517f08c379a000000000000000000000000000000000000000000000000000000000815260040161137b90611fea565b60405180910390fd5b60008273ffffffffffffffffffffffffffffffffffffffff16826040516113aa9061203b565b60006040518083038185875af1925050503d80600081146113e7576040519150601f19603f3d011682016040523d82523d6000602084013e6113ec565b606091505b5050905080611430576040517f08c379a00000000000000000000000000000000000000000000000000000000081526004016114279061209c565b60405180910390fd5b505050565b600033905090565b604051806101000160405280600015158152602001600060ff1681526020016000815260200160008152602001600060ff168152602001600060ff16815260200160008152602001600081525090565b600080fd5b6000819050919050565b6114a581611492565b81146114b057600080fd5b50565b6000813590506114c28161149c565b92915050565b6000602082840312156114de576114dd61148d565b5b60006114ec848285016114b3565b91505092915050565b60008115159050919050565b61150a816114f5565b82525050565b600060ff82169050919050565b61152681611510565b82525050565b61153581611492565b82525050565b600061010082019050611551600083018b611501565b61155e602083018a61151d565b61156b604083018961152c565b611578606083018861152c565b611585608083018761151d565b61159260a083018661151d565b61159f60c083018561152c565b6115ac60e083018461152c565b9998505050505050505050565b6115c2816114f5565b82525050565b6115d181611510565b82525050565b6115e081611492565b82525050565b610100820160008201516115fd60008501826115b9565b50602082015161161060208501826115c8565b50604082015161162360408501826115d7565b50606082015161163660608501826115d7565b50608082015161164960808501826115c8565b5060a082015161165c60a08501826115c8565b5060c082015161166f60c08501826115d7565b5060e082015161168260e08501826115d7565b50505050565b60006101008201905061169e60008301846115e6565b92915050565b600073ffffffffffffffffffffffffffffffffffffffff82169050919050565b60006116cf826116a4565b9050919050565b6116df816116c4565b81146116ea57600080fd5b50565b6000813590506116fc816116d6565b92915050565b6000602082840312156117185761171761148d565b5b6000611726848285016116ed565b91505092915050565b600080604083850312156117465761174561148d565b5b6000611754858286016114b3565b9250506020611765858286016114b3565b9150509250929050565b611778816116c4565b82525050565b6000602082019050611793600083018461176f565b92915050565b60006020820190506117ae6000830184611501565b92915050565b6117bd81611510565b81146117c857600080fd5b50565b6000813590506117da816117b4565b92915050565b600080600080600060a086880312156117fc576117fb61148d565b5b600061180a888289016114b3565b955050602061181b888289016114b3565b945050604061182c888289016117cb565b935050606061183d888289016114b3565b925050608061184e888289016114b3565b9150509295509295909350565b600080604083850312156118725761187161148d565b5b6000611880858286016114b3565b9250506020611891858286016117cb565b9150509250929050565b6000806000606084860312156118b4576118b361148d565b5b60006118c2868287016114b3565b93505060206118d3868287016116ed565b92505060406118e4868287016114b3565b9150509250925092565b600060c082019050611903600083018961152c565b611910602083018861176f565b61191d604083018761152c565b61192a606083018661152c565b611937608083018561151d565b61194460a0830184611501565b979650505050505050565b600082825260208201905092915050565b7f416d6f756e74206d7573742062652067726561746572207468616e2030000000600082015250565b6000611996601d8361194f565b91506119a182611960565b602082019050919050565b600060208201905081810360008301526119c581611989565b9050919050565b7f4465626174652073657373696f6e20697320616c7265616479207265736f6c7660008201527f6564000000000000000000000000000000000000000000000000000000000000602082015250565b6000611a2860228361194f565b9150611a33826119cc565b604082019050919050565b60006020820190508181036000830152611a5781611a1b565b9050919050565b7f46656520616d6f756e74206973206e6f7420636f727265637400000000000000600082015250565b6000611a9460198361194f565b9150611a9f82611a5e565b602082019050919050565b60006020820190508181036000830152611ac381611a87565b9050919050565b7f4e487b7100000000000000000000000000000000000000000000000000000000600052601160045260246000fd5b6000611b0482611492565b9150611b0f83611492565b9250828201905080821115611b2757611b26611aca565b5b92915050565b7f426f7468206167656e74732061726520616c72656164792061737369676e6564600082015250565b6000611b6360208361194f565b9150611b6e82611b2d565b602082019050919050565b60006020820190508181036000830152611b9281611b56565b9050919050565b6000606082019050611bae600083018661151d565b611bbb602083018561152c565b611bc8604083018461152c565b949350505050565b7f44656261746520697320616c7265616479207265736f6c766564000000000000600082015250565b6000611c06601a8361194f565b9150611c1182611bd0565b602082019050919050565b60006020820190508181036000830152611c3581611bf9565b9050919050565b7f496e76616c6964206167656e7400000000000000000000000000000000000000600082015250565b6000611c72600d8361194f565b9150611c7d82611c3c565b602082019050919050565b60006020820190508181036000830152611ca181611c65565b9050919050565b7f4e487b7100000000000000000000000000000000000000000000000000000000600052603260045260246000fd5b6000611ce282611492565b9150611ced83611492565b9250828203905081811115611d0557611d04611aca565b5b92915050565b6000611d1682611492565b9150611d2183611492565b9250828202611d2f81611492565b91508282048414831517611d4657611d45611aca565b5b5092915050565b7f4e487b7100000000000000000000000000000000000000000000000000000000600052601260045260246000fd5b6000611d8782611492565b9150611d9283611492565b925082611da257611da1611d4d565b5b828204905092915050565b6000602082019050611dc2600083018461151d565b92915050565b7f446562617465206973206e6f74207265736f6c76656420796574000000000000600082015250565b6000611dfe601a8361194f565b9150611e0982611dc8565b602082019050919050565b60006020820190508181036000830152611e2d81611df1565b9050919050565b7f596f7520646964206e6f74206a6f696e656420696e2074686520626174746c65600082015250565b6000611e6a60208361194f565b9150611e7582611e34565b602082019050919050565b60006020820190508181036000830152611e9981611e5d565b9050919050565b7f596f75206861766520616c726561647920636c61696d6564207468652072657760008201527f6172640000000000000000000000000000000000000000000000000000000000602082015250565b6000611efc60238361194f565b9150611f0782611ea0565b604082019050919050565b60006020820190508181036000830152611f2b81611eef565b9050919050565b7f596f7520646964206e6f742077696e2074686520626574000000000000000000600082015250565b6000611f6860178361194f565b9150611f7382611f32565b602082019050919050565b60006020820190508181036000830152611f9781611f5b565b9050919050565b7f496e73756666696369656e742062616c616e636520696e20636f6e7472616374600082015250565b6000611fd460208361194f565b9150611fdf82611f9e565b602082019050919050565b6000602082019050818103600083015261200381611fc7565b9050919050565b600081905092915050565b50565b600061202560008361200a565b915061203082612015565b600082019050919050565b600061204682612018565b9150819050919050565b7f5472616e7366657220746f6b656e206661696c65640000000000000000000000600082015250565b600061208660158361194f565b915061209182612050565b602082019050919050565b600060208201905081810360008301526120b581612079565b905091905056fea264697066735822122060626fdae8bbae2da88fd54676b132d7f990876327b558003b75df5edf02685d64736f6c634300081c0033",
  "linkReferences": {},
  "deployedLinkReferences": {}
}